:020000040800F2
:10000000000003205D060008852300088723000800
:10001000892300088B2300088D23000800000000BE
:10002000000000000000000000000000217A00082D
:100030008F23000800000000B17A00084373000815
:10004000AD060008AD060008AD060008AD060008C4
:10005000AD060008AD060008AD060008AD060008B4
:10006000AD060008AD060008AD060008AD060008A4
:10007000AD060008AD060008AD060008AD06000894
:10008000AD060008AD060008AD060008AD06000884
:10009000AD060008AD060008AD060008AD06000874
:1000A000AD060008AD060008AD060008AD06000864
:1000B000AD060008AD060008AD060008AD06000854
:1000C000AD060008AD060008AD060008AD06000844
:1000D000AD060008AD060008AD060008AD06000834
:1000E000AD060008AD060008AD060008AD06000824
:1000F000AD060008AD060008AD060008AD06000814
:10010000AD060008AD060008AD060008AD06000803
:10011000AD060008AD06000891230008AD060008F2
:10012000AD060008AD060008AD060008AD060008E3
:10013000AD060008AD060008AD060008AD060008D3
:10014000AD060008AD060008AD060008AD060008C3
:10015000AD060008AD060008AD060008AD060008B3
:10016000AD060008AD060008AD060008AD060008A3
:10017000AD060008AD060008AD060008000000004E
:10018000AD060008AD060008AD060008AD06000883
:10019000AD060008AD060008AD060008AD06000873
:0C01A0009D230008AD060008A9230008FC
:1001B00010B5054C237833B9044B13B10448AFF3A1
:1001C00000800123237010BD800300200000000088
:1001D0006C45020808B5034B1BB103490348AFF354
:1001E000008008BD00000000840300206C45020868
:1001F00001F0FF01102A2BDB10F0070F08D010F8D8
:10020000013B013A8B422DD010F0070F42B3F6D1DB
:10021000F0B441EA012141EA014122F007047FF0F4
:1002200000070023F0E80256083C85EA010586EA4B
:10023000010685FA47F5A3FA87F586FA47F6A5FA87
:1002400087F68EB9EED1F0BC01F0FF0102F0070293
:1002500032B110F8013B013A83EA010313B1F8D13E
:100260000020704701387047002D06BF354603381F
:10027000073815F0010F07D1013015F4807F02BF58
:10028000013015F4C03F0130F0BC0138704700BFA9
:100290007BB972B90029BEBF00204FF0004106E0D3
:1002A00008BF00281CBF6FF000414FF0FF3000F086
:1002B000D3B9ADF1080C6DE904CE002909DB002BA0
:1002C0001ADB00F04DF8DDF804E0DDE9022304B0AC
:1002D0007047404261EB4101002B1BDB00F040F80E
:1002E000DDF804E0DDE9022304B0404261EB4101A6
:1002F000524263EB43037047524263EB430300F007
:100300002FF8DDF804E0DDE9022304B0404261EBA0
:1003100041017047524263EB430300F021F8DDF8DE
:1003200004E0DDE9022304B0524263EB430370476B
:1003300053B94AB9002908BF00281CBF4FF0FF314C
:100340004FF0FF3000F088B9ADF1080C6DE904CE34
:1003500000F006F8DDF804E0DDE9022304B07047A0
:100360002DE9F047089D8E4604468846002B4AD169
:100370008A42174662D9B2FA82F64EB1C6F120031C
:1003800001FA06F820FA03F3B74043EA0808B4403C
:100390004FEA174E1FFA87FCB8FBFEF1230C0EFB49
:1003A000118843EA084301FB0CF29A4209D9FB1871
:1003B00001F1FF3080F0EA809A4240F2E780023992
:1003C0003B449A1AA3B2B2FBFEF00EFB102243EAA2
:1003D000024300FB0CFC9C4509D9FB1800F1FF32DD
:1003E00080F0D6809C4540F2D3803B44023840EAFE
:1003F0000140A3EB0C0300211DB1F3400022C5E92D
:100400000032BDE8F0878B4205D90DB1C5E9000186
:1004100000210846F5E7B3FA83F1002946D1734578
:1004200002D3824200F20581841A6EEB030201209E
:100430009046002DE5D0C5E90048E2E7002A00F02B
:100440009080B2FA82F6002E40F0A4808A1A030C43
:100450004FEA174E80B2BCB20121B2FBFEFC0EFB8C
:100460001C2243EA024304FB0CF29A4207D9FB1810
:100470000CF1FF3802D29A4200F2E080C4469B1A87
:10048000B3FBFEF20EFB123340EA034302FB04F41B
:100490009C4207D9FB1802F1FF3002D29C4200F2C5
:1004A000CA8002461B1B42EA0C40A5E7C1F12006A8
:1004B0008B4022FA06F71F430EFA01F420FA06F3E6
:1004C0002EFA06FE4FEA1749234300FA01F81FFAF5
:1004D00087FCBEFBF9F01C0C09FB10EE44EA0E444D
:1004E00000FB0CFEA64502FA01F209D93C1900F105
:1004F000FF3A80F09C80A64540F2998002383C4447
:10050000A4EB0E041FFA83FEB4FBF9F309FB1344BA
:100510004EEA044403FB0CFCA44508D93C1903F142
:10052000FF3E80F08280A4457FD9023B3C4443EAF1
:100530000040A4EB0C04A0FB02EC64457346E146CA
:1005400062D35FD05DB1B8EB030264EB090404FA37
:1005500006F622FA01F31E43CC40C5E900640021EF
:100560004FE7B1FBF2FC010C41EA0E4180B240EAD8
:1005700001423B4638463C46B846BE462026B1FBC3
:10058000F7F1A2EB080241EA0C4166E7014618E7E1
:1005900010462CE7C6F120022EFA02F3B740B14014
:1005A00020FA02F24FEA174E0A43B3FBFEF8BCB240
:1005B0000EFB1833110C41EA034108FB04F9B0406B
:1005C00089454FEA104380B23ED9791808F1FF3CC3
:1005D00001D289451FD8A1EB0901B1FBFEF909FB46
:1005E00004F80EFB191192B242EA0142424529D2A7
:1005F000BA1809F1FF31C4D24245C2D2A9F10201B1
:100600003A44BEE7F0459DD2BEEB02036CEB070C0B
:100610000138E14696E7A7EB09094944A8F1020C25
:10062000B1FBFEF909FB04F8DBE773467FE75046B0
:1006300066E70846FDE63B44023A33E7ACF1020CBC
:100640003B441CE749469CE7A1EB0901C446B1FBCA
:10065000FEF909FB04F8C4E7704700BFDFF834D0A7
:10066000002103E00C4B5B58435004310B480C4B0A
:1006700042189A42F6D30B4A02E0002342F8043BA8
:10068000094B9A42F9D304F0B7FA23F001FA01F0CA
:10069000A9F8704700000320001B07080000002095
:1006A000640100208003002000700120FEE77047F5
:1006B00008B500F0BFFDBDE8084000F041BD00F006
:1006C000BBBD704710B50421044621F0F4FF20465D
:1006D00010BD000038B50C4B0C4C18800C4B822020
:1006E00019806368984740F6110398420AD1094D72
:1006F00023682C60822098472B688220DB6898470B
:10070000002038BD0120FCE7A60300204C0000209B
:10071000A4030020A80300204FF4A071F020FFF7ED
:10072000D9BF0000F7B5394D2B6804461B698220FC
:100730009847208000284ED02B680DF106025B6997
:1007400001A982209847324B1B78002B4BD0BDF873
:10075000062040F674639A423FD9ADF80630BDF8E2
:1007600006209B1A9BB20A2B42D90B22B3FBF2F351
:10077000284A1288934201D9013A93B2BDF8042065
:10078000254840F6B8318A4234D8C2F571620E323B
:10079000016892B20F25B2FBF5F2204D2D88AA42D6
:1007A00084BF05F1FF35AAB28A4215468EB22AD916
:1007B000921B91B21A4E3768BB42BAB28CBF9A1ADA
:1007C000D21A92B211440529C4BF05603360036890
:1007D00063803368A38003B0F0BDB32A9CBFB4220A
:1007E000ADF80620BBE7BDF80630A3F5B473B9E752
:1007F0000023C3E7C2F56D62083292B20E2A016887
:10080000C8D800252A46891A89B2D3E7A803002050
:100810002E520020A4030020A0030020A6030020E5
:100820009C03002037B568460D461446FFF77AFF53
:10083000BDF8000030B1BDF802302B60BDF80430C7
:100840002360012003B030BD032821D8DFE800F089
:10085000020B12190F4B1A68B2FA82F252090421E4
:100860000D4804F05DBC0B4B5A68B2FA82F2520993
:100870000821F5E7074B9A68B2FA82F25209102173
:10088000EEE7044BDA68B2FA82F252092021E7E778
:10089000704700BFAC03002000100240032821D89D
:1008A000DFE800F0020B12190F4B1A68003A18BF6C
:1008B000012204210D4804F033BC0B4B5A68003A66
:1008C00018BF01220821F5E7074B9A68003A18BFC4
:1008D00001221021EEE7044BDA68003A18BF01222A
:1008E0002021E7E7704700BFAC0300200010024062
:1008F00003280DD8DFE800F00206080A04210548A5
:1009000004F013BC0821FAE71021F8E72021F6E7EC
:10091000704700BF0010024008B5032811D8DFE877
:1009200000F0020A0C0E0421074804F0F3FB431EFA
:100930005842584108BD0821F6E71021F4E720216C
:10094000F2E70020F3E700BF0010024070B5084D49
:1009500000240126E0B2FFF7DFFF18B12B68012B5E
:1009600018BF2E600134052C05F10405F2D170BDCD
:10097000AC030020012380F8781080F879307047AC
:100980007047002070470000034B4164003918BFD6
:1009900001211970704700BFBF620120704700201D
:1009A0007047836B0BB10846184770474FF6FF70CE
:1009B0007047406803689B691847704770477047E5
:1009C0007047704710B5044600F04CFD236803499A
:1009D000D3F890302046BDE810401847000000D002
:1009E00008B503680446D3F8843098472368204646
:1009F000DB6F984700F0ECF8236820465B6F984760
:100A0000292001F0A9F900F0E3F8236820465B6F84
:100A10009847F8E710B5044609F0FAFD2368204628
:100A2000D3F8BC30BDE81040184700F0FFBC00F020
:100A300003BD00F035BD00F0D5BC00F045BD00F0B1
:100A40004DBD00F0D9BC09F011B810B584210446A1
:100A500021F031FE204610BD10B590F8341090F80A
:100A600078400C4B8C421A7809D03AB90A4A0B49A3
:100A70001488088810800C8001221A7010BD002A8A
:100A8000FCD0054A05491488088810800C80002293
:100A9000F3E700BFB8620120B4620120B662012012
:100AA00070B50D46194635B9094B0A4A0A4840F255
:100AB000FF2122F03DFDC0E90F52084B003A18BF5C
:100AC00001221A700368BDE87040D3F890301847CF
:100AD0009C460208D446020822470208BE62012052
:100AE00008B5094B1B888B4203D8084B1B889342DF
:100AF00005D9074B074A0848A32122F019FD074BE7
:100B00001980074B1A8008BDB4620120B66201202B
:100B100067470208CA47020822470208BA62012052
:100B2000BC620120034690F87A0018B15868036847
:100B30001B68184770470000012108B500220846CD
:100B400006F088FC0A4B186028B90A4B0A4A28218B
:100B50000A4822F0EDFC00220421012006F019FDD4
:100B6000074B186018B9074B034A2C21F0E708BD62
:100B7000C00300200D4802085648020885480208B4
:100B8000BC030020CD480208024B4FF0FF3118682B
:100B900006F0AABCC0030020014B186806F0D0BCC8
:100BA000C0030020024B0021186806F09DBC00BF66
:100BB000C0030020FFF7F0BF03480449006800238A
:100BC0001A4606F021BD00BFBC030020040000202F
:100BD00013B5084C00231A4601A9206806F045FD0C
:100BE00020684FF0FF33002201A906F03EFD02B05D
:100BF00010BD00BFBC03002003685B6C18470120D8
:100C0000704703689B6A1847FEE740F2EF30704771
:100C1000054B0360054B4FF08062C3F88820BFF39B
:100C20004F8FBFF36F8F7047A455020800E100E0BB
:100C300010B504464FF45A61FFF7EAFF204621F051
:100C40003AFD204610BD000082B0002301930E4BF8
:100C50001A6B42F400021A631A6B02F4000201924A
:100C6000019A1A6942F400021A611A6922F4000218
:100C70001A61064B064A1A61064A5A61064B4FF042
:100C800080629A6002B07047003802401054002021
:100C9000E90E0008090C000800E100E008B50A2888
:100CA00009D8DFE800F006100E0808080810101038
:100CB0001000022008BD054B054A0648902122F08D
:100CC00037FC0020F6E70120F4E700BF0F490208D7
:100CD0002A4902087549020838B50C46887FFFF793
:100CE000DDFFA58AE28A164B2169586342EA054274
:100CF0005A64628BD963521B1A642568082D0ED181
:100D00009A611A615862207F0E4A42EA0062DA61F3
:100D1000E2681A620C4A5961D9601A6038BD002233
:100D2000D8611A61E1680A0A480902F4784200F4BD
:100D3000FC600243C1F3C4010A439A63034AECE72F
:100D400000B002400900010001230200012303005A
:100D500008B50B280BD8DFE800F00612100A0A0AC3
:100D60000A0808080808022008BD0520FCE7054B12
:100D7000054A06486F2122F0DBFB0020F4E7012042
:100D8000F2E700BF0F490208BB4902087549020893
:100D90002DE9F04191F81D800C464046FFF7D8FF41
:100DA000A77F05463846FFF7D3FF06463846FFF7CC
:100DB00075FFA18A628B444B521A1A649A61228B86
:100DC000521A1A61E28A586342EA01425A6421695E
:100DD0006268D963DA602068802828D0227F0FD823
:100DE000202867D0402865D004281AD0364B45EA21
:100DF000026545F40035B845DD6161D0334A44E011
:100E0000B0F5807F04D0B0F5007FEFD1304800E02E
:100E1000304840EA0262DA61E2681A625E62596151
:100E200032E045EA026242F40032DA61F6E7A06895
:100E3000021DDA62227F45EA026545F40035DD6174
:100E40005E625961017841B1012921D0224B234AC8
:100E500023484FF48D7122F06BFBDA69418822F44C
:100E60007F42013922F0100242EA0122DA610121B7
:100E7000154BDA6942F02002DA61DA699206FCD495
:100E800010229A600029B9D0164A1A60BDE8F08194
:100E9000B2F1FF01DA69408822F47F4200F1FF30AD
:100EA00022F0100242EA002242F0100218BF012193
:100EB000DA61DDE745EA0262034B42F40032B4E74F
:100EC00042F20132E1E700BF00B00240012301001D
:100ED000090002000A000200054A02081F4A02082F
:100EE0007549020801230200024B1B685868036819
:100EF0005B691847C062012070B5044625460A4B5D
:100F00000C30002660602672667245F8203B602235
:100F1000294609F0D3FC04F55A63EE6024359D425E
:100F2000FBD1204670BD00BFA4550208034B1A68D0
:100F3000D207FCD423229A60704700BF00B0024061
:100F40007047000030B50F4C2568ED07FCD4232511
:100F50000904A56041F001010225FF2B656361646E
:100F6000E0630AD00849656241EA0363E361074B25
:100F700022626061E060236030BDE561039BA36392
:100F8000034BF8E700B00240090001000100020035
:100F90000100030030B50E4C2568ED07FCD4232575
:100FA0001204A56042F001020225FF2B6563626412
:100FB000E063E16008D01B0643F00213E361054BD8
:100FC00065626061236030BD034BE3610123F9E793
:100FD00000B0024001000200020002FF30B50B4CDD
:100FE0002568ED07FCD4232512041B06A56043F4F5
:100FF0000033022542F0010265636264E063E16050
:10100000E361034B65626061236030BD00B0024064
:10101000010002000120704714207047142303FBD5
:10102000010008307047142303FB010008307047AB
:101030000120704743F61850704743F6185303FBDE
:1010400001000830704743F6185303FB01000830D5
:101050007047012070471020704700EB01100830E6
:10106000704700EB011008307047084601F01CBCC7
:1010700010B5034B0360044608F04DFA204610BD3E
:101080005C56020810B50446FFF7F2FF20461C210B
:1010900021F011FB204610BD10B5034B0360044640
:1010A00008F039FA204610BD2856020810B504464B
:1010B000FFF7F2FF204643F6205121F0FCFA2046CC
:1010C00010BD000010B5034B0360044608F023FA7E
:1010D000204610BDF455020810B50446FFF7F2FF94
:1010E0002046182121F0E7FA204610BD10B5094B23
:1010F0000360044600F575500C30FFF7B9FF04F1AA
:101100002C00FFF7C9FF04F11400FFF7DBFF2046B6
:1011100010BD00BF9056020808B50248FFF7E6FF71
:1011200008BD00BF9C12002010B50446FFF7DEFF8B
:10113000204643F6C86121F0BEFA204610BD0000EB
:101140002DE9F34101F0A4F9054601F0A5F90024C9
:101150000146234628462246009412F019FA274BEE
:10116000274A1A60204602F0A7FB264D264B274A45
:1011700027489A6012F074F92B68BFF35B8FDB0786
:1011800036D4284621F099FA90B3224C224F234BB3
:10119000236007F1200604F1140004F12C086060BC
:1011A000C4F80880E760266108F0B6F91C4B63615B
:1011B000404608F0B1F91B4BE362384608F0ACF941
:1011C00004F5405303F66850174AC3F84C2D02F05B
:1011D000F7FB224607F11C01304602F0E7FB3046E0
:1011E00001F062FB114822F0C1F9284621F071FAA2
:1011F0000F4802B0BDE8F041FFF7E4BB24630120D3
:101200004804002098120020680400204C040020AC
:10121000080000209C120020E84F00209056020891
:10122000F4550208285602085C56020819110008F5
:10123000C4030020704700000148FFF7D1BB00BF86
:10124000C403002070B5264E264C274D274B236043
:101250003046FFF751FE284617F0A0FA24480FF059
:1012600085FE244B2448DC6000224FF48071C3E9E2
:10127000121222491A86C3E91A12214983F858200A
:10128000C3E91E011F49C3F880101F491F480B60A6
:10129000F021C3E90422C3E90622C3E90822C3E915
:1012A0000A22C3E90E22C3E91022C3E91422C3E9CA
:1012B00017225A6683F870205A67C3E901650180D6
:1012C0001348018013484FF4A07101801248018037
:1012D00012490A70012283F83420114A1A6070BD45
:1012E000F404002094120020680400208C460208B8
:1012F0004C040020C4030020000001010100000193
:10130000000450001A001400C0620120B4620120E1
:10131000BA620120B6620120BC620120B8620120DD
:10132000B85402080148FFF773BC00BFF404002062
:101330000020704781807047C180704701817047ED
:10134000418170477047704770477047704710B4CD
:10135000C4880368121B84885B6D091B12B25DF898
:10136000044B09B218474FF6FF7383814FF0FF33E8
:1013700003621368C36110607047002070478B8858
:10138000838001207047704780F82610704790F8DE
:101390002600704710B50022B1F90840B1F90A10D3
:1013A000028042808480C18010BD00220280428081
:1013B0008280C28070470177704780ED080A7047CD
:1013C00080F82410704780F825107047012070477E
:1013D000983070478C307047843070477047704742
:1013E00070470000034B902283F85A2383F8582358
:1013F000704700BF00E100E0094A0A49D3680A4883
:10140000C3F30A03013B9BB20B801169C1F30A01CC
:10141000013901801364536B43F001035363704738
:10142000006801406651002064510020014BD3F850
:10143000AC00704700680140024B0122C3F8AC10B9
:101440005A6270470068014010B52C21044621F013
:1014500032F9204610BD10B5BC21044621F02BF90D
:10146000204610BD70B5044608F055FB23689D6EFC
:101470000EF0ECFA01462046A8472368054AD3F847
:101480008C502046AC460023BDE87040A2F51631D2
:10149000604700BF00B004D008F024BB08F02EBBAA
:1014A00008F0EABA08F059BC90F8252012B1036898
:1014B0005B691847704790F825201AB190F82420EE
:1014C00002B1186070470000034B4FF080629A60D1
:1014D0004FF080729A60704700E100E0084B4FF0D7
:1014E0008062C3F88820BFF34F8FBFF36F8F4FF038
:1014F0008072C3F88820BFF34F8FBFF36F8F7047A0
:1015000000E100E070B50023124E8380124B0360AF
:10151000336893F8582005460AB1D86C00B998682A
:101520000368DB6A98473368B0FA80F4D86C6409C2
:1015300030B10368DB6A9847002808BF44F0010413
:101540002CB9064B064A07482C2121F0F1FF28460A
:1015500070BD00BFC0620120A45602085D4A0208A7
:10156000BB4A0208F44A020870B5254E3568BFF33D
:101570005B8F15F0010540D1304621F09EF8002820
:101580003BD0204C204B256104F13400C4E90035E8
:10159000C4E90255E584A562A5850FF0CCFF04F1EE
:1015A00058000AF041FE194BA3652046184B40F83D
:1015B000843BFFF7A7FF174BC4F884302433C4F8EB
:1015C0008C304FF4C803C4E928350023C4F8AC308C
:1015D000C4F8B030C4F8B430C4F8B8300E480F4B7B
:1015E000C4F89050C4F89C50C4F8A850C4F898307F
:1015F00021F0BCFF304621F06CF8024870BD00BFFE
:10160000685100206C510020485F0208C45602084F
:101610003C570208FC5E0208E1130008DC5E020889
:1016200038B5184C23685BB3174B184A1B6C1188EC
:101630008B4216D1164B198804F05CFB236893F893
:101640006A200025013283F86A2083F87C50FFF776
:10165000B3FA206808F0DCFF2846BDE83840FFF701
:10166000F3B804F047FB2468236820461B6A9847B8
:10167000012384F87C300020BDE83840FFF70EB924
:1016800038BD00BFC06201200068014066510020E3
:101690006451002007B5064BADF806001B680548ED
:1016A00001220DF1060105F0D5F803B05DF804FB49
:1016B0000C000020BC52002008B5642005F0BEFEDE
:1016C000FBE700002DE9F3411E4E1F4FDFF87C8041
:1016D000002500234FF4805130468DF8073003F089
:1016E00019FDC0B941238DF807309DF8074064B15A
:1016F000AC420BD000231A46D8F800000DF10701C8
:1017000005F082FF9DF8073003B900240A2005F098
:1017100095FE2546DDE74FF40051304603F0FAFC14
:1017200008B94223DFE74021384603F0F3FC08B94B
:101730004523D8E78021384603F0ECFC0028D4D1BB
:101740004323D0E700040240000C02403052002046
:1017500030B595B0102200210AA822F0F0F800213F
:10176000142203A822F0EBF800241C4B01941A6CFD
:1017700042F080521A641B6C03F080530193019B6A
:10178000174B02941A6842F440421A601B6803F433
:1017900040430293029B01224FF48033CDE908239A
:1017A00002254FF48003B422CDE90E5308A8042388
:1017B000CDE91032CDE9125304F0F4FA04F0B8FA8E
:1017C0000F23CDE9033505214FF4A05303A8CDE93C
:1017D0000633059404F0C2FC15B030BD0038024059
:1017E000007000402DE980489BB003F013FAFFF72A
:1017F000AFFF142200210DA822F0A1F80024C94B4C
:1018000000941A6BC84842F010021A631A6B02F077
:1018100010020092009A01941A6B42F020021A639F
:101820001A6B02F020020192019A02941A6B42F0A4
:1018300080021A631A6B02F080020292029A0394E9
:101840001A6B42F004021A631A6B02F0040203924C
:10185000039A04941A6B42F001021A631A6B02F0A5
:1018600001020492049A05941A6B42F002021A6370
:101870001A6B02F002020592059A06941A6B42F066
:1018800040021A631A6B02F040020692069A07940D
:101890001A6B42F008021A631B6B03F0080322461E
:1018A00007933C21079B03F03BFCA0480122022147
:1018B00003F036FC22469D48042103F031FC224609
:1018C0009B484FF4405103F02BFC01263C23CDE90B
:1018D0000D3695480F9403230DA90227109303F0AA
:1018E00035FB92480DA9CDE90D76CDE90F4403F003
:1018F0002DFB04238D480DA9CDE90D36CDE90F4709
:101900004FF4405503F022FB8A480F960DA9CDE90C
:101910000D5403F01BFB86480DA9CDE90D56CDE90A
:101920000F4703F013FB0DA9C02381480F96CDE9A3
:101930000D3403F00BFB8048804B814D036003F0B6
:10194000FBF9DFF820C27F4B2C62C5E900C32846B3
:101950004FF48043C5E90434C5E90244C5E90644AF
:1019600003F0ECFD1021284604F030F8214628460B
:1019700004F04BF8744DDFF8F0E1AC624FF4827381
:10198000C5E900E34FF400781823C5E9068328462B
:101990000A23C5E90244C5E90444C5E90844EB62E9
:1019A00004F0FCFE8F232246394660488DF824302F
:1019B0008DF8344003F0B4FB32464FF47A7309A932
:1019C000284604F047FF4FF47A7332460DA92846A3
:1019D00005F0ECF83246394654485C4D03F0A0FB64
:1019E0009DF83430D32B04BF594B1E70594B012640
:1019F000C5E900364FF0100840230024C5E90483F0
:101A00004FF4C073C5E906344FF40063C5E90834E8
:101A10004FF4005302274FF0040AAB624FF0030B60
:101A200007230DA92846CDE90D73CDE90FA34FF08B
:101A30000809C5E9024ACDE911B7139704F092FDF0
:101A40004FF6FF7209A92846CDE90A96089409962F
:101A50000C9404F0A7FD304603F008F94FF6FF722E
:101A600009A92846CDE90979CDE90B6404F09AFD6E
:101A70004FF6FF7209A92846CDE909B9CDE90BA4B3
:101A800004F090FD4FF40C730893089B0C934FF6F1
:101A9000FF7209A92846CDE909A90B9604F082FD39
:101AA00040F26A51284604F09BFD342221460DEB9A
:101AB000020021F044FF284D284B2C61C5E9003479
:101AC0000923C5E905361D23C5E9073B40F20D1280
:101AD00040F24313C5E9092340F2171140F24713BE
:101AE0002846C5E90B13C5E90244AC8685F83640A3
:101AF00004F01EF8FF21F022CDE912144FF48060AB
:101B000005214FF4A073CDE91401CDE90E240DA9F0
:101B1000CDE9164228462246CDE91037104D1893DC
:101B200024E000BF003802400010024000080240DC
:101B3000000C0240000402405054002000300240DB
:101B4000BC530020A0860100BC520020405200205F
:101B50002E520020400100A01453002000680140D4
:101B600028520020005C0040005001400D94ADF868
:101B700064408DF8664004F08FF82A4B2B601B6898
:101B800098472B68284DDB689847284B2846C5E9BD
:101B90000034C5E90274C5E90A47C5E90C44244F7D
:101BA00003F0DAF831462846224D03F08BF94FF462
:101BB000E133C5E9007328460C23C5E90534C5E9BE
:101BC00002442C61EC6105F0A7FA4FF0FF331A498B
:101BD0001122284605F0CFFAFEF76AFDFEF767FDF1
:101BE00005F0BCFB154A3146404605F0D2FC144BCB
:101BF000144A18602146144805F0DCFB134B144AC4
:101C000018602146134805F0D5FB134B134A1860A2
:101C10002146134805F0CEFB124B186005F0B0FBCF
:101C2000FEE700BF140000201054002000B0024066
:101C30000010014074520020564B020880570208E1
:101C400030520020E0570208B91600083C5200202C
:101C5000BC570208BF0600083852002098570208F7
:101C6000C516000834520020704770477FB5094BF5
:101C70008DF817201B6802930DF1170201230092C3
:101C800001930A460146044803F000FD07B05DF8E1
:101C900004FB00BF10000020BC5300207FB50023D0
:101CA0008DF81730084B1B6802930A4601230DF18B
:101CB0001701009101930146044803F077FD9DF858
:101CC000170007B05DF804FB10000020BC53002093
:101CD0001FB5084C24680092CDE901340A4601235F
:101CE0000146054803F062FD003818BF012004B02A
:101CF00010BD00BF10000020BC53002002F0B6BF92
:101D000010B5064C00222046042103F009FA2046B3
:101D10000122BDE81040042103F002BA000802408D
:101D200038B50B4D044601220A484FF4005103F028
:101D3000F7F900220421284603F0F2F92046FFF7C4
:101D4000A9FC28460122BDE83840042103F0E8B987
:101D500000080240000C024038B50B4D044600223A
:101D60000A484FF4005103F0DBF900220421284611
:101D700003F0D6F92046FFF78DFC28460122BDE886
:101D80003840042103F0CCB900080240000C0240A6
:101D9000F7B5144E144F05460C4630460022042178
:101DA00003F0BEF900224FF40051384603F0B8F9B1
:101DB0002846FFF76FFC0D4B0D481B68224601A912
:101DC00004F0F4FE384601224FF40051019C03F068
:101DD000A7F930460122042103F0A2F9204603B0FE
:101DE000F0BD00BF00080240000C02400C000020C3
:101DF000BC52002002F03ABF0268034B9A4201D164
:101E000002F022BF704700BF001000407047000082
:101E100082B00E4B00220092596C41F4804159640B
:101E2000596C01F48041009100990192196C41F0C4
:101E3000805119641B6C03F080530193019B0F21A7
:101E40006FF0010002B002F037BF00BF003802405F
:101E50000268094B9A4282B00BD100230193074BD1
:101E60001A6B42F480521A631B6B03F48053019384
:101E7000019B02B0704700BF0030024000380240B2
:101E800007B50F4B02689A4216D10022A3F5F04322
:101E90000192196B41F4000119631B6B03F40003F9
:101EA000019305215A20019B02F006FF5A2003B03E
:101EB0005DF804EB02F032BF03B05DF804FB00BF35
:101EC00000B002402DE9F043044689B014220021FD
:101ED00003A821F034FD2268244B9A4243D1244CBC
:101EE000244800250095236B43F004032363236BF0
:101EF00003F004030093009B0195236B43F001035F
:101F00002363236B03F001030193019B4FF012093C
:101F10004FF400734FF001080327042603A9CDE90D
:101F20000339CDE90587079603F010F84FF4807365
:101F30001148079603A9CDE90339CDE9058703F0D8
:101F400005F80295236C43F400032364236C03F427
:101F500000030293029B236A43F400032362236A73
:101F600023F40003236209B0BDE8F083005C004065
:101F7000003802400008024000000240F0B599B06D
:101F800004461422002107A821F0D9FC30220DEBD1
:101F90000200002121F0D3FC22685E4B9A4240F0FF
:101FA000B78008230C93C0231093042312930CA82A
:101FB0004FF40033159304F0A9F908B1FFF726FF99
:101FC000554B5648002400945A6C42F080625A6483
:101FD0005A6C02F080620092009A01941A6B42F0EF
:101FE00020021A631A6B02F020020192019A0294F5
:101FF0001A6B42F001021A631A6B02F0010202929C
:10200000029A03941A6B42F002021A631A6B02F0EE
:1020100002020392039A04941A6B42F040021A637C
:102020001A6B02F040020492049A05941A6B42F073
:1020300004021A631A6B02F004020592059A0694D0
:102040001A6B42F008021A631B6B03F00803069335
:1020500002250E26069B0B964FF4806307A9CDE957
:102060000735CDE9094502F071FF41F658032C48C8
:102070000B9607A9CDE907350927CDE9094502F0F7
:1020800065FF032327480B9707A9CDE90735CDE95D
:10209000094502F05BFF4FF4706322480B9607A9D5
:1020A000CDE90735CDE9094502F050FF4FF40C6347
:1020B0001D480B9607A9CDE90735CDE9094502F082
:1020C00045FFC02319480B9607A9CDE90735CDE98F
:1020D000094502F03BFF082315480B9607A9CDE9F7
:1020E0000735CDE9094502F031FF4FF4A0530E4802
:1020F0000B9707A9CDE90735CDE9094502F026FF81
:1021000058202246052102F0D7FD582002F006FE95
:1021100019B0F0BD006801400038024000140240D0
:102120000000024000040240001802400008024083
:10213000000C024010B5044688B01422002103A808
:1021400021F0FDFB2268144B9A4223D103F568432A
:10215000002101915A6C114842F480125A645A6C61
:1021600002F480120192019A02911A6B42F020024D
:102170001A631B6B03F020030293029B4FF46072FF
:1021800002230321CDE903230523CDE9061303A987
:1021900002F0DCFE08B010BD005001400014024007
:1021A00010B5044688B01422002103A821F0C7FB13
:1021B0002268144B9A4223D103F5943300210191F4
:1021C0005A6C114842F010025A645A6C02F0100224
:1021D0000192019A02911A6B42F001021A631B6B81
:1021E00003F001030293029B4FF4C0620223032118
:1021F000CDE903230723CDE9061303A902F0A6FEC8
:1022000008B010BD00100140000002402DE9F0416F
:1022100086B0002303932B4B1C68002C4FD14FF04A
:102220000108C3F80080284B00949A6B274842EAC3
:1022300008029A639B6B03EA0803009302270326B4
:102240000C25009B01A94FF63F03CDE90137CDE9ED
:10225000046502F07BFE1E48059501A9CDE90187C2
:10226000CDE9034602F072FE48F233131948059592
:1022700001A9CDE90137CDE9034602F067FE4FF62B
:1022800083731548059501A9CDE90137CDE90346CA
:1022900002F05CFE4CF203731048059501A9CDE9EC
:1022A0000137CDE9034602F051FE60230C48059545
:1022B00001A9CDE90137CDE9034602F047FE06B09A
:1022C000BDE8F0815854002000380240001402405C
:1022D000000802400018024000100240000C0240BA
:1022E0000004024070B588B000230293204B1A6CA2
:1022F00042F010021A641B6C03F0100302930546AF
:1023000001A903A8029B03F0E3FF069B4BBB03F06C
:10231000BFFF184E184B336040F2E733F360174BA2
:10232000B0FBF3F3013B7360304600233361B360CD
:10233000B36104F005FE044680B9304604F0DAFCCF
:10234000044658B9362002F0E9FC0F2D0DD822467C
:102350002946362002F0B0FC094B1D60204608B02B
:1023600070BD03F095FF4000D3E70124F6E700BFFE
:10237000003802405C5400200010004040420F0032
:102380007C0000207047FEE7FEE7FEE7FEE77047AF
:10239000014804F0EDBC00BF5C540020014803F08C
:1023A0001EBC00BF14530020014802F001BD00BF55
:1023B000105400200120704708B521F063FB16235C
:1023C00003604FF0FF3008BD08B521F05BFB16231A
:1023D0000360FEE770B50D4614460E46731B9C4223
:1023E00001DC204670BDAFF3008006F8010BF5E775
:1023F00070B50D4614460E46731B9C4201DC204608
:1024000070BD16F8010BAFF30080F5E74FF0FF3019
:1024100070474FF400534B60002070470120704715
:10242000002070470A4A116808B5034609B90949EE
:1024300011601068694603448B4206D921F022FBE3
:102440000C2303604FF0FF3008BD1360FCE700BFB2
:10245000A454002000700120704710B504210446E8
:1024600020F029F9204610BD012908B506D002291F
:1024700008D059B901F06CFA006808BD01F068FA9B
:102480004068FAE701F064FA8068F6E70020F4E7B4
:1024900000487047185802081420704713B50024EC
:1024A00051B1036801948DF8034001AA9C680DF1B5
:1024B0000303A04702B010BD0846FBE7C089704780
:1024C000008A7047C088704780887047807A00F023
:1024D0007F007047807AC009704700207047000075
:1024E0009FED010A704700BF00000000704710B563
:1024F0000821044620F0DFF8204610BD70477047E1
:1025000000F598730868496803C3704770477047BF
:102510004160704770477047064BC0F84C3100234C
:10252000C0F8503100F5A273C0F84801C0F840313E
:10253000704700BF7526000801230372704770477B
:10254000704770477047704710B4C26841685410B4
:10255000034601EB6200D20748BF0A599B685DF849
:10256000044B48BFD35818470346406830B19A68B7
:102570001AB9D86800F0010070470120704710B503
:102580001421044620F097F8204610BD10B50C2108
:10259000044620F090F8204610BD10B510210446E6
:1025A00020F089F8204610BD10B54FF4AE710446F6
:1025B00020F081F8204610BD10B50DF047FA0368F1
:1025C000BDE81040DB6B184770B50446B2B01E4939
:1025D000C02202A821F083FA237C2F2B03D90123E8
:1025E000237232B070BD33B9184B1B781BB10DF09C
:1025F0002DFA0DF031FA0225237C302BF1D832AAC6
:1026000002EB8303E68953F8C03C608993FBF6F242
:1026100006FB123313FB00F3ADF804006068A189D8
:10262000ADF800300368ADF8061012FB01F21B692B
:10263000ADF8022069469847237C012D03F1010380
:102640002374CED00125D7E784450208BE6201205D
:1026500010B50446D0F8400158B10368DB689847CC
:1026600038B1D4F8400103689B6898470023C4F848
:10267000403110BD2DE9F14FD0E9556A0746B068E9
:1026800003681B6A9847DB2805D8444B444AA321BA
:10269000444820F04DFF706803681B6A98470F2874
:1026A00003D8414B3E4AA421F2E7F06803681B6A55
:1026B00098470B2803D83D4B394AA521E8E70DF090
:1026C000C5F9DFF8F09004300DF00DFAD9F80000EC
:1026D00010B10368DB689847D9F8000010B10368AF
:1026E0001B689847DFF8D080D8F8000010B1036865
:1026F0005B699847D7F83C0110B103685B6898475D
:10270000D8F8000010B103681B689847D7F83C015F
:1027100010B103689B689847F068036800215B6A02
:1027200098474FF0000B224BC0F804B0044680F8E5
:1027300008B00360B068036859465B6A984705466D
:1027400001F01CFF7068036859465B6A9847294688
:10275000064601F0F3FE331DC7F83C61C9F800409E
:10276000C8F80050CAF800302B68C6F808A0284600
:10277000DB68EE639847336830461B68984721460C
:1027800028460FF05DFB236820461B6998472368A5
:102790005B69204601B0BDE8F04F1847934B020833
:1027A000214C0208F34C02083A4D0208DD4D0208A4
:1027B0002C5A02080863012004630120044B1B68A3
:1027C00093F858200AB1D86C00B99868704700BFD8
:1027D000C062012000230F4A436003720260037449
:1027E0000D4A0E4B12881B8893420BD907330621E2
:1027F0000532DB08B2FBF1F2082192B243818281FB
:10280000C1817047073205330621D208B3FBF1F3CB
:102810009BB2F3E7505A0208B6620120B46201206D
:10282000F8B5174604460E460DF0FAF9124B1C6037
:10283000124B2360124B0025C4E95135114BC4E9FA
:1028400053551868036801219B68C4E94F55C4E9D2
:1028500055769847284601F02FF8FFF7AFFF17F09D
:1028600046FEFFF7ABFF17F0BDFEFFF7A7FF17F01F
:10287000C5FE2046F8BD00BF14630120D8590208E8
:10288000C0590208C0620120064BC0F84C31002339
:10289000C0F8503100F5A273C0F84801C0F84031CB
:1028A000704700BF7D2B0008064BC0F84C31002359
:1028B000C0F8503100F5A273C0F84801C0F84031AB
:1028C000704700BF75260008064BC0F84C31002346
:1028D000C0F8503100F5A273C0F84801C0F840318B
:1028E000704700BF492A0008064BC0F84C3100234E
:1028F000C0F8503100F5A273C0F84801C0F840316B
:10290000704700BF1129000803685B6A1847000080
:102910002DE9F047D0E9556A0746B06803681B6A9D
:102920009847B0F5887F05D2404B414AA3214148E2
:1029300020F0FEFD706803681B6A98470F2803D8D3
:102940003D4B3B4AA421F2E7F06803681B6A9847B5
:10295000132803D8394B364AA521E8E70DF076F85D
:10296000DFF8DC9004300DF0BEF8D9F8000010B1AB
:102970000368DB689847D9F8000010B103681B684A
:102980009847DFF8C080D8F8000010B103685B6991
:102990009847D7F83C0110B103685B689847D8F8AE
:1029A000000010B103681B689847D7F83C0110B1CC
:1029B00003689B6898470021F068FFF7A5FF04466D
:1029C000FFF708FFB068036800215B6A9847054677
:1029D00001F02EFE7068036800215B6A9847294663
:1029E000064601F003FE331DC7F83C61C9F80040FC
:1029F000C8F80050CAF800302B68C6F808A028466E
:102A0000DB68EE639847336830461B689847214679
:102A100028460FF015FA236820461B69984723685B
:102A200020465B69BDE8F047184700BF934B02089A
:102A3000804E0208F34C02083A4D0208DD4D0208B0
:102A400008630120046301202DE9F047D0E9556AAD
:102A50000746B06803681B6A9847DB2805D8404BD7
:102A6000404AA321404820F063FD706803681B6A58
:102A700098470F2803D83D4B3A4AA421F2E7F06863
:102A800003681B6A9847132803D8394B354AA52198
:102A9000E8E70CF0DBFFDFF8DC9004300DF023F802
:102AA000D9F8000010B10368DB689847D9F8000036
:102AB00010B103681B689847DFF8BC80D8F80000A5
:102AC00010B103685B699847D7F83C0110B10368FF
:102AD0005B689847D8F8000010B103681B689847F6
:102AE000D7F83C0110B103689B6898470021F06853
:102AF000FFF70AFF0446FFF76DFEB0680368002188
:102B00005B6A9847054601F039FD7068036800214B
:102B10005B6A98472946064601F010FD331DC7F849
:102B20003C61C9F80040C8F80050CAF800302B6872
:102B3000C6F808A02846DB68EE639847336830463D
:102B40001B689847214628460FF07AF923682046EB
:102B50001B699847236820465B69BDE8F047184722
:102B6000934B0208554F0208F34C02083A4D0208F5
:102B7000DD4D020808630120046301202DE9F047C0
:102B8000D0E9556A0746B06803681B6A984743F660
:102B90001753984205D8404B404AA321404820F0A3
:102BA000C7FC706803681B6A98470F2803D83D4B21
:102BB0003A4AA421F2E7F06803681B6A9847132891
:102BC00003D8394B354AA521E8E70CF03FFFDFF881
:102BD000DC9004300CF087FFD9F8000010B10368D6
:102BE000DB689847D9F8000010B103681B68984764
:102BF000DFF8BC80D8F8000010B103685B69984723
:102C0000D7F83C0110B103685B689847D8F800001A
:102C100010B103681B689847D7F83C0110B10368EE
:102C20009B6898470021F068FFF76EFE0446FFF7A7
:102C3000D1FDB068036800215B6A9847054600F043
:102C4000C1FF7068036800215B6A98472946064601
:102C500000F0C8FE331DC7F83C61C9F80040C8F851
:102C60000050CAF800302B68C6F808A02846DB6878
:102C7000EE639847336830461B68984721462846DC
:102C80000FF0DEF8236820461B699847236820462A
:102C90005B69BDE8F0471847934B02082A500208C9
:102CA000F34C02083A4D0208DD4D0208086301208A
:102CB00004630120406A7047806A704770478A88C1
:102CC0000B8810B5D20A4C88C1699BB251F822001A
:102CD00043EA0443184410BD10B50446BAB1107B52
:102CE00068B1537BD27A1B0203F4E0631A43236A70
:102CF00003EB82031A888A4202D193F9020010BDC5
:102D000005D8013880B204330028F3D1F7E700205A
:102D1000F5E710B52C2104461FF0CDFC204610BD70
:102D200030B58BB00446BDF860500895BDF85C50D6
:102D300007959DF8505006959DF84C5005959DF8C7
:102D4000485004959DF8445003959DF840500295D5
:102D50009DF83C500195BDF8385000950EF0A8FC48
:102D6000064B2360159BE361169B2362199B6362EC
:102D70001A9BA36220460BB030BD00BF745A0208F4
:102D80007047704770477047704730B5036885B02B
:102D90006D460181D3F884300146044628469847A1
:102DA00095E807003C3484E8070005B030BD30B535
:102DB000036885B06D464181D3F8843001460446EE
:102DC0002846984795E807003C3484E8070005B09A
:102DD00030BD0022028042808280C280704780F82D
:102DE0003610704770B5036804461B6B154698474C
:102DF0002368294620465B6EBDE8704018470020D6
:102E00007047806C704770477047704710B54C2111
:102E100004461FF050FC204610BD10B54FF4197148
:102E200004461FF048FC204610BD08B5FEF73CFBE9
:102E300008BD0000036870B55E6B124B1B6804464A
:102E40008DB22BB9104B114A6C21114820F070FB48
:102E50001049828D0988914203D80F4B0B4A6D218E
:102E6000F3E713F812200D4B1B6853F82200036898
:102E70001B6B9847291A3346204609B2BDE87040BB
:102E8000184700BF18630120FF5002084151020893
:102E90007C5102081C630120C351020820630120F9
:102EA00000224FF0FF31C0E900218260704700002E
:102EB000074A02600022C0E90122C0E90322C0E9FA
:102EC0000522C0E907224FF480728284704700BF58
:102ED0009463020870B5036804461B6B1546984757
:102EE0002368294620465B6BBDE87040184770B5E3
:102EF00004461D46BDF91060FFF7ECFF2368294624
:102F000020469B6B9847236831462046DB6BBDE823
:102F10007040184710B526220446002120F00FFD0E
:102F20002046FFF7C5FF044B2360FF2384F82630BB
:102F30000023A362204610BD8061020810B526223E
:102F40000446002120F0FBFC2046FFF7B1FF0A4BAE
:102F500023600A4BA3624FF6FF73A3854FF47F02F1
:102F60000023C4E90C3223874FF0FF32C4E9102359
:102F7000E363204610BD00BFF0600208B0590208AC
:102F80002DE9F04F04468FB0A04600250EF0ACFDB1
:102F9000BA4BE56348F8403B04F16C074046FFF745
:102FA000B9FF04F198060CA94FF6FF733846DFF815
:102FB00004B3ADF8303004F1C40A09F0CFF930465B
:102FC000FFF776FFC4F898B0C4F8C0505046FFF73A
:102FD000A1FFAB4AC4F8C42004F1F803184604F575
:102FE0009279C4F8F050A4F8F4500793FFF760FF0B
:102FF000C4F8F8B0C4F820514846FFF79FFFA14B32
:10300000C4F8243104F5B8731846C4F86C5106931B
:10301000FFF74EFF04F5CE73C4F870B11846C4F83C
:1030200098510593FFF776FF954AC4F89C2104F563
:10303000E8731846C4F8C851A4F8CC510493FFF7BC
:103040007DFF04F5067318460393FFF777FF8D4B5A
:10305000C4F818324FF4A0732A464046C4F86052B0
:1030600029460093F023FFF742FF04F1040B4FF0D1
:103070007F43A3664146584606F062FA38460CA9DB
:10308000ADF830500AF0D4F84FF4A0732A46384611
:1030900000932946F023FFF72AFF3846294609F016
:1030A00018F9394658464FF4877706F049FA304602
:1030B0008C23252212210097FFF719FF2A468C2323
:1030C000294650460097FFF712FF6F496F4BDFF814
:1030D000E881C4E93B134FF001033046A4F8F43013
:1030E000514606F02DFA4FF4A2736FF0350207989F
:1030F000009329468C23FFF7FAFE3046079906F025
:103100001FFA3146584606F01BFA1F22D9214846BD
:10311000FFF7E0FE5E4BC4F85431D4F82431A4F834
:10312000585108AED3F8843049463046984796E85F
:10313000070004F5B07383E80700D8F800302BB916
:10314000544B554A6021554820F0F2F9544B1B88E6
:103150001BB9544B504A6121F5E7DFF860A1524F8B
:10316000DAF80000294600F0E3FBC4F86C01484699
:1031700009F026FE042348460CA9ADF834300C971C
:1031800009F03EFE4946584606F0DAF9242300933A
:103190003D220698BB21FFF7AAFE0699584606F085
:1031A000CFF92D23059800936C223A23B021FFF725
:1031B0009EFE3E4B344A05994FF00209C4E9712343
:1031C0005846A4F8CC9106F0BBF977220498B521B3
:1031D000FFF780FE2D4B0499C4F800323046A4F866
:1031E000045209F065FB96E8070004F5037383E8D1
:1031F000070003230498ADF834300CA90C9709F0AC
:10320000FFFD0499584606F09BF985220398CA21D0
:10321000FFF760FE264BC4F84832D4F81832039901
:10322000D3F88430A4F84C523046984796E807000B
:1032300004F5157383E80700D8F80030002B3FF43D
:103240007FAF174B1B88012B83D90121DAF80000CF
:1032500000F06EFBC4F86002039809F0B1FD03981A
:103260000C970CA9ADF8349009F0CAFD58460399A3
:1032700006F066F920460FB0BDE8F08F6C5B0208DF
:103280005C620208DC5A02082A2730FF30A8F0FFEF
:103290002E97D6FFFF500208015202087C51020807
:1032A0001C630120C3510208B0590208181308FF1B
:1032B0002F9BDDFF1C5E02081863012024630120A0
:1032C00070477047704730B4C26844685510034671
:1032D00004EB6200D20748BF62599B6830BC48BF0C
:1032E000D35818470346406830B19A681AB9D8686D
:1032F00000F0010070470120704710B5102104460E
:103300001FF0D9F9204610BD10B5DC2104461FF08E
:10331000D2F9204610BD9830884208B505D10CF08E
:1033200095FBBDE80840FFF7AFBA08BD2DE9FF47A0
:1033300004460EF0D9FB434B2360434B0025C4E900
:1033400010354FF4807304F16C06A4F86430FF2349
:103350004FF6FF7784F8663003A9C4E91255C4E933
:103360001455C4E91655E5632566A5663046ADF8E3
:103370000C7008F0F3FF40F20113A4F8BC30334B9B
:10338000C4F89830324BA4F8C670C4E93334314BDA
:10339000A4F8C87004F1400A4FF4A0792A46C4E9A1
:1033A000353584F8CA70C4E92755C4E92955C4E9FC
:1033B0002B55C4E92D55C4F8C05084F8C450294693
:1033C0005046CDF80090F023FFF791FD271D4FF0F8
:1033D0007F43A3665146384606F0B2F80E2303A990
:1033E0003046ADF80C3009F023FFF0232A46294679
:1033F0003046CDF80090FFF77AFD2946304608F0B8
:1034000068FF04F198083146384606F099F84046BE
:10341000FC223C21FFF75EFD0F2303AA02A94046D0
:10342000ADF80830ADF80C3009F045FD04F1CC03DF
:103430003846C4F8C030414606F082F8204604B051
:10344000BDE8F087B85B020880610208E861020805
:10345000A05B02081733000870477047704730B40C
:10346000C26844685510034604EB6200D20748BFA7
:1034700062599B6830BC48BFD35818470346406820
:1034800030B19A681AB9D86800F00100704701207D
:10349000704710B5102104461FF00DF9204610BDED
:1034A00010B54FF4887104461FF005F9204610BD91
:1034B00038B500F1CC03994204460D4603D10CF017
:1034C000C5FAFFF701FA9834A54205D10CF0BEFA0F
:1034D000BDE83840FFF7D8B938BD0000084A02609F
:1034E0000022C0E90122C0E90322C0E90522C0E9A7
:1034F0000722826280F82C2040F2011282847047F9
:103500000C6002082DE9F04F044685B00EF0ECFA8D
:103510004E4B23604E4BDFF844B1002504F16C079D
:10352000C4E910354FF0FF0A4FF480734FF6FF7671
:10353000A4F8643003A904F19809C4E91255C4E958
:103540001455C4E91655E563256684F866A0A5669A
:10355000384604F1CC08ADF80C6008F0FFFE484690
:10356000FFF7BCFFC4F898B0A4F8C660A4F8C86020
:1035700084F8CA604046FFF7B1FF364BC4F8CCB0C0
:10358000C4E94034344B84F8FEA004F1400B4FF4FE
:10359000A07AC4E942352A46A4F8FA60A4F8FC608F
:1035A00029465846CDF800A0F023FFF7A0FC261DC1
:1035B0004FF07F43A3665946304605F0C1FF102304
:1035C00003A93846ADF80C3009F032FEF0232A4644
:1035D00029463846CDF800A0FFF789FC2946384631
:1035E00008F077FE3946304605F0AAFF29464846DE
:1035F000F322FFF76FFC04F58075112303AA02A9DB
:103600004846ADF80830ADF80C3009F054FC494696
:103610003046C4F8C05005F093FF4046F4228C2198
:10362000FFF758FC122303AA02A94046ADF8083060
:10363000ADF80C3009F03FFC3046C4F8F450414678
:1036400005F07EFF204605B0BDE8F08F045C02085F
:1036500080610208EC5B0208B1340008E8610208EE
:103660007047000030B5174D2C6814F001048FB07E
:10367000BFF35B8F22D128461FF01FF8F0B13F2324
:103680000993114B0893114B07930123CDE905438F
:1036900004930423CDE902430A230D490093142225
:1036A0000C23CDE90B440B480A940194FFF738FB37
:1036B00009481FF05BFF28461FF00BF805480FB0C4
:1036C00030BD00BFA8540020A0700208AC700208F2
:1036D0005C6F0208AC54002061360008704700009F
:1036E00030B5164D2C6814F001048FB0BFF35B8F1A
:1036F00021D128461EF0E1FFE8B13F230993104B8A
:103700000893104B104911480A94CDE90643012251
:103710000423CDE90332142300930222CDE90B44A4
:10372000CDE901440594FFF7FBFA09481FF01EFF9D
:1037300028461EF0CEFF05480FB030BDD8540020FB
:10374000A4700208B070020874700208DC540020F3
:10375000DD3600087047000030B5164D2C6814F0B7
:1037600001048FB0BFF35B8F20D128461EF0A5FF68
:10377000E0B13F230993104B0893104B10491148B7
:103780000A940122CDE906430423CDE9033228231C
:103790000093CDE90B44CDE901440594FFF7C0FA4D
:1037A00009481FF0E3FE28461EF093FF05480FB0BE
:1037B00030BD00BF08550020A8700208B470020890
:1037C000907002080C550020553700080020704703
:1037D000002070470EB403B503AB002153F8042B4F
:1037E00001930DF0E3F902B05DF804EB03B070470C
:1037F0000CB407B504AB53F8042B01930DF0D6F9C4
:1038000003B05DF804EB02B070470000436C10B5E4
:10381000044673B3038F2BB9184B194AC5211948B5
:103820001FF086FEC38E00EB43035B8C0BB30FF0DF
:1038300060F8238F012B03D8134B144ACB21EEE7FA
:10384000E28E531C9BB2092B194688BFA3F10A01D3
:1038500004EB410140F63F10498C814209D10A2B0B
:1038600004EB420228BF002304EB4303508C58842E
:1038700051842046BDE810400EF03EBF4C52020875
:1038800055520208005302084A53020858530208CE
:103890000EF0F9BE10B586B002AC84E806001A46F8
:1038A0000AAB05930193099B00932146089B0BF0FB
:1038B0004FFC06B010BD000038B518BB124B1348C2
:1038C0001C681349B4B12268224402606268224431
:1038D0000A60A26814440F4B00221A8000F038F8E6
:1038E000054600F033F80C4B1C600C4B1D600C4B74
:1038F000188007E00B4B03600B4B0B600B4B1C68F5
:10390000002CE8D138BD00BF445500203C550020B4
:103910003855002040550020186301202063012005
:103920001C630120CC700208B8700208E87002081D
:10393000044B1B6853F82100034B1B6803EB40004A
:10394000704700BF385500203C55002005207047C7
:10395000004870474855002010B5FFF7C1FE044CE1
:103960002060FFF7F9FE6060FFF77CFEA06010BDED
:103970004855002010B5002404600C6014601C60E1
:1039800010BD704710B54FF4AE7104461EF093FEA3
:10399000204610BD10B50446D0F8580100F013F8C9
:1039A0002046BDE810400CF0FBB8000010B50446FE
:1039B000FEF736FF014B2360204610BD385C02083D
:1039C00000220260704770477047043870477047A4
:1039D00010B5102104461EF06EFE204610BDA0F169
:1039E0000400F5E700228260024A02601832426059
:1039F000C16070478C5C0208704700000F4B70B5C7
:103A0000044603604FF47355B5F5685F05D06359FC
:103A100060191B6898472C3DF6E743F6FC1540F209
:103A20006C66635960191B682C3D9847B542F8D104
:103A30002046FFF7E9F9204670BD00BFB45C0208DC
:103A400010B50446FFF7DAFF204643F618511EF082
:103A500032FE204610BD0000002310B5C0E901333E
:103A6000C0E90333C0E90733C0E905334FF480737D
:103A70008384064B03600B88C384FF23044680F8CD
:103A8000283009F0D5FB204610BD00BFC4620208F3
:103A900010B5044601F0E4F843F23903002818BFDA
:103AA000034683EA433383EA534383EA4313C4F868
:103AB000903610BDD0F89026044943F2390301FB3B
:103AC0000233C0F89036C3F30E4070476D4EC641C6
:103AD00008B5FFF7EFFF0723B0FBF3F3C3EBC30316
:103AE000C01A08BD10B5034600F11004002283F887
:103AF000242683F8252683F8262683F827260433F0
:103B0000A342F4D14939112930D8DFE801F050300F
:103B10002F222F2F3A2F2F2F15442F2F2F2F2F09E2
:103B20004BF6FF73C0F83436012380F8253680F851
:103B3000293680F82A3617E0214BC0F834360123A5
:103B400080F8293680F82D3680F8263680F82A3617
:103B50000CE04FF0FF13C0F8343640F2011201239D
:103B600080F82A36A0F82C2680F82E3610BD4FF4A7
:103B70007F43C0F8343640F20113A0F82836012301
:103B8000D7E74FF08013C0F83436012380F8293688
:103B900080F82D36CDE74FF47F03C0F8343601238B
:103BA00080F8253680F8293680F82D36CEE74FF696
:103BB000FF73C0F834364FF00133C0F82836D5E72C
:103BC00000FFFF00F7B5044604F56856FFF7D8F983
:103BD000334B236004F5D36528364FF6FF7728462C
:103BE00001A92C35ADF80470FFF736FFAE42F6D1CF
:103BF00004F5685504F573562C352C364FF6FF77CF
:103C0000284601A92C35ADF80470FFF725FFB54211
:103C1000F6D12046FFF73CFF00214FF4707204F507
:103C200019701FF08CFE2822C4F86C26C4F8702688
:103C3000042304F54052C4F860360023C4F8643607
:103C4000C4F8683684F87436C4F87836C4F87C361C
:103C5000A4F88036C4F88436C4F88836C2F8283A06
:103C6000C2F8EC3C012384F894362046FFF730FF7D
:103C70000C4F04F22466395C2046FFF733FF0FCE69
:103C800004F5C7650FC533682B602046FFF720FF9A
:103C9000395C84F882162046FFF724FF03B0F0BD9C
:103CA000B45C0208005D0208F0B500F22365002450
:103CB0000A272E46002116F8013F93B1D0F860364E
:103CC000D0F864260B44092B224414D8162A12DC9F
:103CD000002A06DB07FB023300EB8303D3F86432D0
:103CE0004BB901310429E6D10134042C05F1040556
:103CF000DFD1002000E00120F0BDF0B500F2236527
:103D000000240A272E46002116F8013F8BB1D0F877
:103D1000642622440132162A15DC002A09DBD0F879
:103D2000603607FB02330B4400EB8303D3F86432A5
:103D30004BB901310429E7D10134042C05F1040504
:103D4000E0D1002000E00120F0BDF0B5002100F23C
:103D500023650A272E46002216F8013F83B1D0F8CA
:103D60006036D0F864461344013B0C4412D4172C3F
:103D700006D807FB043300EB8303D3F864324BB956
:103D80000132042AE8D10131042905F10405E1D109
:103D9000002000E00120F0BDF0B5002100F2236515
:103DA0000A272E46002216F8013F8BB1D0F8603664
:103DB000D0F8644613440133092B0C4412DC172C51
:103DC00006D807FB043300EB8303D3F864324BB906
:103DD0000132042AE7D10131042905F10405E0D1BB
:103DE000002000E00120F0BDF0B5002100F22365C5
:103DF0000A272E46002216F8013F8BB1D0F8644600
:103E00000C44172C0CD8D0F860361344092B9FBFF4
:103E100007FB043300EB8303D0F83446C3F8644255
:103E20000132042AE7D10131042905F10405E0D16A
:103E3000F0BDD0F86836C3F10A039B000A2BB8BF67
:103E40000A23C0F86C367047F8B5044617252827B2
:103E500000F5197607FB05F303F5187222440021DB
:103E600052F8040FF0B101310A29F9D1234409E0D5
:103E700003F50E710022013251F8040F88620A2AFC
:103E8000F9D1283BA342F3D12822002130461FF06C
:103E900056FDD4F868360133C4F868362046FFF77B
:103EA000C8FFD7E7013DD5D2F8BD30B585B06A4629
:103EB00001F1100410460B461D7800F8015B5D7897
:103EC000C5709D78C571043313F8015CC572A342B7
:103ED000F2D1D3780B7093784B7053788B7012F8C3
:103EE000043BCB700431A142F3D105B030BD08B51D
:103EF0000BF0ACFDBDE80840FEF7F6BC90F87C3650
:103F000037B50446002B41D12A4D286800231A46B4
:103F10000DF1070103F0A9FBA8B1D4F88436D4F859
:103F20006C2601339342C4F8843606DB23682046AE
:103F3000DB6A98470023C4F88436236820461B6B4D
:103F4000984703B030BD9DF80730413B042B08D89B
:103F5000DFE803F00310130716002368DB6B20462D
:103F600098479DF80730452B04BFD4F87036C4F845
:103F70006C36CAE723681B6CF1E723685B6CEEE7DD
:103F80000523C4F86C3623689B6BE8E7D0F88836C5
:103F90000133B3F5967FC0F88836D2DB064BD0F8F4
:103FA000682619688A42C8BF1A6003B0BDE830406D
:103FB000FFF79DBF30520020545500202DE9FF41EE
:103FC00000F540581646D8F8282AB2F5967F0746DD
:103FD0000D4641DA2C214A4302F5D36402444BF6E4
:103FE000FF71D2F898268B42126E044401D101234E
:103FF00003E020498B4204D11323ADF80C3003A910
:1040000011E0B3F1FF1F01D10B23F6E7B3F57F4FAA
:1040100001D10323F1E7B3F1801F20D10C23ADF8C8
:104020000C300DEB03012046C6EBC606C5EBC505FB
:1040300090470E2372006900009312B209B2204625
:10404000FEF755FF214607F1F80005F079FAD8F898
:10405000283A0133C8F8283A04B0BDE8F081B3F536
:104060007F0F01D10D23C8E74FF6FF718B42BED100
:104070000223C2E700FFFF002DE9F04F064600F5DE
:10408000B87906F5405885B04846002505F065FA30
:1040900006F2376AC8F8EC5CD34600271BF8013FEC
:1040A0006BB3D8F8EC3C0F2B29DC2C22534343F69E
:1040B0002C215C183344D6F848265B584BF6FF7128
:1040C0008A421B6E344401D1042203E021498A4212
:1040D00025D10A22ADF80C2003A9204698470923D0
:1040E00000932AB239B22046FEF701FF2146484626
:1040F00005F026FAD8F8EC3C0133C8F8EC3C093757
:10410000BFB2242FCAD10935ADB2242D0AF1040A59
:10411000C2D1484605B0BDE8F04F0CF071BEB2F117
:10412000FF1F01D10722D5E7B2F57F4F01D106224B
:10413000D0E7B2F1801F01D10822CBE7B2F57F0FA3
:1041400001D10922C6E74FF6FF718A42BCD1052290
:10415000C0E700BF00FFFF002DE9F047044600F173
:10416000F80804F540574046002505F0F6F904F537
:104170001879C7F8285ACA4600265AF8043F4BB1A6
:10418000D7F8282AB2F5967F04DA2A463146204627
:10419000FFF714FF01360A2EEFD10135182D09F172
:1041A0002809E8D104F223690026CA4600251AF836
:1041B000013F9BB1D7F8283AB3F5967F0EDAD4F8D1
:1041C00064263244172A09D8D4F8601629440929EC
:1041D00004D8D4F834362046FFF7F0FE0135042D1C
:1041E000E5D10136042E09F10409DED104F5735539
:1041F000303540460CF004FED4F86836114A0A21E6
:1042000028460FF01FF9C4F86C5104F592700CF0B9
:10421000F7FD04F574550C4B0A4A1B6804350A2156
:1042200028460FF00FF9C4F8605204F506700CF040
:10423000E7FD94F87C3613B10023C4F88836BDE856
:10424000F08700BF2A5402085455002010B50446D8
:10425000FEF7DBFD2046BDE81040FFF77DBF000004
:10426000F8B590F89436044663B300F2246500F282
:104270004C660FCD0FC62B6833602046FFF728FC35
:10428000234B195C84F882162046FFF72BFC04F2BE
:10429000246CBCE80F0004F5C7670FC72B683B60B0
:1042A00004F24C6CBCE80F0004F224670FC73368BB
:1042B0002B602046FFF7E0FE2046FFF74DFF00236E
:1042C00084F8943694F874360BB3D4F87836013306
:1042D0001D2BC4F878361ADD0423C4F86036002399
:1042E000C4F8643684F87436C4F8783604F5C766C2
:1042F0000FCE04F224650FC533682B602046FFF70C
:10430000D3FC012308B184F87C3684F89436F8BDD8
:10431000005D02082DE9F043044685B0FFF794FDE7
:1043200094F87D366BB12046FFF7E7FC002840F09B
:104330008480D4F864360133C4F86436002384F8EA
:104340007D3694F88136002B40F0898094F87E36D3
:104350005BB12046FFF7F9FC20B9D4F86036013B89
:10436000C4F86036002384F87E3694F87F365BB15B
:104370002046FFF711FD20B9D4F860360133C4F8A8
:104380006036002384F87F3694F88036002B51D0B5
:104390006E46254604F110083246234693F824164B
:1043A000117093F82516517093F826169170043306
:1043B00093F82316D170434502F10402EED1204652
:1043C00004F22461FFF771FD2046FFF76DFC70B326
:1043D000D4F86076D4F864967B1EC4F86036204624
:1043E000FFF762FC18B37B1CC4F860362046FFF769
:1043F0005BFCE0B109F1FF33C4F86076C4F86436C1
:104400002046FFF751FC90B1C4F86496337885F8E4
:104410002436737885F82536B37885F82636F37810
:1044200085F827360435454506F10406EED100230C
:1044300084F8803605B0BDE8F0832046FFF7D4FC51
:10444000012384F874360023C4F8783676E7D4F86C
:1044500064360133C4F864362046FFF77DFE2046FB
:10446000FFF74BFC0028F2D02046FFF7BDFC0123EC
:1044700084F874360023C4F8783684F8813665E70A
:1044800090F8743610B5044663B990F87C364BB991
:10449000012380F87D36FFF73DFF2046BDE8104040
:1044A000FFF75ABE10BD10B50123044680F87D36D3
:1044B000FFF730FF2046BDE81040FFF74DBE10B5B6
:1044C0000123044680F87E36FFF724FF2046BDE82E
:1044D0001040FFF741BE10B50123044680F87F3637
:1044E000FFF718FF2046BDE81040FFF735BE10B5B6
:1044F0000123044680F88036FFF70CFF2046BDE814
:104500001040FFF729BE10B50123044680F881361C
:10451000FFF700FF2046BDE81040FFF71DBE7047C3
:1045200004387047704710B5102104461EF0C3F8D8
:10453000204610BDA0F10400F5E7000000228260D3
:10454000024A026018324260C1607047105D020882
:104550007047000010B5034B03600446FEF7B1FE40
:10456000204610BD385D020810B50446FFF7F2FF83
:104570002046DC211EF09FF8204610BD10B50446F1
:10458000FEF7D4FE014B2360204610BD385D0208C3
:1045900008B50BF05BFABDE80840FEF775B90000FE
:1045A00013B504460848002300681A460DF10701B8
:1045B00003F05BF830B99DF80730432B02D1204659
:1045C000FFF7E6FF02B010BD30520020FEF77ABEC2
:1045D000704704387047704710B5102104461EF02C
:1045E0006AF8204610BDA0F10400F5E700228260C1
:1045F000024A026018324260C16070476C5D020876
:104600007047000010B5034B03600446FEF725FF1A
:10461000204610BD945D020810B50446FFF7F2FF76
:1046200020464FF488711EF046F8204610BD000069
:1046300010B50446FEF766FF014B2360204610BD0F
:10464000945D020808B50BF001FABDE80840FEF7DA
:104650001BB908B50BF0FAF9BDE80840FEF734B90C
:1046600013B504460C48002300681A460DF10701F3
:1046700002F0FBFF28B99DF80730412B03D0422BF5
:1046800005D002B010BD2046FFF7DCFFF9E7204659
:10469000FFF7DFFFF5E700BF3052002008B5FEF757
:1046A000DDFE034A00231370024A137008BD00BFE9
:1046B0002D5200202C520020F02070474FF4A070A3
:1046C00070472920FDF748BB2820FDF745BB08B5FA
:1046D000FDF716FBCA20FDF73FFBC320FDF720FBCB
:1046E0000820FDF71DFB5020FDF71AFBCF20FDF73A
:1046F00033FB0020FDF714FBC120FDF711FB302038
:10470000FDF70EFBED20FDF727FB6420FDF708FB0E
:104710000320FDF705FB1220FDF702FB8120FDF7CA
:10472000FFFAE820FDF718FB8520FDF7F9FA0020D5
:10473000FDF7F6FA7820FDF7F3FACB20FDF70CFB36
:104740003920FDF7EDFA2C20FDF7EAFA0020FDF7FD
:10475000E7FA3420FDF7E4FA0220FDF7E1FAF7204A
:10476000FDF7FAFA2020FDF7DBFAEA20FDF7F4FA6C
:104770000020FDF7D5FA0020FDF7D2FAB120FDF7B1
:10478000EBFA0020FDF7CCFA1B20FDF7C9FAB620A2
:10479000FDF7E2FA0A20FDF7C3FAA220FDF7C0FAFE
:1047A000C020FDF7D9FA1020FDF7BAFAC120FDF7B5
:1047B000D3FA1020FDF7B4FAC520FDF7CDFA452055
:1047C000FDF7AEFA1520FDF7ABFAC720FDF7C4FAE6
:1047D0009020FDF7A5FA3620FDF7BEFAC820FDF7B8
:1047E0009FFAF220FDF7B8FA0020FDF799FAB02001
:1047F000FDF7B2FAC220FDF793FAB620FDF7ACFA46
:104800000A20FDF78DFAA720FDF78AFA2720FDF789
:1048100087FA0420FDF784FA2A20FDF79DFA00208C
:10482000FDF77EFA0020FDF77BFA0020FDF778FA0D
:10483000EF20FDF775FA2B20FDF78EFA0020FDF72B
:104840006FFA0020FDF76CFA0120FDF769FA3F20AE
:10485000FDF766FAF620FDF77FFA0120FDF760FA12
:104860000020FDF75DFA0620FDF75AFA2C20FDF72F
:1048700073FAC820FDF7BEFA2620FDF76DFA012075
:10488000FDF74EFAE020FDF767FA0F20FDF748FA32
:104890002920FDF745FA2420FDF742FA0C20FDF708
:1048A0003FFA0E20FDF73CFA0920FDF739FA4E20B9
:1048B000FDF736FA7820FDF733FA3C20FDF730FAA1
:1048C0000920FDF72DFA1320FDF72AFA0520FDF740
:1048D00027FA1720FDF724FA1120FDF721FA00200E
:1048E000FDF71EFAE120FDF737FA0020FDF718FA70
:1048F0001620FDF715FA1B20FDF712FA0420FDF72C
:104900000FFA1120FDF70CFA0720FDF709FA312004
:10491000FDF706FA3320FDF703FA4220FDF700FA0F
:104920000520FDF7FDF90C20FDF7FAF90A20FDF747
:10493000F7F92820FDF7F4F92F20FDF7F1F90F2002
:10494000FDF7EEF91120FDF707FAC820FDF752FA3E
:104950002920FDF701FABDE808402C20FDF7FCB93D
:1049600008B5FDF7CDF90321D320FDF711FA80B288
:1049700008BD10B5C4B2022203212046FDF776F926
:104980000A20FDF7BBF9204600220321FDF76EF94E
:10499000BDE810400220FDF7B1B938B50446E4B2D5
:1049A000FDF762F900212046FDF778F9012105465F
:1049B0002046FDF773F940EA052080B238BD10B5F6
:1049C000C4B240212046FDF769F9030607D54C2102
:1049D0002046FDF763F9003818BF012010BD012201
:1049E0004B212046FDF742F9204600224B21FDF7DE
:1049F0003DF90020F2E773B50423C4B20E46154614
:104A0000D7210DEB03022046FDF762F9019B1BBA8B
:104A10001A0DC3F30B23328020462B8001224B2139
:104A2000FDF724F900224B212046FDF71FF902B0C3
:104A300070BD000010B50A4A1378984204460DD0A4
:104A4000517888420AD00BB141B90123D454FDF703
:104A50000BF92046BDE81040FFF78BBF10BD00BF2B
:104A60005855002010B5C4B209212046FDF716F9AB
:104A700040F00102D2B220460921BDE81040FDF706
:104A8000F5B810B5C4B209212046FDF707F9092190
:104A900000F0FE022046BDE81040FDF7E7B838B54B
:104AA000C4B20D4620460A21FDF7F8F840EA050297
:104AB000D2B220460A21BDE83840FDF7D7B810B57C
:104AC0000446FDF7D2F820461F21FFF7E8FF2046F5
:104AD000BDE81040FFF7C6BF38B5C4B20D4620464A
:104AE0000A21FDF7DBF820EA0502D2B220460A21AE
:104AF000BDE83840FDF7BAB810B50446FFF7C1FF6E
:104B000020461F21BDE81040FFF7E6BF10B5C0B238
:104B10000C460B21FDF7C2F8204010BD1F21FFF706
:104B2000F5BF0A46C0B20B21FDF7A0B81F21FFF761
:104B3000F8BF38B5C4B20D4620461721FDF7AEF8D0
:104B400020EA0502D2B220461721BDE83840FDF721
:104B50008DB870B5C4B2064604212046FDF79EF814
:104B6000042100F0FB0205462046FDF77FF83046A1
:104B7000F021FFF7DEFF05F0F80220460421FDF7E3
:104B800075F8492220212046FDF770F80220FDF734
:104B9000B5F8204601222121FDF768F820469A2227
:104BA0004121FDF763F8204601224A21FDF75EF816
:104BB000204601224B21FDF759F8204600224B21C7
:104BC000FDF754F8204601225621FDF74FF8204604
:104BD00001225821FDF74AF8204601224021FDF725
:104BE00045F82046FF220B21FDF740F8BDE8704054
:104BF0000220FDF783B80000054BD3F8882042F46B
:104C00007002C3F888204FF000629A60704700BFBE
:104C100000ED00E008B50B4B1A6842F400721A6010
:104C20001A6842F480621A601A6842F480721A604C
:104C3000032000F02FF80020FDF754FBFDF7E8F803
:104C4000002008BD003C0240034A044B11681B7859
:104C50000B441360704700BF5C55002078000020B3
:104C6000014B1868704700BF5C55002038B50446FA
:104C7000FFF7F6FF631C1CBF054B1B78054618BFEA
:104C8000E418FFF7EDFF431BA342FAD338BD00BF82
:104C9000780000200749CA6822F4E0620302120487
:104CA00003F4E063120C134343F0BF6343F4003397
:104CB000CB60704700ED00E0164B30B5DC68C4F304
:104CC0000224C4F10703251D042B28BF0423062D4D
:104CD0004FF0FF358CBF033C002405FA03F321EAB3
:104CE0000303A54022EA0502A340002843EA020389
:104CF000ACBF00F16040084A4FEA0313B8BF00F0B0
:104D00000F00DBB2AABF00F56140135480F80033F6
:104D100030BD00BF00ED00E014ED00E0002807DB2F
:104D2000044A4109012300F01F00834042F821306A
:104D3000704700BF00E100E010B5044650B1437970
:104D400003F0FF0213B90271FDF782F801236371CA
:104D5000002010BD0120FCE710B5044620B390F8F8
:104D6000393003F0FF021BB980F83820FDF788F8CE
:104D7000022384F83930236861681A6822F44032CB
:104D80000A431A605A6BA16822F007020A435A6369
:104D90001A6CE1686FF30D020A431A6400200123C4
:104DA000E06384F8393010BD0120FCE7704770479C
:104DB000036870B55E681D68F207044614D5E905FE
:104DC00012D51A6822F480721A60C26B42F0010296
:104DD000C26301229A60042380F83930002380F8EE
:104DE0003830436903B19847B20616D5AB0414D5E1
:104DF00023681A6822F400521A6020229A60E36B3A
:104E000043F00203E363042384F83930002384F879
:104E1000383063690BB120469847300716D529050D
:104E200014D523681A6822F400621A6008229A6076
:104E3000E36B43F00403E363042384F83930002375
:104E400084F8383063690BB12046984772070BD558
:104E50006B0509D523681A6822F480621A6004225F
:104E60009A602046FFF7A2FFB00714D5A90512D516
:104E700023681A6822F400721A6002229A60E36BB7
:104E8000E363012384F83930002384F83830236940
:104E90000BB120469847F20613D5EB0411D52368D1
:104EA0001A6822F480521A6010229A60E36BE3635E
:104EB000012384F83930002384F838302046FFF786
:104EC00076FF70BDF0B590F83820012A03464FF008
:104ED00002002BD0012283F8382083F8390003EB3D
:104EE0000112D2E90740556A174F44EA0040093CD5
:104EF000012C9CBF05F07F4210434FEA01161A684F
:104F000088BF40EA056091B9516A39400143516256
:104F1000012C9969916103D8596A21F07F4191620E
:104F20000122002083F8392083F83800F0BDD169D0
:104F300039400143D1619919012C896911619CBFE4
:104F400025F07F451562EBE7F0FFFC002DE9F74FF8
:104F5000DFF8BC916C4A00230D6801249C4004EAF0
:104F60000506AC4340F0B7804D68032705F0030405
:104F70004FEA430807FA08FC671E012F6FEA0C0C82
:104F800034D8876807EA0C0ECF6807FA08F747EAB3
:104F90000E078760476827EA060EC5F300179F4093
:104FA00047EA0E074760C76807EA0C0E8F6807FAE2
:104FB00008F747EA0E07022CC76019D14FEAD30A57
:104FC00000EB8A0A03F0070BDAF820704FEA8B0B2C
:104FD0004FF00F0E0EFA0BFE27EA0E0E0F6907FABE
:104FE0000BF747EA0E07CAF8207001E0032CDAD16C
:104FF000076804FA08F407EA0C073C4315F4403F3D
:10500000046068D000240194D9F8444044F48044FA
:10501000C9F84440D9F8444023F0030707F180471A
:1050200004F4804407F59C37019403F0030C019CC1
:10503000D7F808E04FEA8C0C0F2404FA0CF42EEA9F
:10504000040E324CA0424DD004F58064A0424BD0F7
:1050500004F58064A04249D004F58064A04247D0A2
:1050600004F58064A04245D004F58064A04243D09A
:1050700004F58064A04241D004F58064A0423FD092
:1050800004F58064A0423DD004F58064A04214BFC2
:105090000A24092404FA0CF444EA0E04BC6094685F
:1050A000F74315F4801F0CBF3C4034439460D46830
:1050B00015F4001F0CBF3C403443D460546815F411
:1050C000003F0CBF3C40344354601468ED0354BFB0
:1050D0003C40344314600133102B7FF43DAF03B0E8
:1050E000BDE8F08F0024D5E70124D3E70224D1E7FF
:1050F0000324CFE70424CDE70524CBE70624C9E742
:105100000724C7E70824C5E7003C0140000002402F
:10511000003802400369194214BF01200020704783
:105120000AB1816170470904FBE7436901EA0302A0
:1051300021EA030141EA02418161704701684B693C
:1051400013F480634FF0000210D06FF480634B6162
:105150002023026380F83D3080F83E20036C80F805
:105160003C2043F004030364012070471846704755
:105170002DE9F84606460F4691461D464FEA114A6C
:105180003368BAF1010F0CBF5C699C6927EA04041B
:10519000A4B2B4FA84F46409A14501D0002025E04A
:1051A0006A1CEED0FFF75CFD089BC01AA84201D82C
:1051B000002DE5D13368BAF1010F0CBF5B699B6923
:1051C00027EA03039BB2B3FA83F35B099945D7D16E
:1051D00000232022336386F83D2086F83E30326C6F
:1051E00086F83C3042F0200232640120BDE8F886A7
:1051F0002DE9F04104460F46164698462568686931
:1052000027EA000080B2C0B16B695A0517D52B6838
:1052100043F400732B606FF480636B6120220023E2
:10522000236384F83D2084F83E30236C43F004036C
:105230002364002384F83C300120BDE8F081731C16
:10524000DDD0FFF70DFDA0EB0800B04201D8002E25
:10525000D4D123685A6927EA020292B2002ACDD03B
:1052600000232022236384F83D2084F83E30236C01
:105270001343DDE770B504460D46164623685B69A7
:105280001B0601D500201EE02046FFF757FFC8B9D6
:105290006A1CF3D0FFF7E4FC801BA84201D8002D64
:1052A000ECD123685B6913F08003E7D120222363EC
:1052B00084F83D2084F83E30226C84F83C3042F083
:1052C00020022264012070BD2DE9F04315460268DA
:1052D00085B0DDE90C789946136843F48073136058
:1052E0000E463B46CDF8008000224FF001110446E7
:1052F000FFF73EFF236838B11B68DB0502D54FF48A
:1053000000732364032620E006F0FE061E611A499E
:1053100043463A462046FFF76BFFA8B9236803903F
:105320005A6903929B690393424639462046039B80
:10533000FFF7A0FF064660B1236C042B01BF226873
:10534000136843F4007313600126304605B0BDE8CE
:10535000F083B9F1010F236802D1EDB21D61F4E7CA
:105360002A0A1A61394642462046FFF783FF002881
:10537000E2D12368F1E700BF020001002DE9FF47F9
:105380009A46036815461A6842F480621A601A68E1
:10539000DDE90C7842F480721A600E463B46CDF887
:1053A000008000224FF001110446FFF7E1FE236860
:1053B00038B11B68DB0544BF4FF40073236403203E
:1053C00021E05FFA86F906F0FE061E612B4943468E
:1053D0003A462046FFF70CFFA0B9236803905A69AC
:1053E00003929B690393424639462046039BFFF78D
:1053F00041FF58B1236C042B01BF2268136843F4AA
:1054000000731360012004B0BDE8F087BAF1010F0A
:1054100023681AD1EDB242461D6139462046FFF796
:1054200029FF02460028E5D121680B6843F4807308
:105430000B602046CDF800803B464FF00111FFF78E
:1054400097FE226860B11368B4E72A0A1A613946E8
:1054500042462046FFF70EFF0028CBD12368D9E74C
:1054600049F001031361054943463A462046FFF7D8
:10547000BFFE003818BF0120C5E700BF02000100D1
:1054800070B504460D46164623685B695B0701D577
:1054900000201EE02046FFF751FEC8B96A1CF3D079
:1054A000FFF7DEFB801BA84201D8002DECD123685A
:1054B0005B6913F00403E7D12022236384F83D20C5
:1054C00084F83E30226C84F83C3042F020022264A2
:1054D000012070BD70B504460D46164621684B6923
:1054E00013F0400301D0002011E04A69D2060FD525
:1054F0006FF010024A612022236384F83D2084F873
:105500003E30236C2364002384F83C30012070BDBE
:10551000FFF7A6FB801BA84201D8002DDED123682F
:105520005B6913F04003D9D12022236384F83D2026
:1055300084F83E30236C1343E4E7000070B5044662
:1055400008B9012070BD90F83D3003F0FF021BB98F
:1055500080F83C20FCF7B6FC242384F83D30236817
:105560001A6822F001021A601A6842F400421A60B6
:105570001A6822F400421A6000F08AFE3F4B656808
:105580009D4294BF3E4B3F4B98428CBF002301236A
:10559000002BD6D12268394E51683B4BB0FBF3F358
:1055A00021F03F011943B542516088BF4FF4967610
:1055B000116A88BF734321F03F0184BF4FF47A76AC
:1055C000B3FBF6F301330B431362D169431E2B483F
:1055D00021F44F41854221F0FF0132D86D0040F6A1
:1055E000FC70B3FBF5F30133034242D0C3F30B036A
:1055F0001943D161D4E907301168034321F0C00198
:105600000B4313609168D4E9030321F4034103437E
:1056100021F0FF010B439360D4E90530D1680343C7
:1056200021F0FF010B43D360136843F001031360C3
:1056300000202023206484F83D30206384F83E005D
:1056400080E7A06850B905EB4505B3FBF5F30133DE
:10565000C3F30B037BB143F40043C9E7192068434C
:10566000B3FBF0F30133C3F30B0323B143F4404323
:10567000BEE70423BCE70123BAE700BFA086010010
:105680007F841E00FF083D0040420F002DE9F743D4
:10569000044699460C9E0F469046FFF7E1FA94F8AF
:1056A0003D30202B054603D0022003B0BDE8F08337
:1056B00000903C49192301222046FFF759FD00289C
:1056C000F2D194F83C30012BEED02068012384F80D
:1056D0003C300368D9075EBF036843F001030360F1
:1056E000036823F400630360212384F83D304023E2
:1056F00084F83E30002323640A9B6362BDF82C309B
:105700006385638D2385284BE3624246CDE90065BE
:105710004B4639462046FFF7D7FD00282AD0012006
:10572000C3E7FFF7A7FD40B1236C042B01BF22683C
:10573000136843F400731360F1E7636A27681A463D
:1057400012F8011B39616262628D218D013A92B2B9
:1057500062857A69481E80B2520720850AD548B111
:105760005A783A6102336362638D013B02399BB21E
:1057700021856385238D2A4631462046002BD0D1D2
:10578000FFF77EFE0028CFD12268136843F4007330
:105790001360202384F83D3084F83C0084F83E00F8
:1057A00083E700BF020010000000FFFF2DE9F04377
:1057B000044687B09946109F0D469046FFF750FA71
:1057C00094F83D30202B064604D00225284607B029
:1057D000BDE8F08300907A49192301222046FFF7A3
:1057E000C7FC0028F1D194F83C30012BEDD02068A3
:1057F000012384F83C300368DB075EBF036843F095
:1058000001030360036823F400630360222384F828
:105810003D30402384F83E30002323640E9B6362B6
:10582000BDF83C306385638D2385664BE362294672
:10583000CDE900764B4642462046FFF79FFD0546E0
:1058400008B10125C2E7228D2368B2B902905A69D6
:1058500002929A690292029A1A6842F400721A60DD
:10586000DFF86481238D002B2CD1202284F83D2089
:1058700084F83C3084F83E30A8E7012A0AD11A683F
:1058800022F480621A6003905A6903929A69039223
:10589000039AE1E7022A0ED11A6822F480621A60A4
:1058A0001A6842F400621A6004905A6904929B6973
:1058B0000493049BD4E705905A6905929B6905936C
:1058C000059BCDE7032B56D8012B15D1324639461F
:1058D0002046FFF7FFFD0028B3D123681A69636AE9
:1058E0001A70636A01336362238D013B2385638DE4
:1058F000013B9BB26385B5E7022B00963B464FF018
:1059000000024146204619D1FFF732FC002898D109
:1059100023681A6842F400721A601A69636A1A707E
:10592000626A531C6362238D013B2385638D013BB7
:105930009BB2638523681B695370D2E7FFF718FC9D
:10594000024600287FF47DAF2368196821F4806146
:1059500019601969636A1970636A01336362238D80
:10596000013B2385638D013B9BB2638541460096D5
:105970003B462046C8E7324639462046FFF7AAFD97
:1059800000287FF45EAF23681A69636A1A70628D1B
:10599000616A013A92B24B1C628522686362238D70
:1059A0005069013B9BB2400723857FF55BAF032B1A
:1059B00002BF136823F48063136013694B7090E790
:1059C000020010000000FFFF0400010010B590F875
:1059D0003D30202BDCB216D1242380F83D30036803
:1059E0001A6822F001021A605A6A22F010025A6202
:1059F0005A6A114359621A6842F001021A6080F82B
:105A00003D40002010BD0220FCE730B590F83D304D
:105A1000202BDCB216D10268242380F83D301368B5
:105A200023F001031360556A4FF6F0732B400B43CC
:105A30009BB25362136843F00103136080F83D404A
:105A4000002030BD0220FCE70068D20184328318B8
:105A5000F0B5C7685D684C680E6805F470455D6018
:105A6000C56806F1010CC5F30B45C7F30B47274486
:105A7000654445EA07455D60C768CD68C7F30A0716
:105A80002F449D6805F470459D60D0F80CC08D686A
:105A9000CCF30A0C0135654445EA07459D601D6954
:105AA000D1F810C08F6925F007051D61C3F810C03B
:105AB00091F8305045EA076591F8317045EA0725BD
:105AC00091F8327045EA07459D615D6925F0FF0553
:105AD0005D614D695D61DD6925F4E06525F00705CF
