:020000040800F2
:10000000000003205D060008392300083B23000898
:100010003D2300083F2300084123000800000000A2
:1000200000000000000000000000000091700008C7
:10003000432300080000000021710008AF69000898
:10004000AD060008AD060008AD060008AD060008C4
:10005000AD060008AD060008AD060008AD060008B4
:10006000AD060008AD060008AD060008AD060008A4
:10007000AD060008AD060008AD060008AD06000894
:10008000AD060008AD060008AD060008AD06000884
:10009000AD060008AD060008AD06000845230008BF
:1000A000AD060008AD060008AD060008AD06000864
:1000B000AD060008AD060008AD060008AD06000854
:1000C000AD060008AD060008AD060008AD06000844
:1000D000AD060008AD060008AD060008AD06000834
:1000E00057230008AD060008AD060008AD0600085D
:1000F000AD060008AD060008AD060008AD06000814
:10010000AD060008AD060008AD060008AD06000803
:10011000AD060008AD0600086D230008AD06000816
:10012000AD060008AD060008AD060008AD060008E3
:10013000AD060008AD060008AD060008AD060008D3
:10014000AD060008AD060008AD060008AD060008C3
:10015000AD060008AD060008AD060008AD060008B3
:10016000AD060008AD060008AD060008AD060008A3
:10017000AD060008AD060008AD060008000000004E
:10018000AD060008AD060008AD060008AD06000883
:10019000AD060008AD060008AD060008AD06000873
:0C01A00079230008AD0600088523000844
:1001B00010B5054C237833B9044B13B10448AFF3A1
:1001C00000800123237010BD800300200000000088
:1001D000B039020808B5034B1BB103490348AFF31C
:1001E000008008BD0000000084030020B039020830
:1001F00001F0FF01102A2BDB10F0070F08D010F8D8
:10020000013B013A8B422DD010F0070F42B3F6D1DB
:10021000F0B441EA012141EA014122F007047FF0F4
:1002200000070023F0E80256083C85EA010586EA4B
:10023000010685FA47F5A3FA87F586FA47F6A5FA87
:1002400087F68EB9EED1F0BC01F0FF0102F0070293
:1002500032B110F8013B013A83EA010313B1F8D13E
:100260000020704701387047002D06BF354603381F
:10027000073815F0010F07D1013015F4807F02BF58
:10028000013015F4C03F0130F0BC0138704700BFA9
:100290007BB972B90029BEBF00204FF0004106E0D3
:1002A00008BF00281CBF6FF000414FF0FF3000F086
:1002B000D3B9ADF1080C6DE904CE002909DB002BA0
:1002C0001ADB00F04DF8DDF804E0DDE9022304B0AC
:1002D0007047404261EB4101002B1BDB00F040F80E
:1002E000DDF804E0DDE9022304B0404261EB4101A6
:1002F000524263EB43037047524263EB430300F007
:100300002FF8DDF804E0DDE9022304B0404261EBA0
:1003100041017047524263EB430300F021F8DDF8DE
:1003200004E0DDE9022304B0524263EB430370476B
:1003300053B94AB9002908BF00281CBF4FF0FF314C
:100340004FF0FF3000F088B9ADF1080C6DE904CE34
:1003500000F006F8DDF804E0DDE9022304B07047A0
:100360002DE9F047089D8E4604468846002B4AD169
:100370008A42174662D9B2FA82F64EB1C6F120031C
:1003800001FA06F820FA03F3B74043EA0808B4403C
:100390004FEA174E1FFA87FCB8FBFEF1230C0EFB49
:1003A000118843EA084301FB0CF29A4209D9FB1871
:1003B00001F1FF3080F0EA809A4240F2E780023992
:1003C0003B449A1AA3B2B2FBFEF00EFB102243EAA2
:1003D000024300FB0CFC9C4509D9FB1800F1FF32DD
:1003E00080F0D6809C4540F2D3803B44023840EAFE
:1003F0000140A3EB0C0300211DB1F3400022C5E92D
:100400000032BDE8F0878B4205D90DB1C5E9000186
:1004100000210846F5E7B3FA83F1002946D1734578
:1004200002D3824200F20581841A6EEB030201209E
:100430009046002DE5D0C5E90048E2E7002A00F02B
:100440009080B2FA82F6002E40F0A4808A1A030C43
:100450004FEA174E80B2BCB20121B2FBFEFC0EFB8C
:100460001C2243EA024304FB0CF29A4207D9FB1810
:100470000CF1FF3802D29A4200F2E080C4469B1A87
:10048000B3FBFEF20EFB123340EA034302FB04F41B
:100490009C4207D9FB1802F1FF3002D29C4200F2C5
:1004A000CA8002461B1B42EA0C40A5E7C1F12006A8
:1004B0008B4022FA06F71F430EFA01F420FA06F3E6
:1004C0002EFA06FE4FEA1749234300FA01F81FFAF5
:1004D00087FCBEFBF9F01C0C09FB10EE44EA0E444D
:1004E00000FB0CFEA64502FA01F209D93C1900F105
:1004F000FF3A80F09C80A64540F2998002383C4447
:10050000A4EB0E041FFA83FEB4FBF9F309FB1344BA
:100510004EEA044403FB0CFCA44508D93C1903F142
:10052000FF3E80F08280A4457FD9023B3C4443EAF1
:100530000040A4EB0C04A0FB02EC64457346E146CA
:1005400062D35FD05DB1B8EB030264EB090404FA37
:1005500006F622FA01F31E43CC40C5E900640021EF
:100560004FE7B1FBF2FC010C41EA0E4180B240EAD8
:1005700001423B4638463C46B846BE462026B1FBC3
:10058000F7F1A2EB080241EA0C4166E7014618E7E1
:1005900010462CE7C6F120022EFA02F3B740B14014
:1005A00020FA02F24FEA174E0A43B3FBFEF8BCB240
:1005B0000EFB1833110C41EA034108FB04F9B0406B
:1005C00089454FEA104380B23ED9791808F1FF3CC3
:1005D00001D289451FD8A1EB0901B1FBFEF909FB46
:1005E00004F80EFB191192B242EA0142424529D2A7
:1005F000BA1809F1FF31C4D24245C2D2A9F10201B1
:100600003A44BEE7F0459DD2BEEB02036CEB070C0B
:100610000138E14696E7A7EB09094944A8F1020C25
:10062000B1FBFEF909FB04F8DBE773467FE75046B0
:1006300066E70846FDE63B44023A33E7ACF1020CBC
:100640003B441CE749469CE7A1EB0901C446B1FBCA
:10065000FEF909FB04F8C4E7704700BFDFF834D0A7
:10066000002103E00C4B5B58435004310B480C4B0A
:1006700042189A42F6D30B4A02E0002342F8043BA8
:10068000094B9A42F9D303F0BDFD22F023FC01F09F
:1006900063F8704700000320D483030800000020A3
:1006A0006401002080030020F86F0120FEE77047FE
:1006B00008B500F0BFFDBDE8084000F041BD00F006
:1006C000BBBD704710B50421044621F016FA204640
:1006D00010BD000038B50C4B0C4C18800C4B822020
:1006E00019806368984740F6110398420AD1094D72
:1006F00023682C60822098472B688220DB6898470B
:10070000002038BD0120FCE7A60300204C0000209B
:10071000A4030020A80300204FF4A071F020FFF7ED
:10072000D9BF0000F7B5394D2B6804461B698220FC
:100730009847208000284ED02B680DF106025B6997
:1007400001A982209847324B1B78002B4BD0BDF873
:10075000062040F674639A423FD9ADF80630BDF8E2
:1007600006209B1A9BB20A2B42D90B22B3FBF2F351
:10077000284A1288934201D9013A93B2BDF8042065
:10078000254840F6B8318A4234D8C2F571620E323B
:10079000016892B20F25B2FBF5F2204D2D88AA42D6
:1007A00084BF05F1FF35AAB28A4215468EB22AD916
:1007B000921B91B21A4E3768BB42BAB28CBF9A1ADA
:1007C000D21A92B211440529C4BF05603360036890
:1007D00063803368A38003B0F0BDB32A9CBFB4220A
:1007E000ADF80620BBE7BDF80630A3F5B473B9E752
:1007F0000023C3E7C2F56D62083292B20E2A016887
:10080000C8D800252A46891A89B2D3E7A803002050
:1008100030520020A4030020A0030020A6030020E3
:100820009C03002037B568460D461446FFF77AFF53
:10083000BDF8000030B1BDF802302B60BDF80430C7
:100840002360012003B030BD032821D8DFE800F089
:10085000020B12190F4B1A68B2FA82F252090421E4
:100860000D4803F063BF0B4B5A68B2FA82F252098B
:100870000821F5E7074B9A68B2FA82F25209102173
:10088000EEE7044BDA68B2FA82F252092021E7E778
:10089000704700BFAC03002000100240032821D89D
:1008A000DFE800F0020B12190F4B1A68003A18BF6C
:1008B000012204210D4803F039BF0B4B5A68003A5E
:1008C00018BF01220821F5E7074B9A68003A18BFC4
:1008D00001221021EEE7044BDA68003A18BF01222A
:1008E0002021E7E7704700BFAC0300200010024062
:1008F00003280DD8DFE800F00206080A04210548A5
:1009000003F019BF0821FAE71021F8E72021F6E7E4
:10091000704700BF0010024008B5032811D8DFE877
:1009200000F0020A0C0E0421074803F0F9FE431EF2
:100930005842584108BD0821F6E71021F4E720216C
:10094000F2E70020F3E700BF0010024070B5084D49
:1009500000240126E0B2FFF7DFFF18B12B68012B5E
:1009600018BF2E600134052C05F10405F2D170BDCD
:10097000AC030020012380F8781080F879307047AC
:100980007047002070470000034B4164003918BFD6
:1009900001211970704700BFB76201207047002025
:1009A0007047836B0BB10846184770474FF6FF70CE
:1009B0007047406803689B691847704770477047E5
:1009C0007047704710B5044600F04CFD236803499A
:1009D000D3F890302046BDE810401847000000D002
:1009E00008B503680446D3F8843098472368204646
:1009F000DB6F984700F0ECF8236820465B6F984760
:100A0000292001F083F900F0E3F8236820465B6FAA
:100A10009847F8E710B5044609F032F923682046F4
:100A2000D3F8BC30BDE81040184700F0FFBC00F020
:100A300003BD00F035BD00F0D5BC00F045BD00F0B1
:100A40004DBD00F0D9BC08F049BB10B58421044667
:100A500021F053F8204610BD10B590F8341090F8EE
:100A600078400C4B8C421A7809D03AB90A4A0B49A3
:100A70001488088810800C8001221A7010BD002A8A
:100A8000FCD0054A05491488088810800C80002293
:100A9000F3E700BFB0620120AC620120AE6201202A
:100AA00070B50D46194635B9094B0A4A0A4840F255
:100AB000FF2121F05FFFC0E90F52084B003A18BF39
:100AC00001221A700368BDE87040D3F890301847CF
:100AD000203A0208583A0208A63A0208B6620120F3
:100AE00008B5094B1B888B4203D8084B1B889342DF
:100AF00005D9074B074A0848A32121F03BFF074BC4
:100B00001980074B1A8008BDAC620120AE6201203B
:100B1000EB3A02084E3B0208A63A0208B2620120F4
:100B2000B4620120034690F87A0018B1586803684F
:100B30001B68184770470000012108B500220846CD
:100B400005F0BEFF0A4B186028B90A4B0A4A282153
:100B50000A4821F00FFF00220421012006F04FF87F
:100B6000074B186018B9074B034A2C21F0E708BD62
:100B7000C0030020913B0208DA3B0208093C02084E
:100B8000BC030020513C0208024B4FF0FF311868B3
:100B900005F0E0BFC0030020014B186806F006B85E
:100BA000C0030020024B0021186805F0D3BF00BF2E
:100BB000C0030020FFF7F0BF03480449006800238A
:100BC0001A4606F057B800BFBC03002004000020FE
:100BD00013B5084C00231A4601A9206806F07BF8DB
:100BE00020684FF0FF33002201A906F074F802B02C
:100BF00010BD00BFBC03002003685B6C18470120D8
:100C0000704703689B6A1847FEE740F2EF30704771
:100C1000054B0360054B4FF08062C3F88820BFF39B
:100C20004F8FBFF36F8F70479446020800E100E0DA
:100C300010B504464FF45A61FFF7EAFF204620F052
:100C40005CFF204610BD000082B0002301930E4BD4
:100C50001A6B42F400021A631A6B02F4000201924A
:100C6000019A1A6942F400021A611A6922F4000218
:100C70001A61064B064A1A61064A5A61064B4FF042
:100C800080629A6002B07047003802400C54002025
:100C9000E90E0008090C000800E100E008B50A2888
:100CA00009D8DFE800F006100E0808080810101038
:100CB0001000022008BD054B054A0648902121F08E
:100CC00059FE0020F6E70120F4E700BF933C02083C
:100CD000AE3C0208F93C020838B50C46887FFFF7A5
:100CE000DDFFA58AE28A164B2169586342EA054274
:100CF0005A64628BD963521B1A642568082D0ED181
:100D00009A611A615862207F0E4A42EA0062DA61F3
:100D1000E2681A620C4A5961D9601A6038BD002233
:100D2000D8611A61E1680A0A480902F4784200F4BD
:100D3000FC600243C1F3C4010A439A63034AECE72F
:100D400000B002400900010001230200012303005A
:100D500008B50B280BD8DFE800F00612100A0A0AC3
:100D60000A0808080808022008BD0520FCE7054B12
:100D7000054A06486F2121F0FDFD0020F4E701201F
:100D8000F2E700BF933C02083F3D0208F93C02082D
:100D90002DE9F04191F81D800C464046FFF7D8FF41
:100DA000A77F05463846FFF7D3FF06463846FFF7CC
:100DB00075FFA18A628B444B521A1A649A61228B86
:100DC000521A1A61E28A586342EA01425A6421695E
:100DD0006268D963DA602068802828D0227F0FD823
:100DE000202867D0402865D004281AD0364B45EA21
:100DF000026545F40035B845DD6161D0334A44E011
:100E0000B0F5807F04D0B0F5007FEFD1304800E02E
:100E1000304840EA0262DA61E2681A625E62596151
:100E200032E045EA026242F40032DA61F6E7A06895
:100E3000021DDA62227F45EA026545F40035DD6174
:100E40005E625961017841B1012921D0224B234AC8
:100E500023484FF48D7121F08DFDDA69418822F429
:100E60007F42013922F0100242EA0122DA610121B7
:100E7000154BDA6942F02002DA61DA699206FCD495
:100E800010229A600029B9D0164A1A60BDE8F08194
:100E9000B2F1FF01DA69408822F47F4200F1FF30AD
:100EA00022F0100242EA002242F0100218BF012193
:100EB000DA61DDE745EA0262034B42F40032B4E74F
:100EC00042F20132E1E700BF00B00240012301001D
:100ED000090002000A000200893D0208A33D020841
:100EE000F93C020801230200024B1B6858680368A2
:100EF0005B691847B862012070B5044625460A4B65
:100F00000C30002660602672667245F8203B602235
:100F1000294609F00BF804F55A63EE6024359D422A
:100F2000FBD1204670BD00BF94460208034B1A68EF
:100F3000D207FCD423229A60704700BF00B0024061
:100F40007047000030B50F4C2568ED07FCD4232511
:100F50000904A56041F001010225FF2B656361646E
:100F6000E0630AD00849656241EA0363E361074B25
:100F700022626061E060236030BDE561039BA36392
:100F8000034BF8E700B00240090001000100020035
:100F90000100030030B50E4C2568ED07FCD4232575
:100FA0001204A56042F001020225FF2B6563626412
:100FB000E063E16008D01B0643F00213E361054BD8
:100FC00065626061236030BD034BE3610123F9E793
:100FD00000B0024001000200020002FF30B50B4CDD
:100FE0002568ED07FCD4232512041B06A56043F4F5
:100FF0000033022542F0010265636264E063E16050
:10100000E361034B65626061236030BD00B0024064
:1010100001000200012070470C2070470C2303FBE5
:101020000100083070470C2303FB010008307047B3
:101030000120704743F61C50704743F61C5303FBD6
:1010400001000830704743F61C5303FB01000830D1
:101050007047012070471020704700EB01100830E6
:10106000704700EB011008307047084601F088BB5C
:1010700010B5034B0360044607F085FD204610BD04
:101080004C47020810B50446FFF7F2FF2046142132
:1010900020F033FD204610BD10B5034B036004461D
:1010A00007F071FD204610BD1847020810B5044630
:1010B000FFF7F2FF204643F6245120F01EFD2046A4
:1010C00010BD000010B5034B0360044607F05BFD44
:1010D000204610BDE446020810B50446FFF7F2FFB3
:1010E0002046182120F009FD204610BD10B5094BFF
:1010F0000360044600F575501030FFF7B9FF04F1A6
:101100002C00FFF7C9FF04F11400FFF7DBFF2046B6
:1011100010BD00BF8047020808B50248FFF7E6FF90
:1011200008BD00BF9C12002010B50446FFF7DEFF8B
:10113000204643F6C46120F0E0FC204610BD0000CC
:101140002DE9F34101F092F9054601F093F90024ED
:101150000146234628462246009411F03BFC274BCB
:10116000274A1A60204601F05FFF264D264B274A8A
:1011700027489A6011F096FB2B68BFF35B8FDB0763
:1011800036D4284620F0BBFC90B3224C224F234B90
:10119000236007F1180604F1140004F12C086060C4
:1011A000C4F80880E760266107F0EEFC1C4B636121
:1011B000404607F0E9FC1B4BE362384607F0E4FCCD
:1011C00004F5405303F66450174AC3F8502D01F05C
:1011D000AFFF224607F11401304601F09FFF304671
:1011E00001F0CEFA114821F0E3FB284620F093FCF1
:1011F0000F4802B0BDE8F041FFF7E4BB1C630120DB
:101200004804002098120020680400204C040020AC
:10121000080000209C120020EC4F002080470208AC
:10122000E4460208184702084C4702081911000852
:10123000C4030020704700000148FFF7D1BB00BF86
:10124000C403002070B5264E264C274D274B236043
:101250003046FFF751FE284616F0C2FC24480FF036
:10126000A7F8244B2448DC6000224FF48071C3E9C6
:10127000121222491A86C3E91A12214983F858200A
:10128000C3E91E011F49C3F880101F491F480B60A6
:10129000F021C3E90422C3E90622C3E90822C3E915
:1012A0000A22C3E90E22C3E91022C3E91422C3E9CA
:1012B00017225A6683F870205A67C3E901650180D6
:1012C0001348018013484FF4A07101801248018037
:1012D00012490A70012283F83420114A1A6070BD45
:1012E000F40400209412002068040020103A020840
:1012F0004C040020C4030020000001010100000193
:10130000000450001A001400B8620120AC620120F1
:10131000B2620120AE620120B4620120B0620120FD
:10132000A84502080148FFF773BC00BFF404002081
:101330000020704781807047C180704701817047ED
:10134000418170477047704770477047704710B4CD
:10135000C4880368121B84885B6D091B12B25DF898
:10136000044B09B218474FF6FF7383814FF0FF33E8
:1013700003621368C36110607047002070478B8858
:10138000838001207047704780F82610704790F8DE
:101390002600704710B50022B1F90840B1F90A10D3
:1013A000028042808480C18010BD00220280428081
:1013B0008280C28070470177704780ED080A7047CD
:1013C00080F82410704780F825107047012070477E
:1013D000983070478C307047843070477047704742
:1013E00070470000034B902283F85A2383F8582358
:1013F000704700BF00E100E0094A0A49D3680A4883
:10140000C3F30A03013B9BB20B801169C1F30A01CC
:10141000013901801364536B43F001035363704738
:10142000006801406251002060510020014BD3F858
:10143000AC00704700680140024B0122C3F8AC10B9
:101440005A6270470068014010B52C21044620F014
:1014500054FB204610BD10B5BC21044620F04DFBC6
:10146000204610BD70B5044607F08DFE23689D6EC2
:101470000DF036FD01462046A8472368054AD3F8FB
:101480008C502046AC460023BDE87040A2F51631D2
:10149000604700BF00B004D007F05CBE07F066BE36
:1014A00007F022BE07F091BF90F8252012B1036823
:1014B0005B691847704790F825201AB190F82420EE
:1014C00002B1186070470000034B4FF080629A60D1
:1014D0004FF080729A60704700E100E0084B4FF0D7
:1014E0008062C3F88820BFF34F8FBFF36F8F4FF038
:1014F0008072C3F88820BFF34F8FBFF36F8F7047A0
:1015000000E100E070B50023124E8380124B0360AF
:10151000336893F8582005460AB1D86C00B998682A
:101520000368DB6A98473368B0FA80F4D86C6409C2
:1015300030B10368DB6A9847002808BF44F0010413
:101540002CB9064B064A07482C2121F013FA2846ED
:1015500070BD00BFB862012094470208E13D020857
:101560003F3E0208783E020870B5254E3568BFF34D
:101570005B8F15F0010540D1304620F0C0FA0028FD
:101580003BD0204C204B256104F13400C4E90035E8
:10159000C4E90255E584A562A5850FF0EEF904F1D2
:1015A00058000AF079F9194BA3652046184B40F80A
:1015B000843BFFF7A7FF174BC4F884302433C4F8EB
:1015C0008C304FF4C803C4E928350023C4F8AC308C
:1015D000C4F8B030C4F8B430C4F8B8300E480F4B7B
:1015E000C4F89050C4F89C50C4F8A850C4F898307F
:1015F00021F0DEF9304620F08EFA024870BD00BFBF
:101600006451002068510020304E0208B44702089F
:101610002C480208E44D0208E1130008C44D0208FA
:1016200038B5184C23685BB3174B184A1B6C1188EC
:101630008B4216D1164B198803F08CFE236893F861
:101640006A200025013283F86A2083F87C50FFF776
:10165000B3FA206808F014FB2846BDE83840FFF7CD
:10166000F3B803F077FE2468236820461B6A984786
:10167000012384F87C300020BDE83840FFF70EB924
:1016800038BD00BFB86201200068014062510020EF
:101690006051002007B5064BADF806001B680548F1
:1016A00001220DF1060104F005FC03B05DF804FB16
:1016B0000C000020B852002008B5642005F0F4F9B1
:1016C000FBE7000030B595B0102200210AA821F0F8
:1016D00058FB0021142203A821F053FB00241C4BCB
:1016E00001941A6C42F080521A641B6C03F0805310
:1016F0000193019B174B02941A6842F440421A600E
:101700001B6803F440430293029B01224FF4803391
:10171000CDE9082302254FF48003B422CDE90E530E
:1017200008A80423CDE91032CDE9125303F06AFE74
:1017300003F02EFE0F23CDE9033505214FF4A0530E
:1017400003A8CDE90633059404F038F815B030BD90
:10175000003802400070004080B59AB002F060FD91
:10176000FFF7B0FF142200210DA821F00AFB00248E
:10177000C94B00941A6BC948DFF8589342F0100225
:101780001A631A6B02F010020092009A01941A6B0D
:1017900042F020021A631A6B02F020020192019AB1
:1017A00002941A6B42F080021A631A6B02F08002F4
:1017B0000292029A03941A6B42F004021A631A6BA3
:1017C00002F004020392039A04941A6B42F001029D
:1017D0001A631A6B02F001020492049A05941A6BC0
:1017E00042F002021A631A6B02F002020592059A95
:1017F00006941A6B42F040021A631A6B02F0400220
:101800000692069A07941A6B42F008021A631B6B41
:1018100003F00803224607933C21079B02F086FF52
:101820009F480122022102F081FF22469C480421A8
:1018300002F07CFF22469B484FF4405102F076FFB5
:1018400001263C23CDE90D3694480F9403230DA9BE
:101850000227109302F080FE91480DA9CDE90D7684
:10186000CDE90F4402F078FE04238D480DA9CDE99F
:101870000D36CDE90F474FF4405802F06DFE4FF49E
:10188000041589480F960DA9CDE90D8502F064FE77
:1018900084480DA9CDE90D86CDE90F4702F05CFE25
:1018A000C02380480F960DA9CDE90D3502F054FEF6
:1018B00022460521172002F005FD172002F034FD15
:1018C00022460521282002F0FDFC282002F02CFDF4
:1018D0007648774B774DDFF80082036002F032FDE7
:1018E000754B2C62C5E9008328464FF48043C5E957
:1018F0000434C5E90244C5E9064403F031F9102176
:10190000284603F075FB214628466C4D03F08FFBFB
:101910004FF48273C5E900934FF4007A1823C5E9A8
:1019200006A328460A23C5E90244C5E90444C5E9DB
:101930000844AC62EB6204F061FA8F232246394618
:1019400057488DF824308DF8344002F0EFFE3246CF
:101950004FF47A7309A9284604F0ACFA4FF47A736D
:1019600032460DA9284604F051FC324639464C480F
:10197000534D02F0DBFE9DF83430D32B04BF514BA6
:101980001E70514B0126C5E9003610224023002469
:10199000C5E904234FF4C073C5E906344FF400636E
:1019A000C5E908344FF4005302274FF00409AB6235
:1019B0004FF0030A07230DA92846CDE90D73CDE9A1
:1019C0000F934FF00808C5E90249CDE911A7139715
:1019D00004F0F8F84FF6FF7209A92846CDE90A8607
:1019E000089409960C9404F00DF9304602F044FC7A
:1019F0004FF6FF7209A92846CDE90978CDE90B64B5
:101A000004F000F94FF6FF7209A92846CDE909A8AC
:101A1000CDE90B9404F0F6F84FF40C730893089B8F
:101A20000C934FF6FF7209A92846CDE909980B9649
:101A300004F0E8F840F26A51284604F001F9342233
:101A40000DEB0200214621F09CF9204D204B2C612A
:101A5000C5E900340923C5E905361D23C5E9073A60
:101A600040F20D1140F24313C5E9091340F217107B
:101A700040F24713C5E90B032846C5E90244AC868A
:101A800085F8364003F06EFBFF214FF4806CF022A6
:101A9000CDE91214052121E0003802400010024077
:101AA00000080240000C0240000402404C54002098
:101AB00000300240B8530020A0860100B852002038
:101AC0003C52002030520020400100A01053002062
:101AD0000068014000500140005C0040CDE914C1A5
:101AE0004FF4A0730DA9CDE90E24CDE91642284686
:101AF0002246294D1893CDE910370D94ADF8644076
:101B00008DF8664003F0F9FB244B2B601B68984767
:101B10002B68234DDB689847224B2846C5E90034E3
:101B2000C5E90274C5E90A47C5E90C4402F01AFC8C
:101B30003146284602F0CCFC1B4DDFF88CE02C61CE
:101B40004FF4E133C5E900E328460C23C5E9053429
:101B5000C5E90244EC6104F015FE4FF0FF33134970
:101B60001122284604F03DFEFEF7A2FDFEF79FFD80
:101B700004F02AFF0E4A0F48214604F051FF0E4B95
:101B80000E4A186021460E4804F04AFF0D4B1860BB
:101B900004F02CFFFEE700BF2852002014000020B4
:101BA0000C54002000B0024070520020DA3E0208BF
:101BB00094480208B91600083852002070480208FC
:101BC000BF060008345200200010014010B5044642
:101BD00002F04CFB0C4A1368C31A642B06D9B4F507
:101BE000805F04D1094B01211970106010BDB4F55C
:101BF000005F01D1064BF6E7402C01D1054BF2E71F
:101C0000802CF2D1044BEEE7245200202F5200200A
:101C10002E5200202C5200202D5200207047704779
:101C20007FB5094B8DF817201B6802930DF1170241
:101C30000123009201930A460146044803F038F854
:101C400007B05DF804FB00BF10000020B85300206F
:101C50007FB500238DF81730084B1B6802930A46A6
:101C600001230DF11701009101930146044803F08F
:101C7000AFF89DF8170007B05DF804FB10000020D6
:101C8000B85300201FB5084C24680092CDE90134F8
:101C90000A4601230146054803F09AF8003818BFA8
:101CA000012004B010BD00BF10000020B853002078
:101CB00002F0E2BA10B5064C00222046042102F0E0
:101CC00035FD20460122BDE81040042102F02EBD62
:101CD0000008024038B50B4D044601220A484FF473
:101CE000005102F023FD00220421284602F01EFDCF
:101CF0002046FFF7CFFC28460122BDE838400421EA
:101D000002F014BD00080240000C024038B50B4D33
:101D1000044600220A484FF4005102F007FD002259
:101D20000421284602F002FD2046FFF7B3FC2846B6
:101D30000122BDE83840042102F0F8BC000802404E
:101D4000000C0240F7B5144E144F05460C463046C1
:101D50000022042102F0EAFC00224FF40051384630
:101D600002F0E4FC2846FFF795FC0D4B0D481B687C
:101D7000224601A904F04AFA384601224FF40051E4
:101D8000019C02F0D3FC30460122042102F0CEFC7B
:101D9000204603B0F0BD00BF00080240000C024026
:101DA0000C000020B852002002F066BA0268034B13
:101DB0009A4201D102F04EBA704700BF00100040B5
:101DC0007047000082B00E4B00220092596C41F423
:101DD00080415964596C01F480410091009901924D
:101DE000196C41F0805119641B6C03F0805301930E
:101DF000019B0F216FF0010002B002F063BA00BF37
:101E0000003802400268094B9A4282B00BD100238D
:101E10000193074B1A6B42F480521A631B6B03F455
:101E200080530193019B02B0704700BF0030024015
:101E30000038024007B50F4B02689A4216D10022C3
:101E4000A3F5F0430192196B41F4000119631B6B78
:101E500003F40003019305215A20019B02F032FA9A
:101E60005A2003B05DF804EB02F05EBA03B05DF8EF
:101E700004FB00BF00B002402DE9F043044689B0E6
:101E80001422002103A820F07CFF2268244B9A42F0
:101E900043D1244C244800250095236B43F00403D0
:101EA0002363236B03F004030093009B0195236BD2
:101EB00043F001032363236B03F001030193019BB0
:101EC0004FF012094FF400734FF001080327042666
:101ED00003A9CDE90339CDE90587079602F03CFB5C
:101EE0004FF480731148079603A9CDE90339CDE972
:101EF000058702F031FB0295236C43F40003236451
:101F0000236C03F400030293029B236A43F400034F
:101F10002362236A23F40003236209B0BDE8F0833F
:101F2000005C00400038024000080240000002400F
:101F3000F0B599B004461422002107A820F021FF33
:101F400030220DEB0200002120F01BFF22685E4BC7
:101F50009A4240F0B78008230C93C02310930423C7
:101F600012930CA84FF40033159303F0FFFC08B153
:101F7000FFF726FF554B5648002400945A6C42F058
:101F800080625A645A6C02F080620092009A019456
:101F90001A6B42F020021A631A6B02F020020192BF
:101FA000019A02941A6B42F001021A631A6B02F052
:101FB00001020292029A03941A6B42F002021A631F
:101FC0001A6B02F002020392039A04941A6B42F015
:101FD00040021A631A6B02F040020492049A0594BC
:101FE0001A6B42F004021A631A6B02F004020592A3
:101FF000059A06941A6B42F008021A631B6B03F0F1
:102000000803069302250E26069B0B964FF4806369
:1020100007A9CDE90735CDE9094502F09DFA41F65A
:1020200058032C480B9607A9CDE907350927CDE9B8
:10203000094502F091FA032327480B9707A9CDE938
:102040000735CDE9094502F087FA4FF4706322485D
:102050000B9607A9CDE90735CDE9094502F07CFAD1
:102060004FF40C631D480B9607A9CDE90735CDE960
:10207000094502F071FAC02319480B9607A9CDE96A
:102080000735CDE9094502F067FA082315480B9694
:1020900007A9CDE90735CDE9094502F05DFA4FF40E
:1020A000A0530E480B9707A9CDE90735CDE909459F
:1020B00002F052FA58202246052102F003F9582076
:1020C00002F032F919B0F0BD00680140003802405A
:1020D00000140240000002400004024000180240C8
:1020E00000080240000C024010B5044688B01422DB
:1020F000002103A820F045FE2268144B9A4223D108
:1021000003F56843002101915A6C114842F4801292
:102110005A645A6C02F480120192019A02911A6B6D
:1021200042F020021A631B6B03F020030293029B10
:102130004FF4607202230321CDE903230523CDE987
:10214000061303A902F008FA08B010BD00500140C0
:102150000014024010B5044688B01422002103A8E0
:1021600020F00FFE2268144B9A4223D103F59433DA
:10217000002101915A6C114842F010025A645A6CC5
:1021800002F010020192019A02911A6B42F00102D0
:102190001A631B6B03F001030293029B4FF4C062AE
:1021A00002230321CDE903230723CDE9061303A965
:1021B00002F0D2F908B010BD00100140000002404A
:1021C0002DE9F04186B0002303932B4B1C68002CB3
:1021D0004FD14FF00108C3F80080284B00949A6B50
:1021E000274842EA08029A639B6B03EA08030093BC
:1021F000022703260C25009B01A94FF63F03CDE9DA
:102200000137CDE9046502F0A7F91E48059501A93B
:10221000CDE90187CDE9034602F09EF948F2331378
:102220001948059501A9CDE90137CDE9034602F02A
:1022300093F94FF683731548059501A9CDE9013748
:10224000CDE9034602F088F94CF203731048059576
:1022500001A9CDE90137CDE9034602F07DF96023FC
:102260000C48059501A9CDE90137CDE9034602F0F7
:1022700073F906B0BDE8F0815454002000380240E4
:102280000014024000080240001802400010024002
:10229000000C02400004024070B588B00023029395
:1022A000204B1A6C42F010021A641B6C03F01003EE
:1022B0000293054601A903A8029B03F039FB069B84
:1022C0004BBB03F015FB184E184B336040F2E7335D
:1022D000F360174BB0FBF3F3013B73603046002310
:1022E0003361B360B36104F061F9044680B93046EC
:1022F00004F032F8044658B9362002F015F80F2DD4
:102300000DD822462946362001F0DCFF094B1D601E
:10231000204608B070BD03F0EBFA4000D3E701247B
:10232000F6E700BF0038024058540020001000407B
:1023300040420F007C0000207047FEE7FEE7FEE70A
:10234000FEE7704708B5402002F0FEF9BDE80840FE
:10235000802002F0F9B908B54FF4805002F0F4F98A
:10236000BDE808404FF4005002F0EEB9014804F017
:1023700031B800BF58540020014802F061BF00BFCF
:1023800010530020014802F019B800BF0C5400207F
:102390000120704708B520F097FD162303604FF029
:1023A000FF3008BD08B520F08FFD16230360FEE75F
:1023B00070B50D4614460E46731B9C4201DC204648
:1023C00070BDAFF3008006F8010BF5E770B50D4660
:1023D00014460E46731B9C4201DC204670BD16F865
:1023E000010BAFF30080F5E74FF0FF3070474FF47B
:1023F00000534B6000207047012070470020704759
:102400000A4A116808B5034609B9094911601068FC
:10241000694603448B4206D920F056FD0C23036025
:102420004FF0FF3008BD1360FCE700BFA054002050
:10243000F86F0120704710B5042104461FF05DFBC2
:10244000204610BD012908B506D0022908D059B987
:1024500000F036FE006808BD00F032FE4068FAE782
:1024600000F02EFE8068F6E70020F4E70048704791
:10247000CC4802080F20704713B5002451B10368FF
:1024800001948DF8034001AA9C680DF10303A04755
:1024900002B010BD0846FBE7C0897047008A70474C
:1024A000C088704780887047807A00F07F0070474E
:1024B000807AC00970470020704700009FED010A34
:1024C000704700BF00000000704710B508210446A7
:1024D0001FF013FB204610BD7047704700F598733E
:1024E0000868496803C37047704770474160704788
:1024F00070477047064BC0F84C310023C0F850318C
:1025000000F5A273C0F84801C0F84031704700BF21
:10251000B5250008012303727047704710B4C268E4
:1025200041685410034601EB6200D20748BF0A59C4
:102530009B685DF8044B48BFD35818470346406872
:1025400030B19A681AB9D86800F0010070470120CC
:10255000704710B50C2104461FF0CFFA204610BD7D
:1025600010B5102104461FF0C8FA204610BD10B562
:102570004FF4AE7104461FF0C0FA204610BD10B5EE
:102580000CF0AEFC0368BDE81040DB6B184710B5DB
:102590000446D0F8400158B10368DB68984738B169
:1025A000D4F8400103689B6898470023C4F8403181
:1025B00010BD00002DE9F14FD0E9556A0746B0681B
:1025C00003681B6A984743F61B53984205D8444B4F
:1025D000444AA321444820F0CDF9706803681B6A7F
:1025E00098470F2803D8414B3E4AA421F2E7F068F0
:1025F00003681B6A98470B2803D83D4B394AA5212D
:10260000E8E70CF06DFCDFF8F09004300CF08DFC86
:10261000D9F8000010B10368DB689847D9F80000CA
:1026200010B103681B689847DFF8D080D8F8000025
:1026300010B103685B699847D7F83C0110B1036893
:102640005B689847D8F8000010B103681B6898478A
:10265000D7F83C0110B103689B689847F06803689D
:1026600000215B6A98474FF0000B224BC0F804B082
:10267000044680F808B00360B068036859465B6A96
:102680009847054600F056FE7068036859465B6A35
:1026900098472946064600F05DFD331DC7F83C61AA
:1026A000C9F80040C8F80050CAF800302B68C6F8D6
:1026B00008A02846DB68EE639847336830461B68FD
:1026C0009847214628460EF0DDFD236820461B6909
:1026D000984723685B69204601B0BDE8F04F184772
:1026E000023F0208903F020862400208A940020827
:1026F0004C4102087C4A020800630120FC62012070
:10270000044B1B6893F858200AB1D86C00B998683C
:10271000704700BFB8620120F8B5174604460E4660
:102720000CF0A0FC124B1C60124B2360124B0025D6
:10273000C4E95135114BC4E95355186803680121A8
:102740009B68C4E94F55C4E955769847284600F080
:102750006BFCFFF7D5FF17F0ECF8FFF7D1FF17F090
:1027600063F9FFF7CDFF17F06BF92046F8BD00BF06
:102770000C630120284A0208104A0208B8620120AE
:10278000064BC0F84C310023C0F8503100F5A2735D
:10279000C0F84801C0F84031704700BFB5250008B7
:1027A000406A7047806A704770478A880B8810B506
:1027B000D20A4C88C1699BB251F8220043EA044313
:1027C000184410BD10B50446BAB1107B68B1537BF4
:1027D000D27A1B0203F4E0631A43236A03EB8203F9
:1027E0001A888A4202D193F9020010BD05D8013837
:1027F00080B204330028F3D1F7E70020F5E710B5E5
:102800002C2104461FF079F9204610BD30B58BB05D
:102810000446BDF860500895BDF85C5007959DF8DA
:10282000505006959DF84C5005959DF848500495DC
:102830009DF8445003959DF8405002959DF83C50FA
:102840000195BDF8385000950EF054F9064B236001
:10285000159BE361169B2362199B63621A9BA3621B
:1028600020460BB030BD00BFA04A02087047704739
:1028700070477047704730B5036885B06D46018179
:10288000D3F88430014604462846984795E8070067
:102890003C3484E8070005B030BD30B5036885B02E
:1028A0006D464181D3F88430014604462846984756
:1028B00095E807003C3484E8070005B030BD0022ED
:1028C000028042808280C280704780F83610704754
:1028D00070B5036804461B6B154698472368294664
:1028E00020465B6EBDE87040184700207047806C42
:1028F000704770477047704770477047704710B512
:1029000003680446DB6A9847236820461B6BBDE8D2
:102910001040184710B54C2104461FF0EEF8204631
:1029200010BD10B54FF4197104461FF0E6F82046AB
:1029300010BD08B5FEF7B8FD08BD11B903685B6BA3
:1029400018477047036870B55E6B124B1B680446EE
:102950008DB22BB9104B114A6C21114820F00AF8A6
:102960001049828D0988914203D80F4B0B4A6D2183
:10297000F3E713F812200D4B1B6853F8220003688D
:102980001B6B9847291A3346204609B2BDE87040B0
:10299000184700BF10630120EF41020831420208CE
:1029A0006C42020814630120B3420208186301203C
:1029B00000224FF0FF31C0E9002182607047000023
:1029C000074A02600022C0E90122C0E90322C0E9EF
:1029D0000522C0E907224FF480728284704700BF4D
:1029E0009851020870B5036804461B6B154698475A
:1029F0002368294620465B6BBDE87040184770B5D8
:102A000004461D46BDF91060FFF7ECFF2368294618
:102A100020469B6B9847236831462046DB6BBDE818
:102A20007040184710B526220446002120F0A9F96D
:102A30002046FFF7C5FF044B2360FF2384F82630B0
:102A40000023A362204610BDF84F020810B52622CD
:102A50000446002120F095F92046FFF7B1FF0A4B0C
:102A600023600A4BA3624FF6FF73A3854FF47F02E6
:102A70000023C4E90C3223874FF0FF32C4E910234E
:102A8000E363204610BD00BF684F0208004A0208F9
:102A90002DE9F04F04468FB0A04600250EF046FA0F
:102AA000BA4BE56348F8403B04F16C074046FFF73A
:102AB000B9FF04F198060CA94FF6FF733846DFF80A
:102AC00004B3ADF8303004F1C40A08F04DFF3046CD
:102AD000FFF776FFC4F898B0C4F8C0505046FFF72F
:102AE000A1FFAB4AC4F8C42004F1F803184604F56A
:102AF0009279C4F8F050A4F8F4500793FFF760FF00
:102B0000C4F8F8B0C4F820514846FFF79FFFA14B26
:102B1000C4F8243104F5B8731846C4F86C51069310
:102B2000FFF74EFF04F5CE73C4F870B11846C4F831
:102B300098510593FFF776FF954AC4F89C2104F558
:102B4000E8731846C4F8C851A4F8CC510493FFF7B1
:102B50007DFF04F5067318460393FFF777FF8D4B4F
:102B6000C4F818324FF4A0732A464046C4F86052A5
:102B700029460093F023FFF742FF04F1040B4FF0C6
:102B80007F43A3664146584606F012F838460CA922
:102B9000ADF8305009F096FD4FF4A0732A46384640
:102BA00000932946F023FFF72AFF3846294608F00C
:102BB00096FE394658464FF4877705F0F9FF3046C0
:102BC0008C23252212210097FFF719FF2A468C2318
:102BD000294650460097FFF712FF6F496F4BDFF809
:102BE000E881C4E93B134FF001033046A4F8F43008
:102BF000514605F0DDFF4FF4A2736FF035020798E0
:102C0000009329468C23FFF7FAFE3046079905F01A
:102C1000CFFF3146584605F0CBFF1F22D921484649
:102C2000FFF7E0FE5E4BC4F85431D4F82431A4F829
:102C3000585108AED3F8843049463046984796E854
:102C4000070004F5B07383E80700D8F800302BB90B
:102C5000544B554A602155481FF08CFE544B1B883D
:102C60001BB9544B504A6121F5E7DFF860A1524F80
:102C7000DAF80000294600F013FAC4F86C0148465F
:102C800009F0A4FB042348460CA9ADF834300C9796
:102C900009F0BCFB4946584605F08AFF24230093FF
:102CA0003D220698BB21FFF7AAFE0699584605F07B
:102CB0007FFF2D23059800936C223A23B021FFF764
:102CC0009EFE3E4B344A05994FF00209C4E9712338
:102CD0005846A4F8CC9105F06BFF77220498B521F3
:102CE000FFF780FE2D4B0499C4F800323046A4F85B
:102CF000045209F0E3F896E8070004F5037383E84B
:102D0000070003230498ADF834300CA90C9709F0A0
:102D10007DFB0499584605F04BFF85220398CA2194
:102D2000FFF760FE264BC4F84832D4F818320399F6
:102D3000D3F88430A4F84C523046984796E8070000
:102D400004F5157383E80700D8F80030002B3FF432
:102D50007FAF174B1B88012B83D90121DAF80000C4
:102D600000F09EF9C4F86002039809F02FFB039865
:102D70000C970CA9ADF8349009F048FB584603991C
:102D800005F016FF20460FB0BDE8F08F984B020803
:102D900060500208084B02082A2730FF30A8F0FFD5
:102DA0002E97D6FFEF410208F14202086C4202085A
:102DB00014630120B3420208004A0208181308FFF6
:102DC0002F9BDDFF044D0208106301201C630120CE
:102DD0007047000030B5174D2C6814F001048FB017
:102DE000BFF35B8F22D128461EF089FEF0B13F234E
:102DF0000993114B0893114B07930123CDE9054328
:102E000004930423CDE902430A230D4900931422BD
:102E10000C23CDE90B440B480A940194FFF7F6FC10
:102E200009481FF0C5FD28461EF075FE05480FB085
:102E300030BD00BFA4540020A45E0208B05E0208AA
:102E4000605D0208A8540020D12D000870470000E2
:102E500030B5164D2C6814F001048FB0BFF35B8FB2
:102E600021D128461EF04BFEE8B13F230993104BB9
:102E70000893104B104911480A94CDE906430122EA
:102E80000423CDE90332142300930222CDE90B443D
:102E9000CDE901440594FFF7B9FC09481FF088FD0E
:102EA00028461EF038FE05480FB030BDD45400202F
:102EB000A85E0208B45E0208785E0208D8540020BA
:102EC0004D2E00087047000030B5164D2C6814F0E8
:102ED00001048FB0BFF35B8F20D128461EF00FFE98
:102EE000E0B13F230993104B0893104B1049114850
:102EF0000A940122CDE906430423CDE903322823B5
:102F00000093CDE90B44CDE901440594FFF77EFC25
:102F100009481FF04DFD28461EF0FDFD05480FB085
:102F200030BD00BF04550020AC5E0208B85E020848
:102F3000945E020808550020C52E00080020704746
:102F4000002070470EB403B503AB002153F8042BE7
:102F500001930DF04DF802B05DF804EB03B070473B
:102F60000CB407B504AB53F8042B01930DF040F8F3
:102F700003B05DF804EB02B070470000436C10B57D
:102F8000044673B3038F2BB9184B194AC52119484E
:102F90001FF0F0FCC38E00EB43035B8C0BB30EF011
:102FA000CAFE238F012B03D8134B144ACB21EEE723
:102FB000E28E531C9BB2092B194688BFA3F10A016C
:102FC00004EB410140F63F10498C814209D10A2BA4
:102FD00004EB420228BF002304EB4303508C5884C7
:102FE00051842046BDE810400EF0A8BD3C430208C5
:102FF00045430208F04302083A44020848440208E4
:103000000EF063BD10B586B002AC84E806001A4627
:103010000AAB05930193099B00932146089B0BF093
:10302000E1FA06B010BD000038B518BB124B1348CA
:103030001C681349B4B122682244026062682244C9
:103040000A60A26814440F4B00221A8000F038F87E
:10305000054600F033F80C4B1C600C4B1D600C4B0C
:10306000188007E00B4B03600B4B0B600B4B1C688D
:10307000002CE8D138BD00BF405500203855002055
:10308000345500203C5500201063012018630120B6
:1030900014630120D05E0208BC5E0208EC5E0208E8
:1030A000044B1B6853F82100034B1B6803EB4000E3
:1030B000704700BF34550020385500200520704768
:1030C000004870474455002010B5FFF7C1FE044C7E
:1030D0002060FFF7F9FE6060FFF77CFEA06010BD86
:1030E0004455002010B5002404600C6014601C607E
:1030F00010BD704710B54FF4AE7104461EF0FDFCD4
:10310000204610BD10B50446D0F8580100F013F861
:103110002046BDE810400BF065BF000010B5044626
:10312000FFF7FAFA014B2360204610BDD84B020886
:10313000002202607047704770470438704770473C
:1031400010B5102104461EF0D8FC204610BDA0F199
:103150000400F5E700228260024A026018324260F1
:10316000C16070472C4C0208704700000F4B70B5CF
:103170000446036043F6C44543F60426B54205D031
:10318000635960191B6898472C3DF7E74FF4685561
:10319000635960191B682C3D9847B5F5CE6FF7D180
:1031A0002046FFF7AAFB204670BD00BF544C020822
:1031B00010B50446FFF7DAFF204643F61C511EF017
:1031C0009CFC204610BD0000002310B5C0E901336F
:1031D000C0E90333C0E90733C0E905334FF4807316
:1031E0008384064B03600B88C384FF23044680F866
:1031F000283009F067FA204610BD00BFC850020809
:1032000010B5044601F032F843F23903002818BF24
:10321000034683EA433383EA534383EA4313C4F800
:10322000943610BDD0F89426044943F2390301FBCB
:103230000233C0F89436C3F30E4070476D4EC6415A
:1032400008B5FFF7EFFF0723B0FBF3F3C3EBC303AE
:10325000C01A08BD10B5034600F11004002283F81F
:10326000242683F8252683F8262683F82726043388
:10327000A342F4D14939112930D8DFE801F05030A8
:103280002F222F2F3A2F2F2F15442F2F2F2F2F097B
:103290004BF6FF73C0F83436012380F8253680F8EA
:1032A000293680F82A3617E0214BC0F8343601233E
:1032B00080F8293680F82D3680F8263680F82A36B0
:1032C0000CE04FF0FF13C0F8343640F20112012336
:1032D00080F82A36A0F82C2680F82E3610BD4FF440
:1032E0007F43C0F8343640F20113A0F8283601239A
:1032F000D7E74FF08013C0F83436012380F8293621
:1033000080F82D36CDE74FF47F03C0F83436012323
:1033100080F8253680F8293680F82D36CEE74FF62E
:10332000FF73C0F834364FF00133C0F82836D5E7C4
:1033300000FFFF00F7B5044604F56856FFF7A8FB49
:10334000344B236004F29C652C364FF6FF772846F9
:1033500001A92C35ADF80470FFF736FFAE42F6D167
:1033600004F5685504F57356303530364FF6FF775F
:10337000284601A92C35ADF80470FFF725FFB542AA
:10338000F6D12046FFF73CFF00214FF4707204F5A0
:1033900019701FF0F6FC2822C4F87026C4F87426B1
:1033A000042304F54052C4F860360023C4F86436A0
:1033B000C4F86836C4F86C3684F87836C4F87C36BD
:1033C000C4F88036A4F88436C4F88836C4F88C363D
:1033D000C2F82C3AC2F8F03C012384F89836204613
:1033E000FFF72EFF0C4F04F22466395C2046FFF7EE
:1033F00031FF0FCE04F5C7650FC533682B6020463B
:10340000FFF71EFF395C84F886162046FFF722FF7F
:1034100003B0F0BD544C0208A04C0208F0B500F215
:10342000236500240A272E46002116F8013F93B198
:10343000D0F86036D0F864260B44092B224414D807
:10344000162A12DC002A06DB07FB023300EB83039B
:10345000D3F864324BB901310429E6D10134042C8C
:1034600005F10405DFD1002000E00120F0BDF0B53A
:1034700000F2236500240A272E46002116F8013F9A
:103480008BB1D0F8642622440132162A15DC002ABA
:1034900009DBD0F8603607FB02330B4400EB8303F3
:1034A000D3F864324BB901310429E7D10134042C3B
:1034B00005F10405E0D1002000E00120F0BDF0B5E9
:1034C000002100F223650A272E46002216F8013F4C
:1034D00083B1D0F86036D0F864461344013B0C4405
:1034E00012D4172C06D807FB043300EB8303D3F860
:1034F00064324BB90132042AE8D10131042905F1C3
:103500000405E1D1002000E00120F0BDF0B500216C
:1035100000F223650A272E46002216F8013F8BB1E0
:10352000D0F86036D0F8644613440133092B0C44BC
:1035300012DC172C06D807FB043300EB8303D3F807
:1035400064324BB90132042AE7D10131042905F173
:103550000405E0D1002000E00120F0BDF0B500211D
:1035600000F223650A272E46002216F8013F8BB190
:10357000D0F864460C44172C0CD8D0F860361344AD
:10358000092B9FBF07FB043300EB8303D0F83446BD
:10359000C3F864420132042AE7D10131042905F15C
:1035A0000405E0D1F0BDD0F86836C3F10A039B00F2
:1035B0000A2BB8BF0A23C0F870367047F8B5044626
:1035C0001725282700F5197607FB05F303F5187270
:1035D0002244002152F8040FF0B101310A29F9D137
:1035E000234409E003F50E710022013251F8040F63
:1035F00088620A2AF9D1283BA342F3D1282200216C
:1036000030461FF0BEFBD4F868360133C4F8683684
:103610002046FFF7C8FFD7E7013DD5D2F8BD30B54A
:1036200085B06A4601F1100410460B461D7800F87B
:10363000015B5D78C5709D78C571043313F8015C3A
:10364000C572A342F2D1D3780B7093784B70537844
:103650008B7012F8043BCB700431A142F3D105B05A
:1036600030BD00002DE9FF4100F540581646D8F85E
:103670002C2AB2F5967F07460D4641DA2C214A43A3
:1036800002F29C6402444BF6FF71D2F89C268B42F6
:10369000126E044401D1012303E020498B4204D17E
:1036A0000E23ADF80C3003A911E0B3F1FF1F01D1D7
:1036B0000B23F6E7B3F57F4F01D10323F1E7B3F115
:1036C000801F20D10C23ADF80C300DEB03012046F8
:1036D000C6EBC606C5EBC50590470E237200690010
:1036E000009312B209B22046FFF789F9214607F18B
:1036F000F80005F05DFAD8F82C3A0133C8F82C3AF6
:1037000004B0BDE8F081B3F57F0F01D10D23C8E708
:103710004FF6FF718B42BED10223C2E700FFFF00CC
:103720002DE9F04F064600F5B87906F5405885B00A
:103730004846002505F049FA06F2376AC8F8F05CF9
:10374000D34600271BF8013F6BB3D8F8F03C0F2B92
:1037500029DC2C22534343F630215C183344D6F83D
:1037600048265B584BF6FF718A421B6E344401D1E8
:10377000042203E021498A4225D10A22ADF80C2017
:1037800003A920469847092300932AB239B220465C
:10379000FFF735F92146484605F00AFAD8F8F03C1B
:1037A0000133C8F8F03C0937BFB2242FCAD109351C
:1037B000ADB2242D0AF1040AC2D1484605B0BDE8D5
:1037C000F04F0CF03FBDB2F1FF1F01D10722D5E74A
:1037D000B2F57F4F01D10622D0E7B2F1801F01D1AF
:1037E0000822CBE7B2F57F0F01D10922C6E74FF6D9
:1037F000FF718A42BCD10522C0E700BF00FFFF0075
:103800002DE9F047044600F1F80804F5405740461A
:10381000002505F0DAF904F51879C7F82C5ACA46DC
:1038200000265AF8043F4BB1D7F82C2AB2F5967F00
:1038300004DA2A4631462046FFF714FF01360A2EE5
:10384000EFD10135182D09F12809E8D104F22369D7
:103850000026CA4600251AF8013F9BB1D7F82C3A3A
:10386000B3F5967F0EDAD4F864263244172A09D8C5
:10387000D4F860162944092904D8D4F834362046EF
:10388000FFF7F0FE0135042DE5D10136042E09F1D4
:103890000409DED104F57355343540460CF0D2FCF2
:1038A000D4F86836114A0A2128460EF0EDFFC4F814
:1038B0006C5104F5745504F5927008350CF0C2FC97
:1038C000D4F86C36094A0A2128460EF0DDFFC4F808
:1038D000605204F506700CF0B5FC94F8803613B114
:1038E0000023C4F88C36BDE8F08700BF1A450208F3
:1038F00010B50446FFF702F82046BDE81040FFF778
:103900007FBF0000F8B590F89836044663B300F224
:10391000246500F24C660FCD0FC62B68336020463D
:10392000FFF78EFC234B195C84F886162046FFF7C0
:1039300091FC04F2246CBCE80F0004F5C7670FC7C4
:103940002B683B6004F24C6CBCE80F0004F2246767
:103950000FC733682B602046FFF7E2FE2046FFF7D3
:103960004FFF002384F8983694F878360BB3D4F8D8
:103970007C3601331D2BC4F87C361ADD0423C4F8D1
:1039800060360023C4F8643684F87836C4F87C3690
:1039900004F5C7660FCE04F224650FC533682B60AB
:1039A0002046FFF73BFD012308B184F8803684F8F8
:1039B0009836F8BDA04C02082DE9F043044685B0C6
:1039C000FFF7FCFD94F881366BB12046FFF74FFD01
:1039D000002840F08480D4F864360133C4F864369B
:1039E000002384F8813694F88536002B40F08980D6
:1039F00094F882365BB12046FFF761FD20B9D4F818
:103A00006036013BC4F86036002384F8823694F8AF
:103A100083365BB12046FFF779FD20B9D4F86036D4
:103A20000133C4F86036002384F8833694F8843672
:103A3000002B51D06E46254604F11008324623462D
:103A400093F82416117093F82516517093F82616E2
:103A50009170043393F82316D170434502F10402A8
:103A6000EED1204604F22461FFF7D9FD2046FFF78E
:103A7000D5FC70B3D4F86076D4F864967B1EC4F895
:103A800060362046FFF7CAFC18B37B1CC4F86036CA
:103A90002046FFF7C3FCE0B109F1FF33C4F86076BC
:103AA000C4F864362046FFF7B9FC90B1C4F86496B8
:103AB000337885F82436737885F82536B37885F819
:103AC0002636F37885F827360435454506F1040691
:103AD000EED1002384F8843605B0BDE8F08320469B
:103AE000FFF73CFD012384F878360023C4F87C36C8
:103AF00076E7D4F864360133C4F864362046FFF71D
:103B00007FFE2046FFF7B3FC0028F2D02046FFF7E7
:103B100025FD012384F878360023C4F87C3684F828
:103B2000853665E790F8783610B5044663B990F8A5
:103B300080364BB9012380F88136FFF73DFF2046E0
:103B4000BDE81040FFF75CBE10BD10B50123044670
:103B500080F88136FFF730FF2046BDE81040FFF7C0
:103B60004FBE10B50123044680F88236FFF724FFCC
:103B70002046BDE81040FFF743BE10B501230446C0
:103B800080F88336FFF718FF2046BDE81040FFF7A6
:103B900037BE10B50123044680F88436FFF70CFFCA
:103BA0002046BDE81040FFF72BBE10B501230446A8
:103BB00080F88536FFF700FF2046BDE81040FFF78C
:103BC0001FBE000070B590F880660446002E3FD1FD
:103BD000384D2B781BB10368DB6B98472E70364D40
:103BE0002B782BB1236820461B6C984700232B7041
:103BF000324D2B782BB1236820465B6C984700230D
:103C00002B702F4D23682A78EAB105229B6BC4F8EC
:103C100070262046984700232B70D4F88836D4F8B5
:103C2000702601339342C4F8883606DB23682046A9
:103C3000DB6A98470023C4F88836236820461B6B4C
:103C4000BDE870401847D4F87436C4F87036E4E71D
:103C5000D0F88C360133B3F5967FC0F88C3627DB6D
:103C6000D0F86836D0F86C269342C8BFC0F86C36DE
:103C70004FF47072002100F519701FF082F80423D0
:103C8000C4F86036012200234A21C4F86436C4F81F
:103C9000683684F8803684F87826C4F87C3684F850
:103CA00086162046FFF7D6FABDE87040FFF7A8BD9C
:103CB00070BD00BF2F5200202E5200202D52002038
:103CC0002C520020F02070474FF4A070704729203C
:103CD000FEF71CB82820FEF719B808B5FDF7EAFF73
:103CE000CA20FEF713F8C320FDF7F4FF0820FDF704
:103CF000F1FF5020FDF7EEFFCF20FEF707F8002080
:103D0000FDF7E8FFC120FDF7E5FF3020FDF7E2FFFA
:103D1000ED20FDF7FBFF6420FDF7DCFF0320FDF73E
:103D2000D9FF1220FDF7D6FF8120FDF7D3FFE82051
:103D3000FDF7ECFF8520FDF7CDFF0020FDF7CAFF62
:103D40007820FDF7C7FFCB20FDF7E0FF3920FDF716
:103D5000C1FF2C20FDF7BEFF0020FDF7BBFF342084
:103D6000FDF7B8FF0220FDF7B5FFF720FDF7CEFF06
:103D70002020FDF7AFFFEA20FDF7C8FF0020FDF788
:103D8000A9FF0020FDF7A6FFB120FDF7BFFF00202F
:103D9000FDF7A0FF1B20FDF79DFFB620FDF7B6FF46
:103DA0000A20FDF797FFA220FDF794FFC020FDF742
:103DB000ADFF1020FDF78EFFC120FDF7A7FF1020FB
:103DC000FDF788FFC520FDF7A1FF4520FDF782FF25
:103DD0001520FDF77FFFC720FDF798FF9020FDF726
:103DE00079FF3620FDF792FFC820FDF773FFF22020
:103DF000FDF78CFF0020FDF76DFFB020FDF786FF7B
:103E0000C220FDF767FFB620FDF780FF0A20FDF70F
:103E100061FFA720FDF75EFF2720FDF75BFF042071
:103E2000FDF758FF2A20FDF771FF0020FDF752FF34
:103E30000020FDF74FFF0020FDF74CFFEF20FDF7BE
:103E400049FF2B20FDF762FF0020FDF743FF002014
:103E5000FDF740FF0120FDF73DFF3F20FDF73AFF52
:103E6000F620FDF753FF0120FDF734FF0020FDF79A
:103E700031FF0620FDF72EFF2C20FDF747FFC8205D
:103E8000FDF792FF2620FDF741FF0120FDF722FFFD
:103E9000E020FDF73BFF0F20FDF71CFF2920FDF779
:103EA00019FF2420FDF716FF0C20FDF713FF0E204D
:103EB000FDF710FF0920FDF70DFF4E20FDF70AFF6B
:103EC0007820FDF707FF3C20FDF704FF0920FDF7F0
:103ED00001FF1320FDF7FEFE0520FDF7FBFE172076
:103EE000FDF7F8FE1120FDF7F5FE0020FDF7F2FECC
:103EF000E120FDF70BFF0020FDF7ECFE1620FDF79B
:103F0000E9FE1B20FDF7E6FE0420FDF7E3FE11208D
:103F1000FDF7E0FE0720FDF7DDFE3120FDF7DAFEBC
:103F20003320FDF7D7FE4220FDF7D4FE0520FDF734
:103F3000D1FE0C20FDF7CEFE0A20FDF7CBFE282097
:103F4000FDF7C8FE2F20FDF7C5FE0F20FDF7C2FECE
:103F50001120FDF7DBFEC820FDF726FF2920FDF725
:103F6000D5FEBDE808402C20FDF7D0BE08B5FDF712
:103F7000A1FE0321D320FDF7E5FE80B208BD10B5F8
:103F8000C4B2022203212046FDF74AFE0A20FDF7B3
:103F90008FFE204600220321FDF742FEBDE81040BF
:103FA0000220FDF785BE38B50446E4B2FDF736FEC3
:103FB00000212046FDF74CFE012105462046FDF775
:103FC00047FE40EA052080B238BD10B5C4B240219A
:103FD0002046FDF73DFE030607D54C212046FDF7A0
:103FE00037FE003818BF012010BD01224B212046AA
:103FF000FDF716FE204600224B21FDF711FE0020A2
:10400000F2E773B50423C4B20E461546D7210DEB73
:1040100003022046FDF736FE019B1BBA1A0DC3F3BF
:104020000B23328020462B8001224B21FDF7F8FD27
:1040300000224B212046FDF7F3FD02B070BD0000C9
:1040400010B50A4A1378984204460DD05178884238
:104050000AD00BB141B90123D454FDF7DFFD20464E
:10406000BDE81040FFF78BBF10BD00BF50550020CA
:1040700010B5C4B209212046FDF7EAFD40F0010267
:10408000D2B220460921BDE81040FDF7C9BD10B5E8
:10409000C4B209212046FDF7DBFD092100F0FE0234
:1040A0002046BDE81040FDF7BBBD38B5C4B20D4693
:1040B00020460A21FDF7CCFD40EA0502D2B2204697
:1040C0000A21BDE83840FDF7ABBD10B50446FDF749
:1040D000A6FD20461F21FFF7E8FF2046BDE810405F
:1040E000FFF7C6BF38B5C4B20D4620460A21FDF71A
:1040F000AFFD20EA0502D2B220460A21BDE83840D1
:10410000FDF78EBD10B50446FFF7C1FF20461F2105
:10411000BDE81040FFF7E6BF10B5C0B20C460B215A
:10412000FDF796FD204010BD1F21FFF7F5BF0A46A1
:10413000C0B20B21FDF774BD1F21FFF7F8BF38B5E2
:10414000C4B20D4620461721FDF782FD20EA050284
:10415000D2B220461721BDE83840FDF761BD70B5E9
:10416000C4B2064604212046FDF772FD042100F08A
:10417000FB0205462046FDF753FD3046F021FFF7D0
:10418000DEFF05F0F80220460421FDF749FD492233
:1041900020212046FDF744FD0220FDF789FD204641
:1041A00001222121FDF73CFD20469A224121FDF705
:1041B00037FD204601224A21FDF732FD204601222B
:1041C0004B21FDF72DFD204600224B21FDF728FD58
:1041D000204601225621FDF723FD204601225821C9
:1041E000FDF71EFD204601224021FDF719FD204666
:1041F000FF220B21FDF714FDBDE870400220FDF702
:1042000057BD0000054BD3F8882042F47002C3F874
:1042100088204FF000629A60704700BF00ED00E018
:1042200008B50B4B1A6842F400721A601A6842F41F
:1042300080621A601A6842F480721A60032000F0EB
:104240002FF80020FEF728F8FDF7BCFD002008BD80
:10425000003C0240034A044B11681B780B44136076
:10426000704700BF5455002078000020014B1868AB
:10427000704700BF5455002038B50446FFF7F6FFDD
:10428000631C1CBF054B1B78054618BFE418FFF7DD
:10429000EDFF431BA342FAD338BD00BF78000020D6
:1042A0000749CA6822F4E0620302120403F4E063DF
:1042B000120C134343F0BF6343F40033CB607047E9
:1042C00000ED00E0164B30B5DC68C4F30224C4F105
:1042D0000703251D042B28BF0423062D4FF0FF35AF
:1042E0008CBF033C002405FA03F321EA0303A54035
:1042F00022EA0502A340002843EA0203ACBF00F112
:104300006040084A4FEA0313B8BF00F00F00DBB269
:10431000AABF00F56140135480F8003330BD00BFE0
:1043200000ED00E014ED00E0002807DB044A41093D
:10433000012300F01F00834042F82130704700BF86
:1043400000E100E010B5044650B1437903F0FF02EC
:1043500013B90271FDF756FD01236371002010BDF2
:104360000120FCE710B5044620B390F8393003F083
:10437000FF021BB980F83820FDF75CFD022384F8AA
:104380003930236861681A6822F440320A431A609F
:104390005A6BA16822F007020A435A631A6CE1685B
:1043A0006FF30D020A431A6400200123E06384F8CE
:1043B000393010BD0120FCE770477047036870B5C5
:1043C0005E681D68F207044614D5E90512D51A681F
:1043D00022F480721A60C26B42F00102C2630122B1
:1043E0009A60042380F83930002380F8383043691C
:1043F00003B19847B20616D5AB0414D523681A68E2
:1044000022F400521A6020229A60E36B43F0020308
:10441000E363042384F83930002384F83830636977
:104420000BB120469847300716D5290514D52368C7
:104430001A6822F400621A6008229A60E36B43F063
:104440000403E363042384F83930002384F838300C
:1044500063690BB12046984772070BD56B0509D5E8
:1044600023681A6822F480621A6004229A60204647
:10447000FFF7A2FFB00714D5A90512D523681A6863
:1044800022F400721A6002229A60E36BE363012354
:1044900084F83930002384F8383023690BB1204682
:1044A0009847F20613D5EB0411D523681A6822F455
:1044B00080521A6010229A60E36BE363012384F850
:1044C0003930002384F838302046FFF776FF70BD7E
:1044D000F0B590F83820012A03464FF002002BD0A7
:1044E000012283F8382083F8390003EB0112D2E966
:1044F0000740556A174F44EA0040093C012C9CBF15
:1045000005F07F4210434FEA01161A6888BF40EA5F
:10451000056091B9516A394001435162012C996992
:10452000916103D8596A21F07F41916201220020F4
:1045300083F8392083F83800F0BDD1693940014350
:10454000D1619919012C896911619CBF25F07F45C2
:104550001562EBE7F0FFFC002DE9F74FDFF8BC91A7
:104560006C4A00230D6801249C4004EA0506AC4314
:1045700040F0B7804D68032705F003044FEA430875
:1045800007FA08FC671E012F6FEA0C0C34D8876805
:1045900007EA0C0ECF6807FA08F747EA0E078760AC
:1045A000476827EA060EC5F300179F4047EA0E0743
:1045B0004760C76807EA0C0E8F6807FA08F747EAF2
:1045C0000E07022CC76019D14FEAD30A00EB8A0A02
:1045D00003F0070BDAF820704FEA8B0B4FF00F0E49
:1045E0000EFA0BFE27EA0E0E0F6907FA0BF747EAE1
:1045F0000E07CAF8207001E0032CDAD1076804FA2C
:1046000008F407EA0C073C4315F4403F046068D007
:1046100000240194D9F8444044F48044C9F844404B
:10462000D9F8444023F0030707F1804704F480449D
:1046300007F59C37019403F0030C019CD7F808E0C0
:104640004FEA8C0C0F2404FA0CF42EEA040E324CC0
:10465000A0424DD004F58064A0424BD004F58064A4
:10466000A04249D004F58064A04247D004F580649C
:10467000A04245D004F58064A04243D004F5806494
:10468000A04241D004F58064A0423FD004F580648C
:10469000A0423DD004F58064A04214BF0A2409243E
:1046A00004FA0CF444EA0E04BC609468F74315F471
:1046B000801F0CBF3C4034439460D46815F4001F45
:1046C0000CBF3C403443D460546815F4003F0CBF29
:1046D0003C40344354601468ED0354BF3C403443C1
:1046E00014600133102B7FF43DAF03B0BDE8F08FB1
:1046F0000024D5E70124D3E70224D1E70324CFE740
:104700000424CDE70524CBE70624C9E70724C7E73F
:104710000824C5E7003C0140000002400038024088
:104720000369194214BF0120002070470AB181615A
:1047300070470904FBE7436901EA030221EA030128
:1047400041EA024181617047044A5169014208B55A
:1047500002D05061FDF73AFA08BD00BF003C0140AD
:1047600001684B6913F480634FF0000210D06FF4BE
:1047700080634B612023026380F83D3080F83E2047
:10478000036C80F83C2043F004030364012070476D
:10479000184670472DE9F84606460F4691461D46D5
:1047A0004FEA114A3368BAF1010F0CBF5C699C698A
:1047B00027EA0404A4B2B4FA84F46409A14501D040
:1047C000002025E06A1CEED0FFF750FD089BC01AC0
:1047D000A84201D8002DE5D13368BAF1010F0CBF12
:1047E0005B699B6927EA03039BB2B3FA83F35B0916
:1047F0009945D7D100232022336386F83D2086F8DF
:104800003E30326C86F83C3042F0200232640120A7
:10481000BDE8F8862DE9F04104460F461646984655
:104820002568686927EA000080B2C0B16B695A0543
:1048300017D52B6843F400732B606FF480636B61B2
:1048400020220023236384F83D2084F83E30236C2B
:1048500043F004032364002384F83C300120BDE8C6
:10486000F081731CDDD0FFF701FDA0EB0800B04222
:1048700001D8002ED4D123685A6927EA020292B2E5
:10488000002ACDD000232022236384F83D2084F821
:104890003E30236C1343DDE770B504460D461646E3
:1048A00023685B691B0601D500201EE02046FFF748
:1048B00057FFC8B96A1CF3D0FFF7D8FC801BA84289
:1048C00001D8002DECD123685B6913F08003E7D198
:1048D0002022236384F83D2084F83E30226C84F843
:1048E0003C3042F020022264012070BD2DE9F043EB
:1048F0001546026885B0DDE90C789946136843F4E3
:10490000807313600E463B46CDF8008000224FF0C6
:1049100001110446FFF73EFF236838B11B68DB0531
:1049200002D54FF400732364032620E006F0FE0650
:104930001E611A4943463A462046FFF76BFFA8B965
:10494000236803905A6903929B6903934246394650
:104950002046039BFFF7A0FF064660B1236C042BA3
:1049600001BF2268136843F40073136001263046C8
:1049700005B0BDE8F083B9F1010F236802D1EDB2B3
:104980001D61F4E72A0A1A61394642462046FFF7BC
:1049900083FF0028E2D12368F1E700BF0200010095
:1049A0002DE9FF479A46036815461A6842F480626B
:1049B0001A601A68DDE90C7842F480721A600E46BB
:1049C0003B46CDF8008000224FF001110446FFF76E
:1049D000E1FE236838B11B68DB0544BF4FF4007368
:1049E0002364032021E05FFA86F906F0FE061E61CB
:1049F0002B4943463A462046FFF70CFFA0B92368EF
:104A000003905A6903929B690393424639462046B4
:104A1000039BFFF741FF58B1236C042B01BF2268B1
:104A2000136843F400731360012004B0BDE8F087FD
:104A3000BAF1010F23681AD1EDB242461D61394621
:104A40002046FFF729FF02460028E5D121680B68C0
:104A500043F480730B602046CDF800803B464FF056
:104A60000111FFF797FE226860B11368B4E72A0AC4
:104A70001A61394642462046FFF70EFF0028CBD187
:104A80002368D9E749F001031361054943463A46D3
:104A90002046FFF7BFFE003818BF0120C5E700BF62
:104AA0000200010070B504460D46164623685B6996
:104AB0005B0701D500201EE02046FFF751FEC8B974
:104AC0006A1CF3D0FFF7D2FB801BA84201D8002D4F
:104AD000ECD123685B6913F00403E7D12022236340
:104AE00084F83D2084F83E30226C84F83C3042F05B
:104AF00020022264012070BD70B504460D461646A2
:104B000021684B6913F0400301D0002011E04A698D
:104B1000D2060FD56FF010024A612022236384F879
:104B20003D2084F83E30236C2364002384F83C301D
:104B3000012070BDFFF79AFB801BA84201D8002D11
:104B4000DED123685B6913F04003D9D120222363AF
:104B500084F83D2084F83E30236C1343E4E70000E2
:104B600070B5044608B9012070BD90F83D3003F0DF
:104B7000FF021BB980F83C20FDF77EF9242384F85E
:104B80003D3023681A6822F001021A601A6842F464
:104B900000421A601A6822F400421A6000F0A8FE6F
:104BA0003F4B65689D4294BF3E4B3F4B98428CBF44
:104BB00000230123002BD6D12268394E51683B4B8C
:104BC000B0FBF3F321F03F011943B542516088BFB8
:104BD0004FF49676116A88BF734321F03F0184BF7A
:104BE0004FF47A76B3FBF6F301330B431362D169CA
:104BF000431E2B4821F44F41854221F0FF0132D85A
:104C00006D0040F6FC70B3FBF5F30133034242D074
:104C1000C3F30B031943D161D4E90730116803438F
:104C200021F0C0010B4313609168D4E9030321F420
:104C30000341034321F0FF010B439360D4E90530A6
:104C4000D168034321F0FF010B43D360136843F0A5
:104C50000103136000202023206484F83D3020638A
:104C600084F83E0080E7A06850B905EB4505B3FB2A
:104C7000F5F30133C3F30B037BB143F40043C9E7FE
:104C800019206843B3FBF0F30133C3F30B0323B1E3
:104C900043F44043BEE70423BCE70123BAE700BF67
:104CA000A08601007F841E00FF083D0040420F00E7
:104CB0002DE9F743044699460C9E0F469046FFF7B0
:104CC000D5FA94F83D30202B054603D0022003B0DE
:104CD000BDE8F08300903C49192301222046FFF7EC
:104CE00059FD0028F2D194F83C30012BEED0206819
:104CF000012384F83C300368D9075EBF036843F0A2
:104D000001030360036823F400630360212384F834
:104D10003D30402384F83E30002323640A9B6362C5
:104D2000BDF82C306385638D2385284BE3624246B2
:104D3000CDE900654B4639462046FFF7D7FD0028F0
:104D40002AD00120C3E7FFF7A7FD40B1236C042B55
:104D500001BF2268136843F400731360F1E7636ACC
:104D600027681A4612F8011B39616262628D218D33
:104D7000013A92B262857A69481E80B25207208554
:104D80000AD548B15A783A6102336362638D013BB8
:104D900002399BB221856385238D2A463146204600
:104DA000002BD0D1FFF77EFE0028CFD122681368F8
:104DB00043F400731360202384F83D3084F83C00F2
:104DC00084F83E0083E700BF020010000000FFFFF0
:104DD0002DE9F043044687B09946109F0D46904652
:104DE000FFF744FA94F83D30202B064604D0022504
:104DF000284607B0BDE8F08300907A4919230122C4
:104E00002046FFF7C7FC0028F1D194F83C30012B75
:104E1000EDD02068012384F83C300368DB075EBFD7
:104E2000036843F001030360036823F40063036035
:104E3000222384F83D30402384F83E30002323644D
:104E40000E9B6362BDF83C306385638D2385664BA2
:104E5000E3622946CDE900764B4642462046FFF7FD
:104E60009FFD054608B10125C2E7228D2368B2B92E
:104E700002905A6902929A690292029A1A6842F45E
:104E800000721A60DFF86481238D002B2CD1202260
:104E900084F83D2084F83C3084F83E30A8E7012AAD
:104EA0000AD11A6822F480621A6003905A69039248
:104EB0009A690392039AE1E7022A0ED11A6822F452
:104EC00080621A601A6842F400621A6004905A699B
:104ED00004929B690493049BD4E705905A69059258
:104EE0009B690593059BCDE7032B56D8012B15D164
:104EF000324639462046FFF7FFFD0028B3D123682C
:104F00001A69636A1A70636A01336362238D013B15
:104F10002385638D013B9BB26385B5E7022B009629
:104F20003B464FF000024146204619D1FFF732FCC4
:104F3000002898D123681A6842F400721A601A692E
:104F4000636A1A70626A531C6362238D013B238576
:104F5000638D013B9BB2638523681B695370D2E765
:104F6000FFF718FC024600287FF47DAF236819681C
:104F700021F4806119601969636A1970636A0133E9
:104F80006362238D013B2385638D013B9BB2638567
:104F9000414600963B462046C8E732463946204601
:104FA000FFF7AAFD00287FF45EAF23681A69636AE1
:104FB0001A70628D616A013A92B24B1C6285226856
:104FC0006362238D5069013B9BB2400723857FF5C7
:104FD0005BAF032B02BF136823F480631360136974
:104FE0004B7090E7020010000000FFFF040001007A
:104FF00010B590F83D30202BDCB216D1242380F878
:105000003D3003681A6822F001021A605A6A22F0E1
:1050100010025A625A6A114359621A6842F0010238
:105020001A6080F83D40002010BD0220FCE730B53A
:1050300090F83D30202BDCB216D10268242380F892
:105040003D30136823F001031360556A4FF6F07387
:105050002B400B439BB25362136843F00103136070
:1050600080F83D40002030BD0220FCE70068D1F808
:1050700000C0D201843283182DE9F043C6685D6810
:105080004C68D1F8189005F470455D60C5680CF166
:105090000107C5F30B45C6F30B4626443D4445EADC
:1050A00006455D60C668CD68C6F30A062E449D6855
:1050B00005F470459D60C7688D68C7F30A07013520
:1050C0003D4445EA06459D601D690E6925F00705CA
:1050D0001D614FF0000E1E6191F832709D6991F8CC
:1050E0003180C3F818E091F8305045EA096545EA87
:1050F000082545EA07459D615D6925F0FF055D616D
:105100004D695D61DD6925F4E06525F00705DD6128
:10511000D1E907573D43DD619D6A4D6AC3F828E038
:10512000072E9D629CBF0E4DAE5DDD6A05F0E02549
:10513000DD6288BF01268D6AC96AA4EB0C04744342
:105140007543033444EA0544DC621C6B6FF30A04C4
:105150001C631963835843F001038350BDE8F08357
:10516000BF4C020838B50446002863D090F8A1303F
:1051700003F0FF021BB980F8A020FCF7D9FE022340
:1051800084F8A13023689A6922F070429A61D4E9C8
:1051900001200243E06899690243206902430A43FF
:1051A0009A619A68244960690A409A609A6842EA5A
:1051B0000042A06902439A60DA68E0690A40DA6056
:1051C000DA6842EA0042206A0243DA601A69606AD9
:1051D0000A401A611A6942EA0042A06A02431A614F
:1051E0005A690A405A615A69E16A42EA0142216BEE
:1051F0000A435A61DA6A94F8350094F8361002F0DE
:105200007F42DA62DD6A94F834202A4342EA0022BF
:1052100042EA0142DA625A6B42F006025A639A6924
:1052200042F001029A6100200123C4F8A40084F82E
:10523000A13038BD0120FCE700F800F0704770474E
:10524000036870B59E6B5D6B7207044614D56907E1
:1052500012D55A6B22F004025A630422DA63D0F8A2
:10526000A43043F00103C0F8A430002380F8A1204B
:1052700080F8A030FFF7E2FFB20716D5AB0714D5D0
:1052800023685A6B22F002025A630222DA63D4F8CE
:10529000A4301343C4F8A430042384F8A1300023BD
:1052A00084F8A0302046FFF7C9FFF00710D5E907C2
:1052B0000ED523685A6B22F001025A630122DA6389
:1052C000002384F8A12084F8A0302046FCF7A8F938
:1052D000320711D52B070FD523685A6B22F008022D
:1052E0005A630822DA63012384F8A130002384F88A
:1052F000A0302046FFF7A3FF70BD2DE9F04190F8E4
:10530000A030012B06460F4694464FF002001FD0F6
:105310004FF0010886F8A08086F8A10034240D46DD
:1053200004FB02640FCD38340FC40FCD0FC40FCD72
:105330000FC42B682360304662463946FFF796FE5D
:1053400033680020C3F8248086F8A18086F8A00086
:10535000BDE8F08190F8A020012A03464FF002003A
:1053600012D01A6883F8A100506B20F0010050633E
:1053700006480164516B41F0010151630020012294
:1053800083F8A12083F8A000704700BF00680140A7
:1053900037B500230193184B184D1A6C42F0805218
:1053A0001A641B6C03F080530193019B144B012280
:1053B0001A64FEF75BFF04466B68DA030BD5104BEB
:1053C0000E4D01225A64FEF751FF04466B689B03A1
:1053D0000AD5002006E0FEF749FF001BB0F57A7FF2
:1053E000EAD9032003B030BDFEF740FF001BB0F543
:1053F0007A7FEBD9F5E700BF00380240007000402B
:1054000000000E422DE9F341044640B30368DE0775
:1054100010D423689D075BD42368190700F19D8091
:1054200023685A0700F1BD80A369002B40F0248156
:1054300000202CE08D4B9A6802F00C02042A07D061
:105440009A6802F00C02082A0BD15B68590208D551
:10545000864B1B689A03DCD56368002BD9D10120E9
:1054600015E06368814DB3F5803F13D12B6843F499
:1054700080332B60FEF7FAFE7C4E054633689B03B3
:10548000C7D4FEF7F3FE401B6428F7D9032002B00F
:10549000BDE8F081B3F5A02F04D12B6843F480233D
:1054A0002B60E3E72A6822F480322A602A6822F41B
:1054B00080222A60002BDDD1FEF7D8FE06462B683D
:1054C0009F03A6D5FEF7D2FE801B6428F7D9DDE73F
:1054D000664B9A6812F00C0F07D09A6802F00C0223
:1054E000082A11D15B685D020ED4604A13689907DF
:1054F00002D5E368012BB2D11368216923F0F803C8
:1055000043EAC103136087E7E268594BB2B1012255
:105510001A60FEF7ABFE554D06462B689B0707D574
:105520002B68226923F0F80343EAC2032B6073E778
:10553000FEF79CFE801B0228EFD9A7E71A60FEF752
:1055400095FE4A4E054633689F077FF565AFFEF727
:105550008DFE401B0228F6D998E76269444B82B160
:105560000122C3F8802EFEF781FE404E0546736F80
:105570009B073FF555AFFEF779FE401B0228F6D991
:1055800084E7C3F8802EFEF771FE384E0546736F30
:105590009F077FF545AFFEF769FE401B0228F6D94D
:1055A00074E7324B1A6C12F0805228D101921A6CB7
:1055B00042F080521A641B6C03F080530193019BEC
:1055C00001272C4D2B68D8051BD5A368274D012B2F
:1055D00027D12B6F43F001032B67FEF747FE234EC5
:1055E000054641F28838336F9A0739D5002F3FF4CA
:1055F0001BAF1E4A136C23F08053136414E700277B
:10560000DFE72B6843F480732B60FEF72FFE06461E
:105610002B68D905D9D4FEF729FE801B0228F7D9BB
:1056200034E7052B04D12B6F43F004032B67D0E73D
:105630002A6F22F001022A672A6F22F004022A67E9
:10564000002BCAD1FEF712FE41F2883806462B6FB6
:105650009B07CBD5FEF70AFE801B4045F7D915E71F
:10566000FEF704FE401B4045BDD90FE7003802405D
:105670000000474200700040374DAA6802F00C025B
:10568000082A3ED0022B354B4FF000021A662BD170
:10569000FEF7ECFD06462B6899011FD4D4E90732CA
:1056A0001343626A43EA8213E26A43EA0263A26A2C
:1056B0005208013A43EA02436B60284B264D01220F
:1056C0001A66FEF7D3FD04462B689A013FF5B0AE8B
:1056D000FEF7CCFD001B0228F6D9D7E6FEF7C6FD83
:1056E000801B0228D7D9D1E6FEF7C0FD04462B68FF
:1056F0009B017FF59DAEFEF7B9FD001B0228F6D990
:10570000C4E6012B3FF4ABAE6B68E26903F48001A1
:1057100091427FF4A4AE216A03F03F028A427FF4F3
:105720009EAE616A47F6C0721A40B2EB811F7FF4E9
:1057300096AEA26A520803F44031013AB1EB024F2F
:105740007FF48DAEE26A03F07063B3EB026F14BFB7
:10575000012000209BE600BF0038024000004742C5
:10576000134908B58B6803F00C03042B1CD0082BDD
:105770001CD14A684B68496813F4800314BF0D4874
:105780000D48C1F3881118BF002302F03F02A1FBAE
:105790000001FAF7CDFD064B5B68C3F3014301330B
:1057A0005B00B0FBF3F008BD0248FCE70248FAE7F3
:1057B0000038024000127A000024F4002DE9F04184
:1057C0000D46044610B90120BDE8F081434B1A682C
:1057D00002F00F028A4228D321688F072DD4C80710
:1057E00040D43E4B1A6802F00F02AA4265D82268E4
:1057F00051076BD4130707D5394A2169936823F4FD
:10580000604343EAC1039360FFF7AAFF344B354A74
:105810009B68C3F30313D35CD840334B1860334BFE
:105820001868FCF739FD0020CEE7CAB21A701B6871
:1058300003F00F038B42C6D1CEE7294B11F0040FC2
:105840001EBF9A6842F4E0529A600E0742BF9A68FF
:1058500042F460429A609A68A06822F0F002024323
:105860009A60BCE762681E4B012A1CD11B6813F4C6
:10587000003FA8D01A4EB36823F003031343B3606C
:10588000FEF7F4FC41F288380746B368626803F01B
:105890000C03B3EB820FA4D0FEF7E8FCC01B40451D
:1058A000F3D9032090E7911E01291B6802D813F059
:1058B000007FDEE713F0020FDBE7EAB21A701B6825
:1058C00003F00F03AB427FF47EAF90E70449E0683A
:1058D0008B6823F4E05303438B608BE7003C02406A
:1058E00000380240AF4C0208740000207C00002009
:1058F000044B054A9B68C3F38223D35C034A1068B8
:10590000D840704700380240A74C020874000020BD
:10591000044B054A9B68C3F34233D35C034A1068C7
:10592000D840704700380240A74C0208740000209D
:105930000F2303600B4B9A6802F0030242609A68DF
:1059400002F0F00282609A6802F4E052C2609B6842
:10595000DB0803F4E0530361034B1B6803F00F0300
:105960000B60704700380240003C0240036813F0AF
:10597000430FF7B5044640F08880236813F00C0FFE
:1059800045D08C4B8C4D00221A67FEF76FFC064603
:105990002B68990000F1CB8021684A0715D5D4E91E
:1059A0000403D5F888201B0602F0E04243EA801386
:1059B0001343C5F88830D5F88C30226A23F4F853A5
:1059C000013A43EA0223C5F88C300B0714D57A4A12
:1059D000A369D2F8881020691B0701F0706143EABF
:1059E00080130B43C2F88830D2F88C30616A23F4FC
:1059F00040330B43C2F88C306E4B6F4E01221A6756
:105A0000FEF734FC054633689F0040F19780236819
:105A1000980634D500230193674B684D1A6C42F009
:105A200080521A641B6C03F080530193019B2B6816
:105A300043F480732B60FEF719FC06462B68D805EB
:105A400040F183805C4DA26A2B6F13F4407340F0E9
:105A50008380A36A03F44072B2F5407F564A40F057
:105A60009E80916823F0704021F4F81120F440707A
:105A700001439160116FC3F30B030B43136723685A
:105A8000DB0600F1908000204FE04A4B4A4E002296
:105A90009A66FEF7EBFB054633681F013FD4216889
:105AA000C80741BFD4E901231B0743EA8213C6F8A4
:105AB00084308A0715D5404AE368D2F884006568C7
:105AC0001B0600F0E04043EA85130343C2F884302C
:105AD000D2F88C00E36920F01F00013B0343C2F8B9
