:020000040800F2
:10000000000003205D060008392300083B23000898
:100010003D2300083F2300084123000800000000A2
:10002000000000000000000000000000116C00084B
:100030004323000800000000A16C00082F650008A1
:10004000AD060008AD060008AD060008AD060008C4
:10005000AD060008AD060008AD060008AD060008B4
:10006000AD060008AD060008AD060008AD060008A4
:10007000AD060008AD060008AD060008AD06000894
:10008000AD060008AD060008AD060008AD06000884
:10009000AD060008AD060008AD06000845230008BF
:1000A000AD060008AD060008AD060008AD06000864
:1000B000AD060008AD060008AD060008AD06000854
:1000C000AD060008AD060008AD060008AD06000844
:1000D000AD060008AD060008AD060008AD06000834
:1000E00057230008AD060008AD060008AD0600085D
:1000F000AD060008AD060008AD060008AD06000814
:10010000AD060008AD060008AD060008AD06000803
:10011000AD060008AD0600086D230008AD06000816
:10012000AD060008AD060008AD060008AD060008E3
:10013000AD060008AD060008AD060008AD060008D3
:10014000AD060008AD060008AD060008AD060008C3
:10015000AD060008AD060008AD060008AD060008B3
:10016000AD060008AD060008AD060008AD060008A3
:10017000AD060008AD060008AD060008000000004E
:10018000AD060008AD060008AD060008AD06000883
:10019000AD060008AD060008AD060008AD06000873
:0C01A00079230008AD0600088523000844
:1001B00010B5054C237833B9044B13B10448AFF3A1
:1001C00000800123237010BD800300200000000088
:1001D000142E020808B5034B1BB103490348AFF3C3
:1001E000008008BD0000000084030020142E0208D7
:1001F00001F0FF01102A2BDB10F0070F08D010F8D8
:10020000013B013A8B422DD010F0070F42B3F6D1DB
:10021000F0B441EA012141EA014122F007047FF0F4
:1002200000070023F0E80256083C85EA010586EA4B
:10023000010685FA47F5A3FA87F586FA47F6A5FA87
:1002400087F68EB9EED1F0BC01F0FF0102F0070293
:1002500032B110F8013B013A83EA010313B1F8D13E
:100260000020704701387047002D06BF354603381F
:10027000073815F0010F07D1013015F4807F02BF58
:10028000013015F4C03F0130F0BC0138704700BFA9
:100290007BB972B90029BEBF00204FF0004106E0D3
:1002A00008BF00281CBF6FF000414FF0FF3000F086
:1002B000D3B9ADF1080C6DE904CE002909DB002BA0
:1002C0001ADB00F04DF8DDF804E0DDE9022304B0AC
:1002D0007047404261EB4101002B1BDB00F040F80E
:1002E000DDF804E0DDE9022304B0404261EB4101A6
:1002F000524263EB43037047524263EB430300F007
:100300002FF8DDF804E0DDE9022304B0404261EBA0
:1003100041017047524263EB430300F021F8DDF8DE
:1003200004E0DDE9022304B0524263EB430370476B
:1003300053B94AB9002908BF00281CBF4FF0FF314C
:100340004FF0FF3000F088B9ADF1080C6DE904CE34
:1003500000F006F8DDF804E0DDE9022304B07047A0
:100360002DE9F047089D8E4604468846002B4AD169
:100370008A42174662D9B2FA82F64EB1C6F120031C
:1003800001FA06F820FA03F3B74043EA0808B4403C
:100390004FEA174E1FFA87FCB8FBFEF1230C0EFB49
:1003A000118843EA084301FB0CF29A4209D9FB1871
:1003B00001F1FF3080F0EA809A4240F2E780023992
:1003C0003B449A1AA3B2B2FBFEF00EFB102243EAA2
:1003D000024300FB0CFC9C4509D9FB1800F1FF32DD
:1003E00080F0D6809C4540F2D3803B44023840EAFE
:1003F0000140A3EB0C0300211DB1F3400022C5E92D
:100400000032BDE8F0878B4205D90DB1C5E9000186
:1004100000210846F5E7B3FA83F1002946D1734578
:1004200002D3824200F20581841A6EEB030201209E
:100430009046002DE5D0C5E90048E2E7002A00F02B
:100440009080B2FA82F6002E40F0A4808A1A030C43
:100450004FEA174E80B2BCB20121B2FBFEFC0EFB8C
:100460001C2243EA024304FB0CF29A4207D9FB1810
:100470000CF1FF3802D29A4200F2E080C4469B1A87
:10048000B3FBFEF20EFB123340EA034302FB04F41B
:100490009C4207D9FB1802F1FF3002D29C4200F2C5
:1004A000CA8002461B1B42EA0C40A5E7C1F12006A8
:1004B0008B4022FA06F71F430EFA01F420FA06F3E6
:1004C0002EFA06FE4FEA1749234300FA01F81FFAF5
:1004D00087FCBEFBF9F01C0C09FB10EE44EA0E444D
:1004E00000FB0CFEA64502FA01F209D93C1900F105
:1004F000FF3A80F09C80A64540F2998002383C4447
:10050000A4EB0E041FFA83FEB4FBF9F309FB1344BA
:100510004EEA044403FB0CFCA44508D93C1903F142
:10052000FF3E80F08280A4457FD9023B3C4443EAF1
:100530000040A4EB0C04A0FB02EC64457346E146CA
:1005400062D35FD05DB1B8EB030264EB090404FA37
:1005500006F622FA01F31E43CC40C5E900640021EF
:100560004FE7B1FBF2FC010C41EA0E4180B240EAD8
:1005700001423B4638463C46B846BE462026B1FBC3
:10058000F7F1A2EB080241EA0C4166E7014618E7E1
:1005900010462CE7C6F120022EFA02F3B740B14014
:1005A00020FA02F24FEA174E0A43B3FBFEF8BCB240
:1005B0000EFB1833110C41EA034108FB04F9B0406B
:1005C00089454FEA104380B23ED9791808F1FF3CC3
:1005D00001D289451FD8A1EB0901B1FBFEF909FB46
:1005E00004F80EFB191192B242EA0142424529D2A7
:1005F000BA1809F1FF31C4D24245C2D2A9F10201B1
:100600003A44BEE7F0459DD2BEEB02036CEB070C0B
:100610000138E14696E7A7EB09094944A8F1020C25
:10062000B1FBFEF909FB04F8DBE773467FE75046B0
:1006300066E70846FDE63B44023A33E7ACF1020CBC
:100640003B441CE749469CE7A1EB0901C446B1FBCA
:10065000FEF909FB04F8C4E7704700BFDFF834D0A7
:10066000002103E00C4B5B58435004310B480C4B0A
:1006700042189A42F6D30B4A02E0002342F8043BA8
:10068000094B9A42F9D303F07DFB21F055FE01F0AE
:1006900063F8704700000320406E0308000000204C
:1006A0006401002080030020E46B0120FEE7704716
:1006B00008B500F0BFFDBDE8084000F041BD00F006
:1006C000BBBD704710B50421044620F048FC20460D
:1006D00010BD000038B50C4B0C4C18800C4B822020
:1006E00019806368984740F6110398420AD1094D72
:1006F00023682C60822098472B688220DB6898470B
:10070000002038BD0120FCE7A60300204C0000209B
:10071000A4030020A80300204FF4A071F020FFF7ED
:10072000D9BF0000F7B5394D2B6804461B698220FC
:100730009847208000284ED02B680DF106025B6997
:1007400001A982209847324B1B78002B4BD0BDF873
:10075000062040F674639A423FD9ADF80630BDF8E2
:1007600006209B1A9BB20A2B42D90B22B3FBF2F351
:10077000284A1288934201D9013A93B2BDF8042065
:10078000254840F6B8318A4234D8C2F571620E323B
:10079000016892B20F25B2FBF5F2204D2D88AA42D6
:1007A00084BF05F1FF35AAB28A4215468EB22AD916
:1007B000921B91B21A4E3768BB42BAB28CBF9A1ADA
:1007C000D21A92B211440529C4BF05603360036890
:1007D00063803368A38003B0F0BDB32A9CBFB4220A
:1007E000ADF80620BBE7BDF80630A3F5B473B9E752
:1007F0000023C3E7C2F56D62083292B20E2A016887
:10080000C8D800252A46891A89B2D3E7A803002050
:100810001C4E0020A4030020A0030020A6030020FB
:100820009C03002037B568460D461446FFF77AFF53
:10083000BDF8000030B1BDF802302B60BDF80430C7
:100840002360012003B030BD032821D8DFE800F089
:10085000020B12190F4B1A68B2FA82F252090421E4
:100860000D4803F023BD0B4B5A68B2FA82F25209CD
:100870000821F5E7074B9A68B2FA82F25209102173
:10088000EEE7044BDA68B2FA82F252092021E7E778
:10089000704700BFAC03002000100240032821D89D
:1008A000DFE800F0020B12190F4B1A68003A18BF6C
:1008B000012204210D4803F0F9BC0B4B5A68003AA1
:1008C00018BF01220821F5E7074B9A68003A18BFC4
:1008D00001221021EEE7044BDA68003A18BF01222A
:1008E0002021E7E7704700BFAC0300200010024062
:1008F00003280DD8DFE800F00206080A04210548A5
:1009000003F0D9BC0821FAE71021F8E72021F6E727
:10091000704700BF0010024008B5032811D8DFE877
:1009200000F0020A0C0E0421074803F0B9FC431E34
:100930005842584108BD0821F6E71021F4E720216C
:10094000F2E70020F3E700BF0010024070B5084D49
:1009500000240126E0B2FFF7DFFF18B12B68012B5E
:1009600018BF2E600134052C05F10405F2D170BDCD
:10097000AC030020012380F8781080F879307047AC
:100980007047002070470000034B4164003918BFD6
:1009900001211970704700BFA35E0120704700203D
:1009A0007047836B0BB10846184770474FF6FF70CE
:1009B0007047406803689B691847704770477047E5
:1009C0007047704710B5044600F04CFD236803499A
:1009D000D3F890302046BDE810401847000000D002
:1009E00008B503680446D3F8843098472368204646
:1009F000DB6F984700F0ECF8236820465B6F984760
:100A0000292001F083F900F0E3F8236820465B6FAA
:100A10009847F8E710B5044608F0F2FE2368204630
:100A2000D3F8BC30BDE81040184700F0FFBC00F020
:100A300003BD00F035BD00F0D5BC00F045BD00F0B1
:100A40004DBD00F0D9BC08F009B910B584210446A9
:100A500020F085FA204610BD10B590F8341090F8BB
:100A600078400C4B8C421A7809D03AB90A4A0B49A3
:100A70001488088810800C8001221A7010BD002A8A
:100A8000FCD0054A05491488088810800C80002293
:100A9000F3E700BF9C5E0120985E01209A5E012072
:100AA00070B50D46194635B9094B0A4A0A4840F255
:100AB000FF2121F091F9C0E90F52084B003A18BF0D
:100AC00001221A700368BDE87040D3F890301847CF
:100AD000842E0208BC2E02080A2F0208A25E012002
:100AE00008B5094B1B888B4203D8084B1B889342DF
:100AF00005D9074B074A0848A32121F06DF9074B98
:100B00001980074B1A8008BD985E01209A5E01206B
:100B10004F2F0208B22F02080A2F02089E5E012002
:100B2000A05E0120034690F87A0018B15868036867
:100B30001B68184770470000012108B500220846CD
:100B400005F07EFD0A4B186028B90A4B0A4A282195
:100B50000A4821F041F900220421012005F00FFE8E
:100B6000074B186018B9074B034A2C21F0E708BD62
:100B7000C0030020F52F02083E3002086D30020845
:100B8000BC030020B5300208024B4FF0FF3118685B
:100B900005F0A0BDC0030020014B186805F0C6BDDC
:100BA000C0030020024B0021186805F093BD00BF70
:100BB000C0030020FFF7F0BF03480449006800238A
:100BC0001A4605F017BE00BFBC0300200400002039
:100BD00013B5084C00231A4601A9206805F03BFE16
:100BE00020684FF0FF33002201A905F034FE02B067
:100BF00010BD00BFBC03002003685B6C18470120D8
:100C0000704703689B6A1847FEE740F2EF30704771
:100C1000054B0360054B4FF08062C3F88820BFF39B
:100C20004F8FBFF36F8F7047A839020800E100E0D3
:100C300010B504464FF45A61FFF7EAFF204620F052
:100C40008EF9204610BD000082B0002301930E4BA8
:100C50001A6B42F400021A631A6B02F4000201924A
:100C6000019A1A6942F400021A611A6922F4000218
:100C70001A61064B064A1A61064A5A61064B4FF042
:100C800080629A6002B0704700380240F84F00203E
:100C9000E90E0008090C000800E100E008B50A2888
:100CA00009D8DFE800F006100E0808080810101038
:100CB0001000022008BD054B054A0648902121F08E
:100CC0008BF80020F6E70120F4E700BFF7300208B8
:100CD000123102085D31020838B50C46887FFFF7F3
:100CE000DDFFA58AE28A164B2169586342EA054274
:100CF0005A64628BD963521B1A642568082D0ED181
:100D00009A611A615862207F0E4A42EA0062DA61F3
:100D1000E2681A620C4A5961D9601A6038BD002233
:100D2000D8611A61E1680A0A480902F4784200F4BD
:100D3000FC600243C1F3C4010A439A63034AECE72F
:100D400000B002400900010001230200012303005A
:100D500008B50B280BD8DFE800F00612100A0A0AC3
:100D60000A0808080808022008BD0520FCE7054B12
:100D7000054A06486F2121F02FF80020F4E70120F2
:100D8000F2E700BFF7300208A33102085D31020824
:100D90002DE9F04191F81D800C464046FFF7D8FF41
:100DA000A77F05463846FFF7D3FF06463846FFF7CC
:100DB00075FFA18A628B444B521A1A649A61228B86
:100DC000521A1A61E28A586342EA01425A6421695E
:100DD0006268D963DA602068802828D0227F0FD823
:100DE000202867D0402865D004281AD0364B45EA21
:100DF000026545F40035B845DD6161D0334A44E011
:100E0000B0F5807F04D0B0F5007FEFD1304800E02E
:100E1000304840EA0262DA61E2681A625E62596151
:100E200032E045EA026242F40032DA61F6E7A06895
:100E3000021DDA62227F45EA026545F40035DD6174
:100E40005E625961017841B1012921D0224B234AC8
:100E500023484FF48D7120F0BFFFDA69418822F4F6
:100E60007F42013922F0100242EA0122DA610121B7
:100E7000154BDA6942F02002DA61DA699206FCD495
:100E800010229A600029B9D0164A1A60BDE8F08194
:100E9000B2F1FF01DA69408822F47F4200F1FF30AD
:100EA00022F0100242EA002242F0100218BF012193
:100EB000DA61DDE745EA0262034B42F40032B4E74F
:100EC00042F20132E1E700BF00B00240012301001D
:100ED000090002000A000200ED3102080732020890
:100EE0005D31020801230200024B1B685868036849
:100EF0005B691847A45E012070B5044625460A4B7D
:100F00000C30002660602672667245F8203B602235
:100F1000294608F0CBFD04F55A63EE6024359D4266
:100F2000FBD1204670BD00BFA8390208034B1A68E8
:100F3000D207FCD423229A60704700BF00B0024061
:100F40007047000030B50F4C2568ED07FCD4232511
:100F50000904A56041F001010225FF2B656361646E
:100F6000E0630AD00849656241EA0363E361074B25
:100F700022626061E060236030BDE561039BA36392
:100F8000034BF8E700B00240090001000100020035
:100F90000100030030B50E4C2568ED07FCD4232575
:100FA0001204A56042F001020225FF2B6563626412
:100FB000E063E16008D01B0643F00213E361054BD8
:100FC00065626061236030BD034BE3610123F9E793
:100FD00000B0024001000200020002FF30B50B4CDD
:100FE0002568ED07FCD4232512041B06A56043F4F5
:100FF0000033022542F0010265636264E063E16050
:10100000E361034B65626061236030BD00B0024064
:1010100001000200012070470C2070470C2303FBE5
:101020000100083070470C2303FB010008307047B3
:101030000120704743F60810704743F6081303FB7E
:1010400001000830704743F6081303FB0100083025
:101050007047012070471020704700EB01100830E6
:10106000704700EB011008307047084601F088BB5C
:1010700010B5034B0360044607F045FB204610BD46
:10108000603A020810B50446FFF7F2FF204614212B
:101090001FF065FF204610BD10B5034B03600446EA
:1010A00007F031FB204610BD2C3A020810B504466B
:1010B000FFF7F2FF204643F610111FF050FF2046C5
:1010C00010BD000010B5034B0360044607F01BFB86
:1010D000204610BDF839020810B50446FFF7F2FFAC
:1010E000204618211FF03BFF204610BD10B5094BCC
:1010F0000360044600F564503C30FFF7B9FF04F18B
:101100002C00FFF7C9FF04F11400FFF7DBFF2046B6
:1011100010BD00BF943A020808B50248FFF7E6FF89
:1011200008BD00BF9C12002010B50446FFF7DEFF8B
:10113000204643F6B0211FF012FF204610BD0000EC
:101140002DE9F34101F092F9054601F093F90024ED
:101150000146234628462246009410F06DFE274B98
:10116000274A1A60204601F0F9FD264D264B274AF2
:1011700027489A6010F0C8FD2B68BFF35B8FDB0730
:1011800035D428461FF0EDFE88B3224C224B234F66
:10119000236004F1140000F5655604F12C0860602A
:1011A000C4F80880E760266107F0AEFA1C4B636163
:1011B000404607F0A9FA1B4BE362384607F0A4FA51
:1011C00004F5405303F51560174AC3F83C2901F0B4
:1011D00049FE2246311F304601F03AFE304601F00A
:1011E000CFFA124820F016FE28461FF0C6FE10481F
:1011F00002B0BDE8F041FFF7E5BB00BF085F01208A
:101200004804002098120020680400204C040020AC
:10121000080000209C120020943A0208D84B0020BD
:10122000F83902082C3A0208603A0208191100083D
:10123000C4030020704700000148FFF7D1BB00BF86
:10124000C403002070B5264E264C274D274B236043
:101250003046FFF751FE284615F0F4FE24480EF004
:1012600055FE244B2448DC6000224FF48071C3E912
:10127000121222491A86C3E91A12214983F858200A
:10128000C3E91E011F49C3F880101F491F480B60A6
:10129000F021C3E90422C3E90622C3E90822C3E915
:1012A0000A22C3E90E22C3E91022C3E91422C3E9CA
:1012B00017225A6683F870205A67C3E901650180D6
:1012C0001348018013484FF4A07101801248018037
:1012D00012490A70012283F83420114A1A6070BD45
:1012E000F40400209412002068040020742E0208E8
:1012F0004C040020C4030020000001010100000193
:10130000000450001A001400A45E0120985E012021
:101310009E5E01209A5E0120A05E01209C5E01205D
:10132000BC3802080148FFF773BC00BFF40400207A
:101330000020704781807047C180704701817047ED
:10134000418170477047704770477047704710B4CD
:10135000C4880368121B84885B6D091B12B25DF898
:10136000044B09B218474FF6FF7383814FF0FF33E8
:1013700003621368C36110607047002070478B8858
:10138000838001207047704780F82610704790F8DE
:101390002600704710B50022B1F90840B1F90A10D3
:1013A000028042808480C18010BD00220280428081
:1013B0008280C28070470177704780ED080A7047CD
:1013C00080F82410704780F825107047012070477E
:1013D000983070478C307047843070477047704742
:1013E00070470000034B902283F85A2383F8582358
:1013F000704700BF00E100E0094A0A49D3680A4883
:10140000C3F30A03013B9BB20B801169C1F30A01CC
:10141000013901801364536B43F001035363704738
:10142000006801404E4D00204C4D0020014BD3F888
:10143000AC00704700680140024B0122C3F8AC10B9
:101440005A6270470068014010B52C2104461FF015
:1014500086FD204610BD10B5BC2104461FF07FFD5F
:10146000204610BD70B5044607F04DFC23689D6E04
:101470000DF0E4FA01462046A8472368054AD3F850
:101480008C502046AC460023BDE87040A2F51631D2
:10149000604700BF00B004D007F01CBC07F026BCBA
:1014A00007F0E2BB07F051BD90F8252012B10368A8
:1014B0005B691847704790F825201AB190F82420EE
:1014C00002B1186070470000034B4FF080629A60D1
:1014D0004FF080729A60704700E100E0084B4FF0D7
:1014E0008062C3F88820BFF34F8FBFF36F8F4FF038
:1014F0008072C3F88820BFF34F8FBFF36F8F7047A0
:1015000000E100E070B50023124E8380124B0360AF
:10151000336893F8582005460AB1D86C00B998682A
:101520000368DB6A98473368B0FA80F4D86C6409C2
:1015300030B10368DB6A9847002808BF44F0010413
:101540002CB9064B064A07482C2120F045FC2846BA
:1015500070BD00BFA45E0120A83A0208453202080F
:10156000A3320208DC32020870B5254E3568BFF39D
:101570005B8F15F0010540D130461FF0F2FC0028CA
:101580003BD0204C204B256104F13400C4E90035E8
:10159000C4E90255E584A562A5850EF09CFF04F11F
:1015A000580009F039FF194BA3652046184B40F845
:1015B000843BFFF7A7FF174BC4F884302433C4F8EB
:1015C0008C304FF4C803C4E928350023C4F8AC308C
:1015D000C4F8B030C4F8B430C4F8B8300E480F4B7B
:1015E000C4F89050C4F89C50C4F8A850C4F898307F
:1015F00020F010FC30461FF0C0FC024870BD00BF58
:10160000504D0020544D002028400208C83A0208DE
:10161000403B0208DC3F0208E1130008BC3F02081F
:1016200038B5184C23685BB3174B184A1B6C1188EC
:101630008B4216D1164B198803F04CFC236893F8A3
:101640006A200025013283F86A2083F87C50FFF776
:10165000B3FA206808F0D4F82846BDE83840FFF710
:10166000F3B803F037FC2468236820461B6A9847C8
:10167000012384F87C300020BDE83840FFF70EB924
:1016800038BD00BFA45E0120006801404E4D00201F
:101690004C4D002007B5064BADF806001B68054809
:1016A00001220DF1060104F0C5F903B05DF804FB59
:1016B0000C000020A44E002008B5642004F0B4FF04
:1016C000FBE7000030B595B0102200210AA820F0F9
:1016D0008AFD0021142203A820F085FD00241C4B64
:1016E00001941A6C42F080521A641B6C03F0805310
:1016F0000193019B174B02941A6842F440421A600E
:101700001B6803F440430293029B01224FF4803391
:10171000CDE9082302254FF48003B422CDE90E530E
:1017200008A80423CDE91032CDE9125303F02AFCB6
:1017300003F0EEFB0F23CDE9033505214FF4A05351
:1017400003A8CDE90633059403F0F8FD15B030BDCC
:10175000003802400070004080B59AB002F020FBD3
:10176000FFF7B0FF142200210DA820F03CFD00245B
:10177000C94B00941A6BC948DFF8589342F0100225
:101780001A631A6B02F010020092009A01941A6B0D
:1017900042F020021A631A6B02F020020192019AB1
:1017A00002941A6B42F080021A631A6B02F08002F4
:1017B0000292029A03941A6B42F004021A631A6BA3
:1017C00002F004020392039A04941A6B42F001029D
:1017D0001A631A6B02F001020492049A05941A6BC0
:1017E00042F002021A631A6B02F002020592059A95
:1017F00006941A6B42F040021A631A6B02F0400220
:101800000692069A07941A6B42F008021A631B6B41
:1018100003F00803224607933C21079B02F046FD94
:101820009F480122022102F041FD22469C480421EA
:1018300002F03CFD22469B484FF4405102F036FD39
:1018400001263C23CDE90D3694480F9403230DA9BE
:101850000227109302F040FC91480DA9CDE90D76C6
:10186000CDE90F4402F038FC04238D480DA9CDE9E1
:101870000D36CDE90F474FF4405802F02DFC4FF4E0
:10188000041589480F960DA9CDE90D8502F024FCB9
:1018900084480DA9CDE90D86CDE90F4702F01CFC67
:1018A000C02380480F960DA9CDE90D3502F014FC38
:1018B00022460521172002F0C5FA172002F0F4FA9B
:1018C00022460521282002F0BDFA282002F0ECFA79
:1018D0007648774B774DDFF80082036002F0F2FA2A
:1018E000754B2C62C5E9008328464FF48043C5E957
:1018F0000434C5E90244C5E9064402F0F1FE1021B2
:10190000284603F035F9214628466C4D03F04FF97F
:101910004FF48273C5E900934FF4007A1823C5E9A8
:1019200006A328460A23C5E90244C5E90444C5E9DB
:101930000844AC62EB6204F021F88F23224639465A
:1019400057488DF824308DF8344002F0AFFC324611
:101950004FF47A7309A9284604F06CF84FF47A73AF
:1019600032460DA9284604F011FA324639464C4851
:10197000534D02F09BFC9DF83430D32B04BF514BE8
:101980001E70514B0126C5E9003610224023002469
:10199000C5E904234FF4C073C5E906344FF400636E
:1019A000C5E908344FF4005302274FF00409AB6235
:1019B0004FF0030A07230DA92846CDE90D73CDE9A1
:1019C0000F934FF00808C5E90249CDE911A7139715
:1019D00003F0B8FE4FF6FF7209A92846CDE90A8642
:1019E000089409960C9403F0CDFE304602F004FAF8
:1019F0004FF6FF7209A92846CDE90978CDE90B64B5
:101A000003F0C0FE4FF6FF7209A92846CDE909A8E8
:101A1000CDE90B9403F0B6FE4FF40C730893089BCA
:101A20000C934FF6FF7209A92846CDE909980B9649
:101A300003F0A8FE40F26A51284603F0C1FE3422AA
:101A40000DEB0200214620F0CEFB204D204B2C61F7
:101A5000C5E900340923C5E905361D23C5E9073A60
:101A600040F20D1140F24313C5E9091340F217107B
:101A700040F24713C5E90B032846C5E90244AC868A
:101A800085F8364003F02EF9FF214FF4806CF022E8
:101A9000CDE91214052121E0003802400010024077
:101AA00000080240000C02400004024038500020B0
:101AB00000300240A44F0020A0860100A44E002068
:101AC000284E00201C4E0020400100A0FC4E0020AB
:101AD0000068014000500140005C0040CDE914C1A5
:101AE0004FF4A0730DA9CDE90E24CDE91642284686
:101AF0002246294D1893CDE910370D94ADF8644076
:101B00008DF8664003F0B9F9244B2B601B689847A9
:101B10002B68234DDB689847224B2846C5E90034E3
:101B2000C5E90274C5E90A47C5E90C4402F0DAF9CF
:101B30003146284602F08CFA1B4DDFF88CE02C6110
:101B40004FF4E133C5E900E328460C23C5E9053429
:101B5000C5E90244EC6104F0D5FB4FF0FF331349B3
:101B60001122284604F0FDFBFEF7A2FDFEF79FFDC3
:101B700004F0EAFC0E4A0F48214604F011FD0E4B1A
:101B80000E4A186021460E4804F00AFD0D4B1860FD
:101B900004F0ECFCFEE700BF144E0020140000200F
:101BA000F84F002000B002405C4E00203E33020897
:101BB000A83B0208B9160008244E0020843B020806
:101BC000BF060008204E00200010014010B504465A
:101BD00002F00CF90C4A1368C31A642B06D9B4F549
:101BE000805F04D1094B01211970106010BDB4F55C
:101BF000005F01D1064BF6E7402C01D1054BF2E71F
:101C0000802CF2D1044BEEE7104E00201B4E00203A
:101C10001A4E0020184E0020194E002070477047C1
:101C20007FB5094B8DF817201B6802930DF1170241
:101C30000123009201930A460146044802F0F8FD90
:101C400007B05DF804FB00BF10000020A44F002087
:101C50007FB500238DF81730084B1B6802930A46A6
:101C600001230DF11701009101930146044802F090
:101C70006FFE9DF8170007B05DF804FB1000002010
:101C8000A44F00201FB5084C24680092CDE9013410
:101C90000A4601230146054802F05AFE003818BFE3
:101CA000012004B010BD00BF10000020A44F002090
:101CB00002F0A2B810B5064C00222046042102F022
:101CC000F5FA20460122BDE81040042102F0EEBAE8
:101CD0000008024038B50B4D044601220A484FF473
:101CE000005102F0E3FA00220421284602F0DEFA55
:101CF0002046FFF7CFFC28460122BDE838400421EA
:101D000002F0D4BA00080240000C024038B50B4D76
:101D1000044600220A484FF4005102F0C7FA00229C
:101D20000421284602F0C2FA2046FFF7B3FC2846F9
:101D30000122BDE83840042102F0B8BA0008024090
:101D4000000C0240F7B5144E144F05460C463046C1
:101D50000022042102F0AAFA00224FF40051384672
:101D600002F0A4FA2846FFF795FC0D4B0D481B68BE
:101D7000224601A904F00AF8384601224FF4005126
:101D8000019C02F093FA30460122042102F08EFAFF
:101D9000204603B0F0BD00BF00080240000C024026
:101DA0000C000020A44E002002F026B80268034B6D
:101DB0009A4201D102F00EB8704700BF00100040F7
:101DC0007047000082B00E4B00220092596C41F423
:101DD00080415964596C01F480410091009901924D
:101DE000196C41F0805119641B6C03F0805301930E
:101DF000019B0F216FF0010002B002F023B800BF79
:101E0000003802400268094B9A4282B00BD100238D
:101E10000193074B1A6B42F480521A631B6B03F455
:101E200080530193019B02B0704700BF0030024015
:101E30000038024007B50F4B02689A4216D10022C3
:101E4000A3F5F0430192196B41F4000119631B6B78
:101E500003F40003019305215A20019B01F0F2FFD6
:101E60005A2003B05DF804EB02F01EB803B05DF831
:101E700004FB00BF00B002402DE9F043044689B0E6
:101E80001422002103A820F0AEF92268244B9A42C4
:101E900043D1244C244800250095236B43F00403D0
:101EA0002363236B03F004030093009B0195236BD2
:101EB00043F001032363236B03F001030193019BB0
:101EC0004FF012094FF400734FF001080327042666
:101ED00003A9CDE90339CDE90587079602F0FCF89F
:101EE0004FF480731148079603A9CDE90339CDE972
:101EF000058702F0F1F80295236C43F40003236494
:101F0000236C03F400030293029B236A43F400034F
:101F10002362236A23F40003236209B0BDE8F0833F
:101F2000005C00400038024000080240000002400F
:101F3000F0B599B004461422002107A820F053F907
:101F400030220DEB0200002120F04DF922685E4B9B
:101F50009A4240F0B78008230C93C02310930423C7
:101F600012930CA84FF40033159303F0BFFA08B195
:101F7000FFF726FF554B5648002400945A6C42F058
:101F800080625A645A6C02F080620092009A019456
:101F90001A6B42F020021A631A6B02F020020192BF
:101FA000019A02941A6B42F001021A631A6B02F052
:101FB00001020292029A03941A6B42F002021A631F
:101FC0001A6B02F002020392039A04941A6B42F015
:101FD00040021A631A6B02F040020492049A0594BC
:101FE0001A6B42F004021A631A6B02F004020592A3
:101FF000059A06941A6B42F008021A631B6B03F0F1
:102000000803069302250E26069B0B964FF4806369
:1020100007A9CDE90735CDE9094502F05DF841F69C
:1020200058032C480B9607A9CDE907350927CDE9B8
:10203000094502F051F8032327480B9707A9CDE97A
:102040000735CDE9094502F047F84FF4706322489F
:102050000B9607A9CDE90735CDE9094502F03CF813
:102060004FF40C631D480B9607A9CDE90735CDE960
:10207000094502F031F8C02319480B9607A9CDE9AC
:102080000735CDE9094502F027F8082315480B96D6
:1020900007A9CDE90735CDE9094502F01DF84FF450
:1020A000A0530E480B9707A9CDE90735CDE909459F
:1020B00002F012F858202246052101F0C3FE5820F4
:1020C00001F0F2FE19B0F0BD006801400038024096
:1020D00000140240000002400004024000180240C8
:1020E00000080240000C024010B5044688B01422DB
:1020F000002103A820F077F82268144B9A4223D1DC
:1021000003F56843002101915A6C114842F4801292
:102110005A645A6C02F480120192019A02911A6B6D
:1021200042F020021A631B6B03F020030293029B10
:102130004FF4607202230321CDE903230523CDE987
:10214000061303A901F0C8FF08B010BD00500140FC
:102150000014024010B5044688B01422002103A8E0
:1021600020F041F82268144B9A4223D103F59433AE
:10217000002101915A6C114842F010025A645A6CC5
:1021800002F010020192019A02911A6B42F00102D0
:102190001A631B6B03F001030293029B4FF4C062AE
:1021A00002230321CDE903230723CDE9061303A965
:1021B00001F092FF08B010BD001001400000024085
:1021C0002DE9F04186B0002303932B4B1C68002CB3
:1021D0004FD14FF00108C3F80080284B00949A6B50
:1021E000274842EA08029A639B6B03EA08030093BC
:1021F000022703260C25009B01A94FF63F03CDE9DA
:102200000137CDE9046501F067FF1E48059501A976
:10221000CDE90187CDE9034601F05EFF48F23313B3
:102220001948059501A9CDE90137CDE9034601F02B
:1022300053FF4FF683731548059501A9CDE9013782
:10224000CDE9034601F048FF4CF2037310480595B1
:1022500001A9CDE90137CDE9034601F03DFF602337
:102260000C48059501A9CDE90137CDE9034601F0F8
:1022700033FF06B0BDE8F081405000200038024036
:102280000014024000080240001802400010024002
:10229000000C02400004024070B588B00023029395
:1022A000204B1A6C42F010021A641B6C03F01003EE
:1022B0000293054601A903A8029B03F0F9F8069BC7
:1022C0004BBB03F0D5F8184E184B336040F2E733A0
:1022D000F360174BB0FBF3F3013B73603046002310
:1022E0003361B360B36103F021FF044680B9304627
:1022F00003F0F2FD044658B9362001F0D5FD0F2D4C
:102300000DD822462946362001F09CFD094B1D6060
:10231000204608B070BD03F0ABF84000D3E70124BD
:10232000F6E700BF00380240445000200010004093
:1023300040420F007C0000207047FEE7FEE7FEE70A
:10234000FEE7704708B5402001F0BEFFBDE8084039
:10235000802001F0B9BF08B54FF4805001F0B4FF00
:10236000BDE808404FF4005001F0AEBF014803F053
:10237000F1BD00BF44500020014802F021BD00BF64
:10238000FC4E0020014801F0D9BD00BFF84F0020ED
:102390000120704708B51FF0C9FF162303604FF0F6
:1023A000FF3008BD08B51FF0C1FF16230360FEE72C
:1023B00070B50D4614460E46731B9C4201DC204648
:1023C00070BDAFF3008006F8010BF5E770B50D4660
:1023D00014460E46731B9C4201DC204670BD16F865
:1023E000010BAFF30080F5E74FF0FF3070474FF47B
:1023F00000534B6000207047012070470020704759
:102400000A4A116808B5034609B9094911601068FC
:10241000694603448B4206D91FF088FF0C230360F2
:102420004FF0FF3008BD1360FCE700BF8C50002068
:10243000E86B0120704710B5042104461EF08FFDA3
:10244000204610BD012908B506D0022908D059B987
:1024500000F0D0FC006808BD00F0CCFC4068FAE752
:1024600000F0C8FC8068F6E70020F4E700487047F9
:10247000E03B02080820704713B5002451B10368FF
:1024800001948DF8034001AA9C680DF10303A04755
:1024900002B010BD0846FBE7C0897047008A70474C
:1024A000C088704780887047807A00F07F0070474E
:1024B000807AC00970470020704700009FED010A34
:1024C000704700BF00000000704710B508210446A7
:1024D0001EF045FD204610BD7047704700F598730B
:1024E0000868496803C37047704770474160704788
:1024F00070477047064BC0F84C310023C0F850318C
:1025000000F5A273C0F84801C0F84031704700BF21
:10251000B5250008012303727047704710B4C268E4
:1025200041685410034601EB6200D20748BF0A59C4
:102530009B685DF8044B48BFD35818470346406872
:1025400030B19A681AB9D86800F0010070470120CC
:10255000704710B50C2104461EF001FD204610BD49
:1025600010B5102104461EF0FAFC204610BD10B52F
:102570004FF4AE7104461EF0F2FC204610BD10B5BB
:102580000CF05CFA0368BDE81040DB6B184710B52F
:102590000446D0F8400158B10368DB68984738B169
:1025A000D4F8400103689B6898470023C4F8403181
:1025B00010BD00002DE9F14FD0E9556A0746B0681B
:1025C00003681B6A984743F60713984205D8444BA3
:1025D000444AA32144481FF0FFFB706803681B6A4C
:1025E00098470F2803D8414B3E4AA421F2E7F068F0
:1025F00003681B6A98470B2803D83D4B394AA5212D
:10260000E8E70CF01BFADFF8F09004300CF03BFA2E
:10261000D9F8000010B10368DB689847D9F80000CA
:1026200010B103681B689847DFF8D080D8F8000025
:1026300010B103685B699847D7F83C0110B1036893
:102640005B689847D8F8000010B103681B6898478A
:10265000D7F83C0110B103689B689847F06803689D
:1026600000215B6A98474FF0000B224BC0F804B082
:10267000044680F808B00360B068036859465B6A96
:102680009847054600F0C8FC7068036859465B6AC5
:1026900098472946064600F0F7FB331DC7F83C6112
:1026A000C9F80040C8F80050CAF800302B68C6F8D6
:1026B00008A02846DB68EE639847336830461B68FD
:1026C0009847214628460EF08BFB236820461B695D
:1026D000984723685B69204601B0BDE8F04F184772
:1026E00066330208F4330208C63402080D350208C6
:1026F000B0350208043D0208EC5E0120E85E0120CE
:10270000044B1B6893F858200AB1D86C00B998683C
:10271000704700BFA45E0120F8B5174604460E4678
:102720000CF04EFA124B1C60124B2360124B00252A
:10273000C4E95135114BC4E95355186803680121A8
:102740009B68C4E94F55C4E955769847284600F080
:1027500005FBFFF7D5FF16F01EFBFFF7D1FF16F0C4
:1027600095FBFFF7CDFF16F09DFB2046F8BD00BF9F
:10277000F85E0120B03C0208983C0208A45E0120EB
:10278000064BC0F84C310023C0F8503100F5A2735D
:10279000C0F84801C0F84031704700BFB5250008B7
:1027A000406A7047806A704770478A880B8810B506
:1027B000D20A4C88C1699BB251F8220043EA044313
:1027C000184410BD10B50446BAB1107B68B1537BF4
:1027D000D27A1B0203F4E0631A43236A03EB8203F9
:1027E0001A888A4202D193F9020010BD05D8013837
:1027F00080B204330028F3D1F7E70020F5E710B5E5
:102800002C2104461EF0ABFB204610BD30B58BB02A
:102810000446BDF860500895BDF85C5007959DF8DA
:10282000505006959DF84C5005959DF848500495DC
:102830009DF8445003959DF8405002959DF83C50FA
:102840000195BDF8385000950DF002FF064B23604E
:10285000159BE361169B2362199B63621A9BA3621B
:1028600020460BB030BD00BF283D020870477047BE
:1028700070477047704770477047704770477047A0
:1028800010B503680446DB6A9847236820461B6B33
:10289000BDE81040184710B54FF4B67104461EF05D
:1028A0005EFB204610BD11B903685B6B184770478B
:1028B000074A02600022C0E90122C0E90322C0E900
:1028C0000522C0E907224FF480728284704700BF5E
:1028D0009043020870B5036804461B6B1546984781
:1028E0002368294620465B6BBDE87040184770B5E9
:1028F00004461D46BDF91060FFF7ECFF236829462A
:1029000020469B6B9847236831462046DB6BBDE829
:102910007040184710B52622044600211FF063FCC2
:102920002046FFF7C5FF044B2360FF2384F82630C1
:102930000023A362204610BDF04102082DE9F04FAC
:1029400004468BB0A14600250EF09EF8664BE56369
:1029500049F8403B04F16C084846FFF7DBFF04F1FF
:10296000980708A94FF6FF7A4046ADF820A008F076
:10297000BBFD3846FFF79CFF5C4EC4F8986004F13D
:10298000C403C4F8C050184604F1F80B0393FFF7D2
:10299000C1FF574BC4F8C430C4F8F050A4F8F45049
:1029A0005846FFF785FFC4F8F86004F5927629468B
:1029B0002622C4F8205130461FF015FC3046FFF7A0
:1029C00077FF4C4BC4F824314B4BC4F84C314FF4D7
:1029D0007F03C4F858314FF4A0724FF0FF33C4E9BD
:1029E0005935A4F850A1C4F85451A4F85C51C4F866
:1029F00060512946009248462A46F023FFF777FFA8
:102A000004F1040A4FF07F43A3664946504605F09F
:102A10008FFE08A94046ADF8205009F001FC4FF4A4
:102A2000A072F023009229462A464046FFF75FFF36
:102A30002946404608F013FD414650464FF487783A
:102A400005F076FE3846CDF800808C232522122131
:102A5000FFF74DFF0398CDF800802A4629468C23C6
:102A6000FFF745FF254A264B0399C4E93B23012381
:102A7000A4F8F430384605F05BFE4FF4A2736FF013
:102A80003502009329468C235846FFF730FF5946FC
:102A9000384605F04DFE3946504605F049FE2022E5
:102AA0003046DC21FFF716FF04AF164BC4F8543153
:102AB00031463846A4F8585109F01AF897E807004B
:102AC00004F5B07383E807000B4B089308A9304660
:102AD000ADF8245009F0B4FA5046314605F028FE0E
:102AE00020460BB0BDE8F08F903D0208FC3E020886
:102AF0005842020860410208883C02082A2730FF39
:102B000030A8F0FF2E97D6FF7047000030B5164D65
:102B10002C6814F001048FB0BFF35B8F21D12846DD
:102B20001EF01FFAE8B13F230993104B0893104B96
:102B3000104911480A94CDE9064301220423CDE946
:102B400003320A2300930222CDE90B44CDE901446C
:102B50000594FFF75BFE09481FF05CF928461EF05C
:102B60000CFA05480FB030BD90500020BC4D020853
:102B7000C84D0208804D020894500020092B00081F
:102B80007047000030B5164D2C6814F001048FB06A
:102B9000BFF35B8F20D128461EF0E3F9E0B13F235D
:102BA0000993104B0893104B104911480A940122C5
:102BB000CDE906430423CDE9033214230093CDE984
:102BC0000B44CDE901440594FFF720FE09481FF0AE
:102BD00021F928461EF0D1F905480FB030BD00BFDD
:102BE000C0500020C04D0208CC4D02089C4D020888
:102BF000C4500020812B00087047000030B5164DEE
:102C00002C6814F001048FB0BFF35B8F20D12846ED
:102C10001EF0A7F9E0B13F230993104B0893104B26
:102C2000104911480A940122CDE906430423CDE955
:102C3000033228230093CDE90B44CDE901440594E8
:102C4000FFF7E4FD09481FF0E5F828461EF095F966
:102C500005480FB030BD00BFF0500020C44D020841
:102C6000D04D0208AC4D0208F4500020F92B0008AA
:102C700000207047002070470EB403B503AB00215D
:102C800053F8042B01930CF061FF02B05DF804EBE4
:102C900003B070470CB407B504AB53F8042B019391
:102CA0000CF054FF03B05DF804EB02B07047000075
:102CB000436C10B5044673B3038F2BB9184B194AF4
:102CC000C52119481FF088F8C38E00EB43035B8CC5
:102CD0000BB30EF0DEFD238F012B03D8134B144AE8
:102CE000CB21EEE7E28E531C9BB2092B194688BF1D
:102CF000A3F10A0104EB410140F63F10498C8142E7
:102D000009D10A2B04EB420228BF002304EB430342
:102D1000508C588451842046BDE810400EF0BCBC55
:102D2000533602085C36020807370208513702089A
:102D30005F3702080EF077BC10B586B002AC84E8AD
:102D400006001A460AAB05930193099B009321469E
:102D5000089B0BF0F5F906B010BD000038B518BBA4
:102D6000124B13481C681349B4B122682244026014
:102D7000626822440A60A26814440F4B00221A8041
:102D800000F038F8054600F033F80C4B1C600C4B93
:102D90001D600C4B188007E00B4B03600B4B0B6066
:102DA0000B4B1C68002CE8D138BD00BF2C51002013
:102DB000245100202051002028510020FC5E0120D9
:102DC000045F0120005F0120D84D0208D44D0208A5
:102DD000DC4D0208044B1B6853F82100034B1B68B1
:102DE00003EB4000704700BF205100202451002019
:102DF00001207047004870473051002010B5FFF7A0
:102E0000C1FE044C2060FFF7F9FE6060FFF77EFE14
:102E1000A06010BD3051002010B5002404600C608B
:102E200014601C6010BD704710B54FF4AE710446BD
:102E30001EF095F8204610BD10B50446D0F8580194
:102E400000F013F82046BDE810400BF079BE0000FA
:102E500010B50446FFF760FC014B2360204610BD0F
:102E6000D03D020800220260704770477047043866
:102E70007047704710B5102104461EF070F82046C8
:102E800010BDA0F10400F5E700228260024A026052
:102E900018324260C1607047243E0208704700004B
:102EA00038B5094B0360044643F6D805B5F5A96F5C
:102EB00005D0635960191B6898472C3DF6E72046FA
:102EC000FFF7DCFC204638BD4C3E020810B5044636
:102ED000FFF7E6FF204643F608111EF040F82046B3
:102EE00010BD10B5044600F081FF43F239030028FD
:102EF00018BF034683EA433383EA534383EA431309
:102F0000C4F8703510BD0000D0F87025044943F2B4
:102F1000390301FB0233C0F87035C3F30E4070472C
:102F20006D4EC64108B5FFF7EFFF0723B0FBF3F383
:102F3000C3EBC303C01A08BD10B5034600F110046B
:102F4000002283F82C2583F82D2583F82E2583F87D
:102F50002F250433A342F4D14939112930D8DFE8B1
:102F600001F050302F222F2F3A2F2F2F15442F2FC3
:102F70002F2F2F094BF6FF73C0F83C35012380F843
:102F80002D3580F8313580F8323517E0214BC0F807
:102F90003C35012380F8313580F8353580F82E3501
:102FA00080F832350CE04FF0FF13C0F83C3540F2AA
:102FB0000112012380F83235A0F8342580F8363527
:102FC00010BD4FF47F43C0F83C3540F20113A0F828
:102FD00030350123D7E74FF08013C0F83C3501238B
:102FE00080F8313580F83535CDE74FF47F03C0F8F0
:102FF0003C35012380F82D3580F8313580F83535A2
:10300000CEE74FF6FF73C0F83C354FF00133C0F800
:103010003035D5E700FFFF002DE9F743054605F5FC
:103020006457FFF78BFCDFF8C4902E4B2B6005F242
:10303000745604374FF6FF7800240123B480F480DF
:1030400034817481B481F48134827482F461348473
:10305000748486F8244086F82530C6F80090A6F8D7
:10306000268086F82880C6E90544304601A92C361A
:10307000ADF8048009F0D4F8BE42DED12846FFF74F
:1030800030FF4FF47072002105F5B6701FF0ABF8F9
:103090000423C5F840352823C5F84C35C5F850350C
:1030A00005F54053C5F84445C5F8484585F85445ED
:1030B000C5F85845C5F85C45A5F86045C5F86445B0
:1030C000C5F868452846C3F80449FFF72BFF064BAF
:1030D000195C85F862152846FFF72EFF03B0BDE89E
:1030E000F08300BF4C3E0208983E0208C04202082E
:1030F000F0B500F22B5500240A272E46002116F8C1
:10310000013F93B1D0F84035D0F844250B44092B4A
:10311000224414D8162A12DC002A06DB07FB0233ED
:1031200000EB8303D3F86C314BB901310429E6D1AC
:103130000134042C05F10405DFD1002000E001205A
:10314000F0BD000090F8543510B50446FBB1D0F83E
:10315000583501331D2BC0F8583518DDFFF7E2FE56
:103160000B4B195C84F862152046FFF7E5FE04233B
:10317000C4F840350023C4F8443584F85435C4F805
:103180005835FFF7B5FF10B1012384F85C3510BD49
:10319000983E0208F0B500F22B5500240A272E466F
:1031A000002116F8013F8BB1D0F8442522440132AA
:1031B000162A15DC002A09DBD0F8403507FB02335C
:1031C0000B4400EB8303D3F86C314BB90131042974
:1031D000E7D10134042C05F10405E0D1002000E022
:1031E0000120F0BDF0B5002100F22B550A272E4634
:1031F000002216F8013F83B1D0F84035D0F844459D
:103200001344013B0C4412D4172C06D807FB04339B
:1032100000EB8303D3F86C314BB90132042AE8D1B7
:103220000131042905F10405E1D1002000E001206D
:10323000F0BDF0B5002100F22B550A272E460022E2
:1032400016F8013F8BB1D0F84035D0F8444513440F
:103250000133092B0C4412DC172C06D807FB04336E
:1032600000EB8303D3F86C314BB90132042AE7D168
:103270000131042905F10405E0D1002000E001201E
:10328000F0BDF0B5002100F22B550A272E46002292
:1032900016F8013F8BB1D0F844450C44172C0CD8DC
:1032A000D0F840351344092B9FBF07FB043300EBD4
:1032B0008303D0F83C45C3F86C410132042AE7D1BE
:1032C0000131042905F10405E0D1F0BDD0F84835FD
:1032D0006FF0630293FBF2F30A339B000A2BB8BF33
:1032E0000A23C0F84C357047F8B50446172528273F
:1032F00000F5B67607FB05F303F5B472224400210E
:1033000052F8040FF0B101310A29F9D1234409E040
:1033100003F5A0710022013251F8040F88620A2AD5
:10332000F9D1283BA342F3D12822002130461EF0D8
:103330005AFFD4F848356433C4F848352046FFF7BF
:10334000C5FFD7E7013DD5D2F8BD30B585B06A4697
:1033500001F1100410460B461D7800F8015B5D7802
:10336000C5709D78C571043313F8015CC572A34222
:10337000F2D1D3780B7093784B7053788B7012F82E
:10338000043BCB700431A142F3D105B030BD000045
:103390002DE9F34700F540590746D9F804A9BAF5D5
:1033A000967F0E4615464DDA2C2202FB0AF202F2F7
:1033B000745402444BF6FF71D2F874258B42126E9E
:1033C000044401D1012303E02A498B4204D107239D
:1033D000ADF8043001A907E0B3F1FF1F35D1042394
:1033E000ADF804300DEB03014FF02C0808FB0A7810
:1033F00020469047C6EBC606D8F8743571001B6BA3
:1034000009B220469847C5EBC505D8F87435690060
:103410005B6B09B220469847D8F874350E219B6B38
:1034200020469847D8F874350E21DB6B2046984724
:10343000214607F1F80005F07BF9D9F8043901338A
:10344000C9F8043902B0BDE8F087B3F57F4F01D168
:103450000323BDE7B3F1801F01D10523B8E7B3F51E
:103460007F0F01D10623B3E74FF6FF718B42A9D13D
:103470000223ADE700FFFF002DE9F047044600F10D
:10348000F80804F540574046002505F05EF904F5BC
:10349000B479C7F80459CA4600265AF8043F4BB11C
:1034A000D7F80429B2F5967F04DA2A463146204639
:1034B000FFF76EFF01360A2EEFD10135182D09F105
:1034C0002809E8D104F22B590026CA4600251AF82B
:1034D000013F9BB1D7F80439B3F5967F0EDAD4F8E3
:1034E00044253244172A09D8D4F84015294409291B
:1034F00004D8D4F83C352046FFF74AFF0135042DA7
:10350000E5D10136042E09F10409DED140460CF064
:1035100047FC94F85C3513B10023C4F86835BDE866
:10352000F08710B50446FFF7AAF92046BDE8104021
:10353000FFF7A2BF2DE9F043044685B0FFF7D4FEA4
:1035400094F85D356BB12046FFF724FE002840F06B
:103550008480D4F844350133C4F84435002384F81A
:103560005D3594F86135002B40F08E8094F85E351F
:103570005BB12046FFF736FE20B9D4F84035013B59
:10358000C4F84035002384F85E3594F85F355BB1AC
:103590002046FFF74EFE20B9D4F840350133C4F879
:1035A0004035002384F85F3594F86035002B51D006
:1035B0006E46254604F110083246234693F82C1532
:1035C000117093F82D15517093F82E1591700433E6
:1035D00093F82B15D170434502F10402EED1204639
:1035E00004F22C51FFF7B1FE2046FFF781FD70B3C6
:1035F000D4F84075D4F844957B1EC4F84035204675
:10360000FFF776FD18B37B1CC4F840352046FFF762
:103610006FFDE0B109F1FF33C4F84075C4F84435DB
:103620002046FFF765FD90B1C4F84495337885F8DE
:103630002C35737885F82D35B37885F82E35F378E9
:1036400085F82F350435454506F10406EED10023F3
:1036500084F8603505B0BDE8F0832046FFF711FE21
:10366000012384F854350023C4F85835D4F848357C
:103670000A33C4F8483571E7D4F844350133C4F847
:1036800044352046FFF7F8FE2046FFF783FD00286B
:10369000F2D02046FFF7F5FD012384F85435D4F825
:1036A000483500221433C4F85825C4F8483584F846
:1036B00061255BE790F8543510B5044663B990F87E
:1036C0005C354BB9012380F85D35FFF733FF2046A9
:1036D000BDE81040FFF7D0BE10BD10B50123044671
:1036E00080F85D35FFF726FF2046BDE81040FFF764
:1036F000C3BE10B50123044680F85E35FFF71AFFFC
:103700002046BDE81040FFF7B7BE10B501230446C0
:1037100080F85F35FFF70EFF2046BDE81040FFF749
:10372000ABBE10B50123044680F86035FFF702FFF9
:103730002046BDE81040FFF79FBE10B501230446A8
:1037400080F86135FFF7F6FE2046BDE81040FFF730
:1037500093BE000070B590F85C650446002E3FD122
:10376000344D2B781BB10368DB6B98472E70324DBC
:103770002B782BB1236820461B6C984700232B70B5
:103780002E4D2B782BB1236820465B6C9847002385
:103790002B702B4D23682A78EAB105229B6BC4F865
:1037A0004C252046984700232B70D4F86435D4F874
:1037B0004C2501339342C4F8643506DB2368204668
:1037C000DB6A98470023C4F86435236820461B6BE6
:1037D000BDE870401847D4F85035C4F84C35E4E7DC
:1037E000D0F868350133B3F5967FC0F868351FDB34
:1037F0004FF47072002100F5B6701EF0F4FC042343
:10380000C4F84035012200234A21C4F84435C4F8E5
:10381000483584F85C3584F85425C4F8583584F864
:1038200062152046FFF788FBBDE87040FFF724BE15
:1038300070BD00BF1B4E00201A4E0020194E002004
:10384000184E0020F02070474FF4A07070472920D8
:10385000FEF75CBA2820FEF759BA08B5FEF72AFA37
:10386000CA20FEF753FAC320FEF734FA0820FEF709
:1038700031FA5020FEF72EFACF20FEF747FA00204B
:10388000FEF728FAC120FEF725FA3020FEF722FACB
:10389000ED20FEF73BFA6420FEF71CFA0320FEF74A
:1038A00019FA1220FEF716FA8120FEF713FAE82023
:1038B000FEF72CFA8520FEF70DFA0020FEF70AFA33
:1038C0007820FEF707FACB20FEF720FA3920FEF722
:1038D00001FA2C20FEF7FEF90020FEF7FBF9342058
:1038E000FEF7F8F90220FEF7F5F9F720FEF70EFAD9
:1038F0002020FEF7EFF9EA20FEF708FA0020FEF795
:10390000E9F90020FEF7E6F9B120FEF7FFF9002003
:10391000FEF7E0F91B20FEF7DDF9B620FEF7F6F919
:103920000A20FEF7D7F9A220FEF7D4F9C020FEF74F
:10393000EDF91020FEF7CEF9C120FEF7E7F91020CF
:10394000FEF7C8F9C520FEF7E1F94520FEF7C2F9F8
:103950001520FEF7BFF9C720FEF7D8F99020FEF733
:10396000B9F93620FEF7D2F9C820FEF7B3F9F220F4
:10397000FEF7CCF90020FEF7ADF9B020FEF7C6F94E
:10398000C220FEF7A7F9B620FEF7C0F90A20FEF71D
:10399000A1F9A720FEF79EF92720FEF79BF9042046
:1039A000FEF798F92A20FEF7B1F90020FEF792F908
:1039B0000020FEF78FF90020FEF78CF9EF20FEF7CC
:1039C00089F92B20FEF7A2F90020FEF783F90020E9
:1039D000FEF780F90120FEF77DF93F20FEF77AF926
:1039E000F620FEF793F90120FEF774F90020FEF7A8
:1039F00071F90620FEF76EF92C20FEF787F9C82032
:103A0000FEF7D2F92620FEF781F90120FEF762F9D0
:103A1000E020FEF77BF90F20FEF75CF92920FEF786
:103A200059F92420FEF756F90C20FEF753F90E2021
:103A3000FEF750F90920FEF74DF94E20FEF74AF93E
:103A40007820FEF747F93C20FEF744F90920FEF7FD
:103A500041F91320FEF73EF90520FEF73BF9172048
:103A6000FEF738F91120FEF735F90020FEF732F99C
:103A7000E120FEF74BF90020FEF72CF91620FEF7A7
:103A800029F91B20FEF726F90420FEF723F911205F
:103A9000FEF720F90720FEF71DF93120FEF71AF98D
:103AA0003320FEF717F94220FEF714F90520FEF740
:103AB00011F90C20FEF70EF90A20FEF70BF9282069
:103AC000FEF708F92F20FEF705F90F20FEF702F99F
:103AD0001120FEF71BF9C820FEF766F92920FEF732
:103AE00015F9BDE808402C20FEF710B908B5FEF71F
:103AF000E1F80321D320FEF725F980B208BD10B507
:103B0000C4B2022203212046FEF78AF80A20FEF7FB
:103B1000CFF8204600220321FEF782F8BDE81040CE
:103B20000220FEF7C5B838B50446E4B2FEF776F8D1
:103B300000212046FEF78CF8012105462046FEF7BD
:103B400087F840EA052080B238BD10B5C4B24021E4
:103B50002046FEF77DF8030607D54C212046FEF7E8
:103B600077F8003818BF012010BD01224B212046F4
:103B7000FEF756F8204600224B21FEF751F80020B0
:103B8000F2E773B50423C4B20E461546D7210DEBF8
:103B900003022046FEF776F8019B1BBA1A0DC3F309
:103BA0000B23328020462B8001224B21FEF738F870
:103BB00000224B212046FEF733F802B070BD000012
:103BC00010B50A4A1378984204460DD051788842BD
:103BD0000AD00BB141B90123D454FEF71FF8204697
:103BE000BDE81040FFF78BBF10BD00BF3C51002067
:103BF00010B5C4B209212046FEF72AF840F00102B0
:103C0000D2B220460921BDE81040FEF709B810B530
:103C1000C4B209212046FEF71BF8092100F0FE027C
:103C20002046BDE81040FDF7FBBF38B5C4B20D46D5
:103C300020460A21FEF70CF840EA0502D2B22046DF
:103C40000A21BDE83840FDF7EBBF10B50446FDF78B
:103C5000E6FF20461F21FFF7E8FF2046BDE81040A1
:103C6000FFF7C6BF38B5C4B20D4620460A21FDF79E
:103C7000EFFF20EA0502D2B220460A21BDE8384013
:103C8000FDF7CEBF10B50446FFF7C1FF20461F2148
:103C9000BDE81040FFF7E6BF10B5C0B20C460B21DF
:103CA000FDF7D6FF204010BD1F21FFF7F5BF0A46E4
:103CB000C0B20B21FDF7B4BF1F21FFF7F8BF38B525
:103CC000C4B20D4620461721FDF7C2FF20EA0502C7
:103CD000D2B220461721BDE83840FDF7A1BF70B52C
:103CE000C4B2064604212046FDF7B2FF042100F0CD
:103CF000FB0205462046FDF793FF3046F021FFF713
:103D0000DEFF05F0F80220460421FDF789FF492275
:103D100020212046FDF784FF0220FDF7C9FF204641
:103D200001222121FDF77CFF20469A224121FDF747
:103D300077FF204601224A21FDF772FF204601222B
:103D40004B21FDF76DFF204600224B21FDF768FF58
:103D5000204601225621FDF763FF2046012258210B
:103D6000FDF75EFF204601224021FDF759FF204666
:103D7000FF220B21FDF754FFBDE870400220FDF744
:103D800097BF0000054BD3F8882042F47002C3F8B7
:103D900088204FF000629A60704700BF00ED00E09D
:103DA00008B50B4B1A6842F400721A601A6842F4A4
:103DB00080621A601A6842F480721A60032000F070
:103DC0002FF80020FEF768FAFDF7FCFF002008BD81
:103DD000003C0240034A044B11681B780B441360FB
:103DE000704700BF4051002078000020014B186848
:103DF000704700BF4051002038B50446FFF7F6FF7A
:103E0000631C1CBF054B1B78054618BFE418FFF761
:103E1000EDFF431BA342FAD338BD00BF780000205A
:103E20000749CA6822F4E0620302120403F4E06363
:103E3000120C134343F0BF6343F40033CB6070476D
:103E400000ED00E0164B30B5DC68C4F30224C4F189
:103E50000703251D042B28BF0423062D4FF0FF3533
:103E60008CBF033C002405FA03F321EA0303A540B9
:103E700022EA0502A340002843EA0203ACBF00F196
:103E80006040084A4FEA0313B8BF00F00F00DBB2EE
:103E9000AABF00F56140135480F8003330BD00BF65
:103EA00000ED00E014ED00E0002807DB044A4109C2
:103EB000012300F01F00834042F82130704700BF0B
:103EC00000E100E010B5044650B1437903F0FF0271
:103ED00013B90271FDF796FF01236371002010BD35
:103EE0000120FCE710B5044620B390F8393003F008
:103EF000FF021BB980F83820FDF79CFF022384F8ED
:103F00003930236861681A6822F440320A431A6023
:103F10005A6BA16822F007020A435A631A6CE168DF
:103F20006FF30D020A431A6400200123E06384F852
:103F3000393010BD0120FCE770477047036870B549
:103F40005E681D68F207044614D5E90512D51A68A3
:103F500022F480721A60C26B42F00102C263012235
:103F60009A60042380F83930002380F838304369A0
:103F700003B19847B20616D5AB0414D523681A6866
:103F800022F400521A6020229A60E36B43F002038D
:103F9000E363042384F83930002384F838306369FC
:103FA0000BB120469847300716D5290514D523684C
:103FB0001A6822F400621A6008229A60E36B43F0E8
:103FC0000403E363042384F83930002384F8383091
:103FD00063690BB12046984772070BD56B0509D56D
:103FE00023681A6822F480621A6004229A602046CC
:103FF000FFF7A2FFB00714D5A90512D523681A68E8
:1040000022F400721A6002229A60E36BE3630123D8
:1040100084F83930002384F8383023690BB1204606
:104020009847F20613D5EB0411D523681A6822F4D9
:1040300080521A6010229A60E36BE363012384F8D4
:104040003930002384F838302046FFF776FF70BD02
:10405000F0B590F83820012A03464FF002002BD02B
:10406000012283F8382083F8390003EB0112D2E9EA
:104070000740556A174F44EA0040093C012C9CBF99
:1040800005F07F4210434FEA01161A6888BF40EAE4
:10409000056091B9516A394001435162012C996917
:1040A000916103D8596A21F07F4191620122002079
:1040B00083F8392083F83800F0BDD16939400143D5
:1040C000D1619919012C896911619CBF25F07F4547
:1040D0001562EBE7F0FFFC002DE9F74FDFF8BC912C
:1040E0006C4A00230D6801249C4004EA0506AC4399
:1040F00040F0B7804D68032705F003044FEA4308FA
:1041000007FA08FC671E012F6FEA0C0C34D8876889
:1041100007EA0C0ECF6807FA08F747EA0E07876030
:10412000476827EA060EC5F300179F4047EA0E07C7
:104130004760C76807EA0C0E8F6807FA08F747EA76
:104140000E07022CC76019D14FEAD30A00EB8A0A86
:1041500003F0070BDAF820704FEA8B0B4FF00F0ECD
:104160000EFA0BFE27EA0E0E0F6907FA0BF747EA65
:104170000E07CAF8207001E0032CDAD1076804FAB0
:1041800008F407EA0C073C4315F4403F046068D08C
:1041900000240194D9F8444044F48044C9F84440D0
:1041A000D9F8444023F0030707F1804704F4804422
:1041B00007F59C37019403F0030C019CD7F808E045
:1041C0004FEA8C0C0F2404FA0CF42EEA040E324C45
:1041D000A0424DD004F58064A0424BD004F5806429
:1041E000A04249D004F58064A04247D004F5806421
:1041F000A04245D004F58064A04243D004F5806419
:10420000A04241D004F58064A0423FD004F5806410
:10421000A0423DD004F58064A04214BF0A240924C2
:1042200004FA0CF444EA0E04BC609468F74315F4F5
:10423000801F0CBF3C4034439460D46815F4001FC9
:104240000CBF3C403443D460546815F4003F0CBFAD
:104250003C40344354601468ED0354BF3C40344345
:1042600014600133102B7FF43DAF03B0BDE8F08F35
:104270000024D5E70124D3E70224D1E70324CFE7C4
:104280000424CDE70524CBE70624C9E70724C7E7C4
:104290000824C5E7003C014000000240003802400D
:1042A0000369194214BF0120002070470AB18161DF
:1042B00070470904FBE7436901EA030221EA0301AD
:1042C00041EA024181617047044A5169014208B5DF
:1042D00002D05061FDF77AFC08BD00BF003C0140F0
:1042E00001684B6913F480634FF0000210D06FF443
:1042F00080634B612023026380F83D3080F83E20CC
:10430000036C80F83C2043F00403036401207047F1
:10431000184670472DE9F84606460F4691461D4659
:104320004FEA114A3368BAF1010F0CBF5C699C690E
:1043300027EA0404A4B2B4FA84F46409A14501D0C4
:10434000002025E06A1CEED0FFF750FD089BC01A44
:10435000A84201D8002DE5D13368BAF1010F0CBF96
:104360005B699B6927EA03039BB2B3FA83F35B099A
:104370009945D7D100232022336386F83D2086F863
:104380003E30326C86F83C3042F02002326401202C
:10439000BDE8F8862DE9F04104460F4616469846DA
:1043A0002568686927EA000080B2C0B16B695A05C8
:1043B00017D52B6843F400732B606FF480636B6137
:1043C00020220023236384F83D2084F83E30236CB0
:1043D00043F004032364002384F83C300120BDE84B
:1043E000F081731CDDD0FFF701FDA0EB0800B042A7
:1043F00001D8002ED4D123685A6927EA020292B26A
:10440000002ACDD000232022236384F83D2084F8A5
:104410003E30236C1343DDE770B504460D46164667
:1044200023685B691B0601D500201EE02046FFF7CC
:1044300057FFC8B96A1CF3D0FFF7D8FC801BA8420D
:1044400001D8002DECD123685B6913F08003E7D11C
:104450002022236384F83D2084F83E30226C84F8C7
:104460003C3042F020022264012070BD2DE9F0436F
:104470001546026885B0DDE90C789946136843F467
:10448000807313600E463B46CDF8008000224FF04B
:1044900001110446FFF73EFF236838B11B68DB05B6
:1044A00002D54FF400732364032620E006F0FE06D5
:1044B0001E611A4943463A462046FFF76BFFA8B9EA
:1044C000236803905A6903929B69039342463946D5
:1044D0002046039BFFF7A0FF064660B1236C042B28
:1044E00001BF2268136843F400731360012630464D
:1044F00005B0BDE8F083B9F1010F236802D1EDB238
:104500001D61F4E72A0A1A61394642462046FFF740
:1045100083FF0028E2D12368F1E700BF0200010019
:104520002DE9FF479A46036815461A6842F48062EF
:104530001A601A68DDE90C7842F480721A600E463F
:104540003B46CDF8008000224FF001110446FFF7F2
:10455000E1FE236838B11B68DB0544BF4FF40073EC
:104560002364032021E05FFA86F906F0FE061E614F
:104570002B4943463A462046FFF70CFFA0B9236873
:1045800003905A6903929B69039342463946204639
:10459000039BFFF741FF58B1236C042B01BF226836
:1045A000136843F400731360012004B0BDE8F08782
:1045B000BAF1010F23681AD1EDB242461D613946A6
:1045C0002046FFF729FF02460028E5D121680B6845
:1045D00043F480730B602046CDF800803B464FF0DB
:1045E0000111FFF797FE226860B11368B4E72A0A49
:1045F0001A61394642462046FFF70EFF0028CBD10C
:104600002368D9E749F001031361054943463A4657
:104610002046FFF7BFFE003818BF0120C5E700BFE6
:104620000200010070B504460D46164623685B691A
:104630005B0701D500201EE02046FFF751FEC8B9F8
:104640006A1CF3D0FFF7D2FB801BA84201D8002DD3
:10465000ECD123685B6913F00403E7D120222363C4
:1046600084F83D2084F83E30226C84F83C3042F0DF
:1046700020022264012070BD70B504460D46164626
:1046800021684B6913F0400301D0002011E04A6912
:10469000D2060FD56FF010024A612022236384F8FE
:1046A0003D2084F83E30236C2364002384F83C30A2
:1046B000012070BDFFF79AFB801BA84201D8002D96
:1046C000DED123685B6913F04003D9D12022236334
:1046D00084F83D2084F83E30236C1343E4E7000067
:1046E00070B5044608B9012070BD90F83D3003F064
:1046F000FF021BB980F83C20FDF7BEFB242384F8A1
:104700003D3023681A6822F001021A601A6842F4E8
:1047100000421A601A6822F400421A6000F0A8FEF3
:104720003F4B65689D4294BF3E4B3F4B98428CBFC8
:1047300000230123002BD6D12268394E51683B4B10
:10474000B0FBF3F321F03F011943B542516088BF3C
:104750004FF49676116A88BF734321F03F0184BFFE
:104760004FF47A76B3FBF6F301330B431362D1694E
:10477000431E2B4821F44F41854221F0FF0132D8DE
:104780006D0040F6FC70B3FBF5F30133034242D0F9
:10479000C3F30B031943D161D4E907301168034314
:1047A00021F0C0010B4313609168D4E9030321F4A5
:1047B0000341034321F0FF010B439360D4E905302B
:1047C000D168034321F0FF010B43D360136843F02A
:1047D0000103136000202023206484F83D3020630F
:1047E00084F83E0080E7A06850B905EB4505B3FBAF
:1047F000F5F30133C3F30B037BB143F40043C9E783
:1048000019206843B3FBF0F30133C3F30B0323B167
:1048100043F44043BEE70423BCE70123BAE700BFEB
:10482000A08601007F841E00FF083D0040420F006B
:104830002DE9F743044699460C9E0F469046FFF734
:10484000D5FA94F83D30202B054603D0022003B062
:10485000BDE8F08300903C49192301222046FFF770
:1048600059FD0028F2D194F83C30012BEED020689D
:10487000012384F83C300368D9075EBF036843F026
:1048800001030360036823F400630360212384F8B9
:104890003D30402384F83E30002323640A9B63624A
:1048A000BDF82C306385638D2385284BE362424637
:1048B000CDE900654B4639462046FFF7D7FD002875
:1048C0002AD00120C3E7FFF7A7FD40B1236C042BDA
:1048D00001BF2268136843F400731360F1E7636A51
:1048E00027681A4612F8011B39616262628D218DB8
:1048F000013A92B262857A69481E80B252072085D9
:104900000AD548B15A783A6102336362638D013B3C
:1049100002399BB221856385238D2A463146204684
:10492000002BD0D1FFF77EFE0028CFD1226813687C
:1049300043F400731360202384F83D3084F83C0076
:1049400084F83E0083E700BF020010000000FFFF74
:104950002DE9F043044687B09946109F0D469046D6
:10496000FFF744FA94F83D30202B064604D0022588
:10497000284607B0BDE8F08300907A491923012248
:104980002046FFF7C7FC0028F1D194F83C30012BFA
:10499000EDD02068012384F83C300368DB075EBF5C
:1049A000036843F001030360036823F400630360BA
:1049B000222384F83D30402384F83E3000232364D2
:1049C0000E9B6362BDF83C306385638D2385664B27
:1049D000E3622946CDE900764B4642462046FFF782
:1049E0009FFD054608B10125C2E7228D2368B2B9B3
:1049F00002905A6902929A690292029A1A6842F4E3
:104A000000721A60DFF86481238D002B2CD12022E4
:104A100084F83D2084F83C3084F83E30A8E7012A31
:104A20000AD11A6822F480621A6003905A690392CC
:104A30009A690392039AE1E7022A0ED11A6822F4D6
:104A400080621A601A6842F400621A6004905A691F
:104A500004929B690493049BD4E705905A690592DC
:104A60009B690593059BCDE7032B56D8012B15D1E8
:104A7000324639462046FFF7FFFD0028B3D12368B0
:104A80001A69636A1A70636A01336362238D013B9A
:104A90002385638D013B9BB26385B5E7022B0096AE
:104AA0003B464FF000024146204619D1FFF732FC49
:104AB000002898D123681A6842F400721A601A69B3
:104AC000636A1A70626A531C6362238D013B2385FB
:104AD000638D013B9BB2638523681B695370D2E7EA
:104AE000FFF718FC024600287FF47DAF23681968A1
:104AF00021F4806119601969636A1970636A01336E
:104B00006362238D013B2385638D013B9BB26385EB
:104B1000414600963B462046C8E732463946204685
:104B2000FFF7AAFD00287FF45EAF23681A69636A65
:104B30001A70628D616A013A92B24B1C62852268DA
:104B40006362238D5069013B9BB2400723857FF54B
:104B50005BAF032B02BF136823F4806313601369F8
:104B60004B7090E7020010000000FFFF04000100FE
:104B700010B590F83D30202BDCB216D1242380F8FC
:104B80003D3003681A6822F001021A605A6A22F066
:104B900010025A625A6A114359621A6842F00102BD
:104BA0001A6080F83D40002010BD0220FCE730B5BF
:104BB00090F83D30202BDCB216D10268242380F817
:104BC0003D30136823F001031360556A4FF6F0730C
:104BD0002B400B439BB25362136843F001031360F5
:104BE00080F83D40002030BD0220FCE70068D1F88D
:104BF00000C0D201843283182DE9F043C6685D6895
:104C00004C68D1F8189005F470455D60C5680CF1EA
:104C10000107C5F30B45C6F30B4626443D4445EA60
:104C200006455D60C668CD68C6F30A062E449D68D9
:104C300005F470459D60C7688D68C7F30A070135A4
:104C40003D4445EA06459D601D690E6925F007054E
:104C50001D614FF0000E1E6191F832709D6991F850
:104C60003180C3F818E091F8305045EA096545EA0B
:104C7000082545EA07459D615D6925F0FF055D61F1
:104C80004D695D61DD6925F4E06525F00705DD61AD
:104C9000D1E907573D43DD619D6A4D6AC3F828E0BD
:104CA000072E9D629CBF0E4DAE5DDD6A05F0E025CE
:104CB000DD6288BF01268D6AC96AA4EB0C047443C7
:104CC0007543033444EA0544DC621C6B6FF30A0449
:104CD0001C631963835843F001038350BDE8F083DC
:104CE000B73E020838B50446002863D090F8A130DA
:104CF00003F0FF021BB980F8A020FDF719F9022389
:104D000084F8A13023689A6922F070429A61D4E94C
:104D100001200243E06899690243206902430A4383
:104D20009A619A68244960690A409A609A6842EADE
:104D30000042A06902439A60DA68E0690A40DA60DA
:104D4000DA6842EA0042206A0243DA601A69606A5D
:104D50000A401A611A6942EA0042A06A02431A61D3
:104D60005A690A405A615A69E16A42EA0142216B72
:104D70000A435A61DA6A94F8350094F8361002F062
:104D80007F42DA62DD6A94F834202A4342EA002244
:104D900042EA0142DA625A6B42F006025A639A69A9
:104DA00042F001029A6100200123C4F8A40084F8B3
:104DB000A13038BD0120FCE700F800F070477047D3
:104DC000036870B59E6B5D6B7207044614D5690766
:104DD00012D55A6B22F004025A630422DA63D0F827
:104DE000A43043F00103C0F8A430002380F8A120D0
:104DF00080F8A030FFF7E2FFB20716D5AB0714D555
:104E000023685A6B22F002025A630222DA63D4F852
:104E1000A4301343C4F8A430042384F8A130002341
:104E200084F8A0302046FFF7C9FFF00710D5E90746
:104E30000ED523685A6B22F001025A630122DA630D
:104E4000002384F8A12084F8A0302046FCF7E8FB7A
:104E5000320711D52B070FD523685A6B22F00802B1
:104E60005A630822DA63012384F8A130002384F80E
:104E7000A0302046FFF7A3FF70BD2DE9F04190F868
:104E8000A030012B06460F4694464FF002001FD07B
:104E90004FF0010886F8A08086F8A10034240D4662
:104EA00004FB02640FCD38340FC40FCD0FC40FCDF7
:104EB0000FC42B682360304662463946FFF796FEE2
:104EC00033680020C3F8248086F8A18086F8A0000B
:104ED000BDE8F08190F8A020012A03464FF00200BF
:104EE00012D01A6883F8A100506B20F001005063C3
:104EF00006480164516B41F0010151630020012219
:104F000083F8A12083F8A000704700BF006801402B
:104F100037B500230193184B184D1A6C42F080529C
:104F20001A641B6C03F080530193019B144B012204
:104F30001A64FEF75BFF04466B68DA030BD5104B6F
:104F40000E4D01225A64FEF751FF04466B689B0325
:104F50000AD5002006E0FEF749FF001BB0F57A7F76
:104F6000EAD9032003B030BDFEF740FF001BB0F5C7
:104F70007A7FEBD9F5E700BF0038024000700040AF
:104F800000000E422DE9F341044640B30368DE07FA
:104F900010D423689D075BD42368190700F19D8016
:104FA00023685A0700F1BD80A369002B40F02481DB
:104FB00000202CE08D4B9A6802F00C02042A07D0E6
:104FC0009A6802F00C02082A0BD15B68590208D5D6
:104FD000864B1B689A03DCD56368002BD9D101206E
:104FE00015E06368814DB3F5803F13D12B6843F41E
:104FF00080332B60FEF7FAFE7C4E054633689B0338
:10500000C7D4FEF7F3FE401B6428F7D9032002B093
:10501000BDE8F081B3F5A02F04D12B6843F48023C1
:105020002B60E3E72A6822F480322A602A6822F49F
:1050300080222A60002BDDD1FEF7D8FE06462B68C1
:105040009F03A6D5FEF7D2FE801B6428F7D9DDE7C3
:10505000664B9A6812F00C0F07D09A6802F00C02A7
:10506000082A11D15B685D020ED4604A1368990763
:1050700002D5E368012BB2D11368216923F0F8034C
:1050800043EAC103136087E7E268594BB2B10122DA
:105090001A60FEF7ABFE554D06462B689B0707D5F9
:1050A0002B68226923F0F80343EAC2032B6073E7FD
:1050B000FEF79CFE801B0228EFD9A7E71A60FEF7D7
:1050C00095FE4A4E054633689F077FF565AFFEF7AC
:1050D0008DFE401B0228F6D998E76269444B82B1E5
:1050E0000122C3F8802EFEF781FE404E0546736F05
:1050F0009B073FF555AFFEF779FE401B0228F6D916
:1051000084E7C3F8802EFEF771FE384E0546736FB4
:105110009F077FF545AFFEF769FE401B0228F6D9D1
:1051200074E7324B1A6C12F0805228D101921A6C3B
:1051300042F080521A641B6C03F080530193019B70
:1051400001272C4D2B68D8051BD5A368274D012BB3
:1051500027D12B6F43F001032B67FEF747FE234E49
:10516000054641F28838336F9A0739D5002F3FF44E
:105170001BAF1E4A136C23F08053136414E70027FF
:10518000DFE72B6843F480732B60FEF72FFE0646A3
:105190002B68D905D9D4FEF729FE801B0228F7D940
:1051A00034E7052B04D12B6F43F004032B67D0E7C2
:1051B0002A6F22F001022A672A6F22F004022A676E
:1051C000002BCAD1FEF712FE41F2883806462B6F3B
:1051D0009B07CBD5FEF70AFE801B4045F7D915E7A4
:1051E000FEF704FE401B4045BDD90FE700380240E2
:1051F0000000474200700040374DAA6802F00C02E0
:10520000082A3ED0022B354B4FF000021A662BD1F4
:10521000FEF7ECFD06462B6899011FD4D4E907324E
:105220001343626A43EA8213E26A43EA0263A26AB0
:105230005208013A43EA02436B60284B264D012293
:105240001A66FEF7D3FD04462B689A013FF5B0AE0F
:10525000FEF7CCFD001B0228F6D9D7E6FEF7C6FD07
:10526000801B0228D7D9D1E6FEF7C0FD04462B6883
:105270009B017FF59DAEFEF7B9FD001B0228F6D914
:10528000C4E6012B3FF4ABAE6B68E26903F4800126
:1052900091427FF4A4AE216A03F03F028A427FF478
:1052A0009EAE616A47F6C0721A40B2EB811F7FF46E
:1052B00096AEA26A520803F44031013AB1EB024FB4
:1052C0007FF48DAEE26A03F07063B3EB026F14BF3C
:1052D000012000209BE600BF00380240000047424A
:1052E000134908B58B6803F00C03042B1CD0082B62
:1052F0001CD14A684B68496813F4800314BF0D48F9
:105300000D48C1F3881118BF002302F03F02A1FB32
:105310000001FBF70DF8064B5B68C3F30143013353
:105320005B00B0FBF3F008BD0248FCE70248FAE777
:105330000038024000127A000024F4002DE9F04108
:105340000D46044610B90120BDE8F081434B1A68B0
:1053500002F00F028A4228D321688F072DD4C80794
:1053600040D43E4B1A6802F00F02AA4265D8226868
:1053700051076BD4130707D5394A2169936823F481
:10538000604343EAC1039360FFF7AAFF344B354AF9
:105390009B68C3F30313D35CD840334B1860334B83
:1053A0001868FCF779FF0020CEE7CAB21A701B68B4
:1053B00003F00F038B42C6D1CEE7294B11F0040F47
:1053C0001EBF9A6842F4E0529A600E0742BF9A6884
:1053D00042F460429A609A68A06822F0F0020243A8
:1053E0009A60BCE762681E4B012A1CD11B6813F44B
:1053F000003FA8D01A4EB36823F003031343B360F1
:10540000FEF7F4FC41F288380746B368626803F09F
:105410000C03B3EB820FA4D0FEF7E8FCC01B4045A1
:10542000F3D9032090E7911E01291B6802D813F0DD
:10543000007FDEE713F0020FDBE7EAB21A701B68A9
:1054400003F00F03AB427FF47EAF90E70449E068BE
:105450008B6823F4E05303438B608BE7003C0240EE
:1054600000380240A73E0208740000207C000020A3
:10547000044B054A9B68C3F38223D35C034A10683C
:10548000D8407047003802409F3E02087400002058
:10549000044B054A9B68C3F34233D35C034A10684C
:1054A000D8407047003802409F3E02087400002038
:1054B0000F2303600B4B9A6802F0030242609A6864
:1054C00002F0F00282609A6802F4E052C2609B68C7
:1054D000DB0803F4E0530361034B1B6803F00F0385
:1054E0000B60704700380240003C0240036813F034
:1054F000430FF7B5044640F08880236813F00C0F83
:1055000045D08C4B8C4D00221A67FEF76FFC064687
:105510002B68990000F1CB8021684A0715D5D4E9A2
:105520000403D5F888201B0602F0E04243EA80130A
:105530001343C5F88830D5F88C30226A23F4F85329
:10554000013A43EA0223C5F88C300B0714D57A4A96
:10555000A369D2F8881020691B0701F0706143EA43
:1055600080130B43C2F88830D2F88C30616A23F480
:1055700040330B43C2F88C306E4B6F4E01221A67DA
:10558000FEF734FC054633689F0040F1978023689E
:10559000980634D500230193674B684D1A6C42F08E
:1055A00080521A641B6C03F080530193019B2B689B
:1055B00043F480732B60FEF719FC06462B68D80570
:1055C00040F183805C4DA26A2B6F13F4407340F06E
:1055D0008380A36A03F44072B2F5407F564A40F0DC
:1055E0009E80916823F0704021F4F81120F44070FF
:1055F00001439160116FC3F30B030B4313672368DF
:10560000DB0600F1908000204FE04A4B4A4E00221A
:105610009A66FEF7EBFB054633681F013FD421680D
:10562000C80741BFD4E901231B0743EA8213C6F828
:1056300084308A0715D5404AE368D2F8840065684B
:105640001B0600F0E04043EA85130343C2F88430B0
:10565000D2F88C00E36920F01F00013B0343C2F83D
:105660008C304B060AD5E36862681B0643EA821356
:10567000A26843EA0273304AC2F884302D4B2E4EA2
:1056800001229A66FEF7B2FB054633681F013FF51B
:1056900034AFFEF7ABFB401B0228F6D904E0FEF75F
:1056A000A5FB401B0228B7D9032003B0F0BDFEF7CD
:1056B0009DFB801B02287FF62BAFF5E7FEF796FBDC
:1056C000401B02287FF65FAFEEE7FEF78FFB801BE3
:1056D00002287FF673AFE7E702F4407293423FF48B
:1056E00078AF2B6F134A0121C2F8401E23F4407398
:1056F0000021C2F8401E2B672B6FD9077FF569AFD9
:10570000FEF774FB41F2883706462B6F9A073FF588
:1057100060AFFEF76BFB801BB842F6D9C4E7916817
:1057200021F4F81165E7064B94F82C20C3F8E0212A
:1057300069E700BF000047420038024000700040A7
:105740000010474238B50D460446C8B190F82C30D9
:1057500003F0FF021BB980F82D20FCF731FD022376
:1057600084F82C30211D206800F049FE6268206812
:10577000294600F07AFE012384F82C30002038BD41
:105780000120FCE770B590F82C30022B05460E4640
:10579000D8B212D000F0FB04012C0FD1022385F8FF
:1057A0002C30286800F097FE3368022B06BF0523D3
:1057B00085F82C3085F82C40002070BD0120FCE7D6
:1057C00038B590F82C30022B0446D8B20DD094F89E
:1057D0002C30012BDDB209D10223206884F82C3053
:1057E00000F09DFE84F82C50002038BD0120FCE71D
:1057F0002DE9F3471F46894690460446FEF7F6FA20
:105800000A9D3D442D1AFEF7F1FA264B1E68C6F399
:10581000CB366E43824601962268936839EA0303C9
:105820000CBF01230023434501D100202EE07B1C47
:10583000F3D0FEF7DBFAA0EB0A00A84229D32368D5
:105840005A6822F0E0025A606268B2F5827F0AD19B
:10585000A268B2F5004F02D0B2F5806F03D11A688A
:1058600022F040021A60A26AB2F5005F07D11A68FE
:1058700022F400521A601A6842F400521A6001239E
:1058800084F85130002384F85030032002B0BDE882
:10589000F087019A019B002A03F1FF33019308BFAF
:1058A0001546B9E774000020F0B585B00B460092AC
:1058B0000E461746022101220446FFF799FF0546CE
:1058C00028B1636D43F020036365032515E0124B97
:1058D0001868124BB0FBF3F04FF47A7358436368C7
:1058E0000390B3F5827F0BD1009733462A4680217F
:1058F0002046FFF77DFF0028E3D1284605B0F0BD24
:10590000039B002BF9D0039B013B039323689B6807
:105910001B06F5D4F1E700BF7400002000366E01CD
:1059200037B50B464168B1F5827F044608D0009236
:1059300001210022FFF75CFFD0B9002003B030BD89
:105940008168B1F5004F02D0B1F5806F07D12568AD
:105950002868B1F5806F20F04000286004D00092E4
:10596000802100222046E5E7009201210022F9E78C
:10597000636D43F0200363650320DFE710B5044641
:10598000002855D0436A002B4ED14268B2F5827F81
:1059900000D0C3610023A36294F8513003F0FF02EA
:1059A00023B984F850202046FCF79EFB2168A068AC
:1059B000A269022384F851300B6823F040030B6086
:1059C000636800F4044003F482730343E06800F466
:1059D00000600343206900F002000343606900F0A7
:1059E0000100034302F400700343E06900F0380053
:1059F0000343206A00F080000343A06A00F40050D3
:105A000003430B60636A120C03F0100302F00402FC
:105A10001A434A60CB6923F40063CB610020012361
:105A2000606584F8513010BD0023C0E90433B1E74C
:105A30000120F8E72DE9F74304461F460D4690463E
:105A4000FEF7D4F994F85130012B8146D8B240F0DA
:105A50009F80002D74D0B8F1000F71D094F85030B1
:105A6000012B00F09580032384F8513000236365F7
:105A7000C4E91033A4F83680A363A387E387A3683F
:105A8000266884F85000B3F5004F2563A4F83480ED
:105A900007D1336823F040033360336843F4804315
:105AA00033603368E2685B065EBF336843F04003EF
:105AB0003360B2F5006F636845D113B1B8F1010FDF
:105AC00007D135F8023BF3602563E38E013B9BB2BF
:105AD000E386E38E9BB2D3B94A4639462046FFF7A8
