:020000040800F2
:10000000000003205D060008592300085B23000858
:100010005D2300085F230008612300080000000042
:10002000000000000000000000000000317A00081D
:100030006323000800000000C17A00084B73000829
:10004000AD060008AD060008AD060008AD060008C4
:10005000AD060008AD060008AD060008AD060008B4
:10006000AD060008AD060008AD060008AD060008A4
:10007000AD060008AD060008AD060008AD06000894
:10008000AD060008AD060008AD060008AD06000884
:10009000AD060008AD060008AD060008652300089F
:1000A000AD060008AD060008AD060008AD06000864
:1000B000AD060008AD060008AD060008AD06000854
:1000C000AD060008AD060008AD060008AD06000844
:1000D000AD060008AD060008AD060008AD06000834
:1000E00077230008AD060008AD060008AD0600083D
:1000F000AD060008AD060008AD060008AD06000814
:10010000AD060008AD060008AD060008AD06000803
:10011000AD060008AD0600088D230008AD060008F6
:10012000AD060008AD060008AD060008AD060008E3
:10013000AD060008AD060008AD060008AD060008D3
:10014000AD060008AD060008AD060008AD060008C3
:10015000AD060008AD060008AD060008AD060008B3
:10016000AD060008AD060008AD060008AD060008A3
:10017000AD060008AD060008AD060008000000004E
:10018000AD060008AD060008AD060008AD06000883
:10019000AD060008AD060008AD060008AD06000873
:0C01A00099230008AD060008A523000804
:1001B00010B5054C237833B9044B13B10448AFF3A1
:1001C00000800123237010BD800300200000000088
:1001D0007C45020808B5034B1BB103490348AFF344
:1001E000008008BD00000000840300207C45020858
:1001F00001F0FF01102A2BDB10F0070F08D010F8D8
:10020000013B013A8B422DD010F0070F42B3F6D1DB
:10021000F0B441EA012141EA014122F007047FF0F4
:1002200000070023F0E80256083C85EA010586EA4B
:10023000010685FA47F5A3FA87F586FA47F6A5FA87
:1002400087F68EB9EED1F0BC01F0FF0102F0070293
:1002500032B110F8013B013A83EA010313B1F8D13E
:100260000020704701387047002D06BF354603381F
:10027000073815F0010F07D1013015F4807F02BF58
:10028000013015F4C03F0130F0BC0138704700BFA9
:100290007BB972B90029BEBF00204FF0004106E0D3
:1002A00008BF00281CBF6FF000414FF0FF3000F086
:1002B000D3B9ADF1080C6DE904CE002909DB002BA0
:1002C0001ADB00F04DF8DDF804E0DDE9022304B0AC
:1002D0007047404261EB4101002B1BDB00F040F80E
:1002E000DDF804E0DDE9022304B0404261EB4101A6
:1002F000524263EB43037047524263EB430300F007
:100300002FF8DDF804E0DDE9022304B0404261EBA0
:1003100041017047524263EB430300F021F8DDF8DE
:1003200004E0DDE9022304B0524263EB430370476B
:1003300053B94AB9002908BF00281CBF4FF0FF314C
:100340004FF0FF3000F088B9ADF1080C6DE904CE34
:1003500000F006F8DDF804E0DDE9022304B07047A0
:100360002DE9F047089D8E4604468846002B4AD169
:100370008A42174662D9B2FA82F64EB1C6F120031C
:1003800001FA06F820FA03F3B74043EA0808B4403C
:100390004FEA174E1FFA87FCB8FBFEF1230C0EFB49
:1003A000118843EA084301FB0CF29A4209D9FB1871
:1003B00001F1FF3080F0EA809A4240F2E780023992
:1003C0003B449A1AA3B2B2FBFEF00EFB102243EAA2
:1003D000024300FB0CFC9C4509D9FB1800F1FF32DD
:1003E00080F0D6809C4540F2D3803B44023840EAFE
:1003F0000140A3EB0C0300211DB1F3400022C5E92D
:100400000032BDE8F0878B4205D90DB1C5E9000186
:1004100000210846F5E7B3FA83F1002946D1734578
:1004200002D3824200F20581841A6EEB030201209E
:100430009046002DE5D0C5E90048E2E7002A00F02B
:100440009080B2FA82F6002E40F0A4808A1A030C43
:100450004FEA174E80B2BCB20121B2FBFEFC0EFB8C
:100460001C2243EA024304FB0CF29A4207D9FB1810
:100470000CF1FF3802D29A4200F2E080C4469B1A87
:10048000B3FBFEF20EFB123340EA034302FB04F41B
:100490009C4207D9FB1802F1FF3002D29C4200F2C5
:1004A000CA8002461B1B42EA0C40A5E7C1F12006A8
:1004B0008B4022FA06F71F430EFA01F420FA06F3E6
:1004C0002EFA06FE4FEA1749234300FA01F81FFAF5
:1004D00087FCBEFBF9F01C0C09FB10EE44EA0E444D
:1004E00000FB0CFEA64502FA01F209D93C1900F105
:1004F000FF3A80F09C80A64540F2998002383C4447
:10050000A4EB0E041FFA83FEB4FBF9F309FB1344BA
:100510004EEA044403FB0CFCA44508D93C1903F142
:10052000FF3E80F08280A4457FD9023B3C4443EAF1
:100530000040A4EB0C04A0FB02EC64457346E146CA
:1005400062D35FD05DB1B8EB030264EB090404FA37
:1005500006F622FA01F31E43CC40C5E900640021EF
:100560004FE7B1FBF2FC010C41EA0E4180B240EAD8
:1005700001423B4638463C46B846BE462026B1FBC3
:10058000F7F1A2EB080241EA0C4166E7014618E7E1
:1005900010462CE7C6F120022EFA02F3B740B14014
:1005A00020FA02F24FEA174E0A43B3FBFEF8BCB240
:1005B0000EFB1833110C41EA034108FB04F9B0406B
:1005C00089454FEA104380B23ED9791808F1FF3CC3
:1005D00001D289451FD8A1EB0901B1FBFEF909FB46
:1005E00004F80EFB191192B242EA0142424529D2A7
:1005F000BA1809F1FF31C4D24245C2D2A9F10201B1
:100600003A44BEE7F0459DD2BEEB02036CEB070C0B
:100610000138E14696E7A7EB09094944A8F1020C25
:10062000B1FBFEF909FB04F8DBE773467FE75046B0
:1006300066E70846FDE63B44023A33E7ACF1020CBC
:100640003B441CE749469CE7A1EB0901C446B1FBCA
:10065000FEF909FB04F8C4E7704700BFDFF834D0A7
:10066000002103E00C4B5B58435004310B480C4B0A
:1006700042189A42F6D30B4A02E0002342F8043BA8
:10068000094B9A42F9D304F0AFFA23F009FA01F0CA
:1006900063F8704700000320E81A070800000020F4
:1006A000640100208003002000700120FEE77047F5
:1006B00008B500F0BFFDBDE8084000F041BD00F006
:1006C000BBBD704710B50421044621F0FCFF204655
:1006D00010BD000038B50C4B0C4C18800C4B822020
:1006E00019806368984740F6110398420AD1094D72
:1006F00023682C60822098472B688220DB6898470B
:10070000002038BD0120FCE7A60300204C0000209B
:10071000A4030020A80300204FF4A071F020FFF7ED
:10072000D9BF0000F7B5394D2B6804461B698220FC
:100730009847208000284ED02B680DF106025B6997
:1007400001A982209847324B1B78002B4BD0BDF873
:10075000062040F674639A423FD9ADF80630BDF8E2
:1007600006209B1A9BB20A2B42D90B22B3FBF2F351
:10077000284A1288934201D9013A93B2BDF8042065
:10078000254840F6B8318A4234D8C2F571620E323B
:10079000016892B20F25B2FBF5F2204D2D88AA42D6
:1007A00084BF05F1FF35AAB28A4215468EB22AD916
:1007B000921B91B21A4E3768BB42BAB28CBF9A1ADA
:1007C000D21A92B211440529C4BF05603360036890
:1007D00063803368A38003B0F0BDB32A9CBFB4220A
:1007E000ADF80620BBE7BDF80630A3F5B473B9E752
:1007F0000023C3E7C2F56D62083292B20E2A016887
:10080000C8D800252A46891A89B2D3E7A803002050
:1008100037520020A4030020A0030020A6030020DC
:100820009C03002037B568460D461446FFF77AFF53
:10083000BDF8000030B1BDF802302B60BDF80430C7
:100840002360012003B030BD032821D8DFE800F089
:10085000020B12190F4B1A68B2FA82F252090421E4
:100860000D4804F055BC0B4B5A68B2FA82F252099B
:100870000821F5E7074B9A68B2FA82F25209102173
:10088000EEE7044BDA68B2FA82F252092021E7E778
:10089000704700BFAC03002000100240032821D89D
:1008A000DFE800F0020B12190F4B1A68003A18BF6C
:1008B000012204210D4804F02BBC0B4B5A68003A6E
:1008C00018BF01220821F5E7074B9A68003A18BFC4
:1008D00001221021EEE7044BDA68003A18BF01222A
:1008E0002021E7E7704700BFAC0300200010024062
:1008F00003280DD8DFE800F00206080A04210548A5
:1009000004F00BBC0821FAE71021F8E72021F6E7F4
:10091000704700BF0010024008B5032811D8DFE877
:1009200000F0020A0C0E0421074804F0EBFB431E02
:100930005842584108BD0821F6E71021F4E720216C
:10094000F2E70020F3E700BF0010024070B5084D49
:1009500000240126E0B2FFF7DFFF18B12B68012B5E
:1009600018BF2E600134052C05F10405F2D170BDCD
:10097000AC030020012380F8781080F879307047AC
:100980007047002070470000034B4164003918BFD6
:1009900001211970704700BFBF620120704700201D
:1009A0007047836B0BB10846184770474FF6FF70CE
:1009B0007047406803689B691847704770477047E5
:1009C0007047704710B5044600F04CFD236803499A
:1009D000D3F890302046BDE810401847000000D002
:1009E00008B503680446D3F8843098472368204646
:1009F000DB6F984700F0ECF8236820465B6F984760
:100A0000292001F093F900F0E3F8236820465B6F9A
:100A10009847F8E710B5044609F002FE236820461F
:100A2000D3F8BC30BDE81040184700F0FFBC00F020
:100A300003BD00F035BD00F0D5BC00F045BD00F0B1
:100A40004DBD00F0D9BC09F019B810B58421044699
:100A500021F039FE204610BD10B590F8341090F802
:100A600078400C4B8C421A7809D03AB90A4A0B49A3
:100A70001488088810800C8001221A7010BD002A8A
:100A8000FCD0054A05491488088810800C80002293
:100A9000F3E700BFB8620120B4620120B662012012
:100AA00070B50D46194635B9094B0A4A0A4840F255
:100AB000FF2122F045FDC0E90F52084B003A18BF54
:100AC00001221A700368BDE87040D3F890301847CF
:100AD000AC460208E446020832470208BE62012022
:100AE00008B5094B1B888B4203D8084B1B889342DF
:100AF00005D9074B074A0848A32122F021FD074BDF
:100B00001980074B1A8008BDB4620120B66201202B
:100B100077470208DA47020832470208BA62012022
:100B2000BC620120034690F87A0018B15868036847
:100B30001B68184770470000012108B500220846CD
:100B400006F08CFC0A4B186028B90A4B0A4A282187
:100B50000A4822F0F5FC00220421012006F01DFDC8
:100B6000074B186018B9074B034A2C21F0E708BD62
:100B7000C00300201D480208664802089548020884
:100B8000BC030020F1480208024B4FF0FF31186807
:100B900006F0AEBCC0030020014B186806F0D4BCC0
:100BA000C0030020024B0021186806F0A1BC00BF62
:100BB000C0030020FFF7F0BF03480449006800238A
:100BC0001A4606F025BD00BFBC030020040000202B
:100BD00013B5084C00231A4601A9206806F049FD08
:100BE00020684FF0FF33002201A906F042FD02B059
:100BF00010BD00BFBC03002003685B6C18470120D8
:100C0000704703689B6A1847FEE740F2EF30704771
:100C1000054B0360054B4FF08062C3F88820BFF39B
:100C20004F8FBFF36F8F7047C855020800E100E097
:100C300010B504464FF45A61FFF7EAFF204621F051
:100C400042FD204610BD000082B0002301930E4BF0
:100C50001A6B42F400021A631A6B02F4000201924A
:100C6000019A1A6942F400021A611A6922F4000218
:100C70001A61064B064A1A61064A5A61064B4FF042
:100C800080629A6002B07047003802401054002021
:100C9000E90E0008090C000800E100E008B50A2888
:100CA00009D8DFE800F006100E0808080810101038
:100CB0001000022008BD054B054A0648902122F08D
:100CC0003FFC0020F6E70120F4E700BF33490208AB
:100CD0004E4902089949020838B50C46887FFFF74B
:100CE000DDFFA58AE28A164B2169586342EA054274
:100CF0005A64628BD963521B1A642568082D0ED181
:100D00009A611A615862207F0E4A42EA0062DA61F3
:100D1000E2681A620C4A5961D9601A6038BD002233
:100D2000D8611A61E1680A0A480902F4784200F4BD
:100D3000FC600243C1F3C4010A439A63034AECE72F
:100D400000B002400900010001230200012303005A
:100D500008B50B280BD8DFE800F00612100A0A0AC3
:100D60000A0808080808022008BD0520FCE7054B12
:100D7000054A06486F2122F0E3FB0020F4E701203A
:100D8000F2E700BF33490208F34902089949020813
:100D90002DE9F04191F81D800C464046FFF7D8FF41
:100DA000A77F05463846FFF7D3FF06463846FFF7CC
:100DB00075FFA18A628B444B521A1A649A61228B86
:100DC000521A1A61E28A586342EA01425A6421695E
:100DD0006268D963DA602068802828D0227F0FD823
:100DE000202867D0402865D004281AD0364B45EA21
:100DF000026545F40035B845DD6161D0334A44E011
:100E0000B0F5807F04D0B0F5007FEFD1304800E02E
:100E1000304840EA0262DA61E2681A625E62596151
:100E200032E045EA026242F40032DA61F6E7A06895
:100E3000021DDA62227F45EA026545F40035DD6174
:100E40005E625961017841B1012921D0224B234AC8
:100E500023484FF48D7122F073FBDA69418822F444
:100E60007F42013922F0100242EA0122DA610121B7
:100E7000154BDA6942F02002DA61DA699206FCD495
:100E800010229A600029B9D0164A1A60BDE8F08194
:100E9000B2F1FF01DA69408822F47F4200F1FF30AD
:100EA00022F0100242EA002242F0100218BF012193
:100EB000DA61DDE745EA0262034B42F40032B4E74F
:100EC00042F20132E1E700BF00B00240012301001D
:100ED000090002000A0002003D4A0208574A0208BF
:100EE0009949020801230200024B1B6858680368F5
:100EF0005B691847C062012070B5044625460A4B5D
:100F00000C30002660602672667245F8203B602235
:100F1000294609F0DBFC04F55A63EE6024359D4256
:100F2000FBD1204670BD00BFC8550208034B1A68AC
:100F3000D207FCD423229A60704700BF00B0024061
:100F40007047000030B50F4C2568ED07FCD4232511
:100F50000904A56041F001010225FF2B656361646E
:100F6000E0630AD00849656241EA0363E361074B25
:100F700022626061E060236030BDE561039BA36392
:100F8000034BF8E700B00240090001000100020035
:100F90000100030030B50E4C2568ED07FCD4232575
:100FA0001204A56042F001020225FF2B6563626412
:100FB000E063E16008D01B0643F00213E361054BD8
:100FC00065626061236030BD034BE3610123F9E793
:100FD00000B0024001000200020002FF30B50B4CDD
:100FE0002568ED07FCD4232512041B06A56043F4F5
:100FF0000033022542F0010265636264E063E16050
:10100000E361034B65626061236030BD00B0024064
:10101000010002000120704714207047142303FBD5
:10102000010008307047142303FB010008307047AB
:101030000120704743F61850704743F6185303FBDE
:1010400001000830704743F6185303FB01000830D5
:101050007047012070471020704700EB01100830E6
:10106000704700EB011008307047084601F01ABCC9
:1010700010B5034B0360044608F055FA204610BD36
:101080008056020810B50446FFF7F2FF20461C21E7
:1010900021F019FB204610BD10B5034B0360044638
:1010A00008F041FA204610BD4C56020810B504461F
:1010B000FFF7F2FF204643F6205121F004FB2046C3
:1010C00010BD000010B5034B0360044608F02BFA76
:1010D000204610BD1856020810B50446FFF7F2FF6F
:1010E0002046182121F0EFFA204610BD10B5094B1B
:1010F0000360044600F575500C30FFF7B9FF04F1AA
:101100002C00FFF7C9FF04F11400FFF7DBFF2046B6
:1011100010BD00BFB456020808B50248FFF7E6FF4D
:1011200008BD00BF9C12002010B50446FFF7DEFF8B
:10113000204643F6C86121F0C6FA204610BD0000E3
:101140002DE9F34101F0A2F9054601F0A3F90024CD
:101150000146234628462246009412F021FA274BE6
:10116000274A1A60204602F0A5FB264D264B274A47
:1011700027489A6012F07CF92B68BFF35B8FDB077E
:1011800036D4284621F0A1FA90B3224C224F234BAB
:10119000236007F1200604F1140004F12C086060BC
:1011A000C4F80880E760266108F0BEF91C4B636153
:1011B000404608F0B9F91B4BE362384608F0B4F931
:1011C00004F5405303F66850174AC3F84C2D02F05B
:1011D000F5FB224607F11C01304602F0E5FB3046E4
:1011E00001F060FB114822F0C9F9284621F079FA94
:1011F0000F4802B0BDE8F041FFF7E4BB24630120D3
:101200004804002098120020680400204C040020AC
:10121000080000209C120020E84F0020B45602086D
:10122000185602084C560208805602081911000888
:10123000C4030020704700000148FFF7D1BB00BF86
:10124000C403002070B5264E264C274D274B236043
:101250003046FFF751FE284617F0A8FA24480FF051
:101260008DFE244B2448DC6000224FF48071C3E9DA
:10127000121222491A86C3E91A12214983F858200A
:10128000C3E91E011F49C3F880101F491F480B60A6
:10129000F021C3E90422C3E90622C3E90822C3E915
:1012A0000A22C3E90E22C3E91022C3E91422C3E9CA
:1012B00017225A6683F870205A67C3E901650180D6
:1012C0001348018013484FF4A07101801248018037
:1012D00012490A70012283F83420114A1A6070BD45
:1012E000F404002094120020680400209C460208A8
:1012F0004C040020C4030020000001010100000193
:10130000000450001A001400C0620120B4620120E1
:10131000BA620120B6620120BC620120B8620120DD
:10132000DC5402080148FFF773BC00BFF40400203E
:101330000020704781807047C180704701817047ED
:10134000418170477047704770477047704710B4CD
:10135000C4880368121B84885B6D091B12B25DF898
:10136000044B09B218474FF6FF7383814FF0FF33E8
:1013700003621368C36110607047002070478B8858
:10138000838001207047704780F82610704790F8DE
:101390002600704710B50022B1F90840B1F90A10D3
:1013A000028042808480C18010BD00220280428081
:1013B0008280C28070470177704780ED080A7047CD
:1013C00080F82410704780F825107047012070477E
:1013D000983070478C307047843070477047704742
:1013E00070470000034B902283F85A2383F8582358
:1013F000704700BF00E100E0094A0A49D3680A4883
:10140000C3F30A03013B9BB20B801169C1F30A01CC
:10141000013901801364536B43F001035363704738
:10142000006801406651002064510020014BD3F850
:10143000AC00704700680140024B0122C3F8AC10B9
:101440005A6270470068014010B52C21044621F013
:101450003AF9204610BD10B5BC21044621F033F9FD
:10146000204610BD70B5044608F05DFB23689D6EF4
:101470000EF0F4FA01462046A8472368054AD3F83F
:101480008C502046AC460023BDE87040A2F51631D2
:10149000604700BF00B004D008F02CBB08F036BB9A
:1014A00008F0F2BA08F061BC90F8252012B1036888
:1014B0005B691847704790F825201AB190F82420EE
:1014C00002B1186070470000034B4FF080629A60D1
:1014D0004FF080729A60704700E100E0084B4FF0D7
:1014E0008062C3F88820BFF34F8FBFF36F8F4FF038
:1014F0008072C3F88820BFF34F8FBFF36F8F7047A0
:1015000000E100E070B50023124E8380124B0360AF
:10151000336893F8582005460AB1D86C00B998682A
:101520000368DB6A98473368B0FA80F4D86C6409C2
:1015300030B10368DB6A9847002808BF44F0010413
:101540002CB9064B064A07482C2121F0F9FF284602
:1015500070BD00BFC0620120C8560208954A02084B
:10156000F34A02082C4B020870B5254E3568BFF3CC
:101570005B8F15F0010540D1304621F0A6F8002818
:101580003BD0204C204B256104F13400C4E90035E8
:10159000C4E90255E584A562A5850FF0D4FF04F1E6
:1015A00058000AF049FE194BA3652046184B40F835
:1015B000843BFFF7A7FF174BC4F884302433C4F8EB
:1015C0008C304FF4C803C4E928350023C4F8AC308C
:1015D000C4F8B030C4F8B430C4F8B8300E480F4B7B
:1015E000C4F89050C4F89C50C4F8A850C4F898307F
:1015F00021F0C4FF304621F074F8024870BD00BFEE
:10160000685100206C510020305F0208E856020843
:1016100060570208E45E0208E1130008C45E020895
:1016200038B5184C23685BB3174B184A1B6C1188EC
:101630008B4216D1164B198804F060FB236893F88F
:101640006A200025013283F86A2083F87C50FFF776
:10165000B3FA206808F0E4FF2846BDE83840FFF7F9
:10166000F3B804F04BFB2468236820461B6A9847B4
:10167000012384F87C300020BDE83840FFF70EB924
:1016800038BD00BFC06201200068014066510020E3
:101690006451002007B5064BADF806001B680548ED
:1016A00001220DF1060105F0D9F803B05DF804FB45
:1016B0000C000020BC52002008B5642005F0C2FEDA
:1016C000FBE7000030B595B0102200210AA822F0F7
:1016D0003EF90021142203A822F039F900241C4B02
:1016E00001941A6C42F080521A641B6C03F0805310
:1016F0000193019B174B02941A6842F440421A600E
:101700001B6803F440430293029B01224FF4803391
:10171000CDE9082302254FF48003B422CDE90E530E
:1017200008A80423CDE91032CDE9125304F03EFBA2
:1017300004F002FB0F23CDE9033505214FF4A0533C
:1017400003A8CDE90633059404F00CFD15B030BDB7
:10175000003802400070004080B59AB003F052FAA1
:10176000FFF7B0FF142200210DA822F0F0F80024AA
:10177000C94B00941A6BC948DFF8589342F0100225
:101780001A631A6B02F010020092009A01941A6B0D
:1017900042F020021A631A6B02F020020192019AB1
:1017A00002941A6B42F080021A631A6B02F08002F4
:1017B0000292029A03941A6B42F004021A631A6BA3
:1017C00002F004020392039A04941A6B42F001029D
:1017D0001A631A6B02F001020492049A05941A6BC0
:1017E00042F002021A631A6B02F002020592059A95
:1017F00006941A6B42F040021A631A6B02F0400220
:101800000692069A07941A6B42F008021A631B6B41
:1018100003F00803224607933C21079B03F078FC62
:101820009F480122022103F073FC22469C480421B8
:1018300003F06EFC22469B484FF4405103F068FCD5
:1018400001263C23CDE90D3694480F9403230DA9BE
:101850000227109303F072FB91480DA9CDE90D7694
:10186000CDE90F4403F06AFB04238D480DA9CDE9AF
:101870000D36CDE90F474FF4405803F05FFB4FF4AE
:10188000041589480F960DA9CDE90D8503F056FB87
:1018900084480DA9CDE90D86CDE90F4703F04EFB35
:1018A000C02380480F960DA9CDE90D3503F046FB06
:1018B00022460521172003F0F7F9172003F026FA36
:1018C00022460521282003F0EFF9282003F01EFA14
:1018D0007648774B774DDFF80082036003F024FAF7
:1018E000754B2C62C5E9008328464FF48043C5E957
:1018F0000434C5E90244C5E9064403F023FE10217F
:10190000284604F067F8214628466C4D04F081F81B
:101910004FF48273C5E900934FF4007A1823C5E9A8
:1019200006A328460A23C5E90244C5E90444C5E9DB
:101930000844AC62EB6204F035FF8F23224639463F
:1019400057488DF824308DF8344003F0E1FB3246DF
:101950004FF47A7309A9284604F080FF4FF47A7394
:1019600032460DA9284605F025F9324639464C483D
:10197000534D03F0CDFB9DF83430D32B04BF514BB6
:101980001E70514B0126C5E9003610224023002469
:10199000C5E904234FF4C073C5E906344FF400636E
:1019A000C5E908344FF4005302274FF00409AB6235
:1019B0004FF0030A07230DA92846CDE90D73CDE9A1
:1019C0000F934FF00808C5E90249CDE911A7139715
:1019D00004F0CCFD4FF6FF7209A92846CDE90A862E
:1019E000089409960C9404F0E1FD304603F036F9B2
:1019F0004FF6FF7209A92846CDE90978CDE90B64B5
:101A000004F0D4FD4FF6FF7209A92846CDE909A8D4
:101A1000CDE90B9404F0CAFD4FF40C730893089BB6
:101A20000C934FF6FF7209A92846CDE909980B9649
:101A300004F0BCFD40F26A51284604F0D5FD342282
:101A40000DEB0200214621F082FF204D204B2C613E
:101A5000C5E900340923C5E905361D23C5E9073A60
:101A600040F20D1140F24313C5E9091340F217107B
:101A700040F24713C5E90B032846C5E90244AC868A
:101A800085F8364004F058F8FF214FF4806CF022BE
:101A9000CDE91214052121E0003802400010024077
:101AA00000080240000C0240000402405054002094
:101AB00000300240BC530020A0860100BC52002030
:101AC0004052002037520020400100A01453002053
:101AD0000068014000500140005C0040CDE914C1A5
:101AE0004FF4A0730DA9CDE90E24CDE91642284686
:101AF0002246294D1893CDE910370D94ADF8644076
:101B00008DF8664004F0CCF8244B2B601B68984796
:101B10002B68234DDB689847224B2846C5E90034E3
:101B2000C5E90274C5E90A47C5E90C4403F00CF99C
:101B30003146284603F0BEF91B4DDFF88CE02C61DE
:101B40004FF4E133C5E900E328460C23C5E9053429
:101B5000C5E90244EC6105F0E3FA4FF0FF331349A5
:101B60001122284605F00BFBFEF7A2FDFEF79FFDB4
:101B700005F0F8FB0E4A0F48214605F01FFC0E4BFE
:101B80000E4A186021460E4805F018FC0D4B1860EF
:101B900005F0FAFBFEE700BF2C52002014000020E5
:101BA0001054002000B00240745200208E4B0208F6
:101BB000C8570208B91600083C520020A457020872
:101BC000BF060008385200200010014010B504463E
:101BD00003F03EF8114A1368C31AC82B16D9B4F59E
:101BE000805F05D10E4901230B700E490B700CE08C
:101BF000B4F5005F04D10C4901230B700B49F5E7E4
:101C0000402C04D10A4B01211970106010BD802CAA
:101C1000FBD1084901230B700749E7E72852002050
:101C20003652002031520020355200203052002020
:101C30003352002034520020325200207047704747
:101C40007FB5094B8DF817201B6802930DF1170221
:101C50000123009201930A460146044803F01AFD4D
:101C600007B05DF804FB00BF10000020BC5300204B
:101C70007FB500238DF81730084B1B6802930A4686
:101C800001230DF11701009101930146044803F06F
:101C900091FD9DF8170007B05DF804FB10000020CF
:101CA000BC5300201FB5084C24680092CDE90134D4
:101CB0000A4601230146054803F07CFD003818BFA1
:101CC000012004B010BD00BF10000020BC53002054
:101CD00002F0C4BF10B5064C00222046042103F0D8
:101CE00017FA20460122BDE81040042103F010BA83
:101CF0000008024038B50B4D044601220A484FF453
:101D0000005103F005FA00220421284603F000FAEE
:101D10002046FFF7BFFC28460122BDE838400421D9
:101D200003F0F6B900080240000C024038B50B4D34
:101D3000044600220A484FF4005103F0E9F900225A
:101D40000421284603F0E4F92046FFF7A3FC2846C7
:101D50000122BDE83840042103F0DAB9000802404E
:101D6000000C0240F7B5144E144F05460C463046A1
:101D70000022042103F0CCF900224FF40051384630
:101D800003F0C6F92846FFF785FC0D4B0D481B688C
:101D9000224601A904F00EFF384601224FF40051FB
:101DA000019C03F0B5F930460122042103F0B0F99B
:101DB000204603B0F0BD00BF00080240000C024006
:101DC0000C000020BC52002002F048BF0268034B08
:101DD0009A4201D102F030BF704700BF00100040AE
:101DE0007047000082B00E4B00220092596C41F403
:101DF00080415964596C01F480410091009901922D
:101E0000196C41F0805119641B6C03F080530193ED
:101E1000019B0F216FF0010002B002F045BF00BF2F
:101E2000003802400268094B9A4282B00BD100236D
:101E30000193074B1A6B42F480521A631B6B03F435
:101E400080530193019B02B0704700BF00300240F5
:101E50000038024007B50F4B02689A4216D10022A3
:101E6000A3F5F0430192196B41F4000119631B6B58
:101E700003F40003019305215A20019B02F014FF93
:101E80005A2003B05DF804EB02F040BF03B05DF8E8
:101E900004FB00BF00B002402DE9F043044689B0C6
:101EA0001422002103A821F052FD2268244B9A42FB
:101EB00043D1244C244800250095236B43F00403B0
:101EC0002363236B03F004030093009B0195236BB2
:101ED00043F001032363236B03F001030193019B90
:101EE0004FF012094FF400734FF001080327042646
:101EF00003A9CDE90339CDE90587079603F01EF85C
:101F00004FF480731148079603A9CDE90339CDE951
:101F1000058703F013F80295236C43F40003236450
:101F2000236C03F400030293029B236A43F400032F
:101F30002362236A23F40003236209B0BDE8F0831F
:101F4000005C0040003802400008024000000240EF
:101F5000F0B599B004461422002107A821F0F7FC3F
:101F600030220DEB0200002121F0F1FC22685E4BD3
:101F70009A4240F0B78008230C93C02310930423A7
:101F800012930CA84FF40033159304F0C3F908B171
:101F9000FFF726FF554B5648002400945A6C42F038
:101FA00080625A645A6C02F080620092009A019436
:101FB0001A6B42F020021A631A6B02F0200201929F
:101FC000019A02941A6B42F001021A631A6B02F032
:101FD00001020292029A03941A6B42F002021A63FF
:101FE0001A6B02F002020392039A04941A6B42F0F5
:101FF00040021A631A6B02F040020492049A05949C
:102000001A6B42F004021A631A6B02F00402059282
:10201000059A06941A6B42F008021A631B6B03F0D0
:102020000803069302250E26069B0B964FF4806349
:1020300007A9CDE90735CDE9094502F07FFF41F653
:1020400058032C480B9607A9CDE907350927CDE998
:10205000094502F073FF032327480B9707A9CDE931
:102060000735CDE9094502F069FF4FF47063224856
:102070000B9607A9CDE90735CDE9094502F05EFFCA
:102080004FF40C631D480B9607A9CDE90735CDE940
:10209000094502F053FFC02319480B9607A9CDE963
:1020A0000735CDE9094502F049FF082315480B968D
:1020B00007A9CDE90735CDE9094502F03FFF4FF407
:1020C000A0530E480B9707A9CDE90735CDE909457F
:1020D00002F034FF58202246052102F0E5FD582089
:1020E00002F014FE19B0F0BD006801400038024053
:1020F00000140240000002400004024000180240A8
:1021000000080240000C024010B5044688B01422BA
:10211000002103A821F01BFC2268144B9A4223D112
:1021200003F56843002101915A6C114842F4801272
:102130005A645A6C02F480120192019A02911A6B4D
:1021400042F020021A631B6B03F020030293029BF0
:102150004FF4607202230321CDE903230523CDE967
:10216000061303A902F0EAFE08B010BD00500140BA
:102170000014024010B5044688B01422002103A8C0
:1021800021F0E5FB2268144B9A4223D103F59433E6
:10219000002101915A6C114842F010025A645A6CA5
:1021A00002F010020192019A02911A6B42F00102B0
:1021B0001A631B6B03F001030293029B4FF4C0628E
:1021C00002230321CDE903230723CDE9061303A945
:1021D00002F0B4FE08B010BD001001400000024043
:1021E0002DE9F04186B0002303932B4B1C68002C93
:1021F0004FD14FF00108C3F80080284B00949A6B30
:10220000274842EA08029A639B6B03EA080300939B
:10221000022703260C25009B01A94FF63F03CDE9B9
:102220000137CDE9046502F089FE1E48059501A934
:10223000CDE90187CDE9034602F080FE48F2331371
:102240001948059501A9CDE90137CDE9034602F00A
:1022500075FE4FF683731548059501A9CDE9013741
:10226000CDE9034602F06AFE4CF20373104805956F
:1022700001A9CDE90137CDE9034602F05FFE6023F5
:102280000C48059501A9CDE90137CDE9034602F0D7
:1022900055FE06B0BDE8F0815854002000380240D9
:1022A00000140240000802400018024000100240E2
:1022B000000C02400004024070B588B00023029375
:1022C000204B1A6C42F010021A641B6C03F01003CE
:1022D0000293054601A903A8029B03F0FDFF069B9C
:1022E0004BBB03F0D9FF184E184B336040F2E73375
:1022F000F360174BB0FBF3F3013B736030460023F0
:102300003361B360B36104F01FFE044680B9304608
:1023100004F0F4FC044658B9362002F0F7FC0F2D07
:102320000DD822462946362002F0BEFC094B1D601E
:10233000204608B070BD03F0AFFF4000D3E7012492
:10234000F6E700BF003802405C5400200010004057
:1023500040420F007C0000207047FEE7FEE7FEE7EA
:10236000FEE7704708B5402002F0E0FEBDE80840F7
:10237000802002F0DBBE08B54FF4805002F0D6FE9C
:10238000BDE808404FF4005002F0D0BE014804F010
:10239000F3BC00BF5C540020014803F024BC00BF24
:1023A00014530020014802F0FBBC00BF1054002071
:1023B0000120704708B521F06DFB162303604FF034
:1023C000FF3008BD08B521F065FB16230360FEE76A
:1023D00070B50D4614460E46731B9C4201DC204628
:1023E00070BDAFF3008006F8010BF5E770B50D4640
:1023F00014460E46731B9C4201DC204670BD16F845
:10240000010BAFF30080F5E74FF0FF3070474FF45A
:1024100000534B6000207047012070470020704738
:102420000A4A116808B5034609B9094911601068DC
:10243000694603448B4206D921F02CFB0C23036030
:102440004FF0FF3008BD1360FCE700BFA45400202C
:1024500000700120704710B50421044620F033F9C4
:10246000204610BD012908B506D0022908D059B967
:1024700001F06CFA006808BD01F068FA4068FAE7FC
:1024800001F064FA8068F6E70020F4E7004870473E
:10249000005802081420704713B5002451B1036896
:1024A00001948DF8034001AA9C680DF10303A04735
:1024B00002B010BD0846FBE7C0897047008A70472C
:1024C000C088704780887047807A00F07F0070472E
:1024D000807AC00970470020704700009FED010A14
:1024E000704700BF00000000704710B50821044687
:1024F00020F0E9F8204610BD7047704700F598734A
:102500000868496803C37047704770474160704767
:1025100070477047064BC0F84C310023C0F850316B
:1025200000F5A273C0F84801C0F84031704700BF01
:102530007126000801230372704770477047704787
:102540007047704710B4C26841685410034601EBED
:102550006200D20748BF0A599B685DF8044B48BF28
:10256000D35818470346406830B19A681AB9D868FA
:1025700000F0010070470120704710B51421044697
:1025800020F0A1F8204610BD10B50C21044620F023
:102590009AF8204610BD10B51021044620F093F89B
:1025A000204610BD10B54FF4AE71044620F08BF8F4
:1025B000204610BD10B50DF051FA0368BDE810407B
:1025C000DB6B184770B50446B2B01E49C02202A8A2
:1025D00021F08DFA237C2F2B03D90123237232B0F3
:1025E00070BD33B9184B1B781BB10DF037FA0DF0E5
:1025F0003BFA0225237C302BF1D832AA02EB83036D
:10260000E68953F8C03C608993FBF6F206FB12336F
:1026100013FB00F3ADF804006068A189ADF8003049
:102620000368ADF8061012FB01F21B69ADF8022039
:1026300069469847237C012D03F101032374CED012
:102640000125D7E794450208BE62012010B5044673
:10265000D0F8400158B10368DB68984738B1D4F826
:10266000400103689B6898470023C4F8403110BDBF
:102670002DE9F14FD0E9556A0746B06803681B6A37
:102680009847DB2805D8444B444AA321444820F00E
:1026900057FF706803681B6A98470F2803D8414B9F
:1026A0003E4AA421F2E7F06803681B6A98470B28AA
:1026B00003D83D4B394AA521E8E70DF0CFF9DFF803
:1026C000F09004300DF017FAD9F8000010B103684B
:1026D000DB689847D9F8000010B103681B68984779
:1026E000DFF8D080D8F8000010B103685B69984724
:1026F000D7F83C0110B103685B689847D8F8000030
:1027000010B103681B689847D7F83C0110B1036803
:102710009B689847F068036800215B6A98474FF010
:10272000000B224BC0F804B0044680F808B00360E8
:10273000B068036859465B6A9847054601F020FF78
:102740007068036859465B6A98472946064601F057
:10275000F7FE331DC7F83C61C9F80040C8F80050C7
:10276000CAF800302B68C6F808A02846DB68EE637C
:102770009847336830461B689847214628460FF033
:1027800067FB236820461B69984723685B692046DE
:1027900001B0BDE8F04F1847B64B0208444C0208A0
:1027A000164D02085D4D0208004E0208145A020838
:1027B0000863012004630120044B1B6893F8582030
:1027C0000AB1D86C00B99868704700BFC062012098
:1027D00000230F4A43600372026003740D4A0E4BDC
:1027E00012881B8893420BD9073306210532DB0878
:1027F000B2FBF1F2082192B243818281C18170471C
:10280000073205330621D208B3FBF1F39BB2F3E79D
:10281000385A0208B6620120B4620120F8B51746A2
:1028200004460E460DF004FA124B1C60124B236056
:10283000124B0025C4E95135114BC4E953551868B2
:10284000036801219B68C4E94F55C4E95576984750
:10285000284601F02FF8FFF7AFFF17F050FEFFF703
:10286000ABFF17F0C7FEFFF7A7FF17F0CFFE20461C
:10287000F8BD00BF14630120C0590208A85902081E
:10288000C0620120064BC0F84C310023C0F8503123
:1028900000F5A273C0F84801C0F84031704700BF8E
:1028A000792B0008064BC0F84C310023C0F850319A
:1028B00000F5A273C0F84801C0F84031704700BF6E
:1028C00071260008064BC0F84C310023C0F8503187
:1028D00000F5A273C0F84801C0F84031704700BF4E
:1028E000452A0008064BC0F84C310023C0F850318F
:1028F00000F5A273C0F84801C0F84031704700BF2E
:102900000D29000803685B6A184700002DE9F047AD
:10291000D0E9556A0746B06803681B6A9847B0F566
:10292000887F05D2404B414AA321414820F008FE50
:10293000706803681B6A98470F2803D83D4B3B4AD1
:10294000A421F2E7F06803681B6A9847132803D8AC
:10295000394B364AA521E8E70DF080F8DFF8DC9026
:1029600004300DF0C8F8D9F8000010B10368DB6836
:102970009847D9F8000010B103681B689847DFF842
:10298000C080D8F8000010B103685B699847D7F899
:102990003C0110B103685B689847D8F8000010B19B
:1029A00003681B689847D7F83C0110B103689B681F
:1029B00098470021F068FFF7A5FF0446FFF708FFDE
:1029C000B068036800215B6A9847054601F030FE55
:1029D0007068036800215B6A98472946064601F043
:1029E00005FE331DC7F83C61C9F80040C8F8005027
:1029F000CAF800302B68C6F808A02846DB68EE63EA
:102A00009847336830461B689847214628460FF0A0
:102A10001FFA236820461B699847236820465B6994
:102A2000BDE8F047184700BFB64B0208A34E0208A6
:102A3000164D02085D4D0208004E02080863012091
:102A4000046301202DE9F047D0E9556A0746B068D4
:102A500003681B6A9847DB2805D8404B404AA321EE
:102A6000404820F06DFD706803681B6A98470F2886
:102A700003D83D4B3A4AA421F2E7F06803681B6A89
:102A80009847132803D8394B354AA521E8E70CF0BD
:102A9000E5FFDFF8DC9004300DF02DF8D9F80000E8
:102AA00010B10368DB689847D9F8000010B10368DB
:102AB0001B689847DFF8BC80D8F8000010B10368A5
:102AC0005B699847D7F83C0110B103685B68984789
:102AD000D8F8000010B103681B689847D7F83C018C
:102AE00010B103689B6898470021F068FFF70AFF60
:102AF0000446FFF76DFEB068036800215B6A9847E3
:102B0000054601F03DFD7068036800215B6A984747
:102B10002946064601F014FD331DC7F83C61C9F88B
:102B20000040C8F80050CAF800302B68C6F808A06A
:102B30002846DB68EE639847336830461B68984741
:102B4000214628460FF084F9236820461B699847E0
:102B5000236820465B69BDE8F0471847B64B02087A
:102B6000784F0208164D02085D4D0208004E02081B
:102B700008630120046301202DE9F047D0E9556A7C
:102B80000746B06803681B6A984743F61753984294
:102B900005D8404B404AA321404820F0D1FC706842
:102BA00003681B6A98470F2803D83D4B3A4AA42173
:102BB000F2E7F06803681B6A9847132803D8394B7B
:102BC000354AA521E8E70CF049FFDFF8DC90043036
:102BD0000CF091FFD9F8000010B10368DB6898474A
:102BE000D9F8000010B103681B689847DFF8BC8073
:102BF000D8F8000010B103685B699847D7F83C012A
:102C000010B103685B689847D8F8000010B10368FA
:102C10001B689847D7F83C0110B103689B68984738
:102C20000021F068FFF76EFE0446FFF7D1FDB068A3
:102C3000036800215B6A9847054600F0C1FF706891
:102C4000036800215B6A98472946064600F0C8FEE3
:102C5000331DC7F83C61C9F80040C8F80050CAF8F5
:102C600000302B68C6F808A02846DB68EE6398475A
:102C7000336830461B689847214628460FF0E8F82D
:102C8000236820461B699847236820465B69BDE896
:102C9000F0471847B64B02084D500208164D02087F
:102CA0005D4D0208004E0208086301200463012004
:102CB000406A7047806A704770478A880B8810B5F1
:102CC000D20A4C88C1699BB251F8220043EA0443FE
:102CD000184410BD10B50446BAB1107B68B1537BDF
:102CE000D27A1B0203F4E0631A43236A03EB8203E4
:102CF0001A888A4202D193F9020010BD05D8013822
:102D000080B204330028F3D1F7E70020F5E710B5CF
:102D10002C2104461FF0D7FC204610BD30B58BB0E7
:102D20000446BDF860500895BDF85C5007959DF8C5
:102D3000505006959DF84C5005959DF848500495C7
:102D40009DF8445003959DF8405002959DF83C50E5
:102D50000195BDF8385000950EF0B2FC064B23608B
:102D6000159BE361169B2362199B63621A9BA36206
:102D700020460BB030BD00BF5C5A02087047704758
:102D800070477047704730B5036885B06D46018164
:102D9000D3F88430014604462846984795E8070052
:102DA0003C3484E8070005B030BD30B5036885B019
:102DB0006D464181D3F88430014604462846984741
:102DC00095E807003C3484E8070005B030BD0022D8
:102DD000028042808280C280704780F8361070473F
:102DE00070B5036804461B6B15469847236829464F
:102DF00020465B6EBDE87040184700207047806C2D
:102E0000704770477047704710B54C2104461FF05B
:102E10005AFC204610BD10B54FF4197104461FF03E
:102E200052FC204610BD08B5FEF73EFB08BD000071
:102E3000036870B55E6B124B1B6804468DB22BB9EC
:102E4000104B114A6C21114820F07AFB1049828DF9
:102E50000988914203D80F4B0B4A6D21F3E713F811
:102E600012200D4B1B6853F8220003681B6B984718
:102E7000291A3346204609B2BDE87040184700BF02
:102E80001863012022510208645102089F51020870
:102E90001C630120E65102082063012000224FF04C
:102EA000FF31C0E90021826070470000074A0260DC
:102EB0000022C0E90122C0E90322C0E90522C0E9DD
:102EC00007224FF480728284704700BF7C6302083F
:102ED00070B5036804461B6B15469847236829465E
:102EE00020465B6BBDE87040184770B504461D4630
:102EF000BDF91060FFF7ECFF2368294620469B6B65
:102F00009847236831462046DB6BBDE87040184780
:102F100010B526220446002120F019FD2046FFF7B7
:102F2000C5FF044B2360FF2384F826300023A362EF
:102F3000204610BD6861020810B526220446002113
:102F400020F005FD2046FFF7B1FF0A4B23600A4B36
:102F5000A3624FF6FF73A3854FF47F020023C4E9F9
:102F60000C3223874FF0FF32C4E91023E36320467D
:102F700010BD00BFD8600208985902082DE9F04F33
:102F800004468FB0A04600250EF0B6FDBA4BE563AF
:102F900048F8403B04F16C074046FFF7B9FF04F1E5
:102FA00098060CA94FF6FF733846DFF804B3ADF866
:102FB000303004F1C40A09F0D9F93046FFF776FF42
:102FC000C4F898B0C4F8C0505046FFF7A1FFAB4A10
:102FD000C4F8C42004F1F803184604F59279C4F843
:102FE000F050A4F8F4500793FFF760FFC4F8F8B06E
:102FF000C4F820514846FFF79FFFA14BC4F8243185
:1030000004F5B8731846C4F86C510693FFF74EFFE9
:1030100004F5CE73C4F870B11846C4F898510593FE
:10302000FFF776FF954AC4F89C2104F5E87318462B
:10303000C4F8C851A4F8CC510493FFF77DFF04F500
:10304000067318460393FFF777FF8D4BC4F81832C9
:103050004FF4A0732A464046C4F8605229460093B4
:10306000F023FFF742FF04F1040B4FF07F43A36608
:103070004146584606F06CFA38460CA9ADF8305077
:103080000AF0DEF84FF4A0732A463846009329462A
:10309000F023FFF72AFF3846294609F022F939467E
:1030A00058464FF4877706F053FA30468C23252292
:1030B00012210097FFF719FF2A468C232946504614
:1030C0000097FFF712FF6F496F4BDFF8E881C4E903
:1030D0003B134FF001033046A4F8F430514606F09C
:1030E00037FA4FF4A2736FF0350207980093294620
:1030F0008C23FFF7FAFE3046079906F029FA31468D
:10310000584606F025FA1F22D9214846FFF7E0FE6F
:103110005E4BC4F85431D4F82431A4F8585108AEA9
:10312000D3F8843049463046984796E8070004F5BE
:10313000B07383E80700D8F800302BB9544B554AD8
:103140006021554820F0FCF9544B1B881BB9544BA7
:10315000504A6121F5E7DFF860A1524FDAF800002C
:10316000294600F0E3FBC4F86C01484609F030FE44
:10317000042348460CA9ADF834300C9709F048FEFA
:103180004946584606F0E4F9242300933D22069868
:10319000BB21FFF7AAFE0699584606F0D9F92D2360
:1031A000059800936C223A23B021FFF79EFE3E4B18
:1031B000344A05994FF00209C4E971235846A4F82E
:1031C000CC9106F0C5F977220498B521FFF780FE6F
:1031D0002D4B0499C4F800323046A4F8045209F08B
:1031E0006FFB96E8070004F5037383E807000323E9
:1031F0000498ADF834300CA90C9709F009FE049935
:10320000584606F0A5F985220398CA21FFF760FE0B
:10321000264BC4F84832D4F818320399D3F88430D6
:10322000A4F84C523046984796E8070004F5157309
:1032300083E80700D8F80030002B3FF47FAF174B2E
:103240001B88012B83D90121DAF8000000F06EFB06
:10325000C4F86002039809F0BBFD03980C970CA911
:10326000ADF8349009F0D4FD5846039906F070F992
:1032700020460FB0BDE8F08F545B0208446202089C
:10328000C45A02082A2730FF30A8F0FF2E97D6FF35
:1032900022510208245202089F5102081C63012097
:1032A000E651020898590208181308FF2F9BDDFF0A
:1032B000045E0208186301202463012070477047F0
:1032C000704730B4C26844685510034604EB62008E
:1032D000D20748BF62599B6830BC48BFD3581847D3
:1032E0000346406830B19A681AB9D86800F0010006
:1032F00070470120704710B5102104461FF0E3F914
:10330000204610BD10B5DC2104461FF0DCF9204634
:1033100010BD9830884208B505D10CF09FFBBDE880
:103320000840FFF7AFBA08BD2DE9FF4704460EF08D
:10333000E3FB434B2360434B0025C4E910354FF4B6
:10334000807304F16C06A4F86430FF234FF6FF7716
:1033500084F8663003A9C4E91255C4E91455C4E9D8
:103360001655E5632566A5663046ADF80C7008F085
:10337000FDFF40F20113A4F8BC30334BC4F8983081
:10338000324BA4F8C670C4E93334314BA4F8C8708A
:1033900004F1400A4FF4A0792A46C4E9353584F88F
:1033A000CA70C4E92755C4E92955C4E92B55C4E9B5
:1033B0002D55C4F8C05084F8C45029465046CDF865
:1033C0000090F023FFF791FD271D4FF07F43A36688
:1033D0005146384606F0BCF80E2303A93046ADF836
:1033E0000C3009F02DFFF0232A4629463046CDF84F
:1033F0000090FFF77AFD2946304608F072FF04F18D
:1034000098083146384606F0A3F84046FC223C2195
:10341000FFF75EFD0F2303AA02A94046ADF808306E
:10342000ADF80C3009F04FFD04F1CC033846C4F878
:10343000C030414606F08CF8204604B0BDE8F08765
:10344000A05B020868610208D0610208885B02087C
:103450001333000870477047704730B4C26844683F
:103460005510034604EB6200D20748BF62599B68BF
:1034700030BC48BFD35818470346406830B19A68FB
:103480001AB9D86800F0010070470120704710B5E4
:10349000102104461FF017F9204610BD10B54FF457
:1034A000887104461FF00FF9204610BD38B500F1B1
:1034B000CC03994204460D4603D10CF0CFFAFFF736
:1034C00001FA9834A54205D10CF0C8FABDE838409D
:1034D000FFF7D8B938BD0000084A02600022C0E9F1
:1034E0000122C0E90322C0E90522C0E90722826265
:1034F00080F82C2040F2011282847047F45F0208A9
:103500002DE9F04F044685B00EF0F6FA4E4B2360DD
:103510004E4BDFF844B1002504F16C07C4E91035C7
:103520004FF0FF0A4FF480734FF6FF76A4F8643033
:1035300003A904F19809C4E91255C4E91455C4E972
:103540001655E563256684F866A0A566384604F13D
:10355000CC08ADF80C6008F009FF4846FFF7BCFF47
:10356000C4F898B0A4F8C660A4F8C86084F8CA602B
:103570004046FFF7B1FF364BC4F8CCB0C4E9403445
:10358000344B84F8FEA004F1400B4FF4A07AC4E958
:1035900042352A46A4F8FA60A4F8FC602946584649
:1035A000CDF800A0F023FFF7A0FC261D4FF07F43CD
:1035B000A3665946304605F0CBFF102303A93846D1
:1035C000ADF80C3009F03CFEF0232A462946384677
:1035D000CDF800A0FFF789FC2946384608F081FEA7
:1035E0003946304605F0B4FF29464846F322FFF736
:1035F0006FFC04F58075112303AA02A94846ADF8B3
:103600000830ADF80C3009F05EFC49463046C4F88D
:10361000C05005F09DFF4046F4228C21FFF758FC76
:10362000122303AA02A94046ADF80830ADF80C30C9
:1036300009F049FC3046C4F8F450414605F088FFD3
:10364000204605B0BDE8F08FEC5B02086861020817
:10365000D45B0208AD340008D06102087047000056
:1036600030B5174D2C6814F001048FB0BFF35B8F99
:1036700022D128461FF029F8F0B13F230993114BBE
:103680000893114B07930123CDE9054304930423C9
:10369000CDE902430A230D49009314220C23CDE9FE
:1036A0000B440B480A940194FFF738FB09481FF0BC
:1036B00065FF28461FF015F805480FB030BD00BF64
:1036C000A85400208870020894700208446F020811
:1036D000AC5400205D3600087047000030B5164D30
:1036E0002C6814F001048FB0BFF35B8F21D1284602
:1036F0001EF0EBFFE8B13F230993104B0893104BEA
:10370000104911480A94CDE9064301220423CDE96A
:103710000332142300930222CDE90B44CDE9014486
:103720000594FFF7FBFA09481FF028FF28461EF012
:10373000D8FF05480FB030BDD85400208C70020867
:10374000987002085C700208DC540020D93600082A
:103750007047000030B5164D2C6814F001048FB08E
:10376000BFF35B8F20D128461EF0AFFFE0B13F23AF
:103770000993104B0893104B104911480A940122E9
:10378000CDE906430423CDE9033228230093CDE994
:103790000B44CDE901440594FFF7C0FA09481FF036
:1037A000EDFE28461EF09DFF05480FB030BD00BF5E
:1037B00008550020907002089C700208787002087A
:1037C0000C5500205137000800207047002070473A
:1037D0000EB403B503AB002153F8042B01930DF095
:1037E000EDF902B05DF804EB03B070470CB407B517
:1037F00004AB53F8042B01930DF0E0F903B05DF82E
:1038000004EB02B070470000436C10B5044673B37C
:10381000038F2BB9184B194AC52119481FF090FE88
:10382000C38E00EB43035B8C0BB30FF06AF8238F5E
:10383000012B03D8134B144ACB21EEE7E28E531C25
:103840009BB2092B194688BFA3F10A0104EB410181
:1038500040F63F10498C814209D10A2B04EB420209
:1038600028BF002304EB4303508C58845184204626
:10387000BDE810400EF048BF6F52020878520208AF
:10388000235302086D5302087B5302080EF003BF56
:1038900010B586B002AC84E806001A460AAB059360
:1038A0000193099B00932146089B0BF059FC06B03D
:1038B00010BD000038B518BB124B13481C681349E3
:1038C000B4B1226822440260626822440A60A2689D
:1038D00014440F4B00221A8000F038F8054600F01F
:1038E00033F80C4B1C600C4B1D600C4B188007E030
:1038F0000B4B03600B4B0B600B4B1C68002CE8D18F
:1039000038BD00BF445500203C55002038550020EC
:103910004055002018630120206301201C63012012
:10392000B4700208A0700208D0700208044B1B6833
:1039300053F82100034B1B6803EB4000704700BFA6
:10394000385500203C55002005207047004870473E
:103950004855002010B5FFF7C1FE044C2060FFF76A
:10396000F9FE6060FFF77CFEA06010BD48550020A6
:1039700010B5002404600C6014601C6010BD70471A
:1039800010B54FF4AE7104461EF09DFE204610BDEA
:1039900010B50446D0F8580100F013F82046BDE8F1
:1039A00010400CF005B9000010B50446FEF736FFD4
:1039B000014B2360204610BD205C020800220260FB
:1039C00070477047704704387047704710B5102132
:1039D00004461EF078FE204610BDA0F10400F5E775
:1039E00000228260024A026018324260C160704761
:1039F000745C0208704700000F4B70B5044603600A
:103A00004FF47355B5F5685F05D0635960191B68AD
:103A100098472C3DF6E743F6FC1540F26C66635977
:103A200060191B682C3D9847B542F8D12046FFF736
:103A3000E9F9204670BD00BF9C5C020810B5044641
:103A4000FFF7DAFF204643F618511EF03CFE2046F1
:103A500010BD0000002310B5C0E90133C0E90333F5
:103A6000C0E90733C0E905334FF480738384064B04
:103A700003600B88C384FF23044680F8283009F0D4
:103A8000DFFB204610BD00BFAC62020810B5044643
:103A900001F0DEF843F23903002818BF034683EA39
:103AA000433383EA534383EA4313C4F8903610BD8B
:103AB000D0F89026044943F2390301FB0233C0F8E1
:103AC0009036C3F30E4070476D4EC64108B5FFF700
:103AD000EFFF0723B0FBF3F3C3EBC303C01A08BD2A
:103AE00010B5034600F11004002283F8242683F861
:103AF000252683F8262683F827260433A342F4D10B
:103B00004939112930D8DFE801F050302F222F2F0A
:103B10003A2F2F2F15442F2F2F2F2F094BF6FF73DE
:103B2000C0F83436012380F8253680F8293680F82D
:103B30002A3617E0214BC0F83436012380F82936A5
:103B400080F82D3680F8263680F82A360CE04FF0C3
:103B5000FF13C0F8343640F20112012380F82A36F0
:103B6000A0F82C2680F82E3610BD4FF47F43C0F805
:103B7000343640F20113A0F828360123D7E74FF07E
:103B80008013C0F83436012380F8293680F82D36AA
:103B9000CDE74FF47F03C0F83436012380F8253693
:103BA00080F8293680F82D36CEE74FF6FF73C0F83F
:103BB00034364FF00133C0F82836D5E700FFFF0058
:103BC000F7B5044604F56856FFF7D8F9334B236080
:103BD00004F5D36528364FF6FF77284601A92C3522
:103BE000ADF80470FFF736FFAE42F6D104F5685524
:103BF00004F573562C352C364FF6FF77284601A96D
:103C00002C35ADF80470FFF725FFB542F6D12046FC
:103C1000FFF73CFF00214FF4707204F519701FF09C
:103C200096FE5022C4F86C26C4F87026042304F5CE
:103C30004052C4F860360023C4F86436C4F86836CD
:103C400084F87436C4F87836C4F87C36A4F8803624
:103C5000C4F88436C4F88836C2F8283AC2F8EC3C76
:103C6000012384F894362046FFF730FF0C4F04F20E
:103C70002466395C2046FFF733FF0FCE04F5C76595
:103C80000FC533682B602046FFF720FF395C84F8AE
:103C900082162046FFF724FF03B0F0BD9C5C0208AB
:103CA000E85C0208F0B500F2236500240A272E46DE
:103CB000002116F8013F93B1D0F86036D0F86426A1
:103CC0000B44092B224414D8162A12DC002A06DBE6
:103CD00007FB023300EB8303D3F864324BB90131A5
:103CE0000429E6D10134042C05F10405DFD10020BC
:103CF00000E00120F0BDF0B500F2236500240A27A2
:103D00002E46002116F8013F8BB1D0F864262244DC
:103D10000132162A15DC002A09DBD0F8603607FBD1
:103D200002330B4400EB8303D3F864324BB9013107
:103D30000429E7D10134042C05F10405E0D1002069
:103D400000E00120F0BDF0B5002100F223650A2754
:103D50002E46002216F8013F83B1D0F86036D0F825
:103D600064461344013B0C4412D4172C06D807FBBD
:103D7000043300EB8303D3F864324BB90132042AD5
:103D8000E8D10131042905F10405E1D1002000E06A
:103D90000120F0BDF0B5002100F223650A272E4670
:103DA000002216F8013F8BB1D0F86036D0F8644697
:103DB00013440133092B0C4412DC172C06D807FBE3
:103DC000043300EB8303D3F864324BB90132042A85
:103DD000E7D10131042905F10405E0D1002000E01C
:103DE0000120F0BDF0B5002100F223650A272E4620
:103DF000002216F8013F8BB1D0F864460C44172C12
:103E00000CD8D0F860361344092B9FBF07FB04334E
:103E100000EB8303D0F83446C3F864420132042A2D
:103E2000E7D10131042905F10405E0D1F0BDD0F856
:103E30006836C3F10A039B000A2BB8BF0A23C0F8F7
:103E40006C367047F8B504461725282700F5197613
:103E500007FB05F303F518722244002152F8040F02
:103E6000F0B101310A29F9D1234409E003F50E71BB
:103E70000022013251F8040F88620A2AF9D1283B46
:103E8000A342F3D12822002130461FF060FDD4F870
:103E900068360133C4F868362046FFF7C8FFD7E715
:103EA000013DD5D2F8BD30B585B06A4601F11004A8
:103EB00010460B461D7800F8015B5D78C5709D7853
:103EC000C571043313F8015CC572A342F2D1D378F3
:103ED0000B7093784B7053788B7012F8043BCB7057
:103EE0000431A142F3D105B030BD08B50BF0B6FDE9
:103EF000BDE80840FEF7F6BC70B590F87C66044655
:103F0000002E3FD1294D2B781BB10368DB6B9847FE
:103F10002E70274D2B782BB1236820461B6C9847B9
:103F200000232B70234D2B782BB1236820465B6C2C
:103F3000984700232B70204D23682A78EAB1052288
:103F40009B6BC4F86C262046984700232B70D4F84E
:103F50008436D4F86C2601339342C4F8843606DBE9
:103F600023682046DB6A98470023C4F88436236818
:103F700020461B6BBDE870401847D4F87036C4F873
:103F80006C36E4E7D0F888360133B3F5967FC0F895
:103F900088360ADB094BD0F868261968BDE87040FE
:103FA0008A42C8BF1A60FFF7A0BF70BD365200201A
:103FB0003552002034520020335200205455002046
:103FC0002DE9FF4100F540581646D8F8282AB2F5E9
:103FD000967F07460D4641DA2C214A4302F5D36409
:103FE00002444BF6FF71D2F898268B42126E0444BD
:103FF00001D1012303E020498B4204D11323ADF802
:104000000C3003A911E0B3F1FF1F01D10B23F6E738
:10401000B3F57F4F01D10323F1E7B3F1801F20D126
:104020000C23ADF80C300DEB03012046C6EBC606A1
:10403000C5EBC50590470E2372006900009312B2CC
:1040400009B22046FEF751FF214607F1F80005F0BE
:104050007FFAD8F8283A0133C8F8283A04B0BDE806
:10406000F081B3F57F0F01D10D23C8E74FF6FF7143
:104070008B42BED10223C2E700FFFF002DE9F04FC3
:10408000064600F5B87906F5405885B04846002543
:1040900005F06BFA06F2376AC8F8EC5CD3460027E5
:1040A0001BF8013F6BB3D8F8EC3C0F2B29DC2C221A
:1040B000534343F62C215C183344D6F848265B580A
:1040C0004BF6FF718A421B6E344401D1042203E097
:1040D00021498A4225D10A22ADF80C2003A92046A5
:1040E0009847092300932AB239B22046FEF7FDFE15
:1040F0002146484605F02CFAD8F8EC3C0133C8F8C4
:10410000EC3C0937BFB2242FCAD10935ADB2242DFA
:104110000AF1040AC2D1484605B0BDE8F04F0CF0E0
:1041200077BEB2F1FF1F01D10722D5E7B2F57F4F6D
:1041300001D10622D0E7B2F1801F01D10822CBE7DE
:10414000B2F57F0F01D10922C6E74FF6FF718A420F
:10415000BCD10522C0E700BF00FFFF002DE9F047FA
:10416000044600F1F80804F540574046002505F0E4
:10417000FCF904F51879C7F8285ACA4600265AF8F7
:10418000043F4BB1D7F8282AB2F5967F04DA2A46C5
:1041900031462046FFF714FF01360A2EEFD10135D4
:1041A000182D09F12809E8D104F223690026CA462E
:1041B00000251AF8013F9BB1D7F8283AB3F5967F4E
:1041C0000EDAD4F864263244172A09D8D4F86016D7
:1041D0002944092904D8D4F834362046FFF7F0FEE4
:1041E0000135042DE5D10136042E09F10409DED193
:1041F00004F57355303540460CF00AFED4F86836A5
:10420000114A0A2128460FF025F9C4F86C5104F52B
:1042100092700CF0FDFD04F574550C4B0A4A1B68B6
:1042200004350A2128460FF015F9C4F8605204F548
:1042300006700CF0EDFD94F87C3613B10023C4F841
:104240008836BDE8F08700BF4D5402085455002061
:1042500010B50446FEF7D7FD2046BDE81040FFF735
:104260007DBF0000F8B590F89436044663B300F2C1
:10427000246500F24C660FCD0FC62B6833602046D4
:10428000FFF724FC234B195C84F882162046FFF7C5
:1042900027FC04F2246CBCE80F0004F5C7670FC7C5
:1042A0002B683B6004F24C6CBCE80F0004F22467FE
:1042B0000FC733682B602046FFF7E0FE2046FFF76C
:1042C0004DFF002384F8943694F874360BB3D4F879
:1042D000783601331D2BC4F878361ADD0423C4F870
:1042E00060360023C4F8643684F87436C4F878362F
:1042F00004F5C7660FCE04F224650FC533682B6042
:104300002046FFF7CFFC012308B184F87C3684F8FF
:104310009436F8BDE85C02082DE9F043044685B008
:10432000FFF790FD94F87D366BB12046FFF7E3FC74
:10433000002840F08480D4F864360133C4F8643631
:10434000002384F87D3694F88136002B40F0898074
:1043500094F87E365BB12046FFF7F5FC20B9D4F81F
:104360006036013BC4F86036002384F87E3694F84A
:104370007F365BB12046FFF70DFD20B9D4F86036DB
:104380000133C4F86036002384F87F3694F8803611
:10439000002B51D06E46254604F1100832462346C4
:1043A00093F82416117093F82516517093F8261679
:1043B0009170043393F82316D170434502F104023F
:1043C000EED1204604F22461FFF76DFD2046FFF791
:1043D00069FC70B3D4F86076D4F864967B1EC4F898
:1043E00060362046FFF75EFC18B37B1CC4F86036CD
:1043F0002046FFF757FCE0B109F1FF33C4F86076BF
:10440000C4F864362046FFF74DFC90B1C4F86496BA
:10441000337885F82436737885F82536B37885F8AF
:104420002636F37885F827360435454506F1040627
:10443000EED1002384F8803605B0BDE8F083204635
:10444000FFF7D0FC012384F874360023C4F87836D3
:1044500076E7D4F864360133C4F864362046FFF7B3
:104460007DFE2046FFF747FC0028F2D02046FFF7EC
:10447000B9FC012384F874360023C4F8783684F834
:10448000813665E790F8743610B5044663B990F844
:104490007C364BB9012380F87D36FFF73DFF20467F
:1044A000BDE81040FFF75ABE10BD10B50123044609
:1044B00080F87D36FFF730FF2046BDE81040FFF75B
:1044C0004DBE10B50123044680F87E36FFF724FF69
:1044D0002046BDE81040FFF741BE10B50123044659
:1044E00080F87F36FFF718FF2046BDE81040FFF741
:1044F00035BE10B50123044680F88036FFF70CFF67
:104500002046BDE81040FFF729BE10B50123044640
:1045100080F88136FFF700FF2046BDE81040FFF726
:104520001DBE704704387047704710B5102104460F
:104530001EF0C9F8204610BDA0F10400F5E7000008
:1045400000228260024A026018324260C1607047F5
:10455000F85C02087047000010B5034B0360044686
:10456000FEF7ADFE204610BD205D020810B50446E2
:10457000FFF7F2FF2046DC211EF0A5F8204610BD13
:1045800010B50446FEF7D0FE014B2360204610BD57
:10459000205D020808B50BF061FABDE80840FEF79F
:1045A00071B90000044B1A78012A03D100221A7055
:1045B000FFF7F0BF704700BF3252002008B5FEF78A
:1045C0007FFE024B00221A7008BD00BF325200204D
:1045D000704704387047704710B5102104461EF02C
:1045E00072F8204610BDA0F10400F5E700228260B9
:1045F000024A026018324260C1607047545D02088E
:104600007047000010B5034B03600446FEF723FF1C
:10461000204610BD7C5D020810B50446FFF7F2FF8E
:1046200020464FF488711EF04EF8204610BD000061
:1046300010B50446FEF764FF014B2360204610BD11
:104640007C5D020808B50BF009FABDE80840FEF7EA
:1046500019B908B50BF002FABDE80840FEF732B907
:10466000084B1A78012A03D100221A70FFF7EABF1B
:10467000054B1A78012A03D100221A70FFF7E9BF0F
:10468000704700BF315200203052002008B5FEF7BD
:10469000E3FE034A00231370024A137008BD00BFF3
:1046A0003152002030520020F02070474FF4A070AB
:1046B00070472920FDF73ABB2820FDF737BB08B526
:1046C000FDF708FBCA20FDF731FBC320FDF712FB05
:1046D0000820FDF70FFB5020FDF70CFBCF20FDF766
:1046E00025FB0020FDF706FBC120FDF703FB302072
:1046F000FDF700FBED20FDF719FB6420FDF7FAFA4A
:104700000320FDF7F7FA1220FDF7F4FA8120FDF7F8
:10471000F1FAE820FDF70AFB8520FDF7EBFA00200F
:10472000FDF7E8FA7820FDF7E5FACB20FDF7FEFA71
:104730003920FDF7DFFA2C20FDF7DCFA0020FDF729
:10474000D9FA3420FDF7D6FA0220FDF7D3FAF72084
:10475000FDF7ECFA2020FDF7CDFAEA20FDF7E6FAA6
:104760000020FDF7C7FA0020FDF7C4FAB120FDF7DD
:10477000DDFA0020FDF7BEFA1B20FDF7BBFAB620DC
:10478000FDF7D4FA0A20FDF7B5FAA220FDF7B2FA38
:10479000C020FDF7CBFA1020FDF7ACFAC120FDF7E1
:1047A000C5FA1020FDF7A6FAC520FDF7BFFA45208F
:1047B000FDF7A0FA1520FDF79DFAC720FDF7B6FA20
:1047C0009020FDF797FA3620FDF7B0FAC820FDF7E4
:1047D00091FAF220FDF7AAFA0020FDF78BFAB0203B
:1047E000FDF7A4FAC220FDF785FAB620FDF79EFA80
:1047F0000A20FDF77FFAA720FDF77CFA2720FDF7B6
:1048000079FA0420FDF776FA2A20FDF78FFA0020C6
:10481000FDF770FA0020FDF76DFA0020FDF76AFA47
:10482000EF20FDF767FA2B20FDF780FA0020FDF757
:1048300061FA0020FDF75EFA0120FDF75BFA3F20E8
:10484000FDF758FAF620FDF771FA0120FDF752FA4C
:104850000020FDF74FFA0620FDF74CFA2C20FDF75B
:1048600065FAC820FDF7B0FA2620FDF75FFA0120AF
:10487000FDF740FAE020FDF759FA0F20FDF73AFA6C
:104880002920FDF737FA2420FDF734FA0C20FDF734
:1048900031FA0E20FDF72EFA0920FDF72BFA4E20F3
:1048A000FDF728FA7820FDF725FA3C20FDF722FADB
:1048B0000920FDF71FFA1320FDF71CFA0520FDF76C
:1048C00019FA1720FDF716FA1120FDF713FA002048
:1048D000FDF710FAE120FDF729FA0020FDF70AFAAA
:1048E0001620FDF707FA1B20FDF704FA0420FDF758
:1048F00001FA1120FDF7FEF90720FDF7FBF9312041
:10490000FDF7F8F93320FDF7F5F94220FDF7F2F94C
:104910000520FDF7EFF90C20FDF7ECF90A20FDF773
:10492000E9F92820FDF7E6F92F20FDF7E3F90F203C
:10493000FDF7E0F91120FDF7F9F9C820FDF744FA79
:104940002920FDF7F3F9BDE808402C20FDF7EEB96A
:1049500008B5FDF7BFF90321D320FDF703FA80B2B4
:1049600008BD10B5C4B2022203212046FDF768F944
:104970000A20FDF7ADF9204600220321FDF760F97A
:10498000BDE810400220FDF7A3B938B50446E4B2F3
:10499000FDF754F900212046FDF76AF9012105468B
:1049A0002046FDF765F940EA052080B238BD10B514
:1049B000C4B240212046FDF75BF9030607D54C2120
:1049C0002046FDF755F9003818BF012010BD01221F
:1049D0004B212046FDF734F9204600224B21FDF7FC
:1049E0002FF90020F2E773B50423C4B20E46154632
:1049F000D7210DEB03022046FDF754F9019B1BBAAA
:104A00001A0DC3F30B23328020462B8001224B2149
:104A1000FDF716F900224B212046FDF711F902B0EF
:104A200070BD000010B50A4A1378984204460DD0B4
:104A3000517888420AD00BB141B90123D454FDF713
:104A4000FDF82046BDE81040FFF78BBF10BD00BF4A
:104A50005855002010B5C4B209212046FDF708F9C9
:104A600040F00102D2B220460921BDE81040FDF716
:104A7000E7B810B5C4B209212046FDF7F9F80921BD
:104A800000F0FE022046BDE81040FDF7D9B838B569
:104A9000C4B20D4620460A21FDF7EAF840EA0502B5
:104AA000D2B220460A21BDE83840FDF7C9B810B59A
:104AB0000446FDF7C4F820461F21FFF7E8FF204613
:104AC000BDE81040FFF7C6BF38B5C4B20D4620465A
:104AD0000A21FDF7CDF820EA0502D2B220460A21CC
:104AE000BDE83840FDF7ACB810B50446FFF7C1FF8C
:104AF00020461F21BDE81040FFF7E6BF10B5C0B249
:104B00000C460B21FDF7B4F8204010BD1F21FFF724
:104B1000F5BF0A46C0B20B21FDF792B81F21FFF77F
:104B2000F8BF38B5C4B20D4620461721FDF7A0F8EE
:104B300020EA0502D2B220461721BDE83840FDF731
:104B40007FB870B5C4B2064604212046FDF790F840
:104B5000042100F0FB0205462046FDF771F83046BF
:104B6000F021FFF7DEFF05F0F80220460421FDF7F3
:104B700067F8492220212046FDF762F80220FDF760
:104B8000A7F8204601222121FDF75AF820469A2253
:104B90004121FDF755F8204601224A21FDF750F842
:104BA000204601224B21FDF74BF8204600224B21E5
:104BB000FDF746F8204601225621FDF741F8204630
:104BC00001225821FDF73CF8204601224021FDF743
:104BD00037F82046FF220B21FDF732F8BDE8704080
:104BE0000220FDF775B80000054BD3F8882042F489
:104BF0007002C3F888204FF000629A60704700BFCF
:104C000000ED00E008B50B4B1A6842F400721A6020
:104C10001A6842F480621A601A6842F480721A605C
:104C2000032000F02FF80020FDF746FBFDF7DAF82F
:104C3000002008BD003C0240034A044B11681B7869
:104C40000B441360704700BF5C55002078000020C3
:104C5000014B1868704700BF5C55002038B504460A
:104C6000FFF7F6FF631C1CBF054B1B78054618BFFA
:104C7000E418FFF7EDFF431BA342FAD338BD00BF92
:104C8000780000200749CA6822F4E0620302120497
:104C900003F4E063120C134343F0BF6343F40033A7
:104CA000CB60704700ED00E0164B30B5DC68C4F314
:104CB0000224C4F10703251D042B28BF0423062D5D
:104CC0004FF0FF358CBF033C002405FA03F321EAC3
:104CD0000303A54022EA0502A340002843EA020399
:104CE000ACBF00F16040084A4FEA0313B8BF00F0C0
:104CF0000F00DBB2AABF00F56140135480F8003307
:104D000030BD00BF00ED00E014ED00E0002807DB3F
:104D1000044A4109012300F01F00834042F821307A
:104D2000704700BF00E100E010B5044650B1437980
:104D300003F0FF0213B90271FDF774F801236371E8
:104D4000002010BD0120FCE710B5044620B390F808
:104D5000393003F0FF021BB980F83820FDF77AF8EC
:104D6000022384F83930236861681A6822F44032DB
:104D70000A431A605A6BA16822F007020A435A6379
:104D80001A6CE1686FF30D020A431A6400200123D4
:104D9000E06384F8393010BD0120FCE770477047AC
:104DA000036870B55E681D68F207044614D5E9050E
:104DB00012D51A6822F480721A60C26B42F00102A6
:104DC000C26301229A60042380F83930002380F8FE
:104DD0003830436903B19847B20616D5AB0414D5F1
:104DE00023681A6822F400521A6020229A60E36B4A
:104DF00043F00203E363042384F83930002384F88A
:104E0000383063690BB120469847300716D529051D
:104E100014D523681A6822F400621A6008229A6086
:104E2000E36B43F00403E363042384F83930002385
:104E300084F8383063690BB12046984772070BD568
:104E40006B0509D523681A6822F480621A6004226F
:104E50009A602046FFF7A2FFB00714D5A90512D526
:104E600023681A6822F400721A6002229A60E36BC7
:104E7000E363012384F83930002384F83830236950
:104E80000BB120469847F20613D5EB0411D52368E1
:104E90001A6822F480521A6010229A60E36BE3636E
:104EA000012384F83930002384F838302046FFF796
:104EB00076FF70BDF0B590F83820012A03464FF018
:104EC00002002BD0012283F8382083F8390003EB4D
:104ED0000112D2E90740556A174F44EA0040093CE5
:104EE000012C9CBF05F07F4210434FEA01161A685F
:104EF00088BF40EA056091B9516A39400143516267
:104F0000012C9969916103D8596A21F07F4191621E
:104F10000122002083F8392083F83800F0BDD169E0
:104F200039400143D1619919012C896911619CBFF4
:104F300025F07F451562EBE7F0FFFC002DE9F74F08
:104F4000DFF8BC916C4A00230D6801249C4004EA00
:104F50000506AC4340F0B7804D68032705F0030415
:104F60004FEA430807FA08FC671E012F6FEA0C0C92
:104F700034D8876807EA0C0ECF6807FA08F747EAC3
:104F80000E078760476827EA060EC5F300179F40A3
:104F900047EA0E074760C76807EA0C0E8F6807FAF2
:104FA00008F747EA0E07022CC76019D14FEAD30A67
:104FB00000EB8A0A03F0070BDAF820704FEA8B0B3C
:104FC0004FF00F0E0EFA0BFE27EA0E0E0F6907FACE
:104FD0000BF747EA0E07CAF8207001E0032CDAD17C
:104FE000076804FA08F407EA0C073C4315F4403F4D
:104FF000046068D000240194D9F8444044F480440B
:10500000C9F84440D9F8444023F0030707F180472A
:1050100004F4804407F59C37019403F0030C019CD1
:10502000D7F808E04FEA8C0C0F2404FA0CF42EEAAF
:10503000040E324CA0424DD004F58064A0424BD007
:1050400004F58064A04249D004F58064A04247D0B2
:1050500004F58064A04245D004F58064A04243D0AA
:1050600004F58064A04241D004F58064A0423FD0A2
:1050700004F58064A0423DD004F58064A04214BFD2
:105080000A24092404FA0CF444EA0E04BC6094686F
:10509000F74315F4801F0CBF3C4034439460D46840
:1050A00015F4001F0CBF3C403443D460546815F421
:1050B000003F0CBF3C40344354601468ED0354BFC0
:1050C0003C40344314600133102B7FF43DAF03B0F8
:1050D000BDE8F08F0024D5E70124D3E70224D1E70F
:1050E0000324CFE70424CDE70524CBE70624C9E752
:1050F0000724C7E70824C5E7003C01400000024040
:10510000003802400369194214BF01200020704793
:105110000AB1816170470904FBE7436901EA0302B0
:1051200021EA030141EA024181617047044A516961
:10513000014208B502D05061FCF748FD08BD00BF30
:10514000003C014001684B6913F480634FF000029A
:1051500010D06FF480634B612023026380F83D30F0
:1051600080F83E20036C80F83C2043F00403036485
:1051700001207047184670472DE9F84606460F464D
:1051800091461D464FEA114A3368BAF1010F0CBF30
:105190005C699C6927EA0404A4B2B4FA84F4640943
:1051A000A14501D0002025E06A1CEED0FFF750FD9C
:1051B000089BC01AA84201D8002DE5D13368BAF186
:1051C000010F0CBF5B699B6927EA03039BB2B3FA2B
:1051D00083F35B099945D7D100232022336386F8F6
:1051E0003D2086F83E30326C86F83C3042F020029A
:1051F00032640120BDE8F8862DE9F04104460F46EF
:10520000164698462568686927EA000080B2C0B152
:105210006B695A0517D52B6843F400732B606FF444
:1052200080636B6120220023236384F83D2084F88F
:105230003E30236C43F004032364002384F83C30A5
:105240000120BDE8F081731CDDD0FFF701FDA0EB6C
:105250000800B04201D8002ED4D123685A6927EA49
:10526000020292B2002ACDD000232022236384F8C8
:105270003D2084F83E30236C1343DDE770B50446CF
:105280000D46164623685B691B0601D500201EE00B
:105290002046FFF757FFC8B96A1CF3D0FFF7D8FCC8
:1052A000801BA84201D8002DECD123685B6913F064
:1052B0008003E7D12022236384F83D2084F83E3028
:1052C000226C84F83C3042F020022264012070BD40
:1052D0002DE9F0431546026885B0DDE90C78994662
:1052E000136843F4807313600E463B46CDF800808C
:1052F00000224FF001110446FFF73EFF236838B14A
:105300001B68DB0502D54FF400732364032620E0FD
:1053100006F0FE061E611A4943463A462046FFF74C
:105320006BFFA8B9236803905A6903929B690393A2
:10533000424639462046039BFFF7A0FF064660B170
:10534000236C042B01BF2268136843F400731360BD
:105350000126304605B0BDE8F083B9F1010F23689E
:1053600002D1EDB21D61F4E72A0A1A6139464246BC
:105370002046FFF783FF0028E2D12368F1E700BF52
:10538000020001002DE9FF479A46036815461A6896
:1053900042F480621A601A68DDE90C7842F4807287
:1053A0001A600E463B46CDF8008000224FF00111F6
:1053B0000446FFF7E1FE236838B11B68DB0544BFF4
:1053C0004FF400732364032021E05FFA86F906F0AE
:1053D000FE061E612B4943463A462046FFF70CFF66
:1053E000A0B9236803905A6903929B6903934246CC
:1053F00039462046039BFFF741FF58B1236C042B2D
:1054000001BF2268136843F400731360012004B0E5
:10541000BDE8F087BAF1010F23681AD1EDB2424618
:105420001D6139462046FFF729FF02460028E5D1D5
:1054300021680B6843F480730B602046CDF8008030
:105440003B464FF00111FFF797FE226860B11368E9
:10545000B4E72A0A1A61394642462046FFF70EFF92
:105460000028CBD12368D9E749F00103136105492E
:1054700043463A462046FFF7BFFE003818BF0120DA
:10548000C5E700BF0200010070B504460D46164690
:1054900023685B695B0701D500201EE02046FFF70B
:1054A00051FEC8B96A1CF3D0FFF7D2FB801BA8429B
:1054B00001D8002DECD123685B6913F00403E7D118
:1054C0002022236384F83D2084F83E30226C84F847
:1054D0003C3042F020022264012070BD70B50446C9
:1054E0000D46164621684B6913F0400301D0002099
:1054F00011E04A69D2060FD56FF010024A612022EE
:10550000236384F83D2084F83E30236C2364002319
:1055100084F83C30012070BDFFF79AFB801BA84245
:1055200001D8002DDED123685B6913F04003D9D187
:105530002022236384F83D2084F83E30236C1343FB
:10554000E4E7000070B5044608B9012070BD90F88A
:105550003D3003F0FF021BB980F83C20FCF79CFCB7
:10556000242384F83D3023681A6822F001021A606F
:105570001A6842F400421A601A6822F400421A6063
:1055800000F08AFE3F4B65689D4294BF3E4B3F4B07
:1055900098428CBF00230123002BD6D12268394EBC
:1055A00051683B4BB0FBF3F321F03F011943B54287
:1055B000516088BF4FF49676116A88BF734321F01B
:1055C0003F0184BF4FF47A76B3FBF6F301330B430C
:1055D0001362D169431E2B4821F44F41854221F0CB
:1055E000FF0132D86D0040F6FC70B3FBF5F30133D8
:1055F000034242D0C3F30B031943D161D4E907300E
:105600001168034321F0C0010B4313609168D4E992
:10561000030321F40341034321F0FF010B43936093
:10562000D4E90530D168034321F0FF010B43D36077
:10563000136843F00103136000202023206484F8E2
:105640003D30206384F83E0080E7A06850B905EB48
:105650004505B3FBF5F30133C3F30B037BB143F40F
:105660000043C9E719206843B3FBF0F30133C3F3E8
:105670000B0323B143F44043BEE70423BCE70123FB
:10568000BAE700BFA08601007F841E00FF083D002E
:1056900040420F002DE9F743044699460C9E0F4601
:1056A0009046FFF7D5FA94F83D30202B054603D0FD
:1056B000022003B0BDE8F08300903C491923012289
:1056C0002046FFF759FD0028F2D194F83C30012B19
:1056D000EED02068012384F83C300368D9075EBF10
:1056E000036843F001030360036823F4006303606D
:1056F000212384F83D30402384F83E300023236486
:105700000A9B6362BDF82C306385638D2385284B2B
:10571000E3624246CDE900654B4639462046FFF735
:10572000D7FD00282AD00120C3E7FFF7A7FD40B12D
:10573000236C042B01BF2268136843F400731360C9
:10574000F1E7636A27681A4612F8011B3961626241
:10575000628D218D013A92B262857A69481E80B2CB
:10576000520720850AD548B15A783A6102336362FC
:10577000638D013B02399BB221856385238D2A46C7
:1057800031462046002BD0D1FFF77EFE0028CFD136
:105790002268136843F400731360202384F83D30BB
:1057A00084F83C0084F83E0083E700BF020010004C
:1057B0000000FFFF2DE9F043044687B09946109F93
:1057C0000D469046FFF744FA94F83D30202B0646EC
:1057D00004D00225284607B0BDE8F08300907A493E
:1057E000192301222046FFF7C7FC0028F1D194F8C5
:1057F0003C30012BEDD02068012384F83C30036855
:10580000DB075EBF036843F001030360036823F412
:1058100000630360222384F83D30402384F83E3047
:10582000002323640E9B6362BDF83C306385638D67
:105830002385664BE3622946CDE900764B46424616
:105840002046FFF79FFD054608B10125C2E7228DDE
:105850002368B2B902905A6902929A690292029A36
:105860001A6842F400721A60DFF86481238D002BFD
:105870002CD1202284F83D2084F83C3084F83E303E
:10588000A8E7012A0AD11A6822F480621A600390FC
:105890005A6903929A690392039AE1E7022A0ED1A8
:1058A0001A6822F480621A601A6842F400621A6070
:1058B00004905A6904929B690493049BD4E7059071
:1058C0005A6905929B690593059BCDE7032B56D832
:1058D000012B15D1324639462046FFF7FFFD00283F
:1058E000B3D123681A69636A1A70636A0133636209
:1058F000238D013B2385638D013B9BB26385B5E717
:10590000022B00963B464FF000024146204619D13B
:10591000FFF732FC002898D123681A6842F400721D
:105920001A601A69636A1A70626A531C6362238D73
:10593000013B2385638D013B9BB2638523681B6913
:105940005370D2E7FFF718FC024600287FF47DAFC2
:105950002368196821F4806119601969636A1970F4
:10596000636A01336362238D013B2385638D013BB1
:105970009BB26385414600963B462046C8E73246C7
:1059800039462046FFF7AAFD00287FF45EAF236862
:105990001A69636A1A70628D616A013A92B24B1C8D
:1059A000628522686362238D5069013B9BB2400788
:1059B00023857FF55BAF032B02BF136823F480635D
:1059C000136013694B7090E7020010000000FFFFA6
:1059D0000400010010B590F83D30202BDCB216D148
:1059E000242380F83D3003681A6822F001021A600F
:1059F0005A6A22F010025A625A6A114359621A68AE
:105A000042F001021A6080F83D40002010BD0220E3
:105A1000FCE730B590F83D30202BDCB216D102689F
:105A2000242380F83D30136823F001031360556A86
:105A30004FF6F0732B400B439BB25362136843F055
:105A40000103136080F83D40002030BD0220FCE7D8
:105A50000068D20184328318F0B5C7685D684C686D
:105A60000E6805F470455D60C56806F1010CC5F36C
:105A70000B45C7F30B472744654445EA07455D607E
:105A8000C768CD68C7F30A072F449D6805F47045C1
:105A90009D60D0F80CC08D68CCF30A0C01356544CC
:105AA00045EA07459D601D69D1F810C08F6925F052
:105AB00007051D61C3F810C091F8305045EA07652D
:105AC00091F8317045EA072591F8327045EA0745AB
:105AD0009D615D6925F0FF055D614D695D61DD6971
