:020000040800F2
:10000000000003205D060008D9240008DB24000856
:10001000DD240008DF240008E124000800000000BF
:1000200000000000000000000000000081850008C2
:10003000E324000800000000118600089B7E0008F1
:10004000AD060008AD060008AD060008AD060008C4
:10005000AD060008AD060008AD060008AD060008B4
:10006000AD060008AD060008AD060008AD060008A4
:10007000AD060008AD060008AD060008AD06000894
:10008000AD060008AD060008AD060008AD06000884
:10009000AD060008AD060008AD060008AD06000874
:1000A000AD060008AD060008AD060008AD06000864
:1000B000AD060008AD060008AD060008AD06000854
:1000C000AD060008AD060008AD060008AD06000844
:1000D000AD060008AD060008AD060008AD06000834
:1000E000AD060008AD060008AD060008AD06000824
:1000F000AD060008AD060008AD060008AD06000814
:10010000AD060008AD060008AD060008AD06000803
:10011000AD060008AD060008E5240008F12400083B
:10012000AD060008AD060008AD060008AD060008E3
:10013000AD060008AD060008AD060008AD060008D3
:10014000AD060008AD060008AD060008AD060008C3
:10015000AD060008AD060008AD060008AD060008B3
:10016000AD060008AD060008AD060008AD060008A3
:10017000AD060008AD060008AD060008000000004E
:10018000AD060008AD060008AD060008AD06000883
:10019000AD060008AD060008AD060008AD06000873
:0C01A000FD240008AD0600080925000839
:1001B00010B5054C237833B9044B13B10448AFF3A1
:1001C00000800123237010BDC00300200000000048
:1001D000C851020808B5034B1BB103490348AFF3EC
:1001E000008008BD00000000C4030020C8510208C0
:1001F00001F0FF01102A2BDB10F0070F08D010F8D8
:10020000013B013A8B422DD010F0070F42B3F6D1DB
:10021000F0B441EA012141EA014122F007047FF0F4
:1002200000070023F0E80256083C85EA010586EA4B
:10023000010685FA47F5A3FA87F586FA47F6A5FA87
:1002400087F68EB9EED1F0BC01F0FF0102F0070293
:1002500032B110F8013B013A83EA010313B1F8D13E
:100260000020704701387047002D06BF354603381F
:10027000073815F0010F07D1013015F4807F02BF58
:10028000013015F4C03F0130F0BC0138704700BFA9
:100290007BB972B90029BEBF00204FF0004106E0D3
:1002A00008BF00281CBF6FF000414FF0FF3000F086
:1002B000D3B9ADF1080C6DE904CE002909DB002BA0
:1002C0001ADB00F04DF8DDF804E0DDE9022304B0AC
:1002D0007047404261EB4101002B1BDB00F040F80E
:1002E000DDF804E0DDE9022304B0404261EB4101A6
:1002F000524263EB43037047524263EB430300F007
:100300002FF8DDF804E0DDE9022304B0404261EBA0
:1003100041017047524263EB430300F021F8DDF8DE
:1003200004E0DDE9022304B0524263EB430370476B
:1003300053B94AB9002908BF00281CBF4FF0FF314C
:100340004FF0FF3000F088B9ADF1080C6DE904CE34
:1003500000F006F8DDF804E0DDE9022304B07047A0
:100360002DE9F047089D8E4604468846002B4AD169
:100370008A42174662D9B2FA82F64EB1C6F120031C
:1003800001FA06F820FA03F3B74043EA0808B4403C
:100390004FEA174E1FFA87FCB8FBFEF1230C0EFB49
:1003A000118843EA084301FB0CF29A4209D9FB1871
:1003B00001F1FF3080F0EA809A4240F2E780023992
:1003C0003B449A1AA3B2B2FBFEF00EFB102243EAA2
:1003D000024300FB0CFC9C4509D9FB1800F1FF32DD
:1003E00080F0D6809C4540F2D3803B44023840EAFE
:1003F0000140A3EB0C0300211DB1F3400022C5E92D
:100400000032BDE8F0878B4205D90DB1C5E9000186
:1004100000210846F5E7B3FA83F1002946D1734578
:1004200002D3824200F20581841A6EEB030201209E
:100430009046002DE5D0C5E90048E2E7002A00F02B
:100440009080B2FA82F6002E40F0A4808A1A030C43
:100450004FEA174E80B2BCB20121B2FBFEFC0EFB8C
:100460001C2243EA024304FB0CF29A4207D9FB1810
:100470000CF1FF3802D29A4200F2E080C4469B1A87
:10048000B3FBFEF20EFB123340EA034302FB04F41B
:100490009C4207D9FB1802F1FF3002D29C4200F2C5
:1004A000CA8002461B1B42EA0C40A5E7C1F12006A8
:1004B0008B4022FA06F71F430EFA01F420FA06F3E6
:1004C0002EFA06FE4FEA1749234300FA01F81FFAF5
:1004D00087FCBEFBF9F01C0C09FB10EE44EA0E444D
:1004E00000FB0CFEA64502FA01F209D93C1900F105
:1004F000FF3A80F09C80A64540F2998002383C4447
:10050000A4EB0E041FFA83FEB4FBF9F309FB1344BA
:100510004EEA044403FB0CFCA44508D93C1903F142
:10052000FF3E80F08280A4457FD9023B3C4443EAF1
:100530000040A4EB0C04A0FB02EC64457346E146CA
:1005400062D35FD05DB1B8EB030264EB090404FA37
:1005500006F622FA01F31E43CC40C5E900640021EF
:100560004FE7B1FBF2FC010C41EA0E4180B240EAD8
:1005700001423B4638463C46B846BE462026B1FBC3
:10058000F7F1A2EB080241EA0C4166E7014618E7E1
:1005900010462CE7C6F120022EFA02F3B740B14014
:1005A00020FA02F24FEA174E0A43B3FBFEF8BCB240
:1005B0000EFB1833110C41EA034108FB04F9B0406B
:1005C00089454FEA104380B23ED9791808F1FF3CC3
:1005D00001D289451FD8A1EB0901B1FBFEF909FB46
:1005E00004F80EFB191192B242EA0142424529D2A7
:1005F000BA1809F1FF31C4D24245C2D2A9F10201B1
:100600003A44BEE7F0459DD2BEEB02036CEB070C0B
:100610000138E14696E7A7EB09094944A8F1020C25
:10062000B1FBFEF909FB04F8DBE773467FE75046B0
:1006300066E70846FDE63B44023A33E7ACF1020CBC
:100640003B441CE749469CE7A1EB0901C446B1FBCA
:10065000FEF909FB04F8C4E7704700BFDFF834D0A7
:10066000002103E00C4B5B58435004310B480C4B0A
:1006700042189A42F6D30B4A02E0002342F8043BA8
:10068000094B9A42F9D304F07BFC24F02FF801F0D7
:10069000A9F8704700000320842707080000002005
:1006A000B4010020C0030020AC710120FEE77047B8
:1006B00008B500F0BFFDBDE8084000F041BD00F006
:1006C000BBBD704710B50421044622F0C4FD20468E
:1006D00010BD000038B50C4B0C4C18800C4B822020
:1006E00019806368984740F6110398420AD1094D72
:1006F00023682C60822098472B688220DB6898470B
:10070000002038BD0120FCE7E60300209C0000200B
:10071000E4030020E80300204FF4A071F020FFF76D
:10072000D9BF0000F7B5394D2B6804461B698220FC
:100730009847208000284ED02B680DF106025B6997
:1007400001A982209847324B1B78002B4BD0BDF873
:10075000062040F674639A423FD9ADF80630BDF8E2
:1007600006209B1A9BB20A2B42D90B22B3FBF2F351
:10077000284A1288934201D9013A93B2BDF8042065
:10078000254840F6B8318A4234D8C2F571620E323B
:10079000016892B20F25B2FBF5F2204D2D88AA42D6
:1007A00084BF05F1FF35AAB28A4215468EB22AD916
:1007B000921B91B21A4E3768BB42BAB28CBF9A1ADA
:1007C000D21A92B211440529C4BF05603360036890
:1007D00063803368A38003B0F0BDB32A9CBFB4220A
:1007E000ADF80620BBE7BDF80630A3F5B473B9E752
:1007F0000023C3E7C2F56D62083292B20E2A016887
:10080000C8D800252A46891A89B2D3E7E803002010
:1008100082520020E4030020E0030020E6030020D1
:10082000DC03002037B568460D461446FFF77AFF13
:10083000BDF8000030B1BDF802302B60BDF80430C7
:100840002360012003B030BD032821D8DFE800F089
:10085000020B12190F4B1A68B2FA82F252090421E4
:100860000D4804F0E9BF0B4B5A68B2FA82F2520904
:100870000821F5E7074B9A68B2FA82F25209102173
:10088000EEE7044BDA68B2FA82F252092021E7E778
:10089000704700BFEC03002000100240032821D85D
:1008A000DFE800F0020B12190F4B1A68003A18BF6C
:1008B000012204210D4804F0BFBF0B4B5A68003AD7
:1008C00018BF01220821F5E7074B9A68003A18BFC4
:1008D00001221021EEE7044BDA68003A18BF01222A
:1008E0002021E7E7704700BFEC0300200010024022
:1008F00003280DD8DFE800F00206080A04210548A5
:1009000004F09FBF0821FAE71021F8E72021F6E75D
:10091000704700BF0010024008B5032811D8DFE877
:1009200000F0020A0C0E0421074804F07FFF431E6A
:100930005842584108BD0821F6E71021F4E720216C
:10094000F2E70020F3E700BF0010024070B5084D49
:1009500000240126E0B2FFF7DFFF18B12B68012B5E
:1009600018BF2E600134052C05F10405F2D170BDCD
:10097000EC030020012380F8781080F8793070476C
:100980007047002070470000034B4164003918BFD6
:1009900001211970704700BF6B640120704700206F
:1009A0007047836B0BB10846184770474FF6FF70CE
:1009B0007047406803689B691847704770477047E5
:1009C0007047704710B5044600F04CFD236803499A
:1009D000D3F890302046BDE810401847000000D002
:1009E00008B503680446D3F8843098472368204646
:1009F000DB6F984700F0ECF8236820465B6F984760
:100A0000292001F0EFF900F0E3F8236820465B6F3E
:100A10009847F8E710B504460AF0CCFB2368204657
:100A2000D3F8BC30BDE81040184700F0FFBC00F020
:100A300003BD00F035BD00F0D5BC00F045BD00F0B1
:100A40004DBD00F0D9BC09F0E3BD10B584210446CA
:100A500022F001FC204610BD10B590F8341090F83B
:100A600078400C4B8C421A7809D03AB90A4A0B49A3
:100A70001488088810800C8001221A7010BD002A8A
:100A8000FCD0054A05491488088810800C80002293
:100A9000F3E700BF64640120606401206264012008
:100AA00070B50D46194635B9094B0A4A0A4840F255
:100AB000FF2123F00DFBC0E90F52084B003A18BF8D
:100AC00001221A700368BDE87040D3F890301847CF
:100AD000F8520208305302087E5302086A6401206B
:100AE00008B5094B1B888B4203D8084B1B889342DF
:100AF00005D9074B074A0848A32123F0E9FA074B19
:100B00001980074B1A8008BD6064012062640120CF
:100B1000C3530208265402087E530208666401206B
:100B200068640120034690F87A0018B15868036899
:100B30001B68184770470000012108B500220846CD
:100B400007F034FA0A4B186028B90A4B0A4A2821E0
:100B50000A4823F0BDFA00220421012007F0C5FA5B
:100B6000074B186018B9074B034A2C21F0E708BD62
:100B70000004002069540208B2540208E15402083B
:100B8000FC03002029550208024B4FF0FF31186882
:100B900007F056BA00040020014B186807F07CBA31
:100BA00000040020024B0021186807F049BA00BF7A
:100BB00000040020FFF7F0BF034804490068002349
:100BC0001A4607F0CDBA00BFFC0300200400002045
:100BD00013B5084C00231A4601A9206807F0F1FA62
:100BE00020684FF0FF33002201A907F0EAFA02B0B3
:100BF00010BD00BFFC03002003685B6C1847012098
:100C0000704703689B6A1847FEE740F2EF30704771
:100C1000054B0360054B4FF08062C3F88820BFF39B
:100C20004F8FBFF36F8F70470062020800E100E052
:100C300010B504464FF45A61FFF7EAFF204622F050
:100C40000AFB204610BD000082B0002301930E4B2A
:100C50001A6B42F400021A631A6B02F4000201924A
:100C6000019A1A6942F400021A611A6922F4000218
:100C70001A61064B064A1A61064A5A61064B4FF042
:100C800080629A6002B0704700380240F45400203D
:100C9000E90E0008090C000800E100E008B50A2888
:100CA00009D8DFE800F006100E0808080810101038
:100CB0001000022008BD054B054A0648902123F08C
:100CC00007FA0020F6E70120F4E700BF6B550208A1
:100CD00086550208D155020838B50C46887FFFF7C3
:100CE000DDFFA58AE28A164B2169586342EA054274
:100CF0005A64628BD963521B1A642568082D0ED181
:100D00009A611A615862207F0E4A42EA0062DA61F3
:100D1000E2681A620C4A5961D9601A6038BD002233
:100D2000D8611A61E1680A0A480902F4784200F4BD
:100D3000FC600243C1F3C4010A439A63034AECE72F
:100D400000B002400900010001230200012303005A
:100D500008B50B280BD8DFE800F00612100A0A0AC3
:100D60000A0808080808022008BD0520FCE7054B12
:100D7000054A06486F2123F0ABF90020F4E7012073
:100D8000F2E700BF6B55020817560208D15502085A
:100D90002DE9F04191F81D800C464046FFF7D8FF41
:100DA000A77F05463846FFF7D3FF06463846FFF7CC
:100DB00075FFA18A628B444B521A1A649A61228B86
:100DC000521A1A61E28A586342EA01425A6421695E
:100DD0006268D963DA602068802828D0227F0FD823
:100DE000202867D0402865D004281AD0364B45EA21
:100DF000026545F40035B845DD6161D0334A44E011
:100E0000B0F5807F04D0B0F5007FEFD1304800E02E
:100E1000304840EA0262DA61E2681A625E62596151
:100E200032E045EA026242F40032DA61F6E7A06895
:100E3000021DDA62227F45EA026545F40035DD6174
:100E40005E625961017841B1012921D0224B234AC8
:100E500023484FF48D7123F03BF9DA69418822F47D
:100E60007F42013922F0100242EA0122DA610121B7
:100E7000154BDA6942F02002DA61DA699206FCD495
:100E800010229A600029B9D0164A1A60BDE8F08194
:100E9000B2F1FF01DA69408822F47F4200F1FF30AD
:100EA00022F0100242EA002242F0100218BF012193
:100EB000DA61DDE745EA0262034B42F40032B4E74F
:100EC00042F20132E1E700BF00B00240012301001D
:100ED000090002000A000200615602087B5602085F
:100EE000D155020801230200024B1B6858680368B1
:100EF0005B6918476C64012070B5044625460A4BAF
:100F00000C30002660602672667245F8203B602235
:100F100029460AF0A5FA04F55A63EE6024359D428D
:100F2000FBD1204670BD00BF00620208034B1A6867
:100F3000D207FCD423229A60704700BF00B0024061
:100F40007047000030B50F4C2568ED07FCD4232511
:100F50000904A56041F001010225FF2B656361646E
:100F6000E0630AD00849656241EA0363E361074B25
:100F700022626061E060236030BDE561039BA36392
:100F8000034BF8E700B00240090001000100020035
:100F90000100030030B50E4C2568ED07FCD4232575
:100FA0001204A56042F001020225FF2B6563626412
:100FB000E063E16008D01B0643F00213E361054BD8
:100FC00065626061236030BD034BE3610123F9E793
:100FD00000B0024001000200020002FF30B50B4CDD
:100FE0002568ED07FCD4232512041B06A56043F4F5
:100FF0000033022542F0010265636264E063E16050
:10100000E361034B65626061236030BD00B0024064
:10101000010002000120704714207047142303FBD5
:10102000010008307047142303FB010008307047AB
:101030000120704743F62C50704743F62C5303FBB6
:1010400001000830704743F62C5303FB01000830C1
:101050007047012070471020704700EB01100830E6
:10106000704700EB011008307047084601F0CCBC17
:1010700010B5034B0360044609F01FF8204610BD6D
:10108000B862020810B50446FFF7F2FF20461C21A3
:1010900022F0E1F8204610BD10B5034B0360044672
:1010A00009F00BF8204610BD8462020810B5044612
:1010B000FFF7F2FF204643F6345122F0CCF82046E9
:1010C00010BD000010B5034B0360044608F0F5FFA7
:1010D000204610BD5062020810B50446FFF7F2FF2B
:1010E0002046182122F0B7F8204610BD10B5094B54
:1010F0000360044600F575502030FFF7B9FF04F196
:101100002C00FFF7C9FF04F11400FFF7DBFF2046B6
:1011100010BD00BFEC62020808B50248FFF7E6FF09
:1011200008BD00BFDC12002010B50446FFF7DEFF4B
:10113000204643F6DC6122F08EF8204610BD000008
:101140002DE9F34101F054FA054601F055FA002467
:101150000146234628462246009412F0E9FF274B19
:10116000274A1A60204602F057FC264D264B274A94
:1011700027489A6012F044FF2B68BFF35B8FDB07B0
:1011800035D4284622F069F888B3224C224B234FED
:10119000236004F5765604F1140004F12C08606015
:1011A000C4F80880E760266108F088FF1C4B636183
:1011B000404608F083FF1B4BE362384608F07EFF91
:1011C00004F5405303F67C50174AC3F8602D02F033
:1011D000A7FC2246311F304602F098FC304601F051
:1011E00013FC124822F092FF284622F042F81048E1
:1011F00002B0BDE8F041FFF7E5BB00BFD0640120BD
:1012000088040020D8120020A80400208C040020AC
:1012100008000020DC120020EC6202083C50002094
:101220005062020884620208B862020819110008BC
:1012300004040020704700000148FFF7D1BB00BF45
:101240000404002070B5264E264C274D274B236002
:101250003046FFF751FE284618F070F8244810F089
:1012600055FC244B2448DC6000224FF48071C3E914
:10127000121222491A86C3E91A12214983F858200A
:10128000C3E91E011F49C3F880101F491F480B60A6
:10129000F021C3E90422C3E90622C3E90822C3E915
:1012A0000A22C3E90E22C3E91022C3E91422C3E9CA
:1012B00017225A6683F870205A67C3E901650180D6
:1012C0001348018013484FF4A07101801248018037
:1012D00012490A70012283F83420114A1A6070BD45
:1012E00034050020D4120020A8040020E85202088F
:1012F0008C04002004040020000001010100000112
:10130000000450001A0014006C6401206064012085
:101310006664012062640120686401206464012025
:10132000146102080148FFF773BC00BF34050020B8
:101330000020704781807047C180704701817047ED
:10134000418170477047704770477047704710B4CD
:10135000C4880368121B84885B6D091B12B25DF898
:10136000044B09B218474FF6FF7383814FF0FF33E8
:1013700003621368C36110607047002070478B8858
:10138000838001207047704780F82610704790F8DE
:101390002600704710B50022B1F90840B1F90A10D3
:1013A000028042808480C18010BD00220280428081
:1013B0008280C28070470177704780ED080A7047CD
:1013C00080F82410704780F825107047012070477E
:1013D000983070478C307047843070477047704742
:1013E00070470000034B902283F85A2383F8582358
:1013F000704700BF00E100E0094A0A49D3680A4883
:10140000C3F30A03013B9BB20B801169C1F30A01CC
:10141000013901801364536B43F001035363704738
:1014200000680140BA510020B8510020014BD3F8A8
:10143000AC00704700680140024B0122C3F8AC10B9
:101440005A6270470068014010B52C21044621F013
:1014500002FF204610BD10B5BC21044621F0FBFE62
:10146000204610BD70B5044609F027F923689D6E2B
:101470000FF0BCF801462046A8472368054AD3F878
:101480008C502046AC460023BDE87040A2F51631D2
:10149000604700BF00B004D009F0F6B809F000B909
:1014A00009F0BCB809F02BBA90F8252012B10368F6
:1014B0005B691847704790F825201AB190F82420EE
:1014C00002B1186070470000034B4FF080629A60D1
:1014D0004FF080729A60704700E100E0084B4FF0D7
:1014E0008062C3F88820BFF34F8FBFF36F8F4FF038
:1014F0008072C3F88820BFF34F8FBFF36F8F7047A0
:1015000000E100E070B50023124E8380124B0360AF
:10151000336893F8582005460AB1D86C00B998682A
:101520000368DB6A98473368B0FA80F4D86C6409C2
:1015300030B10368DB6A9847002808BF44F0010413
:101540002CB9064B064A07482C2122F0C1FD28463B
:1015500070BD00BF6C64012000630208B956020828
:10156000175702085057020870B5254E3568BFF36B
:101570005B8F15F0010540D1304621F06EFE00284A
:101580003BD0204C204B256104F13400C4E90035E8
:10159000C4E90255E584A562A58510F09CFD04F11F
:1015A00058000BF011FC194BA3652046184B40F86E
:1015B000843BFFF7A7FF174BC4F884302433C4F8EB
:1015C0008C304FF4C803C4E928350023C4F8AC308C
:1015D000C4F8B030C4F8B430C4F8B8300E480F4B7B
:1015E000C4F89050C4F89C50C4F8A850C4F898307F
:1015F00022F08CFD304621F03CFE024870BD00BF59
:10160000BC510020C0510020CC6B020820630208AE
:1016100098630208806B0208E1130008606B0208FF
:1016200038B5184C23685BB3174B184A1B6C1188EC
:101630008B4216D1164B198804F0E8FE236893F804
:101640006A200025013283F86A2083F87C50FFF776
:10165000B3FA206809F0AEFD2846BDE83840FFF730
:10166000F3B804F0D3FE2468236820461B6A984729
:10167000012384F87C300020BDE83840FFF70EB924
:1016800038BD00BF6C64012000680140BA510020E1
:10169000B851002007B5064BADF806001B68054899
:1016A00001220DF1060105F061FC03B05DF804FBB9
:1016B0000C000020A053002008B5642006F06AFC4E
:1016C000FBE700002DE9F3411E4E1F4FDFF87C8041
:1016D000002500234FF4805130468DF8073004F088
:1016E000A5F8C0B941238DF807309DF8074064B1D3
:1016F000AC420BD000231A46D8F800000DF10701C8
:1017000006F02EFD9DF8073003B900240A2006F0EC
:1017100041FC2546DDE74FF40051304604F086F8E1
:1017200008B94223DFE74021384604F07FF808B9C2
:101730004523D8E78021384604F078F80028D4D132
:101740004323D0E700040240000C024084520020F2
:1017500030B595B0102200210AA822F0C0FE002169
:10176000142203A822F0BBFE00241C4B01941A6C27
:1017700042F080521A641B6C03F080530193019B6A
:10178000174B02941A6842F440421A601B6803F433
:1017900040430293029B01224FF48033CDE908239A
:1017A00002254FF48003B422CDE90E5308A8042388
:1017B000CDE91032CDE9125304F080FE04F044FE6E
:1017C0000F23CDE9033505214FF4A05303A8CDE93C
:1017D0000633059405F04EF815B030BD00380240D0
:1017E000007000402DE980489BB003F0D7FBFFF765
:1017F000AFFF142200210DA822F071FE0024C94B76
:1018000000941A6BC848DFF85C8342F010021A6338
:101810001A6B02F010020092009A01941A6B42F0C7
:1018200020021A631A6B02F020020192019A0294BC
:101830001A6B42F080021A631A6B02F08002029265
:10184000029A03941A6B42F004021A631A6B02F0B4
:1018500004020392039A04941A6B42F001021A6381
:101860001A6B02F001020492049A05941A6B42F07A
:1018700002021A631A6B02F002020592059A06949C
:101880001A6B42F040021A631A6B02F04002069291
:10189000069A07941A6B42F008021A631B6B03F056
:1018A0000803224607933C21079B03F0C5FF9F488E
:1018B0000122022103F0C0FF22469C48042103F0CC
:1018C000BBFF22469A484FF4405103F0B5FF012672
:1018D0003C23CDE90D3694480F9403230DA902272C
:1018E000109303F0BFFE91480DA9CDE90D76CDE927
:1018F0000F4403F0B7FE04238C480DA9CDE90D3643
:10190000CDE90F474FF4405503F0ACFE89480F96E0
:101910000DA9CDE90D5403F0A5FE85480DA9CDE92B
:101920000D56CDE90F4703F09DFE0DA9C023804859
:101930000F96CDE90D3403F095FE7F487F4B804D27
:10194000036003F0BDFBDFF820E27E4B2C62C5E9AB
:1019500000E328464FF48043C5E90434C5E9024456
:10196000C5E9064404F076F91021284604F0BAFBD4
:1019700021462846744D04F0D4FB4FF48273C5E928
:1019800000834FF400791823C5E9069328460A23FB
:10199000C5E90244C5E90444C5E90844AC62EB6208
:1019A00005F088FA8F232246394660488DF82430A6
:1019B0008DF8344003F040FF32464FF47A7309A9A2
:1019C000284605F0D3FA4FF47A7332460DA928461B
:1019D00005F078FC3246394654485C4D03F02CFF44
:1019E0009DF83430D32B04BF594B1E70594B012640
:1019F000C5E900364FF0100840230024C5E90483F0
:101A00004FF4C073C5E906344FF40063C5E90834E8
:101A10004FF400534FF002090427AB624FF0030B61
:101A200007230DA92846CDE90D93CDE90F734FF09B
:101A3000080AC5E90247CDE911B9CDF84C9005F087
:101A40001DF94FF6FF7209A92846CDE90AA60894A8
:101A500009960C9405F032F9304603F0CBFA4FF6B4
:101A6000FF7209A92846CDE9099ACDE90B6405F072
:101A700025F94FF6FF7209A92846CDE909BACDE943
:101A80000B7405F01BF94FF40C730893089B0C932F
:101A90004FF6FF7209A92846CDE9097A0B9605F0A1
:101AA0000DF940F26A51284605F026F93422214604
:101AB0000DEB020022F013FD274D284B2C61C5E9E8
:101AC00000340923C5E905361D23C5E9073B40F26B
:101AD0000D1240F24313C5E9092340F2171140F2F9
:101AE00047132846C5E90B13C5E90244AC8685F8BF
:101AF000364004F0A9FBFF21F022CDE912144FF487
:101B0000806005214FF4A073CDE91401CDE90E24C6
:101B10000DA9CDE9164228462246CDE91039104DCF
:101B2000189323E0003802400010024000080240F1
:101B3000000C0240000402403455002000300240F6
:101B4000A0540020A0860100A05300209452002041
:101B500082520020400100A0F8530020006801409C
:101B60007C52002000500140005C00400D94ADF814
:101B700064408DF8664004F01BFC494B2B601B68E9
:101B800098472B68474DDB689847474B2846C5E97F
:101B90000034C5E90294C5E90A49C5E90C4403F0DB
:101BA0009FFA3146284603F051FB404DDFF840C113
:101BB0002C614FF4E133C5E900C328460C23C5E985
:101BC0000534C5E90244EC6106F052F84FF0FF33EA
:101BD00037491122284606F07AF81C2221460DA822
:101BE000344DCDE9094422F07AFC334BAC604FF020
:101BF0005909C5E90039284640F6E103C5E903342F
:101C0000AC6105F0D5FD09A92846CDE9094405F0E8
:101C100031FF3A4660230DA92846CDE90D340F94D3
:101C2000119405F021FE284600F03AFB234D244B89
:101C3000AC60C5E90039284640F2E733EB60CDE9F6
:101C40000D44AC6105F088FD0DA92846CDE90D4491
:101C500005F010FFFEF72CFDFEF729FD06F02AF92E
:101C6000184A3146404606F040FA174B174A1860AA
:101C70002146174806F04AF9164B174A18602146C4
:101C8000164806F043F9164B164A186021461648C6
:101C900006F03CF9154B186006F01EF9FEE700BF90
:101CA00064000020F454002000B00240C85200201C
:101CB000B25702085853002000040040105300207F
:101CC00000140040DC630208845200203C640208D7
:101CD000B91600089052002018640208BF060008D8
:101CE0008C520020F4630208C516000888520020B8
:101CF00000100140704770477FB5094B8DF81720E1
:101D00001B6802930DF117020123009201930A460A
:101D10000146044804F046F807B05DF804FB00BF34
:101D200010000020A05400207FB500238DF817304C
:101D3000084B1B6802930A4601230DF1170100911D
:101D400001930146044804F0BDF89DF8170007B060
:101D50005DF804FB10000020A05400201FB5084CC3
:101D600024680092CDE901340A4601230146054862
:101D700004F0A8F8003818BF012004B010BD00BF5F
:101D800010000020A054002003F034B910B5064C18
:101D900000222046042103F04FFD20460122BDE829
:101DA0001040042103F048BD0008024038B50B4D37
:101DB000044601220A484FF4005103F03DFD002281
:101DC0000421284603F038FD2046FFF763FC28462F
:101DD0000122BDE83840042103F02EBD0008024076
:101DE000000C024038B50B4D044600220A484FF45F
:101DF000005103F021FD00220421284603F01CFDC0
:101E00002046FFF747FC28460122BDE83840042160
:101E100003F012BD00080240000C0240F7B5144E5A
:101E2000144F05460C4630460022042103F004FD01
:101E300000224FF40051384603F0FEFC2846FFF71D
:101E400029FC0D4B0D481B68224601A905F03AFA02
:101E5000384601224FF40051019C03F0EDFC30465E
:101E60000122042103F0E8FC204603B0F0BD00BFCE
:101E700000080240000C02400C000020A05300208B
:101E800003F0B8B80268034B9A4201D103F0A0B83E
:101E9000704700BF001000407047000082B00E4B3A
:101EA00000220092596C41F480415964596C01F44C
:101EB0008041009100990192196C41F080511964A0
:101EC0001B6C03F080530193019B0F216FF0010005
:101ED00002B003F0B5B800BF003802400268094BF9
:101EE0009A4282B00BD100230193074B1A6B42F444
:101EF00080521A631B6B03F480530193019B02B061
:101F0000704700BF003002400038024007B50F4B59
:101F100002689A4216D10022A3F5F0430192196B90
:101F200041F4000119631B6B03F4000301930521C5
:101F30005A20019B03F084F85A2003B05DF804EBAB
:101F400003F0B0B803B05DF804FB00BF00B002407E
:101F50002DE9F043044689B01422002103A822F0A1
:101F6000BEFA2268244B9A4243D1244C24480025CF
:101F70000095236B43F004032363236B03F00403F6
:101F80000093009B0195236B43F001032363236BB4
:101F900003F001030193019B4FF012094FF400730A
:101FA0004FF001080327042603A9CDE90339CDE941
:101FB0000587079603F056FB4FF480731148079688
:101FC00003A9CDE90339CDE9058703F04BFB029561
:101FD000236C43F400032364236C03F40003029393
:101FE000029B236A43F400032362236A23F4000361
:101FF000236209B0BDE8F083005C00400038024075
:102000000008024000000240F0B599B004461422D6
:10201000002107A822F063FA30220DEB0200002114
:1020200022F05DFA22685E4B9A4240F0B7800823A6
:102030000C93C0231093042312930CA84FF4003385
:10204000159304F0EFFC08B1FFF726FF554B5648F7
:10205000002400945A6C42F080625A645A6C02F078
:1020600080620092009A01941A6B42F020021A6377
:102070001A6B02F020020192019A02941A6B42F04C
:1020800001021A631A6B02F001020292029A03948F
:102090001A6B42F002021A631A6B02F002020392F8
:1020A000039A04941A6B42F040021A631A6B02F00E
:1020B00040020492049A05941A6B42F004021A63D7
:1020C0001A6B02F004020592059A06941A6B42F00C
:1020D00008021A631B6B03F00803069302250E2601
:1020E000069B0B964FF4806307A9CDE90735CDE930
:1020F000094503F0B7FA41F658032C480B9607A997
:10210000CDE907350927CDE9094503F0ABFA0323EB
:1021100027480B9707A9CDE90735CDE9094503F015
:10212000A1FA4FF4706322480B9607A9CDE9073551
:10213000CDE9094503F096FA4FF40C631D480B9660
:1021400007A9CDE90735CDE9094503F08BFAC0238E
:1021500019480B9607A9CDE90735CDE9094503F0E4
:1021600081FA082315480B9607A9CDE90735CDE973
:10217000094503F077FA4FF4A0530E480B9707A9CF
:10218000CDE90735CDE9094503F06CFA5820224620
:10219000052102F055FF582002F084FF19B0F0BD70
:1021A0000068014000380240001402400000024074
:1021B000000402400018024000080240000C0240E7
:1021C00010B5044688B01422002103A822F087F934
:1021D0002268144B9A4223D103F5684300210191F0
:1021E0005A6C114842F480125A645A6C02F48012FC
:1021F0000192019A02911A6B42F020021A631B6B42
:1022000003F020030293029B4FF460720223032128
:10221000CDE903230523CDE9061303A903F022FA30
:1022200008B010BD00500140001402400268094B84
:102230009A4282B00BD100230193074B1A6C42F0F3
:1022400002021A641B6C03F002030193019B02B0AB
:10225000704700BF000400400038024007B50F4B34
:1022600002689A4216D1002203F509330192196CD3
:1022700041F0200119641B6C03F020030193052138
:102280003720019B02F0DCFE372003B05DF804EB41
:1022900002F008BF03B05DF804FB00BF001400406B
:1022A00010B5044686B01422002101A822F017F9C7
:1022B00022680D4B9A4214D1002300930B4B0C481B
:1022C0001A6B42F001021A631B6B03F001030093C7
:1022D000009B8022022301A9CDE90123059303F08D
:1022E000C1F906B010BD00BF000400400038024034
:1022F0000000024010B5044688B01422002103A853
:1023000022F0EDF82268144B9A4223D103F594335E
:10231000002101915A6C114842F010025A645A6C23
:1023200002F010020192019A02911A6B42F001022E
:102330001A631B6B03F001030293029B4FF4C0620C
:1023400002230321CDE903230723CDE9061303A9C3
:1023500003F088F908B010BD0010014000000240F1
:102360002DE9F04186B0002303932B4B1C68002C11
:102370004FD14FF00108C3F80080284B00949A6BAE
:10238000274842EA08029A639B6B03EA080300931A
:10239000022703260C25009B01A94FF63F03CDE938
:1023A0000137CDE9046503F05DF91E48059501A9E3
:1023B000CDE90187CDE9034603F054F948F2331320
:1023C0001948059501A9CDE90137CDE9034603F088
:1023D00049F94FF683731548059501A9CDE90137F1
:1023E000CDE9034603F03EF94CF20373104805951E
:1023F00001A9CDE90137CDE9034603F033F96023A4
:102400000C48059501A9CDE90137CDE9034603F054
:1024100029F906B0BDE8F0813C55002000380240A3
:102420000014024000080240001802400010024060
:10243000000C02400004024070B588B000230293F3
:10244000204B1A6C42F010021A641B6C03F010034C
:102450000293054601A903A8029B04F0C5FA069B56
:102460004BBB04F0A1FA184E184B336040F2E7332F
:10247000F360174BB0FBF3F3013B7360304600236E
:102480003361B360B36105F067F9044680B9304643
:1024900005F03CF8044658B9362002F003FE0F2D33
:1024A0000DD822462946362002F0CAFD094B1D6090
:1024B000204608B070BD04F077FA4000D3E701244D
:1024C000F6E700BF003802404055002000100040F1
:1024D00040420F00CC0000207047FEE7FEE7FEE719
:1024E000FEE77047014805F04FB800BF4055002097
:1024F000014805F049B800BF10530020014803F01F
:10250000FABE00BFF8530020014802F015BE00BF1C
:10251000F45400200120704708B522F0E1F816239A
:1025200003604FF0FF3008BD08B522F0D9F816233C
:102530000360FEE770B50D4614460E46731B9C42C1
:1025400001DC204670BDAFF3008006F8010BF5E713
:1025500070B50D4614460E46731B9C4201DC2046A6
:1025600070BD16F8010BAFF30080F5E74FF0FF30B8
:1025700070474FF400534B600020704701207047B4
:10258000002070470A4A116808B5034609B909498D
:1025900011601068694603448B4206D922F0A0F806
:1025A0000C2303604FF0FF3008BD1360FCE700BF51
:1025B00088550020B0710120704710B504210446F1
:1025C00020F049FE204610BD012908B506D0022999
:1025D00008D059B901F06CFA006808BD01F068FA3A
:1025E0004068FAE701F064FA8068F6E70020F4E753
:1025F00000487047746402081420704713B5002423
:1026000051B1036801948DF8034001AA9C680DF153
:102610000303A04702B010BD0846FBE7C08970471E
:10262000008A7047C088704780887047807A00F0C1
:102630007F007047807AC009704700207047000013
:102640009FED010A704700BF00000000704710B501
:102650000821044620F0FFFD204610BD704770475A
:1026600000F598730868496803C37047704770475E
:102670004160704770477047064BC0F84C310023EB
:10268000C0F8503100F5A273C0F84801C0F84031DD
:10269000704700BFD52700080123037270477047B9
:1026A000704770477047704710B4C2684168541053
:1026B000034601EB6200D20748BF0A599B685DF8E8
:1026C000044B48BFD35818470346406830B19A6856
:1026D0001AB9D86800F0010070470120704710B5A2
:1026E0001421044620F0B7FD204610BD10B50C2182
:1026F000044620F0B0FD204610BD10B51021044660
:1027000020F0A9FD204610BD10B54FF4AE7104466F
:1027100020F0A1FD204610BD10B50DF067FF036845
:10272000BDE81040DB6B184770B50446B2B01E49D7
:10273000C02202A822F001F8237C2F2B03D9012309
:10274000237232B070BD33B9184B1B781BB10DF03A
:102750004DFF0DF051FF0225237C302BF1D832AA1A
:1027600002EB8303E68953F8C03C608993FBF6F2E1
:1027700006FB123313FB00F3ADF804006068A18977
:10278000ADF800300368ADF8061012FB01F21B69CA
:10279000ADF8022069469847237C012D03F101031F
:1027A0002374CED00125D7E7E05102086A640120E6
:1027B00010B50446D0F8400158B10368DB6898476B
:1027C00038B1D4F8400103689B6898470023C4F8E7
:1027D000403110BD2DE9F14FD0E9556A0746B06888
:1027E00003681B6A9847DB2805D8444B444AA32159
:1027F000444821F06DFC706803681B6A98470F28F5
:1028000003D8414B3E4AA421F2E7F06803681B6AF3
:1028100098470B2803D83D4B394AA521E8E70DF02E
:10282000E5FEDFF8F09004300DF02DFFD9F8000040
:1028300010B10368DB689847D9F8000010B103684D
:102840001B689847DFF8D080D8F8000010B1036803
:102850005B699847D7F83C0110B103685B689847FB
:10286000D8F8000010B103681B689847D7F83C01FE
:1028700010B103689B689847F068036800215B6AA1
:1028800098474FF0000B224BC0F804B0044680F884
:1028900008B00360B068036859465B6A984705460C
:1028A00001F0F6FF7068036859465B6A984729464D
:1028B000064601F0A3FF331DC7F83C61C9F800408C
:1028C000C8F80050CAF800302B68C6F808A028469F
:1028D000DB68EE639847336830461B6898472146AB
:1028E000284610F07DF8236820461B699847236826
:1028F0005B69204601B0BDE8F04F1847EF5702086A
:102900007D5802084F59020896590208395A0208A0
:1029100088660208B4640120B0640120044B1B687F
:1029200093F858200AB1D86C00B99868704700BF76
:102930006C64012000230F4A436003720260037439
:102940000D4A0E4B12881B8893420BD90733062180
:102950000532DB08B2FBF1F2082192B24381828199
:10296000C1817047073205330621D208B3FBF1F36A
:102970009BB2F3E7AC660208626401206064012048
:10298000F8B5174604460E460DF01AFF124B1C60B0
:10299000124B2360124B0025C4E95135114BC4E999
:1029A00053551868036801219B68C4E94F55C4E971
:1029B00055769847284601F02FF8FFF7AFFF18F03B
:1029C00066FBFFF7ABFF18F0DDFBFFF7A7FF18F082
:1029D000E5FB2046F8BD00BFC06401203466020854
:1029E0001C6602086C640120064BC0F84C310023C1
:1029F000C0F8503100F5A273C0F84801C0F840316A
:102A0000704700BFDD2C0008064BC0F84C31002396
:102A1000C0F8503100F5A273C0F84801C0F8403149
:102A2000704700BFD5270008064BC0F84C31002383
:102A3000C0F8503100F5A273C0F84801C0F8403129
:102A4000704700BFA92B0008064BC0F84C3100238B
:102A5000C0F8503100F5A273C0F84801C0F8403109
:102A6000704700BF712A000803685B6A18470000BE
:102A70002DE9F047D0E9556A0746B06803681B6A3C
:102A80009847B0F5887F05D2404B414AA321414881
:102A900021F01EFB706803681B6A98470F2803D853
:102AA0003D4B3B4AA421F2E7F06803681B6A984754
:102AB000132803D8394B364AA521E8E70DF096FDD7
:102AC000DFF8DC9004300DF0DEFDD9F8000010B125
:102AD0000368DB689847D9F8000010B103681B68E9
:102AE0009847DFF8C080D8F8000010B103685B6930
:102AF0009847D7F83C0110B103685B689847D8F84D
:102B0000000010B103681B689847D7F83C0110B16A
:102B100003689B6898470021F068FFF7A5FF04460B
:102B2000FFF708FFB068036800215B6A9847054615
:102B300001F042FF7068036800215B6A98472946EC
:102B4000064601F017FF331DC7F83C61C9F8004085
:102B5000C8F80050CAF800302B68C6F808A028460C
:102B6000DB68EE639847336830461B689847214618
:102B700028460FF035FF236820461B6998472368D5
:102B800020465B69BDE8F047184700BFEF570208D1
:102B9000DC5A02084F59020896590208395A0208AD
:102BA000B4640120B06401202DE9F047D0E9556AF2
:102BB0000746B06803681B6A9847DB2805D8404B76
:102BC000404AA321404821F083FA706803681B6AD9
:102BD00098470F2803D83D4B3A4AA421F2E7F06802
:102BE00003681B6A9847132803D8394B354AA52137
:102BF000E8E70DF0FBFCDFF8DC9004300DF043FD5E
:102C0000D9F8000010B10368DB689847D9F80000D4
:102C100010B103681B689847DFF8BC80D8F8000043
:102C200010B103685B699847D7F83C0110B103689D
:102C30005B689847D8F8000010B103681B68984794
:102C4000D7F83C0110B103689B6898470021F068F1
:102C5000FFF70AFF0446FFF76DFEB0680368002126
:102C60005B6A9847054601F013FE7068036800210F
:102C70005B6A98472946064601F0C0FD331DC7F838
:102C80003C61C9F80040C8F80050CAF800302B6811
:102C9000C6F808A02846DB68EE63984733683046DC
:102CA0001B689847214628460FF09AFE2368204665
:102CB0001B699847236820465B69BDE8F0471847C1
:102CC000EF570208B15B02084F59020896590208F3
:102CD000395A0208B4640120B06401202DE9F0479C
:102CE000D0E9556A0746B06803681B6A984743F6FF
:102CF0002B53984205D8404B404AA321404821F02D
:102D0000E7F9706803681B6A98470F2803D83D4BA2
:102D10003A4AA421F2E7F06803681B6A984713282F
:102D200003D8394B354AA521E8E70DF05FFCDFF801
:102D3000DC9004300DF0A7FCD9F8000010B1036856
:102D4000DB689847D9F8000010B103681B68984702
:102D5000DFF8BC80D8F8000010B103685B699847C1
:102D6000D7F83C0110B103685B689847D8F80000B9
:102D700010B103681B689847D7F83C0110B103688D
:102D80009B6898470021F068FFF76EFE0446FFF746
:102D9000D1FDB068036800215B6A9847054600F0E2
:102DA000F3FF7068036800215B6A9847294606466E
:102DB00000F0C8FE331DC7F83C61C9F80040C8F8F0
:102DC0000050CAF800302B68C6F808A02846DB6817
:102DD000EE639847336830461B689847214628467B
:102DE0000FF0FEFD236820461B69984723682046A4
:102DF0005B69BDE8F0471847EF570208865C020898
:102E00004F59020896590208395A0208B464012041
:102E1000B0640120406A7047806A704770478A88B2
:102E20000B8810B5D20A4C88C1699BB251F82200B8
:102E300043EA0443184410BD10B50446BAB1107BF0
:102E400068B1537BD27A1B0203F4E0631A43236A0E
:102E500003EB82031A888A4202D193F9020010BD63
:102E600005D8013880B204330028F3D1F7E70020F9
:102E7000F5E710B52C21044620F0EDF9204610BDF1
:102E800030B58BB00446BDF860500895BDF85C5075
:102E900007959DF8505006959DF84C5005959DF866
:102EA000485004959DF8445003959DF84050029574
:102EB0009DF83C500195BDF8385000950FF0C8F9C9
:102EC000064B2360159BE361169B2362199B63628B
:102ED0001A9BA36220460BB030BD00BFD06602082B
:102EE0007047704770477047704730B5036885B0CA
:102EF0006D460181D3F88430014604462846984740
:102F000095E807003C3484E8070005B030BD30B5D3
:102F1000036885B06D464181D3F88430014604468C
:102F20002846984795E807003C3484E8070005B038
:102F300030BD0022028042808280C280704780F8CB
:102F40003610704770B5036804461B6B15469847EA
:102F50002368294620465B6EBDE870401847002074
:102F60007047806C704770477047704710B54C21B0
:102F7000044620F070F9204610BD10B54FF41971C9
:102F8000044620F068F9204610BD08B5FEF78CFA1B
:102F900008BD0000036870B55E6B124B1B680446E9
:102FA0008DB22BB9104B114A6C21114821F090F8C9
:102FB0001049828D0988914203D80F4B0B4A6D212D
:102FC000F3E713F812200D4B1B6853F82200036837
:102FD0001B6B9847291A3346204609B2BDE870405A
:102FE000184700BFC46401205B5D02089D5D0208B4
:102FF000D85D0208C86401201F5E0208CC6401206D
:1030000000224FF0FF31C0E90021826070470000CC
:10301000074A02600022C0E90122C0E90322C0E998
:103020000522C0E907224FF480728284704700BFF6
:103030001870020870B5036804461B6B1546984764
:103040002368294620465B6BBDE87040184770B581
:1030500004461D46BDF91060FFF7ECFF23682946C2
:1030600020469B6B9847236831462046DB6BBDE8C2
:103070007040184710B526220446002121F02FFA8F
:103080002046FFF7C5FF044B2360FF2384F826305A
:103090000023A362204610BD046E020810B526224C
:1030A0000446002121F01BFA2046FFF7B1FF0A4B2E
:1030B00023600A4BA3624FF6FF73A3854FF47F0290
:1030C0000023C4E90C3223874FF0FF32C4E91023F8
:1030D000E363204610BD00BF746D02080C66020851
:1030E0002DE9F04F04468FB0A04600250FF0CCFA32
:1030F000BA4BE56348F8403B04F16C074046FFF7E4
:10310000B9FF04F198060CA94FF6FF733846DFF8B3
:1031100004B3ADF8303004F1C40A09F0EFFE3046D4
:10312000FFF776FFC4F898B0C4F8C0505046FFF7D8
:10313000A1FFAB4AC4F8C42004F1F803184604F513
:103140009279C4F8F050A4F8F4500793FFF760FFA9
:10315000C4F8F8B0C4F820514846FFF79FFFA14BD0
:10316000C4F8243104F5B8731846C4F86C510693BA
:10317000FFF74EFF04F5CE73C4F870B11846C4F8DB
:1031800098510593FFF776FF954AC4F89C2104F502
:10319000E8731846C4F8C851A4F8CC510493FFF75B
:1031A0007DFF04F5067318460393FFF777FF8D4BF9
:1031B000C4F818324FF4A0732A464046C4F860524F
:1031C00029460093F023FFF742FF04F1040B4FF070
:1031D0007F43A3664146584606F084FF38460CA953
:1031E000ADF830500AF0F4FD4FF4A0732A4638468B
:1031F00000932946F023FFF72AFF3846294609F0B5
:1032000038FE394658464FF4877706F06BFF304654
:103210008C23252212210097FFF719FF2A468C23C1
:10322000294650460097FFF712FF6F496F4BDFF8B2
:10323000E881C4E93B134FF001033046A4F8F430B1
:10324000514606F04FFF4FF4A2736FF03502079816
:10325000009329468C23FFF7FAFE3046079906F0C3
:1032600041FF3146584606F03DFF1F22D92148460E
:10327000FFF7E0FE5E4BC4F85431D4F82431A4F8D3
:10328000585108AED3F8843049463046984796E8FE
:10329000070004F5B07383E80700D8F800302BB9B5
:1032A000544B554A6021554820F012FF544B1B885F
:1032B0001BB9544B504A6121F5E7DFF860A1524F2A
:1032C000DAF80000294600F0E3FBC4F86C01484638
:1032D0000AF046FB042348460CA9ADF834300C979D
:1032E0000AF05EFB4946584606F0FCFE2423009394
:1032F0003D220698BB21FFF7AAFE0699584606F024
:10330000F1FE2D23059800936C223A23B021FFF79C
:103310009EFE3E4B344A05994FF00209C4E97123E1
:103320005846A4F8CC9106F0DDFE77220498B5212A
:10333000FFF780FE2D4B0499C4F800323046A4F804
:1033400004520AF085F896E8070004F5037383E851
:10335000070003230498ADF834300CA90C970AF049
:103360001FFB0499584606F0BDFE85220398CA212A
:10337000FFF760FE264BC4F84832D4F818320399A0
:10338000D3F88430A4F84C523046984796E80700AA
:1033900004F5157383E80700D8F80030002B3FF4DC
:1033A0007FAF174B1B88012B83D90121DAF800006E
:1033B00000F06EFBC4F8600203980AF0D1FA03989B
:1033C0000C970CA9ADF834900AF0EAFA5846039924
:1033D00006F088FE20460FB0BDE8F08FC8670208EF
:1033E000E06E0208386702082A2730FF30A8F0FF95
:1033F0002E97D6FF5B5D02085D5E0208D85D02086D
:10340000C86401201F5E02080C660208181308FF3A
:103410002F9BDDFFA06A0208C4640120D064012054
:1034200070477047704730B4C2684468551003460F
:1034300004EB6200D20748BF62599B6830BC48BFAA
:10344000D35818470346406830B19A681AB9D8680B
:1034500000F0010070470120704710B510210446AC
:103460001FF0F9FE204610BD10B5DC2104461FF008
:10347000F2FE204610BD9830884208B505D10DF007
:10348000B5F8BDE80840FFF7AFBA08BD2DE9FF4722
:1034900004460FF0F9F8434B2360434B0025C4E981
:1034A00010354FF4807304F16C06A4F86430FF23E8
:1034B0004FF6FF7784F8663003A9C4E91255C4E9D2
:1034C0001455C4E91655E5632566A5663046ADF882
:1034D0000C7009F013FD40F20113A4F8BC30334B1B
:1034E000C4F89830324BA4F8C670C4E93334314B79
:1034F000A4F8C87004F1400A4FF4A0792A46C4E940
:10350000353584F8CA70C4E92755C4E92955C4E99A
:103510002B55C4E92D55C4F8C05084F8C450294631
:103520005046CDF80090F023FFF791FD271D4FF096
:103530007F43A3665146384606F0D4FD0E2303A907
:103540003046ADF80C300AF043FCF0232A462946F9
:103550003046CDF80090FFF77AFD2946304609F055
:1035600088FC04F198083146384606F0BBFD404619
:10357000FC223C21FFF75EFD0F2303AA02A940466F
:10358000ADF80830ADF80C300AF065FA04F1CC0360
:103590003846C4F8C030414606F0A4FD204604B0C9
:1035A000BDE8F08714680208046E02086C6E020819
:1035B000FC6702087734000870477047704730B4E2
:1035C000C26844685510034604EB6200D20748BF46
:1035D00062599B6830BC48BFD358184703464068BF
:1035E00030B19A681AB9D86800F00100704701201C
:1035F000704710B5102104461FF02DFE204610BD67
:1036000010B54FF4887104461FF025FE204610BD0A
:1036100038B500F1CC03994204460D4603D10CF0B5
:10362000E5FFFFF701FA9834A54205D10CF0DEFF63
:10363000BDE83840FFF7D8B938BD0000084A02603D
:103640000022C0E90122C0E90322C0E90522C0E945
:103650000722826280F82C2040F201128284704797
:10366000906C02082DE9F04F044685B00FF00CF87D
:103670004E4B23604E4BDFF844B1002504F16C073C
:10368000C4E910354FF0FF0A4FF480734FF6FF7610
:10369000A4F8643003A904F19809C4E91255C4E9F7
:1036A0001455C4E91655E563256684F866A0A56639
:1036B000384604F1CC08ADF80C6009F01FFC484610
:1036C000FFF7BCFFC4F898B0A4F8C660A4F8C860BF
:1036D00084F8CA604046FFF7B1FF364BC4F8CCB05F
:1036E000C4E94034344B84F8FEA004F1400B4FF49D
:1036F000A07AC4E942352A46A4F8FA60A4F8FC602E
:1037000029465846CDF800A0F023FFF7A0FC261D5F
:103710004FF07F43A3665946304606F0E3FC102382
:1037200003A93846ADF80C300AF052FBF0232A46C4
:1037300029463846CDF800A0FFF789FC29463846CF
:1037400009F097FB3946304606F0CCFC294648463E
:10375000F322FFF76FFC04F58075112303AA02A979
:103760004846ADF80830ADF80C300AF074F9494617
:103770003046C4F8C05006F0B5FC4046F4228C2117
:10378000FFF758FC122303AA02A94046ADF80830FF
:10379000ADF80C300AF05FF93046C4F8F4504146F9
:1037A00006F0A0FC204605B0BDE8F08F6068020876
:1037B000046E020848680208113600086C6E0208A0
:1037C0007047000030B5174D2C6814F001048FB01D
:1037D000BFF35B8F22D128461FF03FFDF0B13F239E
:1037E0000993114B0893114B07930123CDE905432E
:1037F00004930423CDE902430A230D4900931422C4
:103800000C23CDE90B440B480A940194FFF738FBD5
:10381000094820F07BFC28461FF02BFD05480FB01F
:1038200030BD00BF8C550020247D0208307D020889
:10383000E07B020890550020C13700087047000067
:1038400030B5164D2C6814F001048FB0BFF35B8FB8
:1038500021D128461FF001FDE8B13F230993104B09
:103860000893104B104911480A94CDE906430122F0
:103870000423CDE90332142300930222CDE90B4443
:10388000CDE901440594FFF7FBFA094820F03EFC1E
:1038900028461FF0EEFC05480FB030BDBC55002097
:1038A000287D0208347D0208F87C0208C0550020FB
:1038B0003D3800087047000030B5164D2C6814F0F4
:1038C00001048FB0BFF35B8F20D128461FF0C5FCE9
:1038D000E0B13F230993104B0893104B1049114856
:1038E0000A940122CDE906430423CDE903322823BB
:1038F0000093CDE90B44CDE901440594FFF7C0FAEC
:10390000094820F003FC28461FF0B3FC05480FB01F
:1039100030BD00BFEC5500202C7D0208387D020828
:10392000147D0208F0550020B538000800207047CB
:10393000002070470EB403B503AB002153F8042BED
:1039400001930DF003FF02B05DF804EB03B0704784
:103950000CB407B504AB53F8042B01930DF0F6FE3D
:1039600003B05DF804EB02B070470000436C10B583
:10397000044673B3038F2BB9184B194AC521194854
:1039800020F0A6FBC38E00EB43035B8C0BB30FF060
:1039900080FD238F012B03D8134B144ACB21EEE774
:1039A000E28E531C9BB2092B194688BFA3F10A0172
:1039B00004EB410140F63F10498C814209D10A2BAA
:1039C00004EB420228BF002304EB4303508C5884CD
:1039D00051842046BDE810400FF05EBCA85E02088E
:1039E000B15E02085C5F0208A65F0208B45F0208CD
:1039F0000FF019BC10B586B002AC84E806001A4678
:103A00000AAB05930193099B00932146089B0CF098
:103A10006FF906B010BD000038B518BB124B134843
:103A20001C681349B4B122682244026062682244CF
:103A30000A60A26814440F4B00221A8000F038F884
:103A4000054600F033F80C4B1C600C4B1D600C4B12
:103A5000188007E00B4B03600B4B0B600B4B1C6893
:103A6000002CE8D138BD00BF285600202056002089
:103A70001C56002024560020C4640120CC64012080
:103A8000C8640120507D02083C7D02086C7D02085C
:103A9000044B1B6853F82100034B1B6803EB4000E9
:103AA000704700BF1C56002020560020052070479C
:103AB000004870472C56002010B5FFF7C1FE044C9B
:103AC0002060FFF7F9FE6060FFF77CFEA06010BD8C
:103AD0002C56002010B5002404600C6014601C609B
:103AE00010BD704710B54FF4AE7104461FF0B3FB24
:103AF000204610BD10B50446D0F8580100F013F868
:103B00002046BDE810400CF01BBE000010B5044676
:103B1000FEF736FF014B2360204610BD9468020873
:103B20000022026070477047704704387047704742
:103B300010B5102104461FF08EFB204610BDA0F1E9
:103B40000400F5E700228260024A026018324260F7
:103B5000C1607047E8680208704700000F4B70B5FD
:103B60000446036043F6C84543F60826B54205D02F
:103B7000635960191B6898472C3DF7E743F6042505
:103B800040F27466635960191B682C3D9847B54232
:103B9000F8D12046FFF7E8F9204670BD1069020809
:103BA00010B50446FFF7DAFF204643F62C511FF00C
:103BB00052FB204610BD0000002310B5C0E90133C0
:103BC000C0E90333C0E90733C0E905334FF480731C
:103BD0008384064B03600B88C384FF23044680F86C
:103BE00028300AF0F5F8204610BD00BF486F0208E3
:103BF00038B504460B480C4BB3FBF1F1036815468E
:103C00004A1E4908DA6299630421C26003F0F0FE9B
:103C100001F0EAF90123C4F89806C4F89C5684F828
:103C2000953638BD5853002040420F001E224FF4F5
:103C30001671FFF7DDBF1E224FF42F71FFF7D8BFBB
:103C400032224FF46171FFF7D3BF50224FF4C87195
:103C5000FFF7CEBF10B5044601F0C6F943F23903B1
:103C6000002818BF034683EA433383EA534383EAB9
:103C70004313C4F8903610BDD0F89026044943F29F
:103C8000390301FB0233C0F89036C3F30E4070478E
:103C90006D4EC64108B5FFF7EFFF0723B0FBF3F306
:103CA000C3EBC303C01A08BD10B5034600F11004EE
:103CB000002283F8242683F8252683F8262683F815
:103CC00027260433A342F4D14939112930D8DFE83B
:103CD00001F050302F222F2F3A2F2F2F15442F2F46
:103CE0002F2F2F094BF6FF73C0F83436012380F8CD
:103CF000253680F8293680F82A3617E0214BC0F89F
:103D00003436012380F8293680F82D3680F826369F
:103D100080F82A360CE04FF0FF13C0F8343640F23A
:103D20000112012380F82A36A0F82C2680F82E36BE
:103D300010BD4FF47F43C0F8343640F20113A0F8B1
:103D400028360123D7E74FF08013C0F8343601231B
:103D500080F8293680F82D36CDE74FF47F03C0F880
:103D60003436012380F8253680F8293680F82D3640
:103D7000CEE74FF6FF73C0F834364FF00133C0F88A
:103D80002836D5E700FFFF00F7B5044604F568566E
:103D9000FFF7A6F9334B236004F5D46530364FF6B0
:103DA000FF77284601A92C35ADF80470FFF704FF12
:103DB000AE42F6D104F5685504F573563435343601
:103DC0004FF6FF77284601A92C35ADF80470FFF7B0
:103DD000F3FEB542F6D12046FFF73CFF00214FF439
:103DE000707204F5197020F07AFB2822C4F86C2652
:103DF000C4F87026042304F54052C4F8603600234A
:103E0000C4F86436C4F8683684F87436C4F8783672
:103E1000C4F87C36A4F88036C4F88436C4F88836F2
:103E2000C2F8303AC2F8F43C012384F894362046B4
:103E3000FFF730FF0C4F04F22466395C2046FFF791
:103E400033FF0FCE04F5C7650FC533682B602046DE
:103E5000FFF720FF395C84F882162046FFF724FF25
:103E600003B0F0BD106902085C690208F0B500F209
:103E7000236500240A272E46002116F8013F93B13E
:103E8000D0F86036D0F864260B44092B224414D8AD
:103E9000162A12DC002A06DB07FB023300EB830341
:103EA000D3F864324BB901310429E6D10134042C32
:103EB00005F10405DFD1002000E00120F0BDF0B5E0
:103EC00000F2236500240A272E46002116F8013F40
:103ED0008BB1D0F8642622440132162A15DC002A60
:103EE00009DBD0F8603607FB02330B4400EB830399
:103EF000D3F864324BB901310429E7D10134042CE1
:103F000005F10405E0D1002000E00120F0BDF0B58E
:103F1000002100F223650A272E46002216F8013FF1
:103F200083B1D0F86036D0F864461344013B0C44AA
:103F300012D4172C06D807FB043300EB8303D3F805
:103F400064324BB90132042AE8D10131042905F168
:103F50000405E1D1002000E00120F0BDF0B5002112
:103F600000F223650A272E46002216F8013F8BB186
:103F7000D0F86036D0F8644613440133092B0C4462
:103F800012DC172C06D807FB043300EB8303D3F8AD
:103F900064324BB90132042AE7D10131042905F119
:103FA0000405E0D1002000E00120F0BDF0B50021C3
:103FB00000F223650A272E46002216F8013F8BB136
:103FC000D0F864460C44172C0CD8D0F86036134453
:103FD000092B9FBF07FB043300EB8303D0F8344663
:103FE000C3F864420132042AE7D10131042905F102
:103FF0000405E0D1F0BDD0F86836C3F10A039B0098
:104000000A2BB8BF0A23C0F86C367047F8B50446CF
:104010001725282700F5197607FB05F303F5187215
:104020002244002152F8040FF0B101310A29F9D1DC
:10403000234409E003F50E710022013251F8040F08
:1040400088620A2AF9D1283BA342F3D12822002111
:10405000304620F044FAD4F868360133C4F86836A4
:104060002046FFF7C8FFD7E7013DD5D2F8BD30B5F0
:1040700085B06A4601F1100410460B461D7800F821
:10408000015B5D78C5709D78C571043313F8015CE0
:10409000C572A342F2D1D3780B7093784B705378EA
:1040A0008B7012F8043BCB700431A142F3D105B000
:1040B00030BD08B50CF09AFABDE80840FEF7C4BC64
:1040C000034B1868034B984288BF0020704700BF1D
:1040D00000000E0840420F0030B587B00025009563
:1040E000044601F077F9012301950B220225694668
:1040F00001A8CDE90323059501F060FA034618B144
:1041000001F07AF907B030BD02492246284601F095
:10411000A5F9F5E700000E0890F87C3637B504469F
:10412000002B7DD1514D286800231A460DF107015F
:1041300004F047F800283ED0D4F88436D4F86C2632
:1041400001339342C4F8843606DB23682046DB6AD9
:1041500098470023C4F88436236820461B6B984791
:1041600094F895367BB100F03FFFD4F89836C01A2A
:10417000D4F89C36984206D33D48042103F078FCDD
:10418000002384F895363B4A137893B194F895163A
:1041900079B9394D2B68092B61D8384901EBC30235
:1041A000204651F833105268FFF722FD2B68013387
:1041B0002B6003B030BD9DF80730413B042B0BD87A
:1041C000DFE803F003131B0A230023682046DB6BA0
:1041D00098472046FFF72AFD9DF80730452B04BF7E
:1041E000D4F87036C4F86C369DE7236820461B6C03
:1041F00098472046FFF71FFDEEE7236820465B6CDB
:1042000098472046FFF71CFDE6E70523C4F86C3607
:10421000236820469B6B98472046FFF716FDDBE797
:1042200014490A78002A9BD1D0F888360133B3F5B7
:10423000967FC0F8883693DB01230B700E4B1A6013
:104240000E4BD3E90012FFF7D3FCFFF739FFD4F888
:104250006836834284D91846FFF73EFF80E7204640
:10426000117003B0BDE83040FFF723BF8452002037
:1042700058530020385600203C56002014000020DF
:104280002DE9FF4100F540581646D8F8302AB2F51E
:10429000967F07460D4641DA2C214A4302F5D46445
:1042A00002444BF6FF71D2F8A0268B42126E0444F2
:1042B00001D1012303E020498B4204D11323ADF83F
:1042C0000C3003A911E0B3F1FF1F01D10B23F6E776
:1042D000B3F57F4F01D10323F1E7B3F1801F20D164
:1042E0000C23ADF80C300DEB03012046C6EBC606DF
:1042F000C5EBC50590470E2372006900009312B20A
:1043000009B22046FEF7A3FE214607F1F80005F0AA
:10431000E9FED8F8303A0133C8F8303A04B0BDE8C5
:10432000F081B3F57F0F01D10D23C8E74FF6FF7180
:104330008B42BED10223C2E700FFFF002DE9F04F00
:10434000064600F5B87906F5405885B04846002580
:1043500005F0D5FE06F2376AC8F8F45CD3460027AC
:104360001BF8013F6BB3D8F8F43C0F2B29DC2C224F
:10437000534343F634215C183344D6F848265B583F
:104380004BF6FF718A421B6E344401D1042203E0D4
:1043900021498A4225D10A22ADF80C2003A92046E2
:1043A0009847092300932AB239B22046FEF74FFE00
:1043B0002146484605F096FED8F8F43C0133C8F88B
:1043C000F43C0937BFB2242FCAD10935ADB2242D30
:1043D0000AF1040AC2D1484605B0BDE8F04F0DF01D
:1043E000DFBAB2F1FF1F01D10722D5E7B2F57F4F47
:1043F00001D10622D0E7B2F1801F01D10822CBE71C
:10440000B2F57F0F01D10922C6E74FF6FF718A424C
:10441000BCD10522C0E700BF00FFFF002DE9F04737
:10442000044600F1F80804F540574046002505F021
:1044300066FE04F51879C7F8305ACA4600265AF8BD
:10444000043F4BB1D7F8302AB2F5967F04DA2A46FA
:1044500031462046FFF714FF01360A2EEFD1013511
:10446000182D09F12809E8D104F223690026CA466B
:1044700000251AF8013F9BB1D7F8303AB3F5967F83
:104480000EDAD4F864263244172A09D8D4F8601614
:104490002944092904D8D4F834362046FFF7F0FE21
:1044A0000135042DE5D10136042E09F10409DED1D0
:1044B00004F57355383540460DF072FAD4F8683675
:1044C000114A0A2128460FF08DFDC4F86C5104F5FD
:1044D00092700DF065FAFFF7F3FD04F574550C3595
:1044E0000346094A0A2128460FF07CFDC4F86052B1
:1044F00004F506700DF054FA94F87C3613B10023DD
:10450000C4F88836BDE8F0878660020810B5044616
:10451000FEF72BFD2046BDE81040FFF77FBF0000EF
:10452000F8B590F89436044663B300F2246500F2BF
:104530004C660FCD0FC62B6833602046FFF7AAFBF1
:10454000234B195C84F882162046FFF7ADFB04F27A
:10455000246CBCE80F0004F5C7670FC72B683B60ED
:1045600004F24C6CBCE80F0004F224670FC73368F8
:104570002B602046FFF7E2FE2046FFF74FFF0023A7
:1045800084F8943694F874360BB3D4F87836013343
:104590001D2BC4F878361ADD0423C4F860360023D6
:1045A000C4F8643684F87436C4F8783604F5C766FF
:1045B0000FCE04F224650FC533682B602046FFF749
:1045C00055FC012308B184F87C3684F89436F8BD94
:1045D0005C6902082DE9F043044685B0FFF716FD3B
:1045E00094F87D366BB12046FFF769FC002840F057
:1045F0008480D4F864360133C4F86436002384F828
:104600007D3694F88136002B40F0898094F87E3610
:104610005BB12046FFF77BFC20B9D4F86036013B44
:10462000C4F86036002384F87E3694F87F365BB198
:104630002046FFF793FC20B9D4F860360133C4F864
:104640006036002384F87F3694F88036002B51D0F2
:104650006E46254604F110083246234693F8241688
:10466000117093F82516517093F826169170043343
:1046700093F82316D170434502F10402EED120468F
:1046800004F22461FFF7F3FC2046FFF7EFFB70B361
:10469000D4F86076D4F864967B1EC4F86036204661
:1046A000FFF7E4FB18B37B1CC4F860362046FFF725
:1046B000DDFBE0B109F1FF33C4F86076C4F864367D
:1046C0002046FFF7D3FB90B1C4F86496337885F8A1
:1046D0002436737885F82536B37885F82636F3784E
:1046E00085F827360435454506F10406EED100234A
:1046F00084F8803605B0BDE8F0832046FFF756FC0D
:10470000012384F874360023C4F8783676E7D4F8A9
:1047100064360133C4F864362046FFF77FFE204636
:10472000FFF7CDFB0028F2D02046FFF73FFC012326
:1047300084F874360023C4F8783684F8813665E747
:1047400090F8743610B5044663B990F87C364BB9CE
:10475000012380F87D36FFF73DFF2046BDE810407D
:10476000FFF75CBE10BD10B50123044680F87D360E
:10477000FFF730FF2046BDE81040FFF74FBE10B5F1
:104780000123044680F87E36FFF724FF2046BDE86B
:104790001040FFF743BE10B50123044680F87F3672
:1047A000FFF718FF2046BDE81040FFF737BE10B5F1
:1047B0000123044680F88036FFF70CFF2046BDE851
:1047C0001040FFF72BBE10B50123044680F8813658
:1047D000FFF700FF2046BDE81040FFF71FBE7047FF
:1047E00004387047704710B5102104461EF033FDA1
:1047F000204610BDA0F10400F5E700000022826011
:10480000024A026018324260C16070476C69020857
:1048100008B50448042103F02BF9034B00221A7059
:1048200008BD00BF585300204456002010B5034B6C
:1048300003600446FEF7F5FD204610BD94690208AA
:1048400010B50446FFF7F2FF2046DC211EF003FD01
:10485000204610BD0A4808B50A4BB3FBF1F10368C6
:104860004A1E4908DA6299630421C26003F0C0F865
:1048700000F0BAFB044B1860044B01221A7008BD0B
:104880005853002040420F0040560020445600205C
:1048900010B50446FEF7FAFD014B2360204610BD1B
:1048A0009469020808B50BF0A1FEBDE80840FEF7C8
:1048B0009BB80000F7B506461C48002300681A465E
:1048C0000DF1070103F07DFC30B99DF80730432B53
:1048D00002D13046FFF7E6FF154F164D3B78164CD8
:1048E00053B92B6804EB830234F823105288304606
:1048F000FFF7B0FF03B0F0BD00F076FB0F4B1B6875
:10490000C01A2B6804EB830463889842F2D3042115
:104910000B4803F0ADF800233B702B680A220133EB
:1049200093FBF2F102FB11332B60E3E7845200208A
:104930004456002048560020C06902084056002016
:104940005853002008B5FEF76DFD024B00221A6097
:1049500008BD00BF485600207047043870477047B4
:1049600010B5102104461EF076FC204610BDA0F1C3
:104970000400F5E700228260024A026018324260B9
:10498000C1607047F06902087047000010B5034B22
:1049900003600446FEF711FE204610BD186A0208A7
:1049A00010B50446FFF7F2FF20464FF488711EF061
:1049B00052FC204610BD000010B50446FEF752FE22
:1049C000014B2360204610BD186A020808B50BF0A1
:1049D0000DFEBDE80840FEF707B808B50BF006FE6F
:1049E000BDE80840FEF720B813B504460C48002384
:1049F00000681A460DF1070103F0E3FB28B99DF8A2
:104A00000730412B03D0422B05D002B010BD204609
:104A1000FFF7DCFFF9E72046FFF7DFFFF5E700BF10
:104A20008452002008B5FEF7C9FD034A0023137025
:104A3000024A137008BD00BF81520020805200203E
:104A4000F02070474FF4A07070472920FDF7CAB9D5
:104A50002820FDF7C7B908B5FDF798F9CA20FDF77A
:104A6000C1F9C320FDF7A2F90820FDF79FF95020F6
:104A7000FDF79CF9CF20FDF7B5F90020FDF796F979
:104A8000C120FDF793F93020FDF790F9ED20FDF7F7
:104A9000A9F96420FDF78AF90320FDF787F91220B0
:104AA000FDF784F98120FDF781F9E820FDF79AF9F7
:104AB0008520FDF77BF90020FDF778F97820FDF7D8
:104AC00075F9CB20FDF78EF93920FDF76FF92C2011
:104AD000FDF76CF90020FDF769F93420FDF766F960
:104AE0000220FDF763F9F720FDF77CF92020FDF7A0
:104AF0005DF9EA20FDF776F90020FDF757F900206F
:104B0000FDF754F9B120FDF76DF90020FDF74EF9DE
:104B10001B20FDF74BF9B620FDF764F90A20FDF7DD
:104B200045F9A220FDF742F9C020FDF75BF91020FE
:104B3000FDF73CF9C120FDF755F91020FDF736F9D6
:104B4000C520FDF74FF94520FDF730F91520FDF799
:104B50002DF9C720FDF746F99020FDF727F93620FB
:104B6000FDF740F9C820FDF721F9F220FDF73AF9E9
:104B70000020FDF71BF9B020FDF734F9C220FDF746
:104B800015F9B620FDF72EF90A20FDF70FF9A72039
:104B9000FDF70CF92720FDF709F90420FDF706F9C8
:104BA0002A20FDF71FF90020FDF700F90020FDF78E
:104BB000FDF80020FDF7FAF8EF20FDF7F7F82B20BD
:104BC000FDF710F90020FDF7F1F80020FDF7EEF8F1
:104BD0000120FDF7EBF83F20FDF7E8F8F620FDF7A0
:104BE00001F90120FDF7E2F80020FDF7DFF80620CB
:104BF000FDF7DCF82C20FDF7F5F8C820FDF740F9AB
:104C00002620FDF7EFF80120FDF7D0F8E020FDF7B2
:104C1000E9F80F20FDF7CAF82920FDF7C7F824208E
:104C2000FDF7C4F80C20FDF7C1F80E20FDF7BEF823
:104C30000920FDF7BBF84E20FDF7B8F87820FDF706
:104C4000B5F83C20FDF7B2F80920FDF7AFF81320C6
:104C5000FDF7ACF80520FDF7A9F81720FDF7A6F839
:104C60001120FDF7A3F80020FDF7A0F8E120FDF7E3
:104C7000B9F80020FDF79AF81620FDF797F81B20E9
:104C8000FDF794F80420FDF791F81120FDF78EF858
:104C90000720FDF78BF83120FDF788F83320FDF76A
:104CA00085F84220FDF782F80520FDF77FF80C20FB
:104CB000FDF77CF80A20FDF779F82820FDF776F853
:104CC0002F20FDF773F80F20FDF770F81120FDF786
:104CD00089F8C820FDF7D4F82920FDF783F8BDE84E
:104CE00008402C20FDF77EB808B5FDF74FF80321EA
:104CF000D320FDF793F880B208BD10B5C4B20222EC
:104D000003212046FCF7F8FF0A20FDF73DF8204676
:104D100000220321FCF7F0FFBDE810400220FDF760
:104D200033B838B50446E4B2FCF7E4FF002120466E
:104D3000FCF7FAFF012105462046FCF7F5FF40EAA3
:104D4000052080B238BD10B5C4B240212046FCF722
:104D5000EBFF030607D54C212046FCF7E5FF0038A2
:104D600018BF012010BD01224B212046FCF7C4FFD3
:104D7000204600224B21FCF7BFFF0020F2E773B56D
:104D80000423C4B20E461546D7210DEB030220467C
:104D9000FCF7E4FF019B1BBA1A0DC3F30B2332800F
:104DA00020462B8001224B21FCF7A6FF00224B213D
:104DB0002046FCF7A1FF02B070BD000010B50A4A02
:104DC0001378984204460DD0517888420AD00BB12E
:104DD00041B90123D454FCF78DFF2046BDE81040B3
:104DE000FFF78BBF10BD00BF4C56002010B5C4B2FA
:104DF00009212046FCF798FF40F00102D2B220467C
:104E00000921BDE81040FCF777BF10B5C4B20921F5
:104E10002046FCF789FF092100F0FE022046BDE88C
:104E20001040FCF769BF38B5C4B20D4620460A21D0
:104E3000FCF77AFF40EA0502D2B220460A21BDE81B
:104E40003840FCF759BF10B50446FCF754FF204624
:104E50001F21FFF7E8FF2046BDE81040FFF7C6BF5F
:104E600038B5C4B20D4620460A21FCF75DFF20EAA2
:104E70000502D2B220460A21BDE83840FCF73CBF0B
:104E800010B50446FFF7C1FF20461F21BDE81040C2
:104E9000FFF7E6BF10B5C0B20C460B21FCF744FF8C
:104EA000204010BD1F21FFF7F5BF0A46C0B20B21FD
:104EB000FCF722BF1F21FFF7F8BF38B5C4B20D467B
:104EC00020461721FCF730FF20EA0502D2B2204627
:104ED0001721BDE83840FCF70FBF70B5C4B20646D5
:104EE00004212046FCF720FF042100F0FB020546C8
:104EF0002046FCF701FF3046F021FFF7DEFF05F00A
:104F0000F80220460421FCF7F7FE49222021204622
:104F1000FCF7F2FE0220FCF737FF20460122212198
:104F2000FCF7EAFE20469A224121FCF7E5FE2046E6
:104F300001224A21FCF7E0FE204601224B21FCF72A
:104F4000DBFE204600224B21FCF7D6FE2046012244
:104F50005621FCF7D1FE204601225821FCF7CCFE59
:104F6000204601224021FCF7C7FE2046FF220B21EC
:104F7000FCF7C2FEBDE870400220FCF705BF000050
:104F8000054BD3F8882042F47002C3F888204FF014
:104F900000629A60704700BF00ED00E008B50B4B5F
:104FA0001A6842F400721A601A6842F480621A6049
:104FB0001A6842F480721A60032000F02FF8002073
:104FC000FDF73AFAFCF76AFF002008BD003C0240FA
:104FD000034A044B11681B780B441360704700BFF1
:104FE00050560020C8000020014B1868704700BFD1
:104FF0005056002038B50446FFF7F6FF631C1CBF6F
:10500000054B1B78054618BFE418FFF7EDFF431B5F
:10501000A342FAD338BD00BFC80000200749CA68C0
:1050200022F4E0620302120403F4E063120C13435F
:1050300043F0BF6343F40033CB60704700ED00E002
:10504000164B30B5DC68C4F30224C4F10703251DF8
:10505000042B28BF0423062D4FF0FF358CBF033CE3
:10506000002405FA03F321EA0303A54022EA05021E
:10507000A340002843EA0203ACBF00F16040084AA5
:105080004FEA0313B8BF00F00F00DBB2AABF00F570
:105090006140135480F8003330BD00BF00ED00E0E4
:1050A00014ED00E0002807DB044A4109012300F069
:1050B0001F00834042F82130704700BF00E100E04C
:1050C00010B5044650B1437903F0FF0213B90271E1
:1050D000FCF704FF01236371002010BD0120FCE7F1
:1050E00010B5044620B390F8393003F0FF021BB925
:1050F00080F83820FCF70AFF022384F8393023684F
:1051000061681A6822F440320A431A605A6BA16837
:1051100022F007020A435A631A6CE1686FF30D022A
:105120000A431A6400200123E06384F8393010BD7B
:105130000120FCE770477047036870B55E681D6822
:10514000F207044614D5E90512D51A6822F48072D4
:105150001A60C26B42F00102C26301229A6004230A
:1051600080F83930002380F83830436903B198471C
:10517000B20616D5AB0414D523681A6822F400527F
:105180001A6020229A60E36B43F00203E363042376
:1051900084F83930002384F8383063690BB1204635
:1051A0009847300716D5290514D523681A6822F4C4
:1051B00000621A6008229A60E36B43F00403E36321
:1051C000042384F83930002384F8383063690BB144
:1051D0002046984772070BD56B0509D523681A68D6
:1051E00022F480621A6004229A602046FFF7A2FF30
:1051F000B00714D5A90512D523681A6822F40072E5
:105200001A6002229A60E36BE363012384F8393069
:10521000002384F8383023690BB120469847F20602
:1052200013D5EB0411D523681A6822F480521A6052
:1052300010229A60E36BE363012384F83930002382
:1052400084F838302046FFF776FF70BDF0B590F84F
:105250003820012A03464FF002002BD0012283F8A8
:10526000382083F8390003EB0112D2E90740556A70
:10527000174F44EA0040093C012C9CBF05F07F42D7
:1052800010434FEA01161A6888BF40EA056091B9D9
:10529000516A394001435162012C9969916103D8E7
:1052A000596A21F07F4191620122002083F8392060
:1052B00083F83800F0BDD16939400143D1619919B3
:1052C000012C896911619CBF25F07F451562EBE7D0
:1052D000F0FFFC00094910B50C6924F440740C611E
:1052E0000C6944F440740C610C6944F001040C61D5
:1052F0000260BFF36F8F436010BD00BF003C0240EF
:10530000074B1A6922F440721A611A6942F400725A
:105310001A611A6942F001021A610160704700BF08
:10532000003C0240074B1A6922F440721A611A6964
:1053300042F480721A611A6942F001021A61018016
:10534000704700BF003C0240204BDA68D00606D50B
:105350001F49CA6942F01002CA611022DA60DA6895
:10536000910606D51A49CA6942F00802CA6120228C
:10537000DA60164BDA68520606D51549CA6942F05A
:105380000402CA614022DA60DA68100606D51049C4
:10539000CA6942F00202CA618022DA600B4BDA6805
:1053A000D10507D50A49CA6942F00102CA614FF422
:1053B0008072DA60DA68920706D50549CA6942F058
:1053C0002002CA610222DA60704700BF003C02403E
:1053D00054560020064B1A69002ABFBF054A5A607E
:1053E00002F188325A60BABF1869C00F00207047B6
:1053F000003C024023016745034A136943F0004320
:1054000013610020704700BF003C0240114B70B593
:1054100000220446DA61FFF7E7FD0F4D0646EB6810
:10542000DA030CD4EB68DB0744BF0123EB60E868C8
:1054300010F4F97007D0FFF787FF012003E0611C2B
:10544000EDD00CB9032070BDFFF7CEFD801BA0424C
:10545000E5D9F7E754560020003C02402DE9F04121
:105460001F4E9846337E012B07460D46144635D015
:1054700001234CF250303376FFF7C8FFB0B9CFB9F3
:10548000184B1A6922F440721A611A691A611A6972
:10549000E4B242F001021A612C704CF25030FFF776
:1054A000B5FF104A136923F001031361002333761B
:1054B000BDE8F081012F04D1A1B22846FFF732FFE9
:1054C000EBE7022F04D121462846FFF719FFE4E756
:1054D000224643462846FFF7FDFEDEE70220E7E7C7
:1054E00054560020003C02400C4B1A6922F44072D2
:1054F0001A6103291A690BD142F4004242F00402F6
:105500001A611A6942EA002040F48030186170473D
:105510000129F3D042F40042F2E700BF003C024010
:105520000F4B1A6922F440721A611A69022994BF5A
:1055300009024FF440710A431A611A6922F0F80215
:105540001A611A690B2888BF043042EAC00242F08F
:1055500002021A611A6942F480321A61704700BF70
:10556000003C0240144B1A6891050FD51A6822F4CA
:1055700000721A601A6842F400621A601A6822F413
:1055800000621A601A6842F400721A600A4B1A68C4
:1055900052050FD51A6822F480621A601A6842F424
:1055A00080521A601A6822F480521A601A6842F413
:1055B00080621A60704700BF003C02402DE9F8434A
:1055C000DFF89C8098F81830012B05460F4642D032
:1055D00001234CF2503088F81830FFF717FF0446CB
:1055E000B8B94FF0FF333B602B68012B17D16968C6
:1055F000287CFFF779FF4CF25030FFF707FF174A7E
:10560000136923F4004323F0040304461361FFF7F6
:10561000A9FF002388F818302046BDE8F883AE685B
:10562000DFF83890D5E902231344B342EFD9297C3F
:105630003046FFF775FF4CF25030FFF7E7FED9F820
:10564000103023F0FA03C9F8103010B13E60044660
:10565000DDE70136E6E70224DEE700BF003C02405A
:10566000545600202DE9F74FDFF8BC916C4A002317
:105670000D6801249C4004EA0506AC4340F0B78065
:105680004D68032705F003044FEA430807FA08FCB6
:10569000671E012F6FEA0C0C34D8876807EA0C0EDE
:1056A000CF6807FA08F747EA0E078760476827EAD6
:1056B000060EC5F300179F4047EA0E074760C7680C
:1056C00007EA0C0E8F6807FA08F747EA0E07022C64
:1056D000C76019D14FEAD30A00EB8A0A03F0070B1F
:1056E000DAF820704FEA8B0B4FF00F0E0EFA0BFE1C
:1056F00027EA0E0E0F6907FA0BF747EA0E07CAF8FA
:10570000207001E0032CDAD1076804FA08F407EAF4
:105710000C073C4315F4403F046068D0002401941A
:10572000D9F8444044F48044C9F84440D9F844408E
:1057300023F0030707F1804704F4804407F59C3702
:10574000019403F0030C019CD7F808E04FEA8C0C9D
:105750000F2404FA0CF42EEA040E324CA0424DD071
:1057600004F58064A0424BD004F58064A04249D087
:1057700004F58064A04247D004F58064A04245D07F
:1057800004F58064A04243D004F58064A04241D077
:1057900004F58064A0423FD004F58064A0423DD06F
:1057A00004F58064A04214BF0A24092404FA0CF40E
:1057B00044EA0E04BC609468F74315F4801F0CBFE4
:1057C0003C4034439460D46815F4001F0CBF3C4047
:1057D0003443D460546815F4003F0CBF3C4034435C
:1057E00054601468ED0354BF3C40344314600133EB
:1057F000102B7FF43DAF03B0BDE8F08F0024D5E758
:105800000124D3E70224D1E70324CFE70424CDE722
:105810000524CBE70624C9E70724C7E70824C5E722
:10582000003C014000000240003802400369194278
:1058300014BF0120002070470AB18161704709043C
:10584000FBE7436901EA030221EA030141EA02415D
:105850008161704701684B6913F480634FF0000267
:1058600010D06FF480634B612023026380F83D30D9
:1058700080F83E20036C80F83C2043F0040303646E
:1058800001207047184670472DE9F84606460F4636
:1058900091461D464FEA114A3368BAF1010F0CBF19
:1058A0005C699C6927EA0404A4B2B4FA84F464092C
:1058B000A14501D0002025E06A1CEED0FFF794FB43
:1058C000089BC01AA84201D8002DE5D13368BAF16F
:1058D000010F0CBF5B699B6927EA03039BB2B3FA14
:1058E00083F35B099945D7D100232022336386F8DF
:1058F0003D2086F83E30326C86F83C3042F0200283
:1059000032640120BDE8F8862DE9F04104460F46D7
:10591000164698462568686927EA000080B2C0B13B
:105920006B695A0517D52B6843F400732B606FF42D
:1059300080636B6120220023236384F83D2084F878
:105940003E30236C43F004032364002384F83C308E
:105950000120BDE8F081731CDDD0FFF745FBA0EB13
:105960000800B04201D8002ED4D123685A6927EA32
:10597000020292B2002ACDD000232022236384F8B1
:105980003D2084F83E30236C1343DDE770B50446B8
:105990000D46164623685B691B0601D500201EE0F4
:1059A0002046FFF757FFC8B96A1CF3D0FFF71CFB6E
:1059B000801BA84201D8002DECD123685B6913F04D
:1059C0008003E7D12022236384F83D2084F83E3011
:1059D000226C84F83C3042F020022264012070BD29
:1059E0002DE9F0431546026885B0DDE90C7899464B
:1059F000136843F4807313600E463B46CDF8008075
:105A000000224FF001110446FFF73EFF236838B132
:105A10001B68DB0502D54FF400732364032620E0E6
:105A200006F0FE061E611A4943463A462046FFF735
:105A30006BFFA8B9236803905A6903929B6903938B
:105A4000424639462046039BFFF7A0FF064660B159
:105A5000236C042B01BF2268136843F400731360A6
:105A60000126304605B0BDE8F083B9F1010F236887
:105A700002D1EDB21D61F4E72A0A1A6139464246A5
:105A80002046FFF783FF0028E2D12368F1E700BF3B
:105A9000020001002DE9FF479A46036815461A687F
:105AA00042F480621A601A68DDE90C7842F4807270
:105AB0001A600E463B46CDF8008000224FF00111DF
:105AC0000446FFF7E1FE236838B11B68DB0544BFDD
:105AD0004FF400732364032021E05FFA86F906F097
