:020000040800F2
:10000000000003205D060008852300088723000800
:10001000892300088B2300088D23000800000000BE
:10002000000000000000000000000000517E0008F9
:100030008F23000800000000E17E00086F770008B1
:10004000AD060008AD060008AD060008AD060008C4
:10005000AD060008AD060008AD060008AD060008B4
:10006000AD060008AD060008AD060008AD060008A4
:10007000AD060008AD060008AD060008AD06000894
:10008000AD060008AD060008AD060008AD06000884
:10009000AD060008AD060008AD0600089123000873
:1000A000AD060008AD060008AD060008AD06000864
:1000B000AD060008AD060008AD060008AD06000854
:1000C000AD060008AD060008AD060008AD06000844
:1000D000AD060008AD060008AD060008AD06000834
:1000E000A3230008AD060008AD060008AD06000811
:1000F000AD060008AD060008AD060008AD06000814
:10010000AD060008AD060008AD060008AD06000803
:10011000AD060008AD060008B9230008AD060008CA
:10012000AD060008AD060008AD060008AD060008E3
:10013000AD060008AD060008AD060008AD060008D3
:10014000AD060008AD060008AD060008AD060008C3
:10015000AD060008AD060008AD060008AD060008B3
:10016000AD060008AD060008AD060008AD060008A3
:10017000AD060008AD060008AD060008000000004E
:10018000AD060008AD060008AD060008AD06000883
:10019000AD060008AD060008AD060008AD06000873
:0C01A000C5230008AD060008D1230008AC
:1001B00010B5054C237833B9044B13B10448AFF3A1
:1001C00000800123237010BD800300200000000088
:1001D0009C49020808B5034B1BB103490348AFF320
:1001E000008008BD00000000840300209C49020834
:1001F00001F0FF01102A2BDB10F0070F08D010F8D8
:10020000013B013A8B422DD010F0070F42B3F6D1DB
:10021000F0B441EA012141EA014122F007047FF0F4
:1002200000070023F0E80256083C85EA010586EA4B
:10023000010685FA47F5A3FA87F586FA47F6A5FA87
:1002400087F68EB9EED1F0BC01F0FF0102F0070293
:1002500032B110F8013B013A83EA010313B1F8D13E
:100260000020704701387047002D06BF354603381F
:10027000073815F0010F07D1013015F4807F02BF58
:10028000013015F4C03F0130F0BC0138704700BFA9
:100290007BB972B90029BEBF00204FF0004106E0D3
:1002A00008BF00281CBF6FF000414FF0FF3000F086
:1002B000D3B9ADF1080C6DE904CE002909DB002BA0
:1002C0001ADB00F04DF8DDF804E0DDE9022304B0AC
:1002D0007047404261EB4101002B1BDB00F040F80E
:1002E000DDF804E0DDE9022304B0404261EB4101A6
:1002F000524263EB43037047524263EB430300F007
:100300002FF8DDF804E0DDE9022304B0404261EBA0
:1003100041017047524263EB430300F021F8DDF8DE
:1003200004E0DDE9022304B0524263EB430370476B
:1003300053B94AB9002908BF00281CBF4FF0FF314C
:100340004FF0FF3000F088B9ADF1080C6DE904CE34
:1003500000F006F8DDF804E0DDE9022304B07047A0
:100360002DE9F047089D8E4604468846002B4AD169
:100370008A42174662D9B2FA82F64EB1C6F120031C
:1003800001FA06F820FA03F3B74043EA0808B4403C
:100390004FEA174E1FFA87FCB8FBFEF1230C0EFB49
:1003A000118843EA084301FB0CF29A4209D9FB1871
:1003B00001F1FF3080F0EA809A4240F2E780023992
:1003C0003B449A1AA3B2B2FBFEF00EFB102243EAA2
:1003D000024300FB0CFC9C4509D9FB1800F1FF32DD
:1003E00080F0D6809C4540F2D3803B44023840EAFE
:1003F0000140A3EB0C0300211DB1F3400022C5E92D
:100400000032BDE8F0878B4205D90DB1C5E9000186
:1004100000210846F5E7B3FA83F1002946D1734578
:1004200002D3824200F20581841A6EEB030201209E
:100430009046002DE5D0C5E90048E2E7002A00F02B
:100440009080B2FA82F6002E40F0A4808A1A030C43
:100450004FEA174E80B2BCB20121B2FBFEFC0EFB8C
:100460001C2243EA024304FB0CF29A4207D9FB1810
:100470000CF1FF3802D29A4200F2E080C4469B1A87
:10048000B3FBFEF20EFB123340EA034302FB04F41B
:100490009C4207D9FB1802F1FF3002D29C4200F2C5
:1004A000CA8002461B1B42EA0C40A5E7C1F12006A8
:1004B0008B4022FA06F71F430EFA01F420FA06F3E6
:1004C0002EFA06FE4FEA1749234300FA01F81FFAF5
:1004D00087FCBEFBF9F01C0C09FB10EE44EA0E444D
:1004E00000FB0CFEA64502FA01F209D93C1900F105
:1004F000FF3A80F09C80A64540F2998002383C4447
:10050000A4EB0E041FFA83FEB4FBF9F309FB1344BA
:100510004EEA044403FB0CFCA44508D93C1903F142
:10052000FF3E80F08280A4457FD9023B3C4443EAF1
:100530000040A4EB0C04A0FB02EC64457346E146CA
:1005400062D35FD05DB1B8EB030264EB090404FA37
:1005500006F622FA01F31E43CC40C5E900640021EF
:100560004FE7B1FBF2FC010C41EA0E4180B240EAD8
:1005700001423B4638463C46B846BE462026B1FBC3
:10058000F7F1A2EB080241EA0C4166E7014618E7E1
:1005900010462CE7C6F120022EFA02F3B740B14014
:1005A00020FA02F24FEA174E0A43B3FBFEF8BCB240
:1005B0000EFB1833110C41EA034108FB04F9B0406B
:1005C00089454FEA104380B23ED9791808F1FF3CC3
:1005D00001D289451FD8A1EB0901B1FBFEF909FB46
:1005E00004F80EFB191192B242EA0142424529D2A7
:1005F000BA1809F1FF31C4D24245C2D2A9F10201B1
:100600003A44BEE7F0459DD2BEEB02036CEB070C0B
:100610000138E14696E7A7EB09094944A8F1020C25
:10062000B1FBFEF909FB04F8DBE773467FE75046B0
:1006300066E70846FDE63B44023A33E7ACF1020CBC
:100640003B441CE749469CE7A1EB0901C446B1FBCA
:10065000FEF909FB04F8C4E7704700BFDFF834D0A7
:10066000002103E00C4B5B58435004310B480C4B0A
:1006700042189A42F6D30B4A02E0002342F8043BA8
:10068000094B9A42F9D304F0F7FA23F019FC01F070
:10069000A9F8704700000320301F07080000002061
:1006A000640100208003002028700120FEE77047CD
:1006B00008B500F0BFFDBDE8084000F041BD00F006
:1006C000BBBD704710B50421044622F00CFA204649
:1006D00010BD000038B50C4B0C4C18800C4B822020
:1006E00019806368984740F6110398420AD1094D72
:1006F00023682C60822098472B688220DB6898470B
:10070000002038BD0120FCE7A60300204C0000209B
:10071000A4030020A80300204FF4A071F020FFF7ED
:10072000D9BF0000F7B5394D2B6804461B698220FC
:100730009847208000284ED02B680DF106025B6997
:1007400001A982209847324B1B78002B4BD0BDF873
:10075000062040F674639A423FD9ADF80630BDF8E2
:1007600006209B1A9BB20A2B42D90B22B3FBF2F351
:10077000284A1288934201D9013A93B2BDF8042065
:10078000254840F6B8318A4234D8C2F571620E323B
:10079000016892B20F25B2FBF5F2204D2D88AA42D6
:1007A00084BF05F1FF35AAB28A4215468EB22AD916
:1007B000921B91B21A4E3768BB42BAB28CBF9A1ADA
:1007C000D21A92B211440529C4BF05603360036890
:1007D00063803368A38003B0F0BDB32A9CBFB4220A
:1007E000ADF80620BBE7BDF80630A3F5B473B9E752
:1007F0000023C3E7C2F56D62083292B20E2A016887
:10080000C8D800252A46891A89B2D3E7A803002050
:100810003A520020A4030020A0030020A6030020D9
:100820009C03002037B568460D461446FFF77AFF53
:10083000BDF8000030B1BDF802302B60BDF80430C7
:100840002360012003B030BD032821D8DFE800F089
:10085000020B12190F4B1A68B2FA82F252090421E4
:100860000D4804F065BE0B4B5A68B2FA82F2520989
:100870000821F5E7074B9A68B2FA82F25209102173
:10088000EEE7044BDA68B2FA82F252092021E7E778
:10089000704700BFAC03002000100240032821D89D
:1008A000DFE800F0020B12190F4B1A68003A18BF6C
:1008B000012204210D4804F03BBE0B4B5A68003A5C
:1008C00018BF01220821F5E7074B9A68003A18BFC4
:1008D00001221021EEE7044BDA68003A18BF01222A
:1008E0002021E7E7704700BFAC0300200010024062
:1008F00003280DD8DFE800F00206080A04210548A5
:1009000004F01BBE0821FAE71021F8E72021F6E7E2
:10091000704700BF0010024008B5032811D8DFE877
:1009200000F0020A0C0E0421074804F0FBFD431EF0
:100930005842584108BD0821F6E71021F4E720216C
:10094000F2E70020F3E700BF0010024070B5084D49
:1009500000240126E0B2FFF7DFFF18B12B68012B5E
:1009600018BF2E600134052C05F10405F2D170BDCD
:10097000AC030020012380F8781080F879307047AC
:100980007047002070470000034B4164003918BFD6
:1009900001211970704700BFE762012070470020F5
:1009A0007047836B0BB10846184770474FF6FF70CE
:1009B0007047406803689B691847704770477047E5
:1009C0007047704710B5044600F04CFD236803499A
:1009D000D3F890302046BDE810401847000000D002
:1009E00008B503680446D3F8843098472368204646
:1009F000DB6F984700F0ECF8236820465B6F984760
:100A0000292001F0A9F900F0E3F8236820465B6F84
:100A10009847F8E710B504460AF012F82368204614
:100A2000D3F8BC30BDE81040184700F0FFBC00F020
:100A300003BD00F035BD00F0D5BC00F045BD00F0B1
:100A40004DBD00F0D9BC09F029BA10B58421044687
:100A500022F049F8204610BD10B590F8341090F8F7
:100A600078400C4B8C421A7809D03AB90A4A0B49A3
:100A70001488088810800C8001221A7010BD002A8A
:100A8000FCD0054A05491488088810800C80002293
:100A9000F3E700BFE0620120DC620120DE6201209A
:100AA00070B50D46194635B9094B0A4A0A4840F255
:100AB000FF2122F055FFC0E90F52084B003A18BF42
:100AC00001221A700368BDE87040D3F890301847CF
:100AD000CC4A0208044B0208524B0208E66201208D
:100AE00008B5094B1B888B4203D8084B1B889342DF
:100AF00005D9074B074A0848A32122F031FF074BCD
:100B00001980074B1A8008BDDC620120DE620120DB
:100B1000974B0208FA4B0208524B0208E26201208E
:100B2000E4620120034690F87A0018B1586803681F
:100B30001B68184770470000012108B500220846CD
:100B400006F09EFE0A4B186028B90A4B0A4A282173
:100B50000A4822F005FF00220421012006F02FFFA1
:100B6000074B186018B9074B034A2C21F0E708BD62
:100B7000C00300203D4C0208864C0208B54C020818
:100B8000BC030020FD4C0208024B4FF0FF311868F7
:100B900006F0C0BEC0030020014B186806F0E6BE98
:100BA000C0030020024B0021186806F0B3BE00BF4E
:100BB000C0030020FFF7F0BF03480449006800238A
:100BC0001A4606F037BF00BFBC0300200400002017
:100BD00013B5084C00231A4601A9206806F05BFFF4
:100BE00020684FF0FF33002201A906F054FF02B045
:100BF00010BD00BFBC03002003685B6C18470120D8
:100C0000704703689B6A1847FEE740F2EF30704771
:100C1000054B0360054B4FF08062C3F88820BFF39B
:100C20004F8FBFF36F8F7047D459020800E100E087
:100C300010B504464FF45A61FFF7EAFF204621F051
:100C400052FF204610BD000082B0002301930E4BDE
:100C50001A6B42F400021A631A6B02F4000201924A
:100C6000019A1A6942F400021A611A6922F4000218
:100C70001A61064B064A1A61064A5A61064B4FF042
:100C800080629A6002B07047003802401C54002015
:100C9000E90E0008090C000800E100E008B50A2888
:100CA00009D8DFE800F006100E0808080810101038
:100CB0001000022008BD054B054A0648902122F08D
:100CC0004FFE0020F6E70120F4E700BF3F4D020889
:100CD0005A4D0208A54D020838B50C46887FFFF72B
:100CE000DDFFA58AE28A164B2169586342EA054274
:100CF0005A64628BD963521B1A642568082D0ED181
:100D00009A611A615862207F0E4A42EA0062DA61F3
:100D1000E2681A620C4A5961D9601A6038BD002233
:100D2000D8611A61E1680A0A480902F4784200F4BD
:100D3000FC600243C1F3C4010A439A63034AECE72F
:100D400000B002400900010001230200012303005A
:100D500008B50B280BD8DFE800F00612100A0A0AC3
:100D60000A0808080808022008BD0520FCE7054B12
:100D7000054A06486F2122F0F3FD0020F4E7012028
:100D8000F2E700BF3F4D0208EB4D0208A54D0208F7
:100D90002DE9F04191F81D800C464046FFF7D8FF41
:100DA000A77F05463846FFF7D3FF06463846FFF7CC
:100DB00075FFA18A628B444B521A1A649A61228B86
:100DC000521A1A61E28A586342EA01425A6421695E
:100DD0006268D963DA602068802828D0227F0FD823
:100DE000202867D0402865D004281AD0364B45EA21
:100DF000026545F40035B845DD6161D0334A44E011
:100E0000B0F5807F04D0B0F5007FEFD1304800E02E
:100E1000304840EA0262DA61E2681A625E62596151
:100E200032E045EA026242F40032DA61F6E7A06895
:100E3000021DDA62227F45EA026545F40035DD6174
:100E40005E625961017841B1012921D0224B234AC8
:100E500023484FF48D7122F083FDDA69418822F432
:100E60007F42013922F0100242EA0122DA610121B7
:100E7000154BDA6942F02002DA61DA699206FCD495
:100E800010229A600029B9D0164A1A60BDE8F08194
:100E9000B2F1FF01DA69408822F47F4200F1FF30AD
:100EA00022F0100242EA002242F0100218BF012193
:100EB000DA61DDE745EA0262034B42F40032B4E74F
:100EC00042F20132E1E700BF00B00240012301001D
:100ED000090002000A000200354E02084F4E0208C7
:100EE000A54D020801230200024B1B6858680368E5
:100EF0005B691847E862012070B5044625460A4B35
:100F00000C30002660602672667245F8203B602235
:100F1000294609F0EBFE04F55A63EE6024359D4244
:100F2000FBD1204670BD00BFD4590208034B1A689C
:100F3000D207FCD423229A60704700BF00B0024061
:100F40007047000030B50F4C2568ED07FCD4232511
:100F50000904A56041F001010225FF2B656361646E
:100F6000E0630AD00849656241EA0363E361074B25
:100F700022626061E060236030BDE561039BA36392
:100F8000034BF8E700B00240090001000100020035
:100F90000100030030B50E4C2568ED07FCD4232575
:100FA0001204A56042F001020225FF2B6563626412
:100FB000E063E16008D01B0643F00213E361054BD8
:100FC00065626061236030BD034BE3610123F9E793
:100FD00000B0024001000200020002FF30B50B4CDD
:100FE0002568ED07FCD4232512041B06A56043F4F5
:100FF0000033022542F0010265636264E063E16050
:10100000E361034B65626061236030BD00B0024064
:10101000010002000120704714207047142303FBD5
:10102000010008307047142303FB010008307047AB
:101030000120704743F62450704743F6245303FBC6
:1010400001000830704743F6245303FB01000830C9
:101050007047012070471020704700EB01100830E6
:10106000704700EB011008307047084601F030BCB3
:1010700010B5034B0360044608F065FC204610BD24
:101080008C5A020810B50446FFF7F2FF20461C21D7
:1010900021F029FD204610BD10B5034B0360044626
:1010A00008F051FC204610BD585A020810B50446FD
:1010B000FFF7F2FF204643F62C5121F014FD2046A5
:1010C00010BD000010B5034B0360044608F03BFC64
:1010D000204610BD245A020810B50446FFF7F2FF5F
:1010E0002046182121F0FFFC204610BD10B5094B09
:1010F0000360044600F575501830FFF7B9FF04F19E
:101100002C00FFF7C9FF04F11400FFF7DBFF2046B6
:1011100010BD00BFC05A020808B50248FFF7E6FF3D
:1011200008BD00BF9C12002010B50446FFF7DEFF8B
:10113000204643F6D46121F0D6FC204610BD0000C5
:101140002DE9F34101F0B8F9054601F0B9F90024A1
:101150000146234628462246009412F031FC274BD4
:10116000274A1A60204602F0BBFB264D264B274A31
:1011700027489A6012F08CFB2B68BFF35B8FDB076C
:1011800036D4284621F0B1FC90B3224C224F234B99
:10119000236007F1200604F1140004F12C086060BC
:1011A000C4F80880E760266108F0CEFB1C4B636141
:1011B000404608F0C9FB1B4BE362384608F0C4FB0D
:1011C00004F5405303F67450174AC3F8582D02F043
:1011D0000BFC224607F11C01304602F0FBFB3046B7
:1011E00001F076FB114822F0D9FB284621F089FC5A
:1011F0000F4802B0BDE8F041FFF7E4BB4C630120AB
:101200004804002098120020680400204C040020AC
:10121000080000209C120020F44F0020C05A020851
:10122000245A0208585A02088C5A02081911000858
:10123000C4030020704700000148FFF7D1BB00BF86
:10124000C403002070B5264E264C274D274B236043
:101250003046FFF751FE284617F0B8FC244810F03E
:101260009DF8244B2448DC6000224FF48071C3E9D0
:10127000121222491A86C3E91A12214983F858200A
:10128000C3E91E011F49C3F880101F491F480B60A6
:10129000F021C3E90422C3E90622C3E90822C3E915
:1012A0000A22C3E90E22C3E91022C3E91422C3E9CA
:1012B00017225A6683F870205A67C3E901650180D6
:1012C0001348018013484FF4A07101801248018037
:1012D00012490A70012283F83420114A1A6070BD45
:1012E000F40400209412002068040020BC4A020884
:1012F0004C040020C4030020000001010100000193
:10130000000450001A001400E8620120DC62012091
:10131000E2620120DE620120E4620120E06201203D
:10132000E85802080148FFF773BC00BFF40400202E
:101330000020704781807047C180704701817047ED
:10134000418170477047704770477047704710B4CD
:10135000C4880368121B84885B6D091B12B25DF898
:10136000044B09B218474FF6FF7383814FF0FF33E8
:1013700003621368C36110607047002070478B8858
:10138000838001207047704780F82610704790F8DE
:101390002600704710B50022B1F90840B1F90A10D3
:1013A000028042808480C18010BD00220280428081
:1013B0008280C28070470177704780ED080A7047CD
:1013C00080F82410704780F825107047012070477E
:1013D000983070478C307047843070477047704742
:1013E00070470000034B902283F85A2383F8582358
:1013F000704700BF00E100E0094A0A49D3680A4883
:10140000C3F30A03013B9BB20B801169C1F30A01CC
:10141000013901801364536B43F001035363704738
:10142000006801407251002070510020014BD3F838
:10143000AC00704700680140024B0122C3F8AC10B9
:101440005A6270470068014010B52C21044621F013
:101450004AFB204610BD10B5BC21044621F043FBD9
:10146000204610BD70B5044608F06DFD23689D6EE2
:101470000EF004FD01462046A8472368054AD3F82C
:101480008C502046AC460023BDE87040A2F51631D2
:10149000604700BF00B004D008F03CBD08F046BD76
:1014A00008F002BD08F071BE90F8252012B1036863
:1014B0005B691847704790F825201AB190F82420EE
:1014C00002B1186070470000034B4FF080629A60D1
:1014D0004FF080729A60704700E100E0084B4FF0D7
:1014E0008062C3F88820BFF34F8FBFF36F8F4FF038
:1014F0008072C3F88820BFF34F8FBFF36F8F7047A0
:1015000000E100E070B50023124E8380124B0360AF
:10151000336893F8582005460AB1D86C00B998682A
:101520000368DB6A98473368B0FA80F4D86C6409C2
:1015300030B10368DB6A9847002808BF44F0010413
:101540002CB9064B064A07482C2122F009FA2846F6
:1015500070BD00BFE8620120D45A02088D4E020817
:10156000EB4E0208244F020870B5254E3568BFF3D4
:101570005B8F15F0010540D1304621F0B6FA002806
:101580003BD0204C204B256104F13400C4E90035E8
:10159000C4E90255E584A562A58510F0E4F904F1DB
:1015A00058000BF059F8194BA3652046184B40F82A
:1015B000843BFFF7A7FF174BC4F884302433C4F8EB
:1015C0008C304FF4C803C4E928350023C4F8AC308C
:1015D000C4F8B030C4F8B430C4F8B8300E480F4B7B
:1015E000C4F89050C4F89C50C4F8A850C4F898307F
:1015F00022F0D4F9304621F084FA024870BD00BFD1
:10160000745100207851002078630208F45A0208CF
:101610006C5B02082C630208E11300080C630208EB
:1016200038B5184C23685BB3174B184A1B6C1188EC
:101630008B4216D1164B198804F072FD236893F87B
:101640006A200025013283F86A2083F87C50FFF776
:10165000B3FA206809F0F4F92846BDE83840FFF7EE
:10166000F3B804F05DFD2468236820461B6A9847A0
:10167000012384F87C300020BDE83840FFF70EB924
:1016800038BD00BFE86201200068014072510020AF
:101690007051002007B5064BADF806001B680548E1
:1016A00001220DF1060105F0EBFA03B05DF804FB31
:1016B0000C000020C852002008B5642006F0D4F8C1
:1016C000FBE700002DE9F3411E4E1F4FDFF87C8041
:1016D000002500234FF4805130468DF8073003F089
:1016E00021FFC0B941238DF807309DF8074064B150
:1016F000AC420BD000231A46D8F800000DF10701C8
:1017000006F098F99DF8073003B900240A2006F086
:10171000ABF82546DDE74FF40051304603F002FFF9
:1017200008B94223DFE74021384603F0FBFE08B941
:101730004523D8E78021384603F0F4FE0028D4D1B1
:101740004323D0E700040240000C02403C5200203A
:1017500030B595B0102200210AA822F008FB002124
:10176000142203A822F003FB00241C4B01941A6CE2
:1017700042F080521A641B6C03F080530193019B6A
:10178000174B02941A6842F440421A601B6803F433
:1017900040430293029B01224FF48033CDE908239A
:1017A00002254FF48003B422CDE90E5308A8042388
:1017B000CDE91032CDE9125304F00AFD04F0CEFC5D
:1017C0000F23CDE9033505214FF4A05303A8CDE93C
:1017D0000633059404F0D8FE15B030BD0038024041
:1017E000007000402DE980489BB003F053FAFFF7EA
:1017F000AFFF142200210DA822F0B9FA0024C94B32
:1018000000941A6BC84842F010021A631A6B02F077
:1018100010020092009A01941A6B42F020021A639F
:101820001A6B02F020020192019A02941A6B42F0A4
:1018300080021A631A6B02F080020292029A0394E9
:101840001A6B42F004021A631A6B02F0040203924C
:10185000039A04941A6B42F001021A631A6B02F0A5
:1018600001020492049A05941A6B42F002021A6370
:101870001A6B02F002020592059A06941A6B42F066
:1018800040021A631A6B02F040020692069A07940D
:101890001A6B42F008021A631B6B03F0080322461E
:1018A00007933C21079B03F043FEA048012202213D
:1018B00003F03EFE22469D48042103F039FE2246F5
:1018C0009B484FF4405103F033FE01263C23CDE901
:1018D0000D3695480F9403230DA90227109303F0AA
:1018E0003DFD92480DA9CDE90D76CDE90F4403F0F9
:1018F00035FD04238D480DA9CDE90D36CDE90F47FF
:101900004FF4405503F02AFD8A480F960DA9CDE902
:101910000D5403F023FD86480DA9CDE90D56CDE900
:101920000F4703F01BFD0DA9C02381480F96CDE999
:101930000D3403F013FD8048804B814D036003F0AC
:101940003BFADFF820C27F4B2C62C5E900C3284672
:101950004FF48043C5E90434C5E90244C5E90644AF
:1019600004F002F81021284604F046FA21462846E1
:1019700004F061FA744DDFF8F0E1AC624FF4827369
:10198000C5E900E34FF400781823C5E9068328462B
:101990000A23C5E90244C5E90444C5E90844EB62E9
:1019A00005F012F98F232246394660488DF824301D
:1019B0008DF8344003F0BCFD32464FF47A7309A928
:1019C000284605F05DF94FF47A7332460DA9284692
:1019D00005F002FB3246394654485C4D03F0A8FD41
:1019E0009DF83430D32B04BF594B1E70594B012640
:1019F000C5E900364FF0100840230024C5E90483F0
:101A00004FF4C073C5E906344FF40063C5E90834E8
:101A10004FF4005302274FF0040AAB624FF0030B60
:101A200007230DA92846CDE90D73CDE90FA34FF08B
:101A30000809C5E9024ACDE911B7139704F0A8FFD8
:101A40004FF6FF7209A92846CDE90A96089409962F
:101A50000C9404F0BDFF304603F048F94FF6FF72D6
:101A600009A92846CDE90979CDE90B6404F0B0FF56
:101A70004FF6FF7209A92846CDE909B9CDE90BA4B3
:101A800004F0A6FF4FF40C730893089B0C934FF6D9
:101A9000FF7209A92846CDE909A90B9604F098FF21
:101AA00040F26A51284604F0B1FF342221460DEB82
:101AB000020022F05CF9284D284B2C61C5E9003466
:101AC0000923C5E905361D23C5E9073B40F20D1280
:101AD00040F24313C5E9092340F2171140F24713BE
:101AE0002846C5E90B13C5E90244AC8685F83640A3
:101AF00004F034FAFF21F022CDE912144FF4806093
:101B000005214FF4A073CDE91401CDE90E240DA9F0
:101B1000CDE9164228462246CDE91037104D1893DC
:101B200024E000BF003802400010024000080240DC
:101B3000000C0240000402405C54002000300240CF
:101B4000C8530020A0860100C85200204C5200203B
:101B50003A520020400100A02053002000680140BC
:101B600034520020005C0040005001400D94ADF85C
:101B700064408DF8664004F0A5FA2A4B2B601B6880
:101B800098472B68284DDB689847284B2846C5E9BD
:101B90000034C5E90274C5E90A47C5E90C44244F7D
:101BA00003F01AF931462846224D03F0CBF94FF4E1
:101BB000E133C5E9007328460C23C5E90534C5E9BE
:101BC00002442C61EC6105F0BDFC4FF0FF331A4973
:101BD0001122284605F0E5FCFEF76AFDFEF767FDD9
:101BE00005F0D2FD154A3146404605F0E8FE144B9B
:101BF000144A18602146144805F0F2FD134B144AAC
:101C000018602146134805F0EBFD134B134A18608A
:101C10002146134805F0E4FD124B186005F0C6FD9F
:101C2000FEE700BF140000201C54002000B002405A
:101C30000010014080520020864F0208B05B02086D
:101C40003C520020105C0208B916000848520020DF
:101C5000EC5B0208BF06000844520020C85B020883
:101C6000C516000840520020704770477FB5094BE9
:101C70008DF817201B6802930DF1170201230092C3
:101C800001930A460146044803F016FF07B05DF8C9
:101C900004FB00BF10000020C85300207FB50023C4
:101CA0008DF81730084B1B6802930A4601230DF18B
:101CB0001701009101930146044803F08DFF9DF840
:101CC000170007B05DF804FB10000020C853002087
:101CD0001FB5084C24680092CDE901340A4601235F
:101CE0000146054803F078FF003818BF012004B012
:101CF00010BD00BF10000020C853002002F0F6BF46
:101D000010B5064C00222046042103F011FC2046A9
:101D10000122BDE81040042103F00ABC0008024083
:101D200038B50B4D044601220A484FF4005103F028
:101D3000FFFB00220421284603F0FAFB2046FFF7B0
:101D4000A9FC28460122BDE83840042103F0F0BB7D
:101D500000080240000C024038B50B4D044600223A
:101D60000A484FF4005103F0E3FB00220421284607
:101D700003F0DEFB2046FFF78DFC28460122BDE87C
:101D80003840042103F0D4BB00080240000C02409C
:101D9000F7B5144E144F05460C4630460022042178
:101DA00003F0C6FB00224FF40051384603F0C0FB9D
:101DB0002846FFF76FFC0D4B0D481B68224601A912
:101DC00005F00AF9384601224FF40051019C03F056
:101DD000AFFB30460122042103F0AAFB204603B0EA
:101DE000F0BD00BF00080240000C02400C000020C3
:101DF000C852002002F07ABF0268034B9A4201D118
:101E000002F062BF704700BF001000407047000042
:101E100082B00E4B00220092596C41F4804159640B
:101E2000596C01F48041009100990192196C41F0C4
:101E3000805119641B6C03F080530193019B0F21A7
:101E40006FF0010002B002F077BF00BF003802401F
:101E50000268094B9A4282B00BD100230193074BD1
:101E60001A6B42F480521A631B6B03F48053019384
:101E7000019B02B0704700BF0030024000380240B2
:101E800007B50F4B02689A4216D10022A3F5F04322
:101E90000192196B41F4000119631B6B03F40003F9
:101EA000019305215A20019B02F046FF5A2003B0FE
:101EB0005DF804EB02F072BF03B05DF804FB00BFF5
:101EC00000B002402DE9F043044689B014220021FD
:101ED00003A821F04CFF2268244B9A4243D1244CA2
:101EE000244800250095236B43F004032363236BF0
:101EF00003F004030093009B0195236B43F001035F
:101F00002363236B03F001030193019B4FF012093C
:101F10004FF400734FF001080327042603A9CDE90D
:101F20000339CDE90587079603F018FA4FF480735B
:101F30001148079603A9CDE90339CDE9058703F0D8
:101F40000DFA0295236C43F400032364236C03F41D
:101F500000030293029B236A43F400032362236A73
:101F600023F40003236209B0BDE8F083005C004065
:101F7000003802400008024000000240F0B599B06D
:101F800004461422002107A821F0F1FE30220DEBB7
:101F90000200002121F0EBFE22685E4B9A4240F0E5
:101FA000B78008230C93C0231093042312930CA82A
:101FB0004FF40033159304F0BFFB08B1FFF726FF81
:101FC000554B5648002400945A6C42F080625A6483
:101FD0005A6C02F080620092009A01941A6B42F0EF
:101FE00020021A631A6B02F020020192019A0294F5
:101FF0001A6B42F001021A631A6B02F0010202929C
:10200000029A03941A6B42F002021A631A6B02F0EE
:1020100002020392039A04941A6B42F040021A637C
:102020001A6B02F040020492049A05941A6B42F073
:1020300004021A631A6B02F004020592059A0694D0
:102040001A6B42F008021A631B6B03F00803069335
:1020500002250E26069B0B964FF4806307A9CDE957
:102060000735CDE9094503F079F941F658032C48C5
:102070000B9607A9CDE907350927CDE9094503F0F6
:102080006DF9032327480B9707A9CDE90735CDE95B
:10209000094503F063F94FF4706322480B9607A9D2
:1020A000CDE90735CDE9094503F058F94FF40C6344
:1020B0001D480B9607A9CDE90735CDE9094503F081
:1020C0004DF9C02319480B9607A9CDE90735CDE98D
:1020D000094503F043F9082315480B9607A9CDE9F4
:1020E0000735CDE9094503F039F94FF4A0530E48FF
:1020F0000B9707A9CDE90735CDE9094503F02EF97E
:1021000058202246052102F017FE582002F046FE14
:1021100019B0F0BD006801400038024000140240D0
:102120000000024000040240001802400008024083
:10213000000C024010B5044688B01422002103A808
:1021400021F015FE2268144B9A4223D103F568430F
:10215000002101915A6C114842F480125A645A6C61
:1021600002F480120192019A02911A6B42F020024D
:102170001A631B6B03F020030293029B4FF46072FF
:1021800002230321CDE903230523CDE9061303A987
:1021900003F0E4F808B010BD005001400014024004
:1021A00010B5044688B01422002103A821F0DFFDF9
:1021B0002268144B9A4223D103F5943300210191F4
:1021C0005A6C114842F010025A645A6C02F0100224
:1021D0000192019A02911A6B42F001021A631B6B81
:1021E00003F001030293029B4FF4C0620223032118
:1021F000CDE903230723CDE9061303A903F0AEF8C5
:1022000008B010BD00100140000002402DE9F0416F
:1022100086B0002303932B4B1C68002C4FD14FF04A
:102220000108C3F80080284B00949A6B274842EAC3
:1022300008029A639B6B03EA0803009302270326B4
:102240000C25009B01A94FF63F03CDE90137CDE9ED
:10225000046503F083F81E48059501A9CDE90187BF
:10226000CDE9034603F07AF848F23313194805958F
:1022700001A9CDE90137CDE9034603F06FF84FF628
:1022800083731548059501A9CDE90137CDE90346CA
:1022900003F064F84CF203731048059501A9CDE9E9
:1022A0000137CDE9034603F059F860230C48059542
:1022B00001A9CDE90137CDE9034603F04FF806B097
:1022C000BDE8F08164540020003802400014024050
:1022D000000802400018024000100240000C0240BA
:1022E0000004024070B588B000230293204B1A6CA2
:1022F00042F010021A641B6C03F0100302930546AF
:1023000001A903A8029B04F0F9F9069B4BBB04F05A
:10231000D5F9184E184B336040F2E733F360174B92
:10232000B0FBF3F3013B7360304600233361B360CD
:10233000B36105F01BF8044680B9304604F0F0FEA6
:10234000044658B9362002F029FD0F2D0DD822463B
:102350002946362002F0F0FC094B1D60204608B0EB
:1023600070BD04F0ABF94000D3E70124F6E700BFED
:1023700000380240685400200010004040420F0026
:102380007C0000207047FEE7FEE7FEE7FEE77047AF
:1023900008B5402003F0DCF8BDE80840802003F0D9
:1023A000D7B808B54FF4805003F0D2F8BDE8084024
:1023B0004FF4005003F0CCB8014804F0EFBE00BF6A
:1023C00068540020014803F020BE00BF20530020C5
:1023D000014802F02DBD00BF1C54002001207047B1
:1023E00008B521F067FD162303604FF0FF3008BDEC
:1023F00008B521F05FFD16230360FEE770B50D46BA
:1024000014460E46731B9C4201DC204670BDAFF3A0
:10241000008006F8010BF5E770B50D4614460E4630
:10242000731B9C4201DC204670BD16F8010BAFF314
:102430000080F5E74FF0FF3070474FF400534B60DA
:102440000020704701207047002070470A4A116839
:1024500008B5034609B90949116010686946034483
:102460008B4206D921F026FD0C2303604FF0FF308C
:1024700008BD1360FCE700BFB054002028700120A5
:10248000704710B50421044620F02DFB204610BDF6
:10249000012908B506D0022908D059B901F06CFA13
:1024A000006808BD01F068FA4068FAE701F064FAD4
:1024B0008068F6E70020F4E700487047485C0208AF
:1024C0001420704713B5002451B1036801948DF8AE
:1024D000034001AA9C680DF10303A04702B010BDA0
:1024E0000846FBE7C0897047008A7047C08870477C
:1024F00080887047807A00F07F007047807AC0093A
:1025000070470020704700009FED010A704700BF30
:1025100000000000704710B50821044620F0E3FADF
:10252000204610BD7047704700F5987308684968E9
:1025300003C37047704770474160704770477047EA
:10254000064BC0F84C310023C0F8503100F5A2739F
:10255000C0F84801C0F84031704700BF9D26000810
:102560000123037270477047704770477047704788
:1025700010B4C26841685410034601EB6200D207F0
:1025800048BF0A599B685DF8044B48BFD3581847A9
:102590000346406830B19A681AB9D86800F0010063
:1025A00070470120704710B51421044620F09BFAB3
:1025B000204610BD10B50C21044620F094FA2046A8
:1025C00010BD10B51021044620F08DFA204610BD34
:1025D00010B54FF4AE71044620F085FA204610BDC8
:1025E00010B50DF04BFC0368BDE81040DB6B1847DD
:1025F00070B50446B2B01E49C02202A821F087FC83
:10260000237C2F2B03D90123237232B070BD33B941
:10261000184B1B781BB10DF031FC0DF035FC022579
:10262000237C302BF1D832AA02EB8303E68953F8DE
:10263000C03C608993FBF6F206FB123313FB00F3F8
:10264000ADF804006068A189ADF800300368ADF80A
:10265000061012FB01F21B69ADF80220694698478B
:10266000237C012D03F101032374CED00125D7E78C
:10267000B4490208E662012010B50446D0F84001D2
:1026800058B10368DB68984738B1D4F84001036853
:102690009B6898470023C4F8403110BD2DE9F14FE5
:1026A000D0E9556A0746B06803681B6A9847DB287B
:1026B00005D8444B444AA321444821F051F970689D
:1026C00003681B6A98470F2803D8414B3E4AA42150
:1026D000F2E7F06803681B6A98470B2803D83D4B64
:1026E000394AA521E8E70DF0C9FBDFF8F090043086
:1026F0000DF011FCD9F8000010B10368DB689847B1
:10270000D9F8000010B103681B689847DFF8D08043
:10271000D8F8000010B103685B699847D7F83C010E
:1027200010B103685B689847D8F8000010B10368DF
:102730001B689847D7F83C0110B103689B6898471D
:10274000F068036800215B6A98474FF0000B224B4A
:10275000C0F804B0044680F808B00360B0680368AD
:1027600059465B6A9847054601F048FF7068036860
:1027700059465B6A98472946064601F01FFF331DFC
:10278000C7F83C61C9F80040C8F80050CAF80030EA
:102790002B68C6F808A02846DB68EE6398473368C4
:1027A00030461B689847214628460FF061FD236894
:1027B00020461B69984723685B69204601B0BDE845
:1027C000F04F1847C34F0208515002082351020826
:1027D0006A5102080D5202085C5E02083063012053
:1027E0002C630120044B1B6893F858200AB1D86C65
:1027F00000B99868704700BFE862012000230F4AC3
:1028000043600372026003740D4A0E4B12881B88EA
:1028100093420BD9073306210532DB08B2FBF1F2F4
:10282000082192B243818281C1817047073205330A
:102830000621D208B3FBF1F39BB2F3E7805E0208F6
:10284000DE620120DC620120F8B5174604460E4620
:102850000DF0FEFB124B1C60124B2360124B002547
:10286000C4E95135114BC4E9535518680368012177
:102870009B68C4E94F55C4E955769847284601F04E
:102880002FF8FFF7AFFF18F04AF8FFF7ABFF18F08B
:10289000C1F8FFF7A7FF18F0C9F82046F8BD00BF40
:1028A0003C630120085E0208F05D0208E862012036
:1028B000064BC0F84C310023C0F8503100F5A2732C
:1028C000C0F84801C0F84031704700BFA52B000890
:1028D000064BC0F84C310023C0F8503100F5A2730C
:1028E000C0F84801C0F84031704700BF9D2600087D
:1028F000064BC0F84C310023C0F8503100F5A273EC
:10290000C0F84801C0F84031704700BF712A000884
:10291000064BC0F84C310023C0F8503100F5A273CB
:10292000C0F84801C0F84031704700BF392900089D
:1029300003685B6A184700002DE9F047D0E9556A43
:102940000746B06803681B6A9847B0F5887F05D2D0
:10295000404B414AA321414821F002F870680368C6
:102960001B6A98470F2803D83D4B3B4AA421F2E746
:10297000F06803681B6A9847132803D8394B364A16
:10298000A521E8E70DF07AFADFF8DC9004300DF0CD
:10299000C2FAD9F8000010B10368DB689847D9F88B
:1029A000000010B103681B689847DFF8C080D8F8B2
:1029B000000010B103685B699847D7F83C0110B17B
:1029C00003685B689847D8F8000010B103681B687B
:1029D0009847D7F83C0110B103689B6898470021DD
:1029E000F068FFF7A5FF0446FFF708FFB06803682B
:1029F00000215B6A9847054601F05AFE706803683B
:102A000000215B6A98472946064601F02FFE331DD8
:102A1000C7F83C61C9F80040C8F80050CAF8003057
:102A20002B68C6F808A02846DB68EE639847336831
:102A300030461B689847214628460FF019FC23684A
:102A400020461B699847236820465B69BDE8F0472C
:102A5000184700BFC34F0208B052020823510208B2
:102A60006A5102080D520208306301202C630120D4
:102A70002DE9F047D0E9556A0746B06803681B6A3C
:102A80009847DB2805D8404B404AA321404820F016
:102A900067FF706803681B6A98470F2803D83D4B8F
:102AA0003A4AA421F2E7F06803681B6A98471328A2
:102AB00003D8394B354AA521E8E70DF0DFF9DFF8F7
:102AC000DC9004300DF027FAD9F8000010B103684B
:102AD000DB689847D9F8000010B103681B68984775
:102AE000DFF8BC80D8F8000010B103685B69984734
:102AF000D7F83C0110B103685B689847D8F800002C
:102B000010B103681B689847D7F83C0110B10368FF
:102B10009B6898470021F068FFF70AFF0446FFF71B
:102B20006DFEB068036800215B6A9847054601F0B6
:102B300065FD7068036800215B6A98472946064670
:102B400001F03CFD331DC7F83C61C9F80040C8F8EE
:102B50000050CAF800302B68C6F808A02846DB6889
:102B6000EE639847336830461B68984721462846ED
:102B70000FF07EFB236820461B6998472368204698
:102B80005B69BDE8F0471847C34F02088553020848
:102B9000235102086A5102080D52020830630120D5
:102BA0002C6301202DE9F047D0E9556A0746B0684B
:102BB00003681B6A984743F62353984205D8404B55
:102BC000404AA321404820F0CBFE706803681B6A8E
:102BD00098470F2803D83D4B3A4AA421F2E7F06802
:102BE00003681B6A9847132803D8394B354AA52137
:102BF000E8E70DF043F9DFF8DC9004300DF08BF9D5
:102C0000D9F8000010B10368DB689847D9F80000D4
:102C100010B103681B689847DFF8BC80D8F8000043
:102C200010B103685B699847D7F83C0110B103689D
:102C30005B689847D8F8000010B103681B68984794
:102C4000D7F83C0110B103689B6898470021F068F1
:102C5000FFF76EFE0446FFF7D1FDB0680368002160
:102C60005B6A9847054600F0C1FF70680368002161
:102C70005B6A98472946064600F0C8FE331DC7F830
:102C80003C61C9F80040C8F80050CAF800302B6811
:102C9000C6F808A02846DB68EE63984733683046DC
:102CA0001B689847214628460FF0E2FA2368204621
:102CB0001B699847236820465B69BDE8F0471847C1
:102CC000C34F02085A540208235102086A510208ED
:102CD0000D520208306301202C630120406A7047C6
:102CE000806A704770478A880B8810B5D20A4C8872
:102CF000C1699BB251F8220043EA0443184410BD55
:102D000010B50446BAB1107B68B1537BD27A1B026E
:102D100003F4E0631A43236A03EB82031A888A42AE
:102D200002D193F9020010BD05D8013880B20433F6
:102D30000028F3D1F7E70020F5E710B52C21044671
:102D40001FF0D1FE204610BD30B58BB00446BDF853
:102D500060500895BDF85C5007959DF85050069559
:102D60009DF84C5005959DF8485004959DF84450A9
:102D700003959DF8405002959DF83C500195BDF893
:102D8000385000950EF0ACFE064B2360159BE361B6
:102D9000169B2362199B63621A9BA36220460BB0A9
:102DA00030BD00BFA45E020870477047704770478F
:102DB000704730B5036885B06D460181D3F8843023
:102DC000014604462846984795E807003C3484E8C5
:102DD000070005B030BD30B5036885B06D46418150
:102DE000D3F88430014604462846984795E8070002
:102DF0003C3484E8070005B030BD002202804280E8
:102E00008280C280704780F83610704770B50368C2
:102E100004461B6B154698472368294620465B6E7F
:102E2000BDE87040184700207047806C70477047BD
:102E30007047704710B54C2104461FF054FE2046E1
:102E400010BD10B54FF4197104461FF04CFE20461A
:102E500010BD08B5FEF728FB08BD0000036870B57B
:102E60005E6B124B1B6804468DB22BB9104B114A96
:102E70006C21114820F074FD1049828D098891421F
:102E800003D80F4B0B4A6D21F3E713F812200D4BBB
:102E90001B6853F8220003681B6B9847291A3346B6
:102EA000204609B2BDE87040184700BF40630120CA
:102EB0002F55020871550208AC55020844630120E1
:102EC000F35502084863012000224FF0FF31C0E9AA
:102ED0000021826070470000074A02600022C0E9BA
:102EE0000122C0E90322C0E90522C0E907224FF40C
:102EF00080728284704700BFC467020870B503689F
:102F000004461B6B154698472368294620465B6B91
:102F1000BDE87040184770B504461D46BDF9106005
:102F2000FFF7ECFF2368294620469B6B98472368F0
:102F300031462046DB6BBDE87040184710B52622AD
:102F40000446002120F013FF2046FFF7C5FF044B85
:102F50002360FF2384F826300023A362204610BD9F
:102F6000B065020810B526220446002120F0FFFEBD
:102F70002046FFF7B1FF0A4B23600A4BA3624FF6CE
:102F8000FF73A3854FF47F020023C4E90C3223872B
:102F90004FF0FF32C4E91023E363204610BD00BFA9
:102FA00020650208E05D02082DE9F04F04468FB06D
:102FB000A04600250EF0B0FFBA4BE56348F8403B51
:102FC00004F16C074046FFF7B9FF04F198060CA91D
:102FD0004FF6FF733846DFF804B3ADF8303004F134
:102FE000C40A09F0D3FB3046FFF776FFC4F898B067
:102FF000C4F8C0505046FFF7A1FFAB4AC4F8C42044
:1030000004F1F803184604F59279C4F8F050A4F8D6
:10301000F4500793FFF760FFC4F8F8B0C4F82051EC
:103020004846FFF79FFFA14BC4F8243104F5B8735D
:103030001846C4F86C510693FFF74EFF04F5CE73A3
:10304000C4F870B11846C4F898510593FFF776FF9D
:10305000954AC4F89C2104F5E8731846C4F8C85191
:10306000A4F8CC510493FFF77DFF04F506731846CE
:103070000393FFF777FF8D4BC4F818324FF4A0731A
:103080002A464046C4F8605229460093F023FFF7D1
:1030900042FF04F1040B4FF07F43A36641465846BC
:1030A00006F066FC38460CA9ADF830500AF0D8FAA4
:1030B0004FF4A0732A46384600932946F023FFF7C1
:1030C0002AFF3846294609F01CFB394658464FF47A
:1030D000877706F04DFC30468C232522122100977D
:1030E000FFF719FF2A468C23294650460097FFF721
:1030F00012FF6F496F4BDFF8E881C4E93B134FF0D3
:1031000001033046A4F8F430514606F031FC4FF488
:10311000A2736FF035020798009329468C23FFF7BE
:10312000FAFE3046079906F023FC3146584606F071
:103130001FFC1F22D9214846FFF7E0FE5E4BC4F872
:103140005431D4F82431A4F8585108AED3F884305F
:1031500049463046984796E8070004F5B07383E87F
:103160000700D8F800302BB9544B554A6021554818
:1031700020F0F6FB544B1B881BB9544B504A61217D
:10318000F5E7DFF860A1524FDAF80000294600F0B9
:10319000E3FBC4F86C0148460AF02AF804234846C9
:1031A0000CA9ADF834300C970AF042F8494658465D
:1031B00006F0DEFB242300933D220698BB21FFF797
:1031C000AAFE0699584606F0D3FB2D2305980093D6
:1031D0006C223A23B021FFF79EFE3E4B344A0599FC
:1031E0004FF00209C4E971235846A4F8CC9106F0C7
:1031F000BFFB77220498B521FFF780FE2D4B049981
:10320000C4F800323046A4F8045209F069FD96E88B
:10321000070004F5037383E8070003230498ADF85F
:1032200034300CA90C970AF003F80499584606F0BC
:103230009FFB85220398CA21FFF760FE264BC4F846
:103240004832D4F818320399D3F88430A4F84C5299
:103250003046984796E8070004F5157383E80700A1
:10326000D8F80030002B3FF47FAF174B1B88012BA1
:1032700083D90121DAF8000000F06EFBC4F8600287
:10328000039809F0B5FF03980C970CA9ADF834909A
:1032900009F0CEFF5846039906F06AFB20460FB0AE
:1032A000BDE8F08F9C5F02088C6602080C5F020884
:1032B0002A2730FF30A8F0FF2E97D6FF2F5502089F
:1032C00031560208AC55020844630120F355020848
:1032D000E05D0208181308FF2F9BDDFF4C62020817
:1032E000406301204C63012070477047704730B441
:1032F000C26844685510034604EB6200D20748BF19
:1033000062599B6830BC48BFD35818470346406891
:1033100030B19A681AB9D86800F0010070470120EE
:10332000704710B5102104461FF0DDFB204610BD8C
:1033300010B5DC2104461FF0D6FB204610BD9830A6
:10334000884208B505D10CF099FDBDE80840FFF7AB
:10335000AFBA08BD2DE9FF4704460EF0DDFD434B33
:103360002360434B0025C4E910354FF4807304F10A
:103370006C06A4F86430FF234FF6FF7784F86630BC
:1033800003A9C4E91255C4E91455C4E91655E56307
:103390002566A5663046ADF80C7009F0F7F940F2E5
:1033A0000113A4F8BC30334BC4F89830324BA4F866
:1033B000C670C4E93334314BA4F8C87004F1400A34
:1033C0004FF4A0792A46C4E9353584F8CA70C4E9B7
:1033D0002755C4E92955C4E92B55C4E92D55C4F82E
:1033E000C05084F8C45029465046CDF80090F023D0
:1033F000FFF791FD271D4FF07F43A36651463846E6
:1034000006F0B6FA0E2303A93046ADF80C300AF0E8
:1034100027F9F0232A4629463046CDF80090FFF7D9
:103420007AFD2946304609F06CF904F198083146D6
:10343000384606F09DFA4046FC223C21FFF75EFD2F
:103440000F2303AA02A94046ADF80830ADF80C30AE
:1034500009F049FF04F1CC033846C4F8C0304146B6
:1034600006F086FA204604B0BDE8F087E85F02085F
:10347000B065020818660208D05F02083F330008F2
:1034800070477047704730B4C268446855100346AF
:1034900004EB6200D20748BF62599B6830BC48BF4A
:1034A000D35818470346406830B19A681AB9D868AB
:1034B00000F0010070470120704710B5102104464C
:1034C0001FF011FB204610BD10B54FF48871044663
:1034D0001FF009FB204610BD38B500F1CC0399421E
:1034E00004460D4603D10CF0C9FCFFF701FA9834ED
:1034F000A54205D10CF0C2FCBDE83840FFF7D8B9B1
:1035000038BD0000084A02600022C0E90122C0E97B
:103510000322C0E90522C0E90722826280F82C203C
:1035200040F20112828470473C6402082DE9F04F9A
:10353000044685B00EF0F0FC4E4B23604E4BDFF896
:1035400044B1002504F16C07C4E910354FF0FF0ABF
:103550004FF480734FF6FF76A4F8643003A904F1AA
:103560009809C4E91255C4E91455C4E91655E56330
:10357000256684F866A0A566384604F1CC08ADF847
:103580000C6009F003F94846FFF7BCFFC4F898B097
:10359000A4F8C660A4F8C86084F8CA604046FFF783
:1035A000B1FF364BC4F8CCB0C4E94034344B84F896
:1035B000FEA004F1400B4FF4A07AC4E942352A463C
:1035C000A4F8FA60A4F8FC6029465846CDF800A09B
:1035D000F023FFF7A0FC261D4FF07F43A36659465A
:1035E000304606F0C5F9102303A93846ADF80C3073
:1035F0000AF036F8F0232A4629463846CDF800A0CE
:10360000FFF789FC2946384609F07BF839463046F1
:1036100006F0AEF929464846F322FFF76FFC04F5A1
:103620008075112303AA02A94846ADF80830ADF809
:103630000C3009F058FE49463046C4F8C05006F038
:1036400097F94046F4228C21FFF758FC122303AA75
:1036500002A94046ADF80830ADF80C3009F043FE41
:103660003046C4F8F450414606F082F9204605B0D1
:10367000BDE8F08F34600208B06502081C600208E3
:10368000D9340008186602087047000030B5174D9D
:103690002C6814F001048FB0BFF35B8F22D1284651
:1036A0001FF023FAF0B13F230993114B0893114BFC
:1036B00007930123CDE9054304930423CDE9024395
:1036C0000A230D49009314220C23CDE90B440B4827
:1036D0000A940194FFF738FB094820F05FF9284667
:1036E0001FF00FFA05480FB030BD00BFB4540020E2
:1036F000D0740208DC7402088C730208B8540020ED
:10370000893600087047000030B5164D2C6814F05B
:1037100001048FB0BFF35B8F21D128461FF0E5F97C
:10372000E8B13F230993104B0893104B10491148FF
:103730000A94CDE9064301220423CDE90332142380
:1037400000930222CDE90B44CDE901440594FFF733
:10375000FBFA094820F022F928461FF0D2F9054863
:103760000FB030BDE4540020D4740208E0740208A5
:10377000A4740208E85400200537000870470000D0
:1037800030B5164D2C6814F001048FB0BFF35B8F79
:1037900020D128461FF0A9F9E0B13F230993104B2F
:1037A0000893104B104911480A940122CDE90643B1
:1037B0000423CDE9033228230093CDE90B44CDE95E
:1037C00001440594FFF7C0FA094820F0E7F82846BD
:1037D0001FF097F905480FB030BD00BF1455002009
:1037E000D8740208E4740208C07402081855002056
:1037F0007D37000800207047002070470EB403B5E5
:1038000003AB002153F8042B01930DF0E7FB02B04A
:103810005DF804EB03B070470CB407B504AB53F884
:10382000042B01930DF0DAFB03B05DF804EB02B05A
:1038300070470000436C10B5044673B3038F2BB977
:10384000184B194AC521194820F08AF8C38E00EB9D
:1038500043035B8C0BB30FF064FA238F012B03D867
:10386000134B144ACB21EEE7E28E531C9BB2092B7B
:10387000194688BFA3F10A0104EB410140F63F104D
:10388000498C814209D10A2B04EB420228BF002354
:1038900004EB4303508C588451842046BDE810400B
:1038A0000FF042B97C5602088556020830570208CC
:1038B0007A570208885702080FF0FDB810B586B095
:1038C00002AC84E806001A460AAB05930193099BF3
:1038D00000932146089B0BF053FE06B010BD00007C
:1038E00038B518BB124B13481C681349B4B1226891
:1038F00022440260626822440A60A26814440F4BAA
:1039000000221A8000F038F8054600F033F80C4B1E
:103910001C600C4B1D600C4B188007E00B4B0360C8
:103920000B4B0B600B4B1C68002CE8D138BD00BF63
:103930005055002048550020445500204C5500208B
:10394000406301204863012044630120FC740208A5
:10395000E874020818750208044B1B6853F821002C
:10396000034B1B6803EB4000704700BF4455002029
:1039700048550020052070470048704754550020E6
:1039800010B5FFF7C1FE044C2060FFF7F9FE606040
:10399000FFF77CFEA06010BD5455002010B5002438
:1039A00004600C6014601C6010BD704710B54FF4CB
:1039B000AE7104461FF097F8204610BD10B50446BE
:1039C000D0F8580100F013F82046BDE810400CF084
:1039D000FFBA000010B50446FEF736FF014B236026
:1039E000204610BD686002080022026070477047E0
:1039F000704704387047704710B5102104461FF017
:103A000072F8204610BDA0F10400F5E700228260A4
:103A1000024A026018324260C1607047BC6002080E
:103A2000704700000F4B70B5044603604FF47355A8
:103A3000B5F5685F05D0635960191B6898472C3D40
:103A4000F6E743F6FC1540F26C66635960191B6893
:103A50002C3D9847B542F8D12046FFF7E9F92046BA
:103A600070BD00BFE460020810B50446FFF7DAFF3E
:103A7000204643F624511FF036F8204610BD0000C2
:103A8000002310B5C0E90133C0E90333C0E90733AF
:103A9000C0E905334FF480738384064B03600B88C1
:103AA000C384FF23044680F8283009F0D9FD20465E
:103AB00010BD00BFF466020810B5044601F010F90D
:103AC00043F23903002818BF034683EA433383EAED
:103AD000534383EA4313C4F8903610BDD0F89026C0
:103AE000044943F2390301FB0233C0F89036C3F3B3
:103AF0000E4070476D4EC64108B5FFF7EFFF072334
:103B0000B0FBF3F3C3EBC303C01A08BD10B5034603
:103B100000F11004002283F8242683F8252683F878
:103B2000262683F827260433A342F4D149391129E4
:103B300030D8DFE801F050302F222F2F3A2F2F2FCF
:103B400015442F2F2F2F2F094BF6FF73C0F8343653
:103B5000012380F8253680F8293680F82A3617E0C8
:103B6000214BC0F83436012380F8293680F82D36F1
:103B700080F8263680F82A360CE04FF0FF13C0F8A4
:103B8000343640F20112012380F82A36A0F82C26A0
:103B900080F82E3610BD4FF47F43C0F8343640F223
:103BA0000113A0F828360123D7E74FF08013C0F89F
:103BB0003436012380F8293680F82D36CDE74FF4CE
:103BC0007F03C0F83436012380F8253680F8293683
:103BD00080F82D36CEE74FF6FF73C0F834364FF03D
:103BE0000133C0F82836D5E700FFFF00F7B50446DB
:103BF00004F56856FFF7D8F9334B236004F5D36515
:103C000028364FF6FF77284601A92C35ADF8047009
:103C1000FFF736FFAE42F6D104F5685504F573564A
:103C20002C352C364FF6FF77284601A92C35ADF8F8
:103C30000470FFF725FFB542F6D12046FFF73CFFA1
:103C400000214FF4707204F5197020F090F82822CA
:103C5000C4F86C26C4F87026042304F54052C4F856
:103C600060360023C4F86436C4F8683684F87436C5
:103C7000C4F87836C4F87C36A4F88036C4F88436A4
:103C8000C4F88836C2F8283AC2F8EC3C012384F81C
:103C900094362046FFF730FF0C4F04F22466395C5F
:103CA0002046FFF733FF0FCE04F5C7650FC5336815
:103CB0002B602046FFF720FF395C84F882162046EF
:103CC000FFF724FF03B0F0BDE46002083061020892
:103CD000F0B500F2236500240A272E46002116F8CD
:103CE000013F93B1D0F86036D0F864260B44092B1D
:103CF000224414D8162A12DC002A06DB07FB023302
:103D000000EB8303D3F864324BB901310429E6D1C7
:103D10000134042C05F10405DFD1002000E001206E
:103D2000F0BDF0B500F2236500240A272E460021DD
:103D300016F8013F8BB1D0F8642622440132162ACE
:103D400015DC002A09DBD0F8603607FB02330B4490
:103D500000EB8303D3F864324BB901310429E7D176
:103D60000134042C05F10405E0D1002000E001201D
:103D7000F0BDF0B5002100F223650A272E4600228F
:103D800016F8013F83B1D0F86036D0F8644613448A
:103D9000013B0C4412D4172C06D807FB043300EB6C
:103DA0008303D3F864324BB90132042AE8D10131DC
:103DB000042905F10405E1D1002000E00120F0BD57
:103DC000F0B5002100F223650A272E46002216F8DE
:103DD000013F8BB1D0F86036D0F86446134401330C
:103DE000092B0C4412DC172C06D807FB043300EB1C
:103DF0008303D3F864324BB90132042AE7D101318D
:103E0000042905F10405E0D1002000E00120F0BD07
:103E1000F0B5002100F223650A272E46002216F88D
:103E2000013F8BB1D0F864460C44172C0CD8D0F865
:103E300060361344092B9FBF07FB043300EB830359
:103E4000D0F83446C3F864420132042AE7D1013184
:103E5000042905F10405E0D1F0BDD0F86836C3F1BE
:103E60000A039B000A2BB8BF0A23C0F86C367047C0
:103E7000F8B504461725282700F5197607FB05F342
:103E800003F518722244002152F8040FF0B10131F9
:103E90000A29F9D1234409E003F50E710022013209
:103EA00051F8040F88620A2AF9D1283BA342F3D1C2
:103EB0002822002130461FF05AFFD4F8683601331B
:103EC000C4F868362046FFF7C8FFD7E7013DD5D2D2
:103ED000F8BD30B585B06A4601F1100410460B46B6
:103EE0001D7800F8015B5D78C5709D78C57104335D
:103EF00013F8015CC572A342F2D1D3780B709378AA
:103F00004B7053788B7012F8043BCB700431A14294
:103F1000F3D105B030BD08B50BF0B0FFBDE80840E7
:103F2000FEF7F6BC034B1868034B984288BF00208D
:103F3000704700BF00000E0840420F0030B587B048
:103F400000250095044601F0C1F8012301950B22DC
:103F50000225694601A8CDE90323059501F0AAF9D8
:103F6000034618B101F0C4F807B030BD024922463B
:103F7000284601F0EFF8F5E700000E0890F87C36CF
:103F800037B50446002B41D12C4D286800231A4632
:103F90000DF1070103F07FFDA8B1D4F88436D4F801
:103FA0006C2601339342C4F8843606DB236820462E
:103FB000DB6A98470023C4F88436236820461B6BCD
:103FC000984703B030BD9DF80730413B042B08D81B
:103FD000DFE803F00310130716002368DB6B2046AD
:103FE00098479DF80730452B04BFD4F87036C4F8C5
:103FF0006C36CAE723681B6CF1E723685B6CEEE75D
:104000000523C4F86C3623689B6BE8E7D0F8883644
:104010000133B3F5967FC0F88836D2DBFFF782FF15
:10402000D4F86836834202D91846FFF787FF204646
:1040300003B0BDE83040FFF76EBF00BF3C52002028
:104040002DE9FF4100F540581646D8F8282AB2F568
:10405000967F07460D4641DA2C214A4302F5D36488
:1040600002444BF6FF71D2F898268B42126E04443C
:1040700001D1012303E020498B4204D11323ADF881
:104080000C3003A911E0B3F1FF1F01D10B23F6E7B8
:10409000B3F57F4F01D10323F1E7B3F1801F20D1A6
:1040A0000C23ADF80C300DEB03012046C6EBC60621
:1040B000C5EBC50590470E2372006900009312B24C
:1040C00009B22046FEF727FF214607F1F80005F068
:1040D0004FFCD8F8283A0133C8F8283A04B0BDE8B4
:1040E000F081B3F57F0F01D10D23C8E74FF6FF71C3
:1040F0008B42BED10223C2E700FFFF002DE9F04F43
:10410000064600F5B87906F5405885B048460025C2
:1041100005F03BFC06F2376AC8F8EC5CD346002792
:104120001BF8013F6BB3D8F8EC3C0F2B29DC2C2299
:10413000534343F62C215C183344D6F848265B5889
:104140004BF6FF718A421B6E344401D1042203E016
:1041500021498A4225D10A22ADF80C2003A9204624
:104160009847092300932AB239B22046FEF7D3FEBE
:104170002146484605F0FCFBD8F8EC3C0133C8F872
:10418000EC3C0937BFB2242FCAD10935ADB2242D7A
:104190000AF1040AC2D1484605B0BDE8F04F0DF05F
:1041A00047B8B2F1FF1F01D10722D5E7B2F57F4F23
:1041B00001D10622D0E7B2F1801F01D10822CBE75E
:1041C000B2F57F0F01D10922C6E74FF6FF718A428F
:1041D000BCD10522C0E700BF00FFFF002DE9F0477A
:1041E000044600F1F80804F540574046002505F064
:1041F000CCFB04F51879C7F8285ACA4600265AF8A5
:10420000043F4BB1D7F8282AB2F5967F04DA2A4644
:1042100031462046FFF714FF01360A2EEFD1013553
:10422000182D09F12809E8D104F223690026CA46AD
:1042300000251AF8013F9BB1D7F8283AB3F5967FCD
:104240000EDAD4F864263244172A09D8D4F8601656
:104250002944092904D8D4F834362046FFF7F0FE63
:104260000135042DE5D10136042E09F10409DED112
:1042700004F57355303540460CF0DAFFD4F8683653
:10428000114A0A2128460FF0F5FAC4F86C5104F5DA
:1042900092700CF0CDFFFFF745FE04F57455043520
:1042A0000346094A0A2128460FF0E4FAC4F860528E
:1042B00004F506700CF0BCFF94F87C3613B10023B3
:1042C000C4F88836BDE8F0875A58020810B504468D
:1042D000FEF7AFFD2046BDE81040FFF77FBF0000AE
:1042E000F8B590F89436044663B300F2246500F202
:1042F0004C660FCD0FC62B6833602046FFF7FCFBE2
:10430000234B195C84F882162046FFF7FFFB04F26A
:10431000246CBCE80F0004F5C7670FC72B683B602F
:1043200004F24C6CBCE80F0004F224670FC733683A
:104330002B602046FFF7E2FE2046FFF74FFF0023E9
:1043400084F8943694F874360BB3D4F87836013385
:104350001D2BC4F878361ADD0423C4F86036002318
:10436000C4F8643684F87436C4F8783604F5C76641
:104370000FCE04F224650FC533682B602046FFF78B
:10438000A7FC012308B184F87C3684F89436F8BD84
:10439000306102082DE9F043044685B0FFF768FD5F
:1043A00094F87D366BB12046FFF7BBFC002840F047
:1043B0008480D4F864360133C4F86436002384F86A
:1043C0007D3694F88136002B40F0898094F87E3653
:1043D0005BB12046FFF7CDFC20B9D4F86036013B35
:1043E000C4F86036002384F87E3694F87F365BB1DB
:1043F0002046FFF7E5FC20B9D4F860360133C4F855
:104400006036002384F87F3694F88036002B51D034
:104410006E46254604F110083246234693F82416CA
:10442000117093F82516517093F826169170043385
:1044300093F82316D170434502F10402EED12046D1
:1044400004F22461FFF745FD2046FFF741FC70B3FD
:10445000D4F86076D4F864967B1EC4F860362046A3
:10446000FFF736FC18B37B1CC4F860362046FFF714
:104470002FFCE0B109F1FF33C4F86076C4F864366C
:104480002046FFF725FC90B1C4F86496337885F890
:104490002436737885F82536B37885F82636F37890
:1044A00085F827360435454506F10406EED100238C
:1044B00084F8803605B0BDE8F0832046FFF7A8FCFD
:1044C000012384F874360023C4F8783676E7D4F8EC
:1044D00064360133C4F864362046FFF77FFE204679
:1044E000FFF71FFC0028F2D02046FFF791FC0123C4
:1044F00084F874360023C4F8783684F8813665E78A
:1045000090F8743610B5044663B990F87C364BB910
:10451000012380F87D36FFF73DFF2046BDE81040BF
:10452000FFF75CBE10BD10B50123044680F87D3650
:10453000FFF730FF2046BDE81040FFF74FBE10B533
:104540000123044680F87E36FFF724FF2046BDE8AD
:104550001040FFF743BE10B50123044680F87F36B4
:10456000FFF718FF2046BDE81040FFF737BE10B533
:104570000123044680F88036FFF70CFF2046BDE893
:104580001040FFF72BBE10B50123044680F881369A
:10459000FFF700FF2046BDE81040FFF71FBE704741
:1045A00004387047704710B5102104461EF09BFA7E
:1045B000204610BDA0F10400F5E700000022826053
:1045C000024A026018324260C160704740610208CE
:1045D0007047000010B5034B03600446FEF785FEEC
:1045E000204610BD6861020810B50446FFF7F2FFCF
:1045F0002046DC211EF077FA204610BD10B5044697
:10460000FEF7A8FE014B2360204610BD686102083A
:1046100008B50BF033FCBDE80840FEF749B90000CF
:1046200013B504460848002300681A460DF1070137
:1046300003F031FA30B99DF80730432B02D1204600
:10464000FFF7E6FF02B010BD3C520020FEF74EBE61
:10465000704704387047704710B5102104461EF0AB
:1046600042FA204610BDA0F10400F5E70022826066
:10467000024A026018324260C16070479C610208C1
:104680007047000010B5034B03600446FEF7F9FEC7
:10469000204610BDC461020810B50446FFF7F2FFC2
:1046A00020464FF488711EF01EFA204610BD00000F
:1046B00010B50446FEF73AFF014B2360204610BDBB
:1046C000C461020808B50BF0D9FBBDE80840FEF74D
:1046D000EFB808B50BF0D2FBBDE80840FEF708B90B
:1046E00013B504460C48002300681A460DF1070173
:1046F00003F0D1F928B99DF80730412B03D0422BA4
:1047000005D002B010BD2046FFF7DCFFF9E72046D8
:10471000FFF7DFFFF5E700BF3C52002008B5FEF7CA
:10472000B1FE034A00231370024A137008BD00BF94
:104730003952002038520020F02070474FF4A0700A
:1047400070472920FDF708BB2820FDF705BB08B5F9
:10475000FDF7D6FACA20FDF7FFFAC320FDF7E0FA0D
:104760000820FDF7DDFA5020FDF7DAFACF20FDF73B
:10477000F3FA0020FDF7D4FAC120FDF7D1FA30207A
:10478000FDF7CEFAED20FDF7E7FA6420FDF7C8FA51
:104790000320FDF7C5FA1220FDF7C2FA8120FDF7CC
:1047A000BFFAE820FDF7D8FA8520FDF7B9FA002016
:1047B000FDF7B6FA7820FDF7B3FACB20FDF7CCFA77
:1047C0003920FDF7ADFA2C20FDF7AAFA0020FDF7FD
:1047D000A7FA3420FDF7A4FA0220FDF7A1FAF7208A
:1047E000FDF7BAFA2020FDF79BFAEA20FDF7B4FAAC
:1047F0000020FDF795FA0020FDF792FAB120FDF7B1
:10480000ABFA0020FDF78CFA1B20FDF789FAB620E1
:10481000FDF7A2FA0A20FDF783FAA220FDF780FA3D
:10482000C020FDF799FA1020FDF77AFAC120FDF7B4
:1048300093FA1020FDF774FAC520FDF78DFA452094
:10484000FDF76EFA1520FDF76BFAC720FDF784FA25
:104850009020FDF765FA3620FDF77EFAC820FDF7B7
:104860005FFAF220FDF778FA0020FDF759FAB02040
:10487000FDF772FAC220FDF753FAB620FDF76CFA85
:104880000A20FDF74DFAA720FDF74AFA2720FDF789
:1048900047FA0420FDF744FA2A20FDF75DFA0020CC
:1048A000FDF73EFA0020FDF73BFA0020FDF738FA4D
:1048B000EF20FDF735FA2B20FDF74EFA0020FDF72B
:1048C0002FFA0020FDF72CFA0120FDF729FA3F20EE
:1048D000FDF726FAF620FDF73FFA0120FDF720FA52
:1048E0000020FDF71DFA0620FDF71AFA2C20FDF72F
:1048F00033FAC820FDF77EFA2620FDF72DFA0120B5
:10490000FDF70EFAE020FDF727FA0F20FDF708FA71
:104910002920FDF705FA2420FDF702FA0C20FDF707
:10492000FFF90E20FDF7FCF90920FDF7F9F94E20FB
:10493000FDF7F6F97820FDF7F3F93C20FDF7F0F9E3
:104940000920FDF7EDF91320FDF7EAF90520FDF741
:10495000E7F91720FDF7E4F91120FDF7E1F9002050
:10496000FDF7DEF9E120FDF7F7F90020FDF7D8F9B2
:104970001620FDF7D5F91B20FDF7D2F90420FDF72D
:10498000CFF91120FDF7CCF90720FDF7C9F9312047
:10499000FDF7C6F93320FDF7C3F94220FDF7C0F952
:1049A0000520FDF7BDF90C20FDF7BAF90A20FDF747
:1049B000B7F92820FDF7B4F92F20FDF7B1F90F2042
:1049C000FDF7AEF91120FDF7C7F9C820FDF712FA7F
:1049D0002920FDF7C1F9BDE808402C20FDF7BCB93E
:1049E00008B5FDF78DF90321D320FDF7D1F980B289
:1049F00008BD10B5C4B2022203212046FDF736F9E6
:104A00000A20FDF77BF9204600220321FDF72EF94D
:104A1000BDE810400220FDF771B938B50446E4B294
:104A2000FDF722F900212046FDF738F9012105465E
:104A30002046FDF733F940EA052080B238BD10B5B5
:104A4000C4B240212046FDF729F9030607D54C21C1
:104A50002046FDF723F9003818BF012010BD0122C0
:104A60004B212046FDF702F9204600224B21FDF79D
:104A7000FDF80020F2E773B50423C4B20E461546D4
:104A8000D7210DEB03022046FDF722F9019B1BBA4B
:104A90001A0DC3F30B23328020462B8001224B21B9
:104AA000FDF7E4F800224B212046FDF7DFF802B0C5
:104AB00070BD000010B50A4A1378984204460DD024
:104AC000517888420AD00BB141B90123D454FDF783
:104AD000CBF82046BDE81040FFF78BBF10BD00BFEC
:104AE0006055002010B5C4B209212046FDF7D6F864
:104AF00040F00102D2B220460921BDE81040FDF786
:104B0000B5B810B5C4B209212046FDF7C7F8092190
:104B100000F0FE022046BDE81040FDF7A7B838B50A
:104B2000C4B20D4620460A21FDF7B8F840EA050256
:104B3000D2B220460A21BDE83840FDF797B810B53B
:104B40000446FDF792F820461F21FFF7E8FF2046B4
:104B5000BDE81040FFF7C6BF38B5C4B20D462046C9
:104B60000A21FDF79BF820EA0502D2B220460A216D
:104B7000BDE83840FDF77AB810B50446FFF7C1FF2D
:104B800020461F21BDE81040FFF7E6BF10B5C0B2B8
:104B90000C460B21FDF782F8204010BD1F21FFF7C6
:104BA000F5BF0A46C0B20B21FDF760B81F21FFF721
:104BB000F8BF38B5C4B20D4620461721FDF76EF890
:104BC00020EA0502D2B220461721BDE83840FDF7A1
:104BD0004DB870B5C4B2064604212046FDF75EF814
:104BE000042100F0FB0205462046FDF73FF8304661
:104BF000F021FFF7DEFF05F0F80220460421FDF763
:104C000035F8492220212046FDF730F80220FDF733
:104C100075F8204601222121FDF728F820469A2226
:104C20004121FDF723F8204601224A21FDF71EF815
:104C3000204601224B21FDF719F8204600224B2186
:104C4000FDF714F8204601225621FDF70FF8204603
:104C500001225821FDF70AF8204601224021FDF7E4
:104C600005F82046FF220B21FDF700F8BDE8704053
:104C70000220FDF743B80000054BD3F8882042F42A
:104C80007002C3F888204FF000629A60704700BF3E
:104C900000ED00E008B50B4B1A6842F400721A6090
:104CA0001A6842F480621A601A6842F480721A60CC
:104CB000032000F02FF80020FDF714FBFDF7A8F803
:104CC000002008BD003C0240034A044B11681B78D9
:104CD0000B441360704700BF64550020780000202B
:104CE000014B1868704700BF6455002038B5044672
:104CF000FFF7F6FF631C1CBF054B1B78054618BF6A
:104D0000E418FFF7EDFF431BA342FAD338BD00BF01
:104D1000780000200749CA6822F4E0620302120406
:104D200003F4E063120C134343F0BF6343F4003316
:104D3000CB60704700ED00E0164B30B5DC68C4F383
:104D40000224C4F10703251D042B28BF0423062DCC
:104D50004FF0FF358CBF033C002405FA03F321EA32
:104D60000303A54022EA0502A340002843EA020308
:104D7000ACBF00F16040084A4FEA0313B8BF00F02F
:104D80000F00DBB2AABF00F56140135480F8003376
:104D900030BD00BF00ED00E014ED00E0002807DBAF
:104DA000044A4109012300F01F00834042F82130EA
:104DB000704700BF00E100E010B5044650B14379F0
:104DC00003F0FF0213B90271FDF742F8012363718A
:104DD000002010BD0120FCE710B5044620B390F878
:104DE000393003F0FF021BB980F83820FDF748F88E
:104DF000022384F83930236861681A6822F440324B
:104E00000A431A605A6BA16822F007020A435A63E8
:104E10001A6CE1686FF30D020A431A640020012343
:104E2000E06384F8393010BD0120FCE7704770471B
:104E3000036870B55E681D68F207044614D5E9057D
:104E400012D51A6822F480721A60C26B42F0010215
:104E5000C26301229A60042380F83930002380F86D
:104E60003830436903B19847B20616D5AB0414D560
:104E700023681A6822F400521A6020229A60E36BB9
:104E800043F00203E363042384F83930002384F8F9
:104E9000383063690BB120469847300716D529058D
:104EA00014D523681A6822F400621A6008229A60F6
:104EB000E36B43F00403E363042384F839300023F5
:104EC00084F8383063690BB12046984772070BD5D8
:104ED0006B0509D523681A6822F480621A600422DF
:104EE0009A602046FFF7A2FFB00714D5A90512D596
:104EF00023681A6822F400721A6002229A60E36B37
:104F0000E363012384F83930002384F838302369BF
:104F10000BB120469847F20613D5EB0411D5236850
:104F20001A6822F480521A6010229A60E36BE363DD
:104F3000012384F83930002384F838302046FFF705
:104F400076FF70BDF0B590F83820012A03464FF087
:104F500002002BD0012283F8382083F8390003EBBC
:104F60000112D2E90740556A174F44EA0040093C54
:104F7000012C9CBF05F07F4210434FEA01161A68CE
:104F800088BF40EA056091B9516A394001435162D6
:104F9000012C9969916103D8596A21F07F4191628E
:104FA0000122002083F8392083F83800F0BDD16950
:104FB00039400143D1619919012C896911619CBF64
:104FC00025F07F451562EBE7F0FFFC00094910B5BD
:104FD0000C6924F440740C610C6944F440740C6155
:104FE0000C6944F001040C610260BFF36F8F4360F1
:104FF00010BD00BF003C0240074B1A6922F440720A
:105000001A611A6942F400721A611A6942F00102C7
:105010001A610160704700BF003C0240074B1A69EB
:1050200022F440721A611A6942F480721A611A6994
:1050300042F001021A610180704700BF003C02404B
:10504000204BDA68D00606D51F49CA6942F0100223
:10505000CA611022DA60DA68910606D51A49CA696F
:1050600042F00802CA612022DA60164BDA68520662
:1050700006D51549CA6942F00402CA614022DA60C5
:10508000DA68100606D51049CA6942F00202CA6100
:105090008022DA600B4BDA68D10507D50A49CA6964
:1050A00042F00102CA614FF48072DA60DA68920756
:1050B00006D50549CA6942F02002CA610222DA60B7
:1050C000704700BF003C024068550020064B1A693B
:1050D000002ABFBF054A5A6002F188325A60BABF3F
:1050E0001869C00F00207047003C0240230167454B
:1050F000034A136943F0004313610020704700BF67
:10510000003C0240114B70B500220446DA61FFF703
:10511000E7FD0F4D0646EB68DA030CD4EB68DB07BE
:1051200044BF0123EB60E86810F4F97007D0FFF783
:1051300087FF012003E0611CEDD00CB9032070BD96
:10514000FFF7CEFD801BA042E5D9F7E768550020A8
:10515000003C02402DE9F0411F4E9846337E012B62
:1051600007460D46144635D001234CF250303376B5
:10517000FFF7C8FFB0B9CFB9184B1A6922F44072D3
:105180001A611A691A611A69E4B242F001021A61DD
:105190002C704CF25030FFF7B5FF104A136923F022
:1051A0000103136100233376BDE8F081012F04D1A0
:1051B000A1B22846FFF732FFEBE7022F04D12146C8
:1051C0002846FFF719FFE4E7224643462846FFF743
:1051D000FDFEDEE70220E7E768550020003C0240C4
:1051E0000C4B1A6922F440721A6103291A690BD117
:1051F00042F4004242F004021A611A6942EA0020B5
:1052000040F48030186170470129F3D042F4004225
:10521000F2E700BF003C02400F4B1A6922F44072D3
:105220001A611A69022994BF09024FF440710A43B6
:105230001A611A6922F0F8021A611A690B2888BFEC
:10524000043042EAC00242F002021A611A6942F4D2
:1052500080321A61704700BF003C0240144B1A684C
:1052600091050FD51A6822F400721A601A6842F488
:1052700000621A601A6822F400621A601A6842F426
:1052800000721A600A4B1A6852050FD51A6822F488
:1052900080621A601A6842F480521A601A6822F416
:1052A00080521A601A6842F480621A60704700BF28
:1052B000003C02402DE9F843DFF89C8098F8183054
:1052C000012B05460F4642D001234CF2503088F89E
:1052D0001830FFF717FF0446B8B94FF0FF333B60B3
:1052E0002B68012B17D16968287CFFF779FF4CF2F6
:1052F0005030FFF707FF174A136923F4004323F0E8
:10530000040304461361FFF7A9FF002388F818304F
:105310002046BDE8F883AE68DFF83890D5E902236F
:105320001344B342EFD9297C3046FFF775FF4CF2A6
:105330005030FFF7E7FED9F8103023F0FA03C9F830
:10534000103010B13E600446DDE70136E6E7022486
:10535000DEE700BF003C0240685500202DE9F74F12
:10536000DFF8BC916C4A00230D6801249C4004EADC
:105370000506AC4340F0B7804D68032705F00304F1
:105380004FEA430807FA08FC671E012F6FEA0C0C6E
:1053900034D8876807EA0C0ECF6807FA08F747EA9F
:1053A0000E078760476827EA060EC5F300179F407F
:1053B00047EA0E074760C76807EA0C0E8F6807FACE
:1053C00008F747EA0E07022CC76019D14FEAD30A43
:1053D00000EB8A0A03F0070BDAF820704FEA8B0B18
:1053E0004FF00F0E0EFA0BFE27EA0E0E0F6907FAAA
:1053F0000BF747EA0E07CAF8207001E0032CDAD158
:10540000076804FA08F407EA0C073C4315F4403F28
:10541000046068D000240194D9F8444044F48044E6
:10542000C9F84440D9F8444023F0030707F1804706
:1054300004F4804407F59C37019403F0030C019CAD
:10544000D7F808E04FEA8C0C0F2404FA0CF42EEA8B
:10545000040E324CA0424DD004F58064A0424BD0E3
:1054600004F58064A04249D004F58064A04247D08E
:1054700004F58064A04245D004F58064A04243D086
:1054800004F58064A04241D004F58064A0423FD07E
:1054900004F58064A0423DD004F58064A04214BFAE
:1054A0000A24092404FA0CF444EA0E04BC6094684B
:1054B000F74315F4801F0CBF3C4034439460D4681C
:1054C00015F4001F0CBF3C403443D460546815F4FD
:1054D000003F0CBF3C40344354601468ED0354BF9C
:1054E0003C40344314600133102B7FF43DAF03B0D4
:1054F000BDE8F08F0024D5E70124D3E70224D1E7EB
:105500000324CFE70424CDE70524CBE70624C9E72D
:105510000724C7E70824C5E7003C0140000002401B
:10552000003802400369194214BF0120002070476F
:105530000AB1816170470904FBE7436901EA03028C
:1055400021EA030141EA024181617047704700008E
:10555000044A5169014208B502D05061FFF7F6FFD5
:1055600008BD00BF003C014001684B6913F4806333
:105570004FF0000210D06FF480634B612023026370
:1055800080F83D3080F83E20036C80F83C2043F0EA
:105590000403036401207047184670472DE9F8465C
:1055A00006460F4691461D464FEA114A3368BAF146
:1055B000010F0CBF5C699C6927EA0404A4B2B4FA29
:1055C00084F46409A14501D0002025E06A1CEED0D6
:1055D000FFF786FB089BC01AA84201D8002DE5D131
:1055E0003368BAF1010F0CBF5B699B6927EA0303BB
:1055F0009BB2B3FA83F35B099945D7D100232022EC
:10560000336386F83D2086F83E30326C86F83C30B5
:1056100042F0200232640120BDE8F8862DE9F04115
:1056200004460F46164698462568686927EA000032
:1056300080B2C0B16B695A0517D52B6843F400736B
:105640002B606FF480636B6120220023236384F856
:105650003D2084F83E30236C43F004032364002390
:1056600084F83C300120BDE8F081731CDDD0FFF7E9
:1056700037FBA0EB0800B04201D8002ED4D123683C
:105680005A6927EA020292B2002ACDD000232022D2
:10569000236384F83D2084F83E30236C1343DDE718
:1056A00070B504460D46164623685B691B0601D596
:1056B00000201EE02046FFF757FFC8B96A1CF3D050
:1056C000FFF70EFB801BA84201D8002DECD1236808
:1056D0005B6913F08003E7D12022236384F83D2027
:1056E00084F83E30226C84F83C3042F02002226480
:1056F000012070BD2DE9F0431546026885B0DDE953
:105700000C789946136843F4807313600E463B4649
:10571000CDF8008000224FF001110446FFF73EFF54
:10572000236838B11B68DB0502D54FF4007323648E
:10573000032620E006F0FE061E611A4943463A465B
:105740002046FFF76BFFA8B9236803905A690392BC
:105750009B690393424639462046039BFFF7A0FF0F
:10576000064660B1236C042B01BF2268136843F422
:10577000007313600126304605B0BDE8F083B9F12F
:10578000010F236802D1EDB21D61F4E72A0A1A6104
:10579000394642462046FFF783FF0028E2D12368BE
:1057A000F1E700BF020001002DE9FF479A460368B8
:1057B00015461A6842F480621A601A68DDE90C78AE
:1057C00042F480721A600E463B46CDF800800022FB
:1057D0004FF001110446FFF7E1FE236838B11B6862
:1057E000DB0544BF4FF400732364032021E05FFA1C
:1057F00086F906F0FE061E612B4943463A462046CE
:10580000FFF70CFFA0B9236803905A6903929B69C4
:105810000393424639462046039BFFF741FF58B1A8
:10582000236C042B01BF2268136843F400731360D8
:10583000012004B0BDE8F087BAF1010F23681AD146
:10584000EDB242461D6139462046FFF729FF024668
:105850000028E5D121680B6843F480730B60204673
:10586000CDF800803B464FF00111FFF797FE22680C
:1058700060B11368B4E72A0A1A61394642462046E5
:10588000FFF70EFF0028CBD12368D9E749F00103C9
:105890001361054943463A462046FFF7BFFE0038EC
:1058A00018BF0120C5E700BF0200010070B5044623
:1058B0000D46164623685B695B0701D500201EE094
:1058C0002046FFF751FEC8B96A1CF3D0FFF708FA6B
:1058D000801BA84201D8002DECD123685B6913F02E
:1058E0000403E7D12022236384F83D2084F83E306E
:1058F000226C84F83C3042F020022264012070BD0A
:1059000070B504460D46164621684B6913F04003F6
:1059100001D0002011E04A69D2060FD56FF01002C5
:105920004A612022236384F83D2084F83E30236CB2
:105930002364002384F83C30012070BDFFF7D0F9C8
:10594000801BA84201D8002DDED123685B6913F0CB
:105950004003D9D12022236384F83D2084F83E30CF
:10596000236C1343E4E7000070B5044608B9012036
:1059700070BD90F83D3003F0FF021BB980F83C2069
:10598000FCF7A0FA242384F83D3023681A6822F03B
:1059900001021A601A6842F400421A601A6822F47E
:1059A00000421A6000F08AFE3F4B65689D4294BF3A
:1059B0003E4B3F4B98428CBF00230123002BD6D196
:1059C0002268394E51683B4BB0FBF3F321F03F01A5
:1059D0001943B542516088BF4FF49676116A88BF6B
:1059E000734321F03F0184BF4FF47A76B3FBF6F3A3
:1059F00001330B431362D169431E2B4821F44F41FD
:105A0000854221F0FF0132D86D0040F6FC70B3FBF7
:105A1000F5F30133034242D0C3F30B031943D161C1
:105A2000D4E907301168034321F0C0010B43136030
:105A30009168D4E9030321F40341034321F0FF01FA
:105A40000B439360D4E90530D168034321F0FF0193
:105A50000B43D360136843F001031360002020233D
:105A6000206484F83D30206384F83E0080E7A0681D
:105A700050B905EB4505B3FBF5F30133C3F30B0355
:105A80007BB143F40043C9E719206843B3FBF0F34B
:105A90000133C3F30B0323B143F44043BEE70423B4
:105AA000BCE70123BAE700BFA08601007F841E0087
:105AB000FF083D0040420F002DE9F7430446994698
:105AC0000C9E0F469046FFF70BF994F83D30202BC3
:105AD000054603D0022003B0BDE8F08300903C49A6
